{
	"contracts/UniversalTokenContract.sol": {
		"UTC": {
			"abi": [
				{
					"inputs": [
						{
							"internalType": "address",
							"name": "token",
							"type": "address"
						},
						{
							"internalType": "uint256",
							"name": "amount",
							"type": "uint256"
						}
					],
					"name": "ERC20TransferFailed",
					"type": "error"
				},
				{
					"inputs": [
						{
							"internalType": "address",
							"name": "owner",
							"type": "address"
						},
						{
							"internalType": "uint256",
							"name": "id",
							"type": "uint256"
						}
					],
					"name": "InsufficientBalance",
					"type": "error"
				},
				{
					"inputs": [
						{
							"internalType": "address",
							"name": "spender",
							"type": "address"
						},
						{
							"internalType": "uint256",
							"name": "id",
							"type": "uint256"
						}
					],
					"name": "InsufficientPermission",
					"type": "error"
				},
				{
					"anonymous": false,
					"inputs": [
						{
							"indexed": true,
							"internalType": "address",
							"name": "owner",
							"type": "address"
						},
						{
							"indexed": true,
							"internalType": "address",
							"name": "spender",
							"type": "address"
						},
						{
							"indexed": true,
							"internalType": "uint256",
							"name": "id",
							"type": "uint256"
						},
						{
							"indexed": false,
							"internalType": "uint256",
							"name": "amount",
							"type": "uint256"
						}
					],
					"name": "Approval",
					"type": "event"
				},
				{
					"anonymous": false,
					"inputs": [
						{
							"indexed": true,
							"internalType": "address",
							"name": "token",
							"type": "address"
						},
						{
							"indexed": true,
							"internalType": "uint256",
							"name": "assetTip",
							"type": "uint256"
						}
					],
					"name": "ERC1155Registered",
					"type": "event"
				},
				{
					"anonymous": false,
					"inputs": [
						{
							"indexed": true,
							"internalType": "address",
							"name": "token",
							"type": "address"
						},
						{
							"indexed": true,
							"internalType": "uint256",
							"name": "assetId",
							"type": "uint256"
						}
					],
					"name": "ERC20Registered",
					"type": "event"
				},
				{
					"anonymous": false,
					"inputs": [
						{
							"indexed": true,
							"internalType": "address",
							"name": "token",
							"type": "address"
						},
						{
							"indexed": true,
							"internalType": "uint256",
							"name": "assetTip",
							"type": "uint256"
						}
					],
					"name": "ERC721Registered",
					"type": "event"
				},
				{
					"anonymous": false,
					"inputs": [
						{
							"indexed": true,
							"internalType": "string",
							"name": "name",
							"type": "string"
						},
						{
							"indexed": true,
							"internalType": "string",
							"name": "symbol",
							"type": "string"
						},
						{
							"indexed": true,
							"internalType": "uint256",
							"name": "assetTip",
							"type": "uint256"
						},
						{
							"indexed": false,
							"internalType": "uint256",
							"name": "totalSupply",
							"type": "uint256"
						}
					],
					"name": "FungibleAssetCreated",
					"type": "event"
				},
				{
					"anonymous": false,
					"inputs": [
						{
							"indexed": true,
							"internalType": "string",
							"name": "name",
							"type": "string"
						},
						{
							"indexed": true,
							"internalType": "string",
							"name": "symbol",
							"type": "string"
						},
						{
							"indexed": true,
							"internalType": "uint256",
							"name": "assetTip",
							"type": "uint256"
						},
						{
							"indexed": false,
							"internalType": "uint256",
							"name": "totalSupply",
							"type": "uint256"
						}
					],
					"name": "NonFungibleAssetCreated",
					"type": "event"
				},
				{
					"anonymous": false,
					"inputs": [
						{
							"indexed": true,
							"internalType": "uint256",
							"name": "assetTip",
							"type": "uint256"
						},
						{
							"indexed": true,
							"internalType": "uint256",
							"name": "assetId",
							"type": "uint256"
						}
					],
					"name": "NonFungibleAssetMinted",
					"type": "event"
				},
				{
					"anonymous": false,
					"inputs": [
						{
							"indexed": true,
							"internalType": "address",
							"name": "owner",
							"type": "address"
						},
						{
							"indexed": true,
							"internalType": "address",
							"name": "spender",
							"type": "address"
						},
						{
							"indexed": false,
							"internalType": "bool",
							"name": "approved",
							"type": "bool"
						}
					],
					"name": "OperatorSet",
					"type": "event"
				},
				{
					"anonymous": false,
					"inputs": [
						{
							"indexed": true,
							"internalType": "address",
							"name": "sender",
							"type": "address"
						},
						{
							"indexed": true,
							"internalType": "address",
							"name": "receiver",
							"type": "address"
						},
						{
							"indexed": true,
							"internalType": "uint256",
							"name": "id",
							"type": "uint256"
						},
						{
							"indexed": false,
							"internalType": "uint256",
							"name": "amount",
							"type": "uint256"
						}
					],
					"name": "Transfer",
					"type": "event"
				},
				{
					"inputs": [
						{
							"internalType": "address",
							"name": "owner",
							"type": "address"
						},
						{
							"internalType": "address",
							"name": "spender",
							"type": "address"
						},
						{
							"internalType": "uint256",
							"name": "id",
							"type": "uint256"
						}
					],
					"name": "allowance",
					"outputs": [
						{
							"internalType": "uint256",
							"name": "amount",
							"type": "uint256"
						}
					],
					"stateMutability": "view",
					"type": "function"
				},
				{
					"inputs": [
						{
							"internalType": "address",
							"name": "spender",
							"type": "address"
						},
						{
							"internalType": "uint256",
							"name": "id",
							"type": "uint256"
						},
						{
							"internalType": "uint256",
							"name": "amount",
							"type": "uint256"
						}
					],
					"name": "approve",
					"outputs": [],
					"stateMutability": "nonpayable",
					"type": "function"
				},
				{
					"inputs": [
						{
							"internalType": "uint256",
							"name": "assetTip",
							"type": "uint256"
						}
					],
					"name": "assetMetadatas",
					"outputs": [
						{
							"internalType": "string",
							"name": "name",
							"type": "string"
						},
						{
							"internalType": "string",
							"name": "symbol",
							"type": "string"
						},
						{
							"internalType": "enum AssetType",
							"name": "assetType",
							"type": "uint8"
						}
					],
					"stateMutability": "view",
					"type": "function"
				},
				{
					"inputs": [
						{
							"internalType": "address",
							"name": "owner",
							"type": "address"
						},
						{
							"internalType": "uint256",
							"name": "id",
							"type": "uint256"
						}
					],
					"name": "balanceOf",
					"outputs": [
						{
							"internalType": "uint256",
							"name": "amount",
							"type": "uint256"
						}
					],
					"stateMutability": "view",
					"type": "function"
				},
				{
					"inputs": [
						{
							"internalType": "string",
							"name": "name",
							"type": "string"
						},
						{
							"internalType": "string",
							"name": "symbol",
							"type": "string"
						},
						{
							"internalType": "uint256",
							"name": "ts",
							"type": "uint256"
						},
						{
							"internalType": "address",
							"name": "mintTo",
							"type": "address"
						}
					],
					"name": "createFungibleAsset",
					"outputs": [],
					"stateMutability": "nonpayable",
					"type": "function"
				},
				{
					"inputs": [
						{
							"internalType": "string",
							"name": "name",
							"type": "string"
						},
						{
							"internalType": "string",
							"name": "symbol",
							"type": "string"
						},
						{
							"internalType": "uint256",
							"name": "ts",
							"type": "uint256"
						}
					],
					"name": "createNonFungibleAsset",
					"outputs": [],
					"stateMutability": "nonpayable",
					"type": "function"
				},
				{
					"inputs": [
						{
							"internalType": "uint256",
							"name": "assetTip",
							"type": "uint256"
						}
					],
					"name": "creatorOf",
					"outputs": [
						{
							"internalType": "address",
							"name": "creator",
							"type": "address"
						}
					],
					"stateMutability": "view",
					"type": "function"
				},
				{
					"inputs": [
						{
							"internalType": "address",
							"name": "token",
							"type": "address"
						},
						{
							"internalType": "uint256",
							"name": "originalTokenId",
							"type": "uint256"
						},
						{
							"internalType": "bool",
							"name": "isFungible",
							"type": "bool"
						}
					],
					"name": "getWrappedAssetId",
					"outputs": [
						{
							"internalType": "uint256",
							"name": "assetId",
							"type": "uint256"
						}
					],
					"stateMutability": "pure",
					"type": "function"
				},
				{
					"inputs": [
						{
							"internalType": "address",
							"name": "owner",
							"type": "address"
						},
						{
							"internalType": "address",
							"name": "spender",
							"type": "address"
						}
					],
					"name": "isOperator",
					"outputs": [
						{
							"internalType": "bool",
							"name": "",
							"type": "bool"
						}
					],
					"stateMutability": "view",
					"type": "function"
				},
				{
					"inputs": [
						{
							"internalType": "uint256",
							"name": "assetTip",
							"type": "uint256"
						},
						{
							"internalType": "uint256",
							"name": "tokenId",
							"type": "uint256"
						},
						{
							"internalType": "string",
							"name": "tokenURI_",
							"type": "string"
						},
						{
							"internalType": "address",
							"name": "to",
							"type": "address"
						}
					],
					"name": "mintNonFungibleAsset",
					"outputs": [],
					"stateMutability": "nonpayable",
					"type": "function"
				},
				{
					"inputs": [],
					"name": "nextTip",
					"outputs": [
						{
							"internalType": "uint256",
							"name": "",
							"type": "uint256"
						}
					],
					"stateMutability": "view",
					"type": "function"
				},
				{
					"inputs": [
						{
							"internalType": "uint256",
							"name": "assetId",
							"type": "uint256"
						}
					],
					"name": "ownerOf",
					"outputs": [
						{
							"internalType": "address",
							"name": "owner",
							"type": "address"
						}
					],
					"stateMutability": "view",
					"type": "function"
				},
				{
					"inputs": [
						{
							"internalType": "address",
							"name": "token",
							"type": "address"
						},
						{
							"internalType": "uint256",
							"name": "originalTokenId",
							"type": "uint256"
						}
					],
					"name": "registerERC1155",
					"outputs": [],
					"stateMutability": "nonpayable",
					"type": "function"
				},
				{
					"inputs": [
						{
							"internalType": "address",
							"name": "token",
							"type": "address"
						}
					],
					"name": "registerERC20",
					"outputs": [],
					"stateMutability": "nonpayable",
					"type": "function"
				},
				{
					"inputs": [
						{
							"internalType": "address",
							"name": "token",
							"type": "address"
						},
						{
							"internalType": "uint256",
							"name": "originalTokenId",
							"type": "uint256"
						}
					],
					"name": "registerERC721",
					"outputs": [],
					"stateMutability": "nonpayable",
					"type": "function"
				},
				{
					"inputs": [
						{
							"internalType": "address",
							"name": "spender",
							"type": "address"
						},
						{
							"internalType": "bool",
							"name": "approved",
							"type": "bool"
						}
					],
					"name": "setOperator",
					"outputs": [],
					"stateMutability": "nonpayable",
					"type": "function"
				},
				{
					"inputs": [
						{
							"internalType": "bytes4",
							"name": "interfaceId",
							"type": "bytes4"
						}
					],
					"name": "supportsInterface",
					"outputs": [
						{
							"internalType": "bool",
							"name": "supported",
							"type": "bool"
						}
					],
					"stateMutability": "pure",
					"type": "function"
				},
				{
					"inputs": [
						{
							"internalType": "uint256",
							"name": "assetId",
							"type": "uint256"
						}
					],
					"name": "tokenURI",
					"outputs": [
						{
							"internalType": "string",
							"name": "tokenURI",
							"type": "string"
						}
					],
					"stateMutability": "view",
					"type": "function"
				},
				{
					"inputs": [
						{
							"internalType": "uint256",
							"name": "id",
							"type": "uint256"
						}
					],
					"name": "totalSupply",
					"outputs": [
						{
							"internalType": "uint256",
							"name": "amount",
							"type": "uint256"
						}
					],
					"stateMutability": "view",
					"type": "function"
				},
				{
					"inputs": [
						{
							"internalType": "address",
							"name": "receiver",
							"type": "address"
						},
						{
							"internalType": "uint256",
							"name": "id",
							"type": "uint256"
						},
						{
							"internalType": "uint256",
							"name": "amount",
							"type": "uint256"
						}
					],
					"name": "transfer",
					"outputs": [],
					"stateMutability": "nonpayable",
					"type": "function"
				},
				{
					"inputs": [
						{
							"internalType": "address",
							"name": "sender",
							"type": "address"
						},
						{
							"internalType": "address",
							"name": "receiver",
							"type": "address"
						},
						{
							"internalType": "uint256",
							"name": "id",
							"type": "uint256"
						},
						{
							"internalType": "uint256",
							"name": "amount",
							"type": "uint256"
						}
					],
					"name": "transferFrom",
					"outputs": [],
					"stateMutability": "nonpayable",
					"type": "function"
				},
				{
					"inputs": [
						{
							"internalType": "address",
							"name": "token",
							"type": "address"
						},
						{
							"internalType": "uint256",
							"name": "originalTokenId",
							"type": "uint256"
						},
						{
							"internalType": "uint256",
							"name": "amount",
							"type": "uint256"
						}
					],
					"name": "wrapERC1155",
					"outputs": [],
					"stateMutability": "nonpayable",
					"type": "function"
				},
				{
					"inputs": [
						{
							"internalType": "address",
							"name": "token",
							"type": "address"
						},
						{
							"internalType": "uint256",
							"name": "amount",
							"type": "uint256"
						}
					],
					"name": "wrapERC20",
					"outputs": [],
					"stateMutability": "nonpayable",
					"type": "function"
				},
				{
					"inputs": [
						{
							"internalType": "address",
							"name": "token",
							"type": "address"
						},
						{
							"internalType": "uint256",
							"name": "originalTokenId",
							"type": "uint256"
						}
					],
					"name": "wrapERC721",
					"outputs": [],
					"stateMutability": "nonpayable",
					"type": "function"
				},
				{
					"inputs": [
						{
							"internalType": "uint256",
							"name": "assetId",
							"type": "uint256"
						}
					],
					"name": "wrapperRegistry",
					"outputs": [
						{
							"internalType": "bool",
							"name": "canWrap",
							"type": "bool"
						}
					],
					"stateMutability": "view",
					"type": "function"
				}
			],
			"devdoc": {
				"errors": {
					"InsufficientBalance(address,uint256)": [
						{
							"details": "Thrown when owner balance for id is insufficient.",
							"params": {
								"id": "The id of the token.",
								"owner": "The address of the owner."
							}
						}
					],
					"InsufficientPermission(address,uint256)": [
						{
							"details": "Thrown when spender allowance for id is insufficient.",
							"params": {
								"id": "The id of the token.",
								"spender": "The address of the spender."
							}
						}
					]
				},
				"events": {
					"Approval(address,address,uint256,uint256)": {
						"params": {
							"amount": "The amount of the token.",
							"id": "The id of the token.",
							"owner": "The address of the owner.",
							"spender": "The address of the spender."
						}
					},
					"OperatorSet(address,address,bool)": {
						"params": {
							"approved": "The approval status.",
							"owner": "The address of the owner.",
							"spender": "The address of the spender."
						}
					},
					"Transfer(address,address,uint256,uint256)": {
						"params": {
							"amount": "The amount of the token.",
							"id": "The id of the token.",
							"receiver": "The address of the receiver.",
							"sender": "The address of the sender."
						}
					}
				},
				"kind": "dev",
				"methods": {
					"approve(address,uint256,uint256)": {
						"params": {
							"amount": "The amount of the token.",
							"id": "The id of the token.",
							"spender": "The address of the spender."
						}
					},
					"createFungibleAsset(string,string,uint256,address)": {
						"params": {
							"mintTo": "the proposed account to hold token supply.",
							"name": "The name of the asset.",
							"symbol": "The token symbol.",
							"ts": "the proposed total supply of the token."
						}
					},
					"createNonFungibleAsset(string,string,uint256)": {
						"params": {
							"name": "The name of the asset.",
							"symbol": "The token symbol.",
							"ts": "the proposed total supply of the token."
						}
					},
					"getWrappedAssetId(address,uint256,bool)": {
						"params": {
							"originalTokenId": "The token id. if fungible, the passed value will be ignored",
							"token": "The token contract."
						}
					},
					"mintNonFungibleAsset(uint256,uint256,string,address)": {
						"params": {
							"assetTip": "The NFT asset identifier.",
							"to": "The recipient account.",
							"tokenId": "The NFT to be minted.",
							"tokenURI_": "The token URI for metadata."
						}
					},
					"registerERC1155(address,uint256)": {
						"params": {
							"originalTokenId": "The NFT id.",
							"token": "The NFT contract."
						}
					},
					"registerERC20(address)": {
						"params": {
							"token": "The NFT contract."
						}
					},
					"registerERC721(address,uint256)": {
						"params": {
							"originalTokenId": "The NFT id.",
							"token": "The NFT contract."
						}
					},
					"setOperator(address,bool)": {
						"params": {
							"approved": "The approval status.",
							"spender": "The address of the spender."
						}
					},
					"supportsInterface(bytes4)": {
						"params": {
							"interfaceId": "The interface identifier, as specified in ERC-165."
						},
						"returns": {
							"supported": "True if the contract implements `interfaceId` and"
						}
					},
					"transfer(address,uint256,uint256)": {
						"params": {
							"amount": "The amount of the token.",
							"id": "The id of the token.",
							"receiver": "The address of the receiver."
						}
					},
					"transferFrom(address,address,uint256,uint256)": {
						"params": {
							"amount": "The amount of the token.",
							"id": "The id of the token.",
							"receiver": "The address of the receiver.",
							"sender": "The address of the sender."
						}
					},
					"wrapERC1155(address,uint256,uint256)": {
						"params": {
							"originalTokenId": "The NFT id to be wrapped from the contract.",
							"token": "The NFT contract."
						}
					},
					"wrapERC20(address,uint256)": {
						"params": {
							"amount": "The amount of tokens to be wrapped",
							"token": "The NFT contract."
						}
					},
					"wrapERC721(address,uint256)": {
						"params": {
							"originalTokenId": "The NFT id to be wrapped from the contract.",
							"token": "The NFT contract."
						}
					}
				},
				"version": 1
			},
			"evm": {
				"assembly": "    /* \"contracts/UniversalTokenContract.sol\":584:8141  contract UTC is ERC6909 {... */\n  mstore(0x40, 0x80)\n  callvalue\n  dup1\n  iszero\n  tag_1\n  jumpi\n  0x00\n  dup1\n  revert\ntag_1:\n  pop\n  dataSize(sub_0)\n  dup1\n  dataOffset(sub_0)\n  0x00\n  codecopy\n  0x00\n  return\nstop\n\nsub_0: assembly {\n        /* \"contracts/UniversalTokenContract.sol\":584:8141  contract UTC is ERC6909 {... */\n      mstore(0x40, 0x80)\n      callvalue\n      dup1\n      iszero\n      tag_1\n      jumpi\n      0x00\n      dup1\n      revert\n    tag_1:\n      pop\n      jumpi(tag_2, lt(calldatasize, 0x04))\n      shr(0xe0, calldataload(0x00))\n      dup1\n      0x598af9e7\n      gt\n      tag_28\n      jumpi\n      dup1\n      0x91664428\n      gt\n      tag_29\n      jumpi\n      dup1\n      0xb6363cf2\n      gt\n      tag_30\n      jumpi\n      dup1\n      0xb6363cf2\n      eq\n      tag_24\n      jumpi\n      dup1\n      0xbd85b039\n      eq\n      tag_25\n      jumpi\n      dup1\n      0xc87b56dd\n      eq\n      tag_26\n      jumpi\n      dup1\n      0xfe99049a\n      eq\n      tag_27\n      jumpi\n      jump(tag_2)\n    tag_30:\n      dup1\n      0x91664428\n      eq\n      tag_21\n      jumpi\n      dup1\n      0x94548dae\n      eq\n      tag_22\n      jumpi\n      dup1\n      0xb4e6e1be\n      eq\n      tag_23\n      jumpi\n      jump(tag_2)\n    tag_29:\n      dup1\n      0x598af9e7\n      eq\n      tag_15\n      jumpi\n      dup1\n      0x6352211e\n      eq\n      tag_16\n      jumpi\n      dup1\n      0x743cdd25\n      eq\n      tag_17\n      jumpi\n      dup1\n      0x77cb24ee\n      eq\n      tag_18\n      jumpi\n      dup1\n      0x7e3075cf\n      eq\n      tag_19\n      jumpi\n      dup1\n      0x842fe0f6\n      eq\n      tag_20\n      jumpi\n      jump(tag_2)\n    tag_28:\n      dup1\n      0x2fc170bb\n      gt\n      tag_31\n      jumpi\n      dup1\n      0x2fc170bb\n      eq\n      tag_9\n      jumpi\n      dup1\n      0x3bb810c0\n      eq\n      tag_10\n      jumpi\n      dup1\n      0x3bdfa8ac\n      eq\n      tag_11\n      jumpi\n      dup1\n      0x426a8493\n      eq\n      tag_12\n      jumpi\n      dup1\n      0x558a7297\n      eq\n      tag_13\n      jumpi\n      dup1\n      0x589a1743\n      eq\n      tag_14\n      jumpi\n      jump(tag_2)\n    tag_31:\n      dup1\n      0xfdd58e\n      eq\n      tag_3\n      jumpi\n      dup1\n      0x01ffc9a7\n      eq\n      tag_4\n      jumpi\n      dup1\n      0x09266836\n      eq\n      tag_5\n      jumpi\n      dup1\n      0x095bcdb6\n      eq\n      tag_6\n      jumpi\n      dup1\n      0x12c017e2\n      eq\n      tag_7\n      jumpi\n      dup1\n      0x22d4e4ad\n      eq\n      tag_8\n      jumpi\n    tag_2:\n      0x00\n      dup1\n      revert\n        /* \"contracts/ERC6909.sol\":696:776  mapping(address owner => mapping(uint256 id => uint256 amount)) public balanceOf */\n    tag_3:\n      tag_32\n      0x04\n      dup1\n      calldatasize\n      sub\n      dup2\n      add\n      swap1\n      tag_33\n      swap2\n      swap1\n      tag_34\n      jump\t// in\n    tag_33:\n      tag_35\n      jump\t// in\n    tag_32:\n      mload(0x40)\n      tag_36\n      swap2\n      swap1\n      tag_37\n      jump\t// in\n    tag_36:\n      mload(0x40)\n      dup1\n      swap2\n      sub\n      swap1\n      return\n        /* \"contracts/ERC6909.sol\":3453:3646  function supportsInterface(bytes4 interfaceId) public pure returns (bool supported) {... */\n    tag_4:\n      tag_38\n      0x04\n      dup1\n      calldatasize\n      sub\n      dup2\n      add\n      swap1\n      tag_39\n      swap2\n      swap1\n      tag_40\n      jump\t// in\n    tag_39:\n      tag_41\n      jump\t// in\n    tag_38:\n      mload(0x40)\n      tag_42\n      swap2\n      swap1\n      tag_43\n      jump\t// in\n    tag_42:\n      mload(0x40)\n      dup1\n      swap2\n      sub\n      swap1\n      return\n        /* \"contracts/UniversalTokenContract.sol\":1514:1574  mapping(uint assetId => bool canWrap) public wrapperRegistry */\n    tag_5:\n      tag_44\n      0x04\n      dup1\n      calldatasize\n      sub\n      dup2\n      add\n      swap1\n      tag_45\n      swap2\n      swap1\n      tag_46\n      jump\t// in\n    tag_45:\n      tag_47\n      jump\t// in\n    tag_44:\n      mload(0x40)\n      tag_48\n      swap2\n      swap1\n      tag_43\n      jump\t// in\n    tag_48:\n      mload(0x40)\n      dup1\n      swap2\n      sub\n      swap1\n      return\n        /* \"contracts/ERC6909.sol\":1316:1631  function transfer(address receiver, uint256 id, uint256 amount) public {... */\n    tag_6:\n      tag_49\n      0x04\n      dup1\n      calldatasize\n      sub\n      dup2\n      add\n      swap1\n      tag_50\n      swap2\n      swap1\n      tag_51\n      jump\t// in\n    tag_50:\n      tag_52\n      jump\t// in\n    tag_49:\n      stop\n        /* \"contracts/UniversalTokenContract.sol\":5432:6029  function wrapERC1155(address token, uint originalTokenId, uint amount) public {... */\n    tag_7:\n      tag_53\n      0x04\n      dup1\n      calldatasize\n      sub\n      dup2\n      add\n      swap1\n      tag_54\n      swap2\n      swap1\n      tag_51\n      jump\t// in\n    tag_54:\n      tag_55\n      jump\t// in\n    tag_53:\n      stop\n        /* \"contracts/UniversalTokenContract.sol\":1783:2204  function createNonFungibleAsset(string calldata name, string calldata symbol, uint ts) public {... */\n    tag_8:\n      tag_56\n      0x04\n      dup1\n      calldatasize\n      sub\n      dup2\n      add\n      swap1\n      tag_57\n      swap2\n      swap1\n      tag_58\n      jump\t// in\n    tag_57:\n      tag_59\n      jump\t// in\n    tag_56:\n      stop\n        /* \"contracts/UniversalTokenContract.sol\":2460:2925  function createFungibleAsset(string calldata name, string calldata symbol, uint ts, address mintTo) public {... */\n    tag_9:\n      tag_60\n      0x04\n      dup1\n      calldatasize\n      sub\n      dup2\n      add\n      swap1\n      tag_61\n      swap2\n      swap1\n      tag_62\n      jump\t// in\n    tag_61:\n      tag_63\n      jump\t// in\n    tag_60:\n      stop\n        /* \"contracts/UniversalTokenContract.sol\":3493:3683  function registerERC20(address token) public {... */\n    tag_10:\n      tag_64\n      0x04\n      dup1\n      calldatasize\n      sub\n      dup2\n      add\n      swap1\n      tag_65\n      swap2\n      swap1\n      tag_66\n      jump\t// in\n    tag_65:\n      tag_67\n      jump\t// in\n    tag_64:\n      stop\n        /* \"contracts/UniversalTokenContract.sol\":1247:1322  mapping(uint assetTip => AssetMetadata assetMetadata) public assetMetadatas */\n    tag_11:\n      tag_68\n      0x04\n      dup1\n      calldatasize\n      sub\n      dup2\n      add\n      swap1\n      tag_69\n      swap2\n      swap1\n      tag_46\n      jump\t// in\n    tag_69:\n      tag_70\n      jump\t// in\n    tag_68:\n      mload(0x40)\n      tag_71\n      swap4\n      swap3\n      swap2\n      swap1\n      tag_72\n      jump\t// in\n    tag_71:\n      mload(0x40)\n      dup1\n      swap2\n      sub\n      swap1\n      return\n        /* \"contracts/ERC6909.sol\":2696:2881  function approve(address spender, uint256 id, uint256 amount) public {... */\n    tag_12:\n      tag_73\n      0x04\n      dup1\n      calldatasize\n      sub\n      dup2\n      add\n      swap1\n      tag_74\n      swap2\n      swap1\n      tag_51\n      jump\t// in\n    tag_74:\n      tag_75\n      jump\t// in\n    tag_73:\n      stop\n        /* \"contracts/ERC6909.sol\":3055:3231  function setOperator(address spender, bool approved) public {... */\n    tag_13:\n      tag_76\n      0x04\n      dup1\n      calldatasize\n      sub\n      dup2\n      add\n      swap1\n      tag_77\n      swap2\n      swap1\n      tag_78\n      jump\t// in\n    tag_77:\n      tag_79\n      jump\t// in\n    tag_76:\n      stop\n        /* \"contracts/UniversalTokenContract.sol\":1390:1448  mapping(uint assetTip => address creator) public creatorOf */\n    tag_14:\n      tag_80\n      0x04\n      dup1\n      calldatasize\n      sub\n      dup2\n      add\n      swap1\n      tag_81\n      swap2\n      swap1\n      tag_46\n      jump\t// in\n    tag_81:\n      tag_82\n      jump\t// in\n    tag_80:\n      mload(0x40)\n      tag_83\n      swap2\n      swap1\n      tag_84\n      jump\t// in\n    tag_83:\n      mload(0x40)\n      dup1\n      swap2\n      sub\n      swap1\n      return\n        /* \"contracts/ERC6909.sol\":827:935  mapping(address owner => mapping(address spender => mapping(uint256 id => uint256 amount))) public allowance */\n    tag_15:\n      tag_85\n      0x04\n      dup1\n      calldatasize\n      sub\n      dup2\n      add\n      swap1\n      tag_86\n      swap2\n      swap1\n      tag_87\n      jump\t// in\n    tag_86:\n      tag_88\n      jump\t// in\n    tag_85:\n      mload(0x40)\n      tag_89\n      swap2\n      swap1\n      tag_37\n      jump\t// in\n    tag_89:\n      mload(0x40)\n      dup1\n      swap2\n      sub\n      swap1\n      return\n        /* \"contracts/UniversalTokenContract.sol\":1454:1507  mapping(uint assetId => address owner) public ownerOf */\n    tag_16:\n      tag_90\n      0x04\n      dup1\n      calldatasize\n      sub\n      dup2\n      add\n      swap1\n      tag_91\n      swap2\n      swap1\n      tag_46\n      jump\t// in\n    tag_91:\n      tag_92\n      jump\t// in\n    tag_90:\n      mload(0x40)\n      tag_93\n      swap2\n      swap1\n      tag_84\n      jump\t// in\n    tag_93:\n      mload(0x40)\n      dup1\n      swap2\n      sub\n      swap1\n      return\n        /* \"contracts/UniversalTokenContract.sol\":6920:7160  function getWrappedAssetId(address token, uint originalTokenId, bool isFungible) public pure returns(uint assetId) {... */\n    tag_17:\n      tag_94\n      0x04\n      dup1\n      calldatasize\n      sub\n      dup2\n      add\n      swap1\n      tag_95\n      swap2\n      swap1\n      tag_96\n      jump\t// in\n    tag_95:\n      tag_97\n      jump\t// in\n    tag_94:\n      mload(0x40)\n      tag_98\n      swap2\n      swap1\n      tag_37\n      jump\t// in\n    tag_98:\n      mload(0x40)\n      dup1\n      swap2\n      sub\n      swap1\n      return\n        /* \"contracts/UniversalTokenContract.sol\":4627:5272  function wrapERC721(address token, uint originalTokenId) public {... */\n    tag_18:\n      tag_99\n      0x04\n      dup1\n      calldatasize\n      sub\n      dup2\n      add\n      swap1\n      tag_100\n      swap2\n      swap1\n      tag_34\n      jump\t// in\n    tag_100:\n      tag_101\n      jump\t// in\n    tag_99:\n      stop\n        /* \"contracts/UniversalTokenContract.sol\":3218:3395  function mintNonFungibleAsset(uint assetTip, uint tokenId, string calldata tokenURI_, address to) public {... */\n    tag_19:\n      tag_102\n      0x04\n      dup1\n      calldatasize\n      sub\n      dup2\n      add\n      swap1\n      tag_103\n      swap2\n      swap1\n      tag_104\n      jump\t// in\n    tag_103:\n      tag_105\n      jump\t// in\n    tag_102:\n      stop\n        /* \"contracts/UniversalTokenContract.sol\":1222:1241  uint public nextTip */\n    tag_20:\n      tag_106\n      tag_107\n      jump\t// in\n    tag_106:\n      mload(0x40)\n      tag_108\n      swap2\n      swap1\n      tag_37\n      jump\t// in\n    tag_108:\n      mload(0x40)\n      dup1\n      swap2\n      sub\n      swap1\n      return\n        /* \"contracts/UniversalTokenContract.sol\":4214:4467  function registerERC1155(address token, uint originalTokenId) public {... */\n    tag_21:\n      tag_109\n      0x04\n      dup1\n      calldatasize\n      sub\n      dup2\n      add\n      swap1\n      tag_110\n      swap2\n      swap1\n      tag_34\n      jump\t// in\n    tag_110:\n      tag_111\n      jump\t// in\n    tag_109:\n      stop\n        /* \"contracts/UniversalTokenContract.sol\":6169:6703  function wrapERC20(address token, uint amount) public {... */\n    tag_22:\n      tag_112\n      0x04\n      dup1\n      calldatasize\n      sub\n      dup2\n      add\n      swap1\n      tag_113\n      swap2\n      swap1\n      tag_34\n      jump\t// in\n    tag_113:\n      tag_114\n      jump\t// in\n    tag_112:\n      stop\n        /* \"contracts/UniversalTokenContract.sol\":3823:4074  function registerERC721(address token, uint originalTokenId) public {... */\n    tag_23:\n      tag_115\n      0x04\n      dup1\n      calldatasize\n      sub\n      dup2\n      add\n      swap1\n      tag_116\n      swap2\n      swap1\n      tag_34\n      jump\t// in\n    tag_116:\n      tag_117\n      jump\t// in\n    tag_115:\n      stop\n        /* \"contracts/ERC6909.sol\":1018:1094  mapping(address owner => mapping(address spender => bool)) public isOperator */\n    tag_24:\n      tag_118\n      0x04\n      dup1\n      calldatasize\n      sub\n      dup2\n      add\n      swap1\n      tag_119\n      swap2\n      swap1\n      tag_120\n      jump\t// in\n    tag_119:\n      tag_121\n      jump\t// in\n    tag_118:\n      mload(0x40)\n      tag_122\n      swap2\n      swap1\n      tag_43\n      jump\t// in\n    tag_122:\n      mload(0x40)\n      dup1\n      swap2\n      sub\n      swap1\n      return\n        /* \"contracts/ERC6909.sol\":593:649  mapping(uint256 id => uint256 amount) public totalSupply */\n    tag_25:\n      tag_123\n      0x04\n      dup1\n      calldatasize\n      sub\n      dup2\n      add\n      swap1\n      tag_124\n      swap2\n      swap1\n      tag_46\n      jump\t// in\n    tag_124:\n      tag_125\n      jump\t// in\n    tag_123:\n      mload(0x40)\n      tag_126\n      swap2\n      swap1\n      tag_37\n      jump\t// in\n    tag_126:\n      mload(0x40)\n      dup1\n      swap2\n      sub\n      swap1\n      return\n        /* \"contracts/UniversalTokenContract.sol\":1328:1384  mapping(uint assetId => string tokenURI) public tokenURI */\n    tag_26:\n      tag_127\n      0x04\n      dup1\n      calldatasize\n      sub\n      dup2\n      add\n      swap1\n      tag_128\n      swap2\n      swap1\n      tag_46\n      jump\t// in\n    tag_128:\n      tag_129\n      jump\t// in\n    tag_127:\n      mload(0x40)\n      tag_130\n      swap2\n      swap1\n      tag_131\n      jump\t// in\n    tag_130:\n      mload(0x40)\n      dup1\n      swap2\n      sub\n      swap1\n      return\n        /* \"contracts/ERC6909.sol\":1899:2495  function transferFrom(address sender, address receiver, uint256 id, uint256 amount) public {... */\n    tag_27:\n      tag_132\n      0x04\n      dup1\n      calldatasize\n      sub\n      dup2\n      add\n      swap1\n      tag_133\n      swap2\n      swap1\n      tag_134\n      jump\t// in\n    tag_133:\n      tag_135\n      jump\t// in\n    tag_132:\n      stop\n        /* \"contracts/ERC6909.sol\":696:776  mapping(address owner => mapping(uint256 id => uint256 amount)) public balanceOf */\n    tag_35:\n      mstore(0x20, 0x01)\n      dup2\n      0x00\n      mstore\n      mstore(0x20, keccak256(0x00, 0x40))\n      dup1\n      0x00\n      mstore\n      keccak256(0x00, 0x40)\n      0x00\n      swap2\n      pop\n      swap2\n      pop\n      pop\n      sload\n      dup2\n      jump\t// out\n        /* \"contracts/ERC6909.sol\":3453:3646  function supportsInterface(bytes4 interfaceId) public pure returns (bool supported) {... */\n    tag_41:\n        /* \"contracts/ERC6909.sol\":3521:3535  bool supported */\n      0x00\n        /* \"contracts/ERC6909.sol\":3569:3595  type(IERC6909).interfaceId */\n      0xb2e69f8a00000000000000000000000000000000000000000000000000000000\n        /* \"contracts/ERC6909.sol\":3554:3595  interfaceId == type(IERC6909).interfaceId */\n      not(0xffffffffffffffffffffffffffffffffffffffffffffffffffffffff)\n      and\n        /* \"contracts/ERC6909.sol\":3554:3565  interfaceId */\n      dup3\n        /* \"contracts/ERC6909.sol\":3554:3595  interfaceId == type(IERC6909).interfaceId */\n      not(0xffffffffffffffffffffffffffffffffffffffffffffffffffffffff)\n      and\n      eq\n        /* \"contracts/ERC6909.sol\":3554:3639  interfaceId == type(IERC6909).interfaceId || interfaceId == type(IERC165).interfaceId */\n      dup1\n      tag_137\n      jumpi\n      pop\n        /* \"contracts/ERC6909.sol\":3614:3639  type(IERC165).interfaceId */\n      0x01ffc9a700000000000000000000000000000000000000000000000000000000\n        /* \"contracts/ERC6909.sol\":3599:3639  interfaceId == type(IERC165).interfaceId */\n      not(0xffffffffffffffffffffffffffffffffffffffffffffffffffffffff)\n      and\n        /* \"contracts/ERC6909.sol\":3599:3610  interfaceId */\n      dup3\n        /* \"contracts/ERC6909.sol\":3599:3639  interfaceId == type(IERC165).interfaceId */\n      not(0xffffffffffffffffffffffffffffffffffffffffffffffffffffffff)\n      and\n      eq\n        /* \"contracts/ERC6909.sol\":3554:3639  interfaceId == type(IERC6909).interfaceId || interfaceId == type(IERC165).interfaceId */\n    tag_137:\n        /* \"contracts/ERC6909.sol\":3547:3639  return interfaceId == type(IERC6909).interfaceId || interfaceId == type(IERC165).interfaceId */\n      swap1\n      pop\n        /* \"contracts/ERC6909.sol\":3453:3646  function supportsInterface(bytes4 interfaceId) public pure returns (bool supported) {... */\n      swap2\n      swap1\n      pop\n      jump\t// out\n        /* \"contracts/UniversalTokenContract.sol\":1514:1574  mapping(uint assetId => bool canWrap) public wrapperRegistry */\n    tag_47:\n      mstore(0x20, 0x09)\n      dup1\n      0x00\n      mstore\n      keccak256(0x00, 0x40)\n      0x00\n      swap2\n      pop\n      sload\n      swap1\n      0x0100\n      exp\n      swap1\n      div\n      0xff\n      and\n      dup2\n      jump\t// out\n        /* \"contracts/ERC6909.sol\":1316:1631  function transfer(address receiver, uint256 id, uint256 amount) public {... */\n    tag_52:\n        /* \"contracts/ERC6909.sol\":1429:1435  amount */\n      dup1\n        /* \"contracts/ERC6909.sol\":1401:1410  balanceOf */\n      0x01\n        /* \"contracts/ERC6909.sol\":1401:1422  balanceOf[msg.sender] */\n      0x00\n        /* \"contracts/ERC6909.sol\":1411:1421  msg.sender */\n      caller\n        /* \"contracts/ERC6909.sol\":1401:1422  balanceOf[msg.sender] */\n      0xffffffffffffffffffffffffffffffffffffffff\n      and\n      0xffffffffffffffffffffffffffffffffffffffff\n      and\n      dup2\n      mstore\n      0x20\n      add\n      swap1\n      dup2\n      mstore\n      0x20\n      add\n      0x00\n      keccak256\n        /* \"contracts/ERC6909.sol\":1401:1426  balanceOf[msg.sender][id] */\n      0x00\n        /* \"contracts/ERC6909.sol\":1423:1425  id */\n      dup5\n        /* \"contracts/ERC6909.sol\":1401:1426  balanceOf[msg.sender][id] */\n      dup2\n      mstore\n      0x20\n      add\n      swap1\n      dup2\n      mstore\n      0x20\n      add\n      0x00\n      keccak256\n      sload\n        /* \"contracts/ERC6909.sol\":1401:1435  balanceOf[msg.sender][id] < amount */\n      lt\n        /* \"contracts/ERC6909.sol\":1397:1479  if (balanceOf[msg.sender][id] < amount) revert InsufficientBalance(msg.sender, id) */\n      iszero\n      tag_139\n      jumpi\n        /* \"contracts/ERC6909.sol\":1464:1474  msg.sender */\n      caller\n        /* \"contracts/ERC6909.sol\":1476:1478  id */\n      dup3\n        /* \"contracts/ERC6909.sol\":1444:1479  InsufficientBalance(msg.sender, id) */\n      mload(0x40)\n      0xf6deaa0400000000000000000000000000000000000000000000000000000000\n      dup2\n      mstore\n      0x04\n      add\n      tag_140\n      swap3\n      swap2\n      swap1\n      tag_141\n      jump\t// in\n    tag_140:\n      mload(0x40)\n      dup1\n      swap2\n      sub\n      swap1\n      revert\n        /* \"contracts/ERC6909.sol\":1397:1479  if (balanceOf[msg.sender][id] < amount) revert InsufficientBalance(msg.sender, id) */\n    tag_139:\n        /* \"contracts/ERC6909.sol\":1518:1524  amount */\n      dup1\n        /* \"contracts/ERC6909.sol\":1489:1498  balanceOf */\n      0x01\n        /* \"contracts/ERC6909.sol\":1489:1510  balanceOf[msg.sender] */\n      0x00\n        /* \"contracts/ERC6909.sol\":1499:1509  msg.sender */\n      caller\n        /* \"contracts/ERC6909.sol\":1489:1510  balanceOf[msg.sender] */\n      0xffffffffffffffffffffffffffffffffffffffff\n      and\n      0xffffffffffffffffffffffffffffffffffffffff\n      and\n      dup2\n      mstore\n      0x20\n      add\n      swap1\n      dup2\n      mstore\n      0x20\n      add\n      0x00\n      keccak256\n        /* \"contracts/ERC6909.sol\":1489:1514  balanceOf[msg.sender][id] */\n      0x00\n        /* \"contracts/ERC6909.sol\":1511:1513  id */\n      dup5\n        /* \"contracts/ERC6909.sol\":1489:1514  balanceOf[msg.sender][id] */\n      dup2\n      mstore\n      0x20\n      add\n      swap1\n      dup2\n      mstore\n      0x20\n      add\n      0x00\n      keccak256\n      0x00\n        /* \"contracts/ERC6909.sol\":1489:1524  balanceOf[msg.sender][id] -= amount */\n      dup3\n      dup3\n      sload\n      tag_142\n      swap2\n      swap1\n      tag_143\n      jump\t// in\n    tag_142:\n      swap3\n      pop\n      pop\n      dup2\n      swap1\n      sstore\n      pop\n        /* \"contracts/ERC6909.sol\":1561:1567  amount */\n      dup1\n        /* \"contracts/ERC6909.sol\":1534:1543  balanceOf */\n      0x01\n        /* \"contracts/ERC6909.sol\":1534:1553  balanceOf[receiver] */\n      0x00\n        /* \"contracts/ERC6909.sol\":1544:1552  receiver */\n      dup6\n        /* \"contracts/ERC6909.sol\":1534:1553  balanceOf[receiver] */\n      0xffffffffffffffffffffffffffffffffffffffff\n      and\n      0xffffffffffffffffffffffffffffffffffffffff\n      and\n      dup2\n      mstore\n      0x20\n      add\n      swap1\n      dup2\n      mstore\n      0x20\n      add\n      0x00\n      keccak256\n        /* \"contracts/ERC6909.sol\":1534:1557  balanceOf[receiver][id] */\n      0x00\n        /* \"contracts/ERC6909.sol\":1554:1556  id */\n      dup5\n        /* \"contracts/ERC6909.sol\":1534:1557  balanceOf[receiver][id] */\n      dup2\n      mstore\n      0x20\n      add\n      swap1\n      dup2\n      mstore\n      0x20\n      add\n      0x00\n      keccak256\n      0x00\n        /* \"contracts/ERC6909.sol\":1534:1567  balanceOf[receiver][id] += amount */\n      dup3\n      dup3\n      sload\n      tag_144\n      swap2\n      swap1\n      tag_145\n      jump\t// in\n    tag_144:\n      swap3\n      pop\n      pop\n      dup2\n      swap1\n      sstore\n      pop\n        /* \"contracts/ERC6909.sol\":1613:1615  id */\n      dup2\n        /* \"contracts/ERC6909.sol\":1603:1611  receiver */\n      dup4\n        /* \"contracts/ERC6909.sol\":1582:1624  Transfer(msg.sender, receiver, id, amount) */\n      0xffffffffffffffffffffffffffffffffffffffff\n      and\n        /* \"contracts/ERC6909.sol\":1591:1601  msg.sender */\n      caller\n        /* \"contracts/ERC6909.sol\":1582:1624  Transfer(msg.sender, receiver, id, amount) */\n      0xffffffffffffffffffffffffffffffffffffffff\n      and\n      0x9ed053bb818ff08b8353cd46f78db1f0799f31c9e4458fdb425c10eccd2efc44\n        /* \"contracts/ERC6909.sol\":1617:1623  amount */\n      dup5\n        /* \"contracts/ERC6909.sol\":1582:1624  Transfer(msg.sender, receiver, id, amount) */\n      mload(0x40)\n      tag_146\n      swap2\n      swap1\n      tag_37\n      jump\t// in\n    tag_146:\n      mload(0x40)\n      dup1\n      swap2\n      sub\n      swap1\n      log4\n        /* \"contracts/ERC6909.sol\":1316:1631  function transfer(address receiver, uint256 id, uint256 amount) public {... */\n      pop\n      pop\n      pop\n      jump\t// out\n        /* \"contracts/UniversalTokenContract.sol\":5432:6029  function wrapERC1155(address token, uint originalTokenId, uint amount) public {... */\n    tag_55:\n        /* \"contracts/UniversalTokenContract.sol\":5520:5532  uint assetId */\n      0x00\n        /* \"contracts/UniversalTokenContract.sol\":5570:5575  token */\n      dup4\n        /* \"contracts/UniversalTokenContract.sol\":5577:5592  originalTokenId */\n      dup4\n        /* \"contracts/UniversalTokenContract.sol\":5553:5593  abi.encodePacked(token, originalTokenId) */\n      add(0x20, mload(0x40))\n      tag_148\n      swap3\n      swap2\n      swap1\n      tag_149\n      jump\t// in\n    tag_148:\n      mload(0x40)\n      0x20\n      dup2\n      dup4\n      sub\n      sub\n      dup2\n      mstore\n      swap1\n      0x40\n      mstore\n        /* \"contracts/UniversalTokenContract.sol\":5543:5594  keccak256(abi.encodePacked(token, originalTokenId)) */\n      dup1\n      mload\n      swap1\n      0x20\n      add\n      keccak256\n        /* \"contracts/UniversalTokenContract.sol\":5535:5595  uint256(keccak256(abi.encodePacked(token, originalTokenId))) */\n      0x00\n      shr\n        /* \"contracts/UniversalTokenContract.sol\":5520:5595  uint assetId = uint256(keccak256(abi.encodePacked(token, originalTokenId))) */\n      swap1\n      pop\n        /* \"contracts/UniversalTokenContract.sol\":5639:5645  amount */\n      dup2\n        /* \"contracts/UniversalTokenContract.sol\":5605:5614  balanceOf */\n      0x01\n        /* \"contracts/UniversalTokenContract.sol\":5605:5626  balanceOf[msg.sender] */\n      0x00\n        /* \"contracts/UniversalTokenContract.sol\":5615:5625  msg.sender */\n      caller\n        /* \"contracts/UniversalTokenContract.sol\":5605:5626  balanceOf[msg.sender] */\n      0xffffffffffffffffffffffffffffffffffffffff\n      and\n      0xffffffffffffffffffffffffffffffffffffffff\n      and\n      dup2\n      mstore\n      0x20\n      add\n      swap1\n      dup2\n      mstore\n      0x20\n      add\n      0x00\n      keccak256\n        /* \"contracts/UniversalTokenContract.sol\":5605:5635  balanceOf[msg.sender][assetId] */\n      0x00\n        /* \"contracts/UniversalTokenContract.sol\":5627:5634  assetId */\n      dup4\n        /* \"contracts/UniversalTokenContract.sol\":5605:5635  balanceOf[msg.sender][assetId] */\n      dup2\n      mstore\n      0x20\n      add\n      swap1\n      dup2\n      mstore\n      0x20\n      add\n      0x00\n      keccak256\n      0x00\n        /* \"contracts/UniversalTokenContract.sol\":5605:5645  balanceOf[msg.sender][assetId] += amount */\n      dup3\n      dup3\n      sload\n      tag_150\n      swap2\n      swap1\n      tag_145\n      jump\t// in\n    tag_150:\n      swap3\n      pop\n      pop\n      dup2\n      swap1\n      sstore\n      pop\n        /* \"contracts/UniversalTokenContract.sol\":5679:5685  amount */\n      dup2\n        /* \"contracts/UniversalTokenContract.sol\":5655:5666  totalSupply */\n      0x00\n        /* \"contracts/UniversalTokenContract.sol\":5655:5675  totalSupply[assetId] */\n      dup1\n        /* \"contracts/UniversalTokenContract.sol\":5667:5674  assetId */\n      dup4\n        /* \"contracts/UniversalTokenContract.sol\":5655:5675  totalSupply[assetId] */\n      dup2\n      mstore\n      0x20\n      add\n      swap1\n      dup2\n      mstore\n      0x20\n      add\n      0x00\n      keccak256\n      0x00\n        /* \"contracts/UniversalTokenContract.sol\":5655:5685  totalSupply[assetId] += amount */\n      dup3\n      dup3\n      sload\n      tag_151\n      swap2\n      swap1\n      tag_145\n      jump\t// in\n    tag_151:\n      swap3\n      pop\n      pop\n      dup2\n      swap1\n      sstore\n      pop\n        /* \"contracts/UniversalTokenContract.sol\":5777:5817  AssetMetadata(\"\", \"\", AssetType.ERC1155) */\n      mload(0x40)\n      dup1\n      0x60\n      add\n      0x40\n      mstore\n      dup1\n      mload(0x40)\n      dup1\n      0x20\n      add\n      0x40\n      mstore\n      dup1\n      0x00\n      dup2\n      mstore\n      pop\n      dup2\n      mstore\n      0x20\n      add\n      mload(0x40)\n      dup1\n      0x20\n      add\n      0x40\n      mstore\n      dup1\n      0x00\n      dup2\n      mstore\n      pop\n      dup2\n      mstore\n      0x20\n      add\n        /* \"contracts/UniversalTokenContract.sol\":5799:5816  AssetType.ERC1155 */\n      0x03\n        /* \"contracts/UniversalTokenContract.sol\":5777:5817  AssetMetadata(\"\", \"\", AssetType.ERC1155) */\n      dup1\n      dup2\n      gt\n      iszero\n      tag_152\n      jumpi\n      tag_153\n      tag_154\n      jump\t// in\n    tag_153:\n    tag_152:\n      dup2\n      mstore\n      pop\n        /* \"contracts/UniversalTokenContract.sol\":5751:5765  assetMetadatas */\n      0x05\n        /* \"contracts/UniversalTokenContract.sol\":5751:5774  assetMetadatas[assetId] */\n      0x00\n        /* \"contracts/UniversalTokenContract.sol\":5766:5773  assetId */\n      dup4\n        /* \"contracts/UniversalTokenContract.sol\":5751:5774  assetMetadatas[assetId] */\n      dup2\n      mstore\n      0x20\n      add\n      swap1\n      dup2\n      mstore\n      0x20\n      add\n      0x00\n      keccak256\n        /* \"contracts/UniversalTokenContract.sol\":5751:5817  assetMetadatas[assetId] = AssetMetadata(\"\", \"\", AssetType.ERC1155) */\n      0x00\n      dup3\n      add\n      mload\n      dup2\n      0x00\n      add\n      swap1\n      dup2\n      tag_155\n      swap2\n      swap1\n      tag_156\n      jump\t// in\n    tag_155:\n      pop\n      0x20\n      dup3\n      add\n      mload\n      dup2\n      0x01\n      add\n      swap1\n      dup2\n      tag_157\n      swap2\n      swap1\n      tag_156\n      jump\t// in\n    tag_157:\n      pop\n      0x40\n      dup3\n      add\n      mload\n      dup2\n      0x02\n      add\n      exp(0x0100, 0x00)\n      dup2\n      sload\n      dup2\n      0xff\n      mul\n      not\n      and\n      swap1\n      dup4\n      0x03\n      dup2\n      gt\n      iszero\n      tag_158\n      jumpi\n      tag_159\n      tag_154\n      jump\t// in\n    tag_159:\n    tag_158:\n      mul\n      or\n      swap1\n      sstore\n      pop\n      swap1\n      pop\n      pop\n        /* \"contracts/UniversalTokenContract.sol\":5867:5872  token */\n      dup4\n        /* \"contracts/UniversalTokenContract.sol\":5847:5877  IERC1155MetadataURI(token).uri */\n      0xffffffffffffffffffffffffffffffffffffffff\n      and\n      0x0e89341c\n        /* \"contracts/UniversalTokenContract.sol\":5878:5893  originalTokenId */\n      dup5\n        /* \"contracts/UniversalTokenContract.sol\":5847:5894  IERC1155MetadataURI(token).uri(originalTokenId) */\n      mload(0x40)\n      dup3\n      0xffffffff\n      and\n      0xe0\n      shl\n      dup2\n      mstore\n      0x04\n      add\n      tag_160\n      swap2\n      swap1\n      tag_37\n      jump\t// in\n    tag_160:\n      0x00\n      mload(0x40)\n      dup1\n      dup4\n      sub\n      dup2\n      dup7\n      gas\n      staticcall\n      iszero\n      dup1\n      iszero\n      tag_162\n      jumpi\n      returndatasize\n      0x00\n      dup1\n      returndatacopy\n      revert(0x00, returndatasize)\n    tag_162:\n      pop\n      pop\n      pop\n      pop\n      mload(0x40)\n      returndatasize\n      0x00\n      dup3\n      returndatacopy\n      returndatasize\n      not(0x1f)\n      0x1f\n      dup3\n      add\n      and\n      dup3\n      add\n      dup1\n      0x40\n      mstore\n      pop\n      dup2\n      add\n      swap1\n      tag_163\n      swap2\n      swap1\n      tag_164\n      jump\t// in\n    tag_163:\n        /* \"contracts/UniversalTokenContract.sol\":5827:5835  tokenURI */\n      0x06\n        /* \"contracts/UniversalTokenContract.sol\":5827:5844  tokenURI[assetId] */\n      0x00\n        /* \"contracts/UniversalTokenContract.sol\":5836:5843  assetId */\n      dup4\n        /* \"contracts/UniversalTokenContract.sol\":5827:5844  tokenURI[assetId] */\n      dup2\n      mstore\n      0x20\n      add\n      swap1\n      dup2\n      mstore\n      0x20\n      add\n      0x00\n      keccak256\n        /* \"contracts/UniversalTokenContract.sol\":5827:5894  tokenURI[assetId] = IERC1155MetadataURI(token).uri(originalTokenId) */\n      swap1\n      dup2\n      tag_165\n      swap2\n      swap1\n      tag_156\n      jump\t// in\n    tag_165:\n      pop\n        /* \"contracts/UniversalTokenContract.sol\":5923:5933  msg.sender */\n      caller\n        /* \"contracts/UniversalTokenContract.sol\":5904:5911  ownerOf */\n      0x08\n        /* \"contracts/UniversalTokenContract.sol\":5904:5920  ownerOf[assetId] */\n      0x00\n        /* \"contracts/UniversalTokenContract.sol\":5912:5919  assetId */\n      dup4\n        /* \"contracts/UniversalTokenContract.sol\":5904:5920  ownerOf[assetId] */\n      dup2\n      mstore\n      0x20\n      add\n      swap1\n      dup2\n      mstore\n      0x20\n      add\n      0x00\n      keccak256\n      0x00\n        /* \"contracts/UniversalTokenContract.sol\":5904:5933  ownerOf[assetId] = msg.sender */\n      0x0100\n      exp\n      dup2\n      sload\n      dup2\n      0xffffffffffffffffffffffffffffffffffffffff\n      mul\n      not\n      and\n      swap1\n      dup4\n      0xffffffffffffffffffffffffffffffffffffffff\n      and\n      mul\n      or\n      swap1\n      sstore\n      pop\n        /* \"contracts/UniversalTokenContract.sol\":5959:5964  token */\n      dup4\n        /* \"contracts/UniversalTokenContract.sol\":5943:5978  IERC721Metadata(token).transferFrom */\n      0xffffffffffffffffffffffffffffffffffffffff\n      and\n      0x23b872dd\n        /* \"contracts/UniversalTokenContract.sol\":5979:5989  msg.sender */\n      caller\n        /* \"contracts/UniversalTokenContract.sol\":5999:6003  this */\n      address\n        /* \"contracts/UniversalTokenContract.sol\":6006:6021  originalTokenId */\n      dup7\n        /* \"contracts/UniversalTokenContract.sol\":5943:6022  IERC721Metadata(token).transferFrom(msg.sender, address(this), originalTokenId) */\n      mload(0x40)\n      dup5\n      0xffffffff\n      and\n      0xe0\n      shl\n      dup2\n      mstore\n      0x04\n      add\n      tag_166\n      swap4\n      swap3\n      swap2\n      swap1\n      tag_167\n      jump\t// in\n    tag_166:\n      0x00\n      mload(0x40)\n      dup1\n      dup4\n      sub\n      dup2\n      0x00\n      dup8\n      dup1\n      extcodesize\n      iszero\n      dup1\n      iszero\n      tag_168\n      jumpi\n      0x00\n      dup1\n      revert\n    tag_168:\n      pop\n      gas\n      call\n      iszero\n      dup1\n      iszero\n      tag_170\n      jumpi\n      returndatasize\n      0x00\n      dup1\n      returndatacopy\n      revert(0x00, returndatasize)\n    tag_170:\n      pop\n      pop\n      pop\n      pop\n        /* \"contracts/UniversalTokenContract.sol\":5510:6029  {... */\n      pop\n        /* \"contracts/UniversalTokenContract.sol\":5432:6029  function wrapERC1155(address token, uint originalTokenId, uint amount) public {... */\n      pop\n      pop\n      pop\n      jump\t// out\n        /* \"contracts/UniversalTokenContract.sol\":1783:2204  function createNonFungibleAsset(string calldata name, string calldata symbol, uint ts) public {... */\n    tag_59:\n        /* \"contracts/UniversalTokenContract.sol\":1887:1909  AssetMetadata memory a */\n      0x00\n        /* \"contracts/UniversalTokenContract.sol\":1912:1957  AssetMetadata(name, symbol, AssetType.ERC721) */\n      mload(0x40)\n      dup1\n      0x60\n      add\n      0x40\n      mstore\n      dup1\n        /* \"contracts/UniversalTokenContract.sol\":1926:1930  name */\n      dup8\n      dup8\n        /* \"contracts/UniversalTokenContract.sol\":1912:1957  AssetMetadata(name, symbol, AssetType.ERC721) */\n      dup1\n      dup1\n      0x1f\n      add\n      0x20\n      dup1\n      swap2\n      div\n      mul\n      0x20\n      add\n      mload(0x40)\n      swap1\n      dup2\n      add\n      0x40\n      mstore\n      dup1\n      swap4\n      swap3\n      swap2\n      swap1\n      dup2\n      dup2\n      mstore\n      0x20\n      add\n      dup4\n      dup4\n      dup1\n      dup3\n      dup5\n      calldatacopy\n      0x00\n      dup2\n      dup5\n      add\n      mstore\n      not(0x1f)\n      0x1f\n      dup3\n      add\n      and\n      swap1\n      pop\n      dup1\n      dup4\n      add\n      swap3\n      pop\n      pop\n      pop\n      pop\n      pop\n      pop\n      pop\n      dup2\n      mstore\n      0x20\n      add\n        /* \"contracts/UniversalTokenContract.sol\":1932:1938  symbol */\n      dup6\n      dup6\n        /* \"contracts/UniversalTokenContract.sol\":1912:1957  AssetMetadata(name, symbol, AssetType.ERC721) */\n      dup1\n      dup1\n      0x1f\n      add\n      0x20\n      dup1\n      swap2\n      div\n      mul\n      0x20\n      add\n      mload(0x40)\n      swap1\n      dup2\n      add\n      0x40\n      mstore\n      dup1\n      swap4\n      swap3\n      swap2\n      swap1\n      dup2\n      dup2\n      mstore\n      0x20\n      add\n      dup4\n      dup4\n      dup1\n      dup3\n      dup5\n      calldatacopy\n      0x00\n      dup2\n      dup5\n      add\n      mstore\n      not(0x1f)\n      0x1f\n      dup3\n      add\n      and\n      swap1\n      pop\n      dup1\n      dup4\n      add\n      swap3\n      pop\n      pop\n      pop\n      pop\n      pop\n      pop\n      pop\n      dup2\n      mstore\n      0x20\n      add\n        /* \"contracts/UniversalTokenContract.sol\":1940:1956  AssetType.ERC721 */\n      0x02\n        /* \"contracts/UniversalTokenContract.sol\":1912:1957  AssetMetadata(name, symbol, AssetType.ERC721) */\n      0x03\n      dup2\n      gt\n      iszero\n      tag_172\n      jumpi\n      tag_173\n      tag_154\n      jump\t// in\n    tag_173:\n    tag_172:\n      dup2\n      mstore\n      pop\n        /* \"contracts/UniversalTokenContract.sol\":1887:1957  AssetMetadata memory a = AssetMetadata(name, symbol, AssetType.ERC721) */\n      swap1\n      pop\n        /* \"contracts/UniversalTokenContract.sol\":1967:1980  uint assetTip */\n      0x00\n        /* \"contracts/UniversalTokenContract.sol\":1983:1990  nextTip */\n      sload(0x04)\n        /* \"contracts/UniversalTokenContract.sol\":1967:1990  uint assetTip = nextTip */\n      swap1\n      pop\n        /* \"contracts/UniversalTokenContract.sol\":2024:2026  ts */\n      dup3\n        /* \"contracts/UniversalTokenContract.sol\":2000:2011  totalSupply */\n      0x00\n        /* \"contracts/UniversalTokenContract.sol\":2000:2021  totalSupply[assetTip] */\n      dup1\n        /* \"contracts/UniversalTokenContract.sol\":2012:2020  assetTip */\n      dup4\n        /* \"contracts/UniversalTokenContract.sol\":2000:2021  totalSupply[assetTip] */\n      dup2\n      mstore\n      0x20\n      add\n      swap1\n      dup2\n      mstore\n      0x20\n      add\n      0x00\n      keccak256\n        /* \"contracts/UniversalTokenContract.sol\":2000:2026  totalSupply[assetTip] = ts */\n      dup2\n      swap1\n      sstore\n      pop\n        /* \"contracts/UniversalTokenContract.sol\":2063:2064  a */\n      dup2\n        /* \"contracts/UniversalTokenContract.sol\":2036:2050  assetMetadatas */\n      0x05\n        /* \"contracts/UniversalTokenContract.sol\":2036:2060  assetMetadatas[assetTip] */\n      0x00\n        /* \"contracts/UniversalTokenContract.sol\":2051:2059  assetTip */\n      dup4\n        /* \"contracts/UniversalTokenContract.sol\":2036:2060  assetMetadatas[assetTip] */\n      dup2\n      mstore\n      0x20\n      add\n      swap1\n      dup2\n      mstore\n      0x20\n      add\n      0x00\n      keccak256\n        /* \"contracts/UniversalTokenContract.sol\":2036:2064  assetMetadatas[assetTip] = a */\n      0x00\n      dup3\n      add\n      mload\n      dup2\n      0x00\n      add\n      swap1\n      dup2\n      tag_174\n      swap2\n      swap1\n      tag_156\n      jump\t// in\n    tag_174:\n      pop\n      0x20\n      dup3\n      add\n      mload\n      dup2\n      0x01\n      add\n      swap1\n      dup2\n      tag_175\n      swap2\n      swap1\n      tag_156\n      jump\t// in\n    tag_175:\n      pop\n      0x40\n      dup3\n      add\n      mload\n      dup2\n      0x02\n      add\n      exp(0x0100, 0x00)\n      dup2\n      sload\n      dup2\n      0xff\n      mul\n      not\n      and\n      swap1\n      dup4\n      0x03\n      dup2\n      gt\n      iszero\n      tag_176\n      jumpi\n      tag_177\n      tag_154\n      jump\t// in\n    tag_177:\n    tag_176:\n      mul\n      or\n      swap1\n      sstore\n      pop\n      swap1\n      pop\n      pop\n        /* \"contracts/UniversalTokenContract.sol\":2096:2106  msg.sender */\n      caller\n        /* \"contracts/UniversalTokenContract.sol\":2074:2083  creatorOf */\n      0x07\n        /* \"contracts/UniversalTokenContract.sol\":2074:2093  creatorOf[assetTip] */\n      0x00\n        /* \"contracts/UniversalTokenContract.sol\":2084:2092  assetTip */\n      dup4\n        /* \"contracts/UniversalTokenContract.sol\":2074:2093  creatorOf[assetTip] */\n      dup2\n      mstore\n      0x20\n      add\n      swap1\n      dup2\n      mstore\n      0x20\n      add\n      0x00\n      keccak256\n      0x00\n        /* \"contracts/UniversalTokenContract.sol\":2074:2106  creatorOf[assetTip] = msg.sender */\n      0x0100\n      exp\n      dup2\n      sload\n      dup2\n      0xffffffffffffffffffffffffffffffffffffffff\n      mul\n      not\n      and\n      swap1\n      dup4\n      0xffffffffffffffffffffffffffffffffffffffff\n      and\n      mul\n      or\n      swap1\n      sstore\n      pop\n        /* \"contracts/UniversalTokenContract.sol\":2129:2130  1 */\n      0x01\n        /* \"contracts/UniversalTokenContract.sol\":2126:2128  ts */\n      dup4\n        /* \"contracts/UniversalTokenContract.sol\":2126:2130  ts+1 */\n      tag_178\n      swap2\n      swap1\n      tag_145\n      jump\t// in\n    tag_178:\n        /* \"contracts/UniversalTokenContract.sol\":2116:2123  nextTip */\n      0x04\n      0x00\n        /* \"contracts/UniversalTokenContract.sol\":2116:2131  nextTip+=(ts+1) */\n      dup3\n      dup3\n      sload\n      tag_179\n      swap2\n      swap1\n      tag_145\n      jump\t// in\n    tag_179:\n      swap3\n      pop\n      pop\n      dup2\n      swap1\n      sstore\n      pop\n        /* \"contracts/UniversalTokenContract.sol\":2184:2192  assetTip */\n      dup1\n        /* \"contracts/UniversalTokenContract.sol\":2176:2182  symbol */\n      dup6\n      dup6\n        /* \"contracts/UniversalTokenContract.sol\":2146:2197  NonFungibleAssetCreated(name, symbol, assetTip, ts) */\n      mload(0x40)\n      tag_180\n      swap3\n      swap2\n      swap1\n      tag_181\n      jump\t// in\n    tag_180:\n      mload(0x40)\n      dup1\n      swap2\n      sub\n      swap1\n      keccak256\n        /* \"contracts/UniversalTokenContract.sol\":2170:2174  name */\n      dup9\n      dup9\n        /* \"contracts/UniversalTokenContract.sol\":2146:2197  NonFungibleAssetCreated(name, symbol, assetTip, ts) */\n      mload(0x40)\n      tag_182\n      swap3\n      swap2\n      swap1\n      tag_181\n      jump\t// in\n    tag_182:\n      mload(0x40)\n      dup1\n      swap2\n      sub\n      swap1\n      keccak256\n      0xe4e2dd35e175b51f02aae07806c301807c1b9181a0614e23df9dfa67e7142cd1\n        /* \"contracts/UniversalTokenContract.sol\":2194:2196  ts */\n      dup7\n        /* \"contracts/UniversalTokenContract.sol\":2146:2197  NonFungibleAssetCreated(name, symbol, assetTip, ts) */\n      mload(0x40)\n      tag_183\n      swap2\n      swap1\n      tag_37\n      jump\t// in\n    tag_183:\n      mload(0x40)\n      dup1\n      swap2\n      sub\n      swap1\n      log4\n        /* \"contracts/UniversalTokenContract.sol\":1877:2204  {... */\n      pop\n      pop\n        /* \"contracts/UniversalTokenContract.sol\":1783:2204  function createNonFungibleAsset(string calldata name, string calldata symbol, uint ts) public {... */\n      pop\n      pop\n      pop\n      pop\n      pop\n      jump\t// out\n        /* \"contracts/UniversalTokenContract.sol\":2460:2925  function createFungibleAsset(string calldata name, string calldata symbol, uint ts, address mintTo) public {... */\n    tag_63:\n        /* \"contracts/UniversalTokenContract.sol\":2577:2599  AssetMetadata memory a */\n      0x00\n        /* \"contracts/UniversalTokenContract.sol\":2602:2646  AssetMetadata(name, symbol, AssetType.ERC20) */\n      mload(0x40)\n      dup1\n      0x60\n      add\n      0x40\n      mstore\n      dup1\n        /* \"contracts/UniversalTokenContract.sol\":2616:2620  name */\n      dup9\n      dup9\n        /* \"contracts/UniversalTokenContract.sol\":2602:2646  AssetMetadata(name, symbol, AssetType.ERC20) */\n      dup1\n      dup1\n      0x1f\n      add\n      0x20\n      dup1\n      swap2\n      div\n      mul\n      0x20\n      add\n      mload(0x40)\n      swap1\n      dup2\n      add\n      0x40\n      mstore\n      dup1\n      swap4\n      swap3\n      swap2\n      swap1\n      dup2\n      dup2\n      mstore\n      0x20\n      add\n      dup4\n      dup4\n      dup1\n      dup3\n      dup5\n      calldatacopy\n      0x00\n      dup2\n      dup5\n      add\n      mstore\n      not(0x1f)\n      0x1f\n      dup3\n      add\n      and\n      swap1\n      pop\n      dup1\n      dup4\n      add\n      swap3\n      pop\n      pop\n      pop\n      pop\n      pop\n      pop\n      pop\n      dup2\n      mstore\n      0x20\n      add\n        /* \"contracts/UniversalTokenContract.sol\":2622:2628  symbol */\n      dup7\n      dup7\n        /* \"contracts/UniversalTokenContract.sol\":2602:2646  AssetMetadata(name, symbol, AssetType.ERC20) */\n      dup1\n      dup1\n      0x1f\n      add\n      0x20\n      dup1\n      swap2\n      div\n      mul\n      0x20\n      add\n      mload(0x40)\n      swap1\n      dup2\n      add\n      0x40\n      mstore\n      dup1\n      swap4\n      swap3\n      swap2\n      swap1\n      dup2\n      dup2\n      mstore\n      0x20\n      add\n      dup4\n      dup4\n      dup1\n      dup3\n      dup5\n      calldatacopy\n      0x00\n      dup2\n      dup5\n      add\n      mstore\n      not(0x1f)\n      0x1f\n      dup3\n      add\n      and\n      swap1\n      pop\n      dup1\n      dup4\n      add\n      swap3\n      pop\n      pop\n      pop\n      pop\n      pop\n      pop\n      pop\n      dup2\n      mstore\n      0x20\n      add\n        /* \"contracts/UniversalTokenContract.sol\":2630:2645  AssetType.ERC20 */\n      0x01\n        /* \"contracts/UniversalTokenContract.sol\":2602:2646  AssetMetadata(name, symbol, AssetType.ERC20) */\n      0x03\n      dup2\n      gt\n      iszero\n      tag_185\n      jumpi\n      tag_186\n      tag_154\n      jump\t// in\n    tag_186:\n    tag_185:\n      dup2\n      mstore\n      pop\n        /* \"contracts/UniversalTokenContract.sol\":2577:2646  AssetMetadata memory a = AssetMetadata(name, symbol, AssetType.ERC20) */\n      swap1\n      pop\n        /* \"contracts/UniversalTokenContract.sol\":2656:2669  uint assetTip */\n      0x00\n        /* \"contracts/UniversalTokenContract.sol\":2672:2679  nextTip */\n      sload(0x04)\n        /* \"contracts/UniversalTokenContract.sol\":2656:2679  uint assetTip = nextTip */\n      swap1\n      pop\n        /* \"contracts/UniversalTokenContract.sol\":2713:2715  ts */\n      dup4\n        /* \"contracts/UniversalTokenContract.sol\":2689:2700  totalSupply */\n      0x00\n        /* \"contracts/UniversalTokenContract.sol\":2689:2710  totalSupply[assetTip] */\n      dup1\n        /* \"contracts/UniversalTokenContract.sol\":2701:2709  assetTip */\n      dup4\n        /* \"contracts/UniversalTokenContract.sol\":2689:2710  totalSupply[assetTip] */\n      dup2\n      mstore\n      0x20\n      add\n      swap1\n      dup2\n      mstore\n      0x20\n      add\n      0x00\n      keccak256\n        /* \"contracts/UniversalTokenContract.sol\":2689:2715  totalSupply[assetTip] = ts */\n      dup2\n      swap1\n      sstore\n      pop\n        /* \"contracts/UniversalTokenContract.sol\":2752:2753  a */\n      dup2\n        /* \"contracts/UniversalTokenContract.sol\":2725:2739  assetMetadatas */\n      0x05\n        /* \"contracts/UniversalTokenContract.sol\":2725:2749  assetMetadatas[assetTip] */\n      0x00\n        /* \"contracts/UniversalTokenContract.sol\":2740:2748  assetTip */\n      dup4\n        /* \"contracts/UniversalTokenContract.sol\":2725:2749  assetMetadatas[assetTip] */\n      dup2\n      mstore\n      0x20\n      add\n      swap1\n      dup2\n      mstore\n      0x20\n      add\n      0x00\n      keccak256\n        /* \"contracts/UniversalTokenContract.sol\":2725:2753  assetMetadatas[assetTip] = a */\n      0x00\n      dup3\n      add\n      mload\n      dup2\n      0x00\n      add\n      swap1\n      dup2\n      tag_187\n      swap2\n      swap1\n      tag_156\n      jump\t// in\n    tag_187:\n      pop\n      0x20\n      dup3\n      add\n      mload\n      dup2\n      0x01\n      add\n      swap1\n      dup2\n      tag_188\n      swap2\n      swap1\n      tag_156\n      jump\t// in\n    tag_188:\n      pop\n      0x40\n      dup3\n      add\n      mload\n      dup2\n      0x02\n      add\n      exp(0x0100, 0x00)\n      dup2\n      sload\n      dup2\n      0xff\n      mul\n      not\n      and\n      swap1\n      dup4\n      0x03\n      dup2\n      gt\n      iszero\n      tag_189\n      jumpi\n      tag_190\n      tag_154\n      jump\t// in\n    tag_190:\n    tag_189:\n      mul\n      or\n      swap1\n      sstore\n      pop\n      swap1\n      pop\n      pop\n        /* \"contracts/UniversalTokenContract.sol\":2791:2793  ts */\n      dup4\n        /* \"contracts/UniversalTokenContract.sol\":2763:2772  balanceOf */\n      0x01\n        /* \"contracts/UniversalTokenContract.sol\":2763:2780  balanceOf[mintTo] */\n      0x00\n        /* \"contracts/UniversalTokenContract.sol\":2773:2779  mintTo */\n      dup6\n        /* \"contracts/UniversalTokenContract.sol\":2763:2780  balanceOf[mintTo] */\n      0xffffffffffffffffffffffffffffffffffffffff\n      and\n      0xffffffffffffffffffffffffffffffffffffffff\n      and\n      dup2\n      mstore\n      0x20\n      add\n      swap1\n      dup2\n      mstore\n      0x20\n      add\n      0x00\n      keccak256\n        /* \"contracts/UniversalTokenContract.sol\":2763:2790  balanceOf[mintTo][assetTip] */\n      0x00\n        /* \"contracts/UniversalTokenContract.sol\":2781:2789  assetTip */\n      dup4\n        /* \"contracts/UniversalTokenContract.sol\":2763:2790  balanceOf[mintTo][assetTip] */\n      dup2\n      mstore\n      0x20\n      add\n      swap1\n      dup2\n      mstore\n      0x20\n      add\n      0x00\n      keccak256\n        /* \"contracts/UniversalTokenContract.sol\":2763:2793  balanceOf[mintTo][assetTip]=ts */\n      dup2\n      swap1\n      sstore\n      pop\n        /* \"contracts/UniversalTokenContract.sol\":2825:2835  msg.sender */\n      caller\n        /* \"contracts/UniversalTokenContract.sol\":2803:2812  creatorOf */\n      0x07\n        /* \"contracts/UniversalTokenContract.sol\":2803:2822  creatorOf[assetTip] */\n      0x00\n        /* \"contracts/UniversalTokenContract.sol\":2813:2821  assetTip */\n      dup4\n        /* \"contracts/UniversalTokenContract.sol\":2803:2822  creatorOf[assetTip] */\n      dup2\n      mstore\n      0x20\n      add\n      swap1\n      dup2\n      mstore\n      0x20\n      add\n      0x00\n      keccak256\n      0x00\n        /* \"contracts/UniversalTokenContract.sol\":2803:2835  creatorOf[assetTip] = msg.sender */\n      0x0100\n      exp\n      dup2\n      sload\n      dup2\n      0xffffffffffffffffffffffffffffffffffffffff\n      mul\n      not\n      and\n      swap1\n      dup4\n      0xffffffffffffffffffffffffffffffffffffffff\n      and\n      mul\n      or\n      swap1\n      sstore\n      pop\n        /* \"contracts/UniversalTokenContract.sol\":2854:2855  1 */\n      0x01\n        /* \"contracts/UniversalTokenContract.sol\":2845:2852  nextTip */\n      0x04\n      0x00\n        /* \"contracts/UniversalTokenContract.sol\":2845:2855  nextTip+=1 */\n      dup3\n      dup3\n      sload\n      tag_191\n      swap2\n      swap1\n      tag_145\n      jump\t// in\n    tag_191:\n      swap3\n      pop\n      pop\n      dup2\n      swap1\n      sstore\n      pop\n        /* \"contracts/UniversalTokenContract.sol\":2905:2913  assetTip */\n      dup1\n        /* \"contracts/UniversalTokenContract.sol\":2897:2903  symbol */\n      dup7\n      dup7\n        /* \"contracts/UniversalTokenContract.sol\":2870:2918  FungibleAssetCreated(name, symbol, assetTip, ts) */\n      mload(0x40)\n      tag_192\n      swap3\n      swap2\n      swap1\n      tag_181\n      jump\t// in\n    tag_192:\n      mload(0x40)\n      dup1\n      swap2\n      sub\n      swap1\n      keccak256\n        /* \"contracts/UniversalTokenContract.sol\":2891:2895  name */\n      dup10\n      dup10\n        /* \"contracts/UniversalTokenContract.sol\":2870:2918  FungibleAssetCreated(name, symbol, assetTip, ts) */\n      mload(0x40)\n      tag_193\n      swap3\n      swap2\n      swap1\n      tag_181\n      jump\t// in\n    tag_193:\n      mload(0x40)\n      dup1\n      swap2\n      sub\n      swap1\n      keccak256\n      0x263d8abadf2a89bb2e2c9d65ff421f068882b46cc779f5db9e2b52ad97ed21b4\n        /* \"contracts/UniversalTokenContract.sol\":2915:2917  ts */\n      dup8\n        /* \"contracts/UniversalTokenContract.sol\":2870:2918  FungibleAssetCreated(name, symbol, assetTip, ts) */\n      mload(0x40)\n      tag_194\n      swap2\n      swap1\n      tag_37\n      jump\t// in\n    tag_194:\n      mload(0x40)\n      dup1\n      swap2\n      sub\n      swap1\n      log4\n        /* \"contracts/UniversalTokenContract.sol\":2567:2925  {... */\n      pop\n      pop\n        /* \"contracts/UniversalTokenContract.sol\":2460:2925  function createFungibleAsset(string calldata name, string calldata symbol, uint ts, address mintTo) public {... */\n      pop\n      pop\n      pop\n      pop\n      pop\n      pop\n      jump\t// out\n        /* \"contracts/UniversalTokenContract.sol\":3493:3683  function registerERC20(address token) public {... */\n    tag_67:\n        /* \"contracts/UniversalTokenContract.sol\":3548:3563  uint256 assetId */\n      0x00\n        /* \"contracts/UniversalTokenContract.sol\":3582:3587  token */\n      dup2\n        /* \"contracts/UniversalTokenContract.sol\":3566:3589  uint256(uint160(token)) */\n      0xffffffffffffffffffffffffffffffffffffffff\n      and\n        /* \"contracts/UniversalTokenContract.sol\":3548:3589  uint256 assetId = uint256(uint160(token)) */\n      swap1\n      pop\n        /* \"contracts/UniversalTokenContract.sol\":3626:3630  true */\n      0x01\n        /* \"contracts/UniversalTokenContract.sol\":3599:3614  wrapperRegistry */\n      0x09\n        /* \"contracts/UniversalTokenContract.sol\":3599:3623  wrapperRegistry[assetId] */\n      0x00\n        /* \"contracts/UniversalTokenContract.sol\":3615:3622  assetId */\n      dup4\n        /* \"contracts/UniversalTokenContract.sol\":3599:3623  wrapperRegistry[assetId] */\n      dup2\n      mstore\n      0x20\n      add\n      swap1\n      dup2\n      mstore\n      0x20\n      add\n      0x00\n      keccak256\n      0x00\n        /* \"contracts/UniversalTokenContract.sol\":3599:3630  wrapperRegistry[assetId] = true */\n      0x0100\n      exp\n      dup2\n      sload\n      dup2\n      0xff\n      mul\n      not\n      and\n      swap1\n      dup4\n      iszero\n      iszero\n      mul\n      or\n      swap1\n      sstore\n      pop\n        /* \"contracts/UniversalTokenContract.sol\":3668:3675  assetId */\n      dup1\n        /* \"contracts/UniversalTokenContract.sol\":3661:3666  token */\n      dup3\n        /* \"contracts/UniversalTokenContract.sol\":3645:3676  ERC20Registered(token, assetId) */\n      0xffffffffffffffffffffffffffffffffffffffff\n      and\n      0x5b3d0d66cd77c80fba853caba07ab174c47c6b13523c3418292b88c5a85272c0\n      mload(0x40)\n      mload(0x40)\n      dup1\n      swap2\n      sub\n      swap1\n      log3\n        /* \"contracts/UniversalTokenContract.sol\":3538:3683  {... */\n      pop\n        /* \"contracts/UniversalTokenContract.sol\":3493:3683  function registerERC20(address token) public {... */\n      pop\n      jump\t// out\n        /* \"contracts/UniversalTokenContract.sol\":1247:1322  mapping(uint assetTip => AssetMetadata assetMetadata) public assetMetadatas */\n    tag_70:\n      mstore(0x20, 0x05)\n      dup1\n      0x00\n      mstore\n      keccak256(0x00, 0x40)\n      0x00\n      swap2\n      pop\n      swap1\n      pop\n      dup1\n      0x00\n      add\n      dup1\n      sload\n      tag_196\n      swap1\n      tag_197\n      jump\t// in\n    tag_196:\n      dup1\n      0x1f\n      add\n      0x20\n      dup1\n      swap2\n      div\n      mul\n      0x20\n      add\n      mload(0x40)\n      swap1\n      dup2\n      add\n      0x40\n      mstore\n      dup1\n      swap3\n      swap2\n      swap1\n      dup2\n      dup2\n      mstore\n      0x20\n      add\n      dup3\n      dup1\n      sload\n      tag_198\n      swap1\n      tag_197\n      jump\t// in\n    tag_198:\n      dup1\n      iszero\n      tag_199\n      jumpi\n      dup1\n      0x1f\n      lt\n      tag_200\n      jumpi\n      0x0100\n      dup1\n      dup4\n      sload\n      div\n      mul\n      dup4\n      mstore\n      swap2\n      0x20\n      add\n      swap2\n      jump(tag_199)\n    tag_200:\n      dup3\n      add\n      swap2\n      swap1\n      0x00\n      mstore\n      keccak256(0x00, 0x20)\n      swap1\n    tag_201:\n      dup2\n      sload\n      dup2\n      mstore\n      swap1\n      0x01\n      add\n      swap1\n      0x20\n      add\n      dup1\n      dup4\n      gt\n      tag_201\n      jumpi\n      dup3\n      swap1\n      sub\n      0x1f\n      and\n      dup3\n      add\n      swap2\n    tag_199:\n      pop\n      pop\n      pop\n      pop\n      pop\n      swap1\n      dup1\n      0x01\n      add\n      dup1\n      sload\n      tag_202\n      swap1\n      tag_197\n      jump\t// in\n    tag_202:\n      dup1\n      0x1f\n      add\n      0x20\n      dup1\n      swap2\n      div\n      mul\n      0x20\n      add\n      mload(0x40)\n      swap1\n      dup2\n      add\n      0x40\n      mstore\n      dup1\n      swap3\n      swap2\n      swap1\n      dup2\n      dup2\n      mstore\n      0x20\n      add\n      dup3\n      dup1\n      sload\n      tag_203\n      swap1\n      tag_197\n      jump\t// in\n    tag_203:\n      dup1\n      iszero\n      tag_204\n      jumpi\n      dup1\n      0x1f\n      lt\n      tag_205\n      jumpi\n      0x0100\n      dup1\n      dup4\n      sload\n      div\n      mul\n      dup4\n      mstore\n      swap2\n      0x20\n      add\n      swap2\n      jump(tag_204)\n    tag_205:\n      dup3\n      add\n      swap2\n      swap1\n      0x00\n      mstore\n      keccak256(0x00, 0x20)\n      swap1\n    tag_206:\n      dup2\n      sload\n      dup2\n      mstore\n      swap1\n      0x01\n      add\n      swap1\n      0x20\n      add\n      dup1\n      dup4\n      gt\n      tag_206\n      jumpi\n      dup3\n      swap1\n      sub\n      0x1f\n      and\n      dup3\n      add\n      swap2\n    tag_204:\n      pop\n      pop\n      pop\n      pop\n      pop\n      swap1\n      dup1\n      0x02\n      add\n      0x00\n      swap1\n      sload\n      swap1\n      0x0100\n      exp\n      swap1\n      div\n      0xff\n      and\n      swap1\n      pop\n      dup4\n      jump\t// out\n        /* \"contracts/ERC6909.sol\":2696:2881  function approve(address spender, uint256 id, uint256 amount) public {... */\n    tag_75:\n        /* \"contracts/ERC6909.sol\":2812:2818  amount */\n      dup1\n        /* \"contracts/ERC6909.sol\":2775:2784  allowance */\n      0x02\n        /* \"contracts/ERC6909.sol\":2775:2796  allowance[msg.sender] */\n      0x00\n        /* \"contracts/ERC6909.sol\":2785:2795  msg.sender */\n      caller\n        /* \"contracts/ERC6909.sol\":2775:2796  allowance[msg.sender] */\n      0xffffffffffffffffffffffffffffffffffffffff\n      and\n      0xffffffffffffffffffffffffffffffffffffffff\n      and\n      dup2\n      mstore\n      0x20\n      add\n      swap1\n      dup2\n      mstore\n      0x20\n      add\n      0x00\n      keccak256\n        /* \"contracts/ERC6909.sol\":2775:2805  allowance[msg.sender][spender] */\n      0x00\n        /* \"contracts/ERC6909.sol\":2797:2804  spender */\n      dup6\n        /* \"contracts/ERC6909.sol\":2775:2805  allowance[msg.sender][spender] */\n      0xffffffffffffffffffffffffffffffffffffffff\n      and\n      0xffffffffffffffffffffffffffffffffffffffff\n      and\n      dup2\n      mstore\n      0x20\n      add\n      swap1\n      dup2\n      mstore\n      0x20\n      add\n      0x00\n      keccak256\n        /* \"contracts/ERC6909.sol\":2775:2809  allowance[msg.sender][spender][id] */\n      0x00\n        /* \"contracts/ERC6909.sol\":2806:2808  id */\n      dup5\n        /* \"contracts/ERC6909.sol\":2775:2809  allowance[msg.sender][spender][id] */\n      dup2\n      mstore\n      0x20\n      add\n      swap1\n      dup2\n      mstore\n      0x20\n      add\n      0x00\n      keccak256\n        /* \"contracts/ERC6909.sol\":2775:2818  allowance[msg.sender][spender][id] = amount */\n      dup2\n      swap1\n      sstore\n      pop\n        /* \"contracts/ERC6909.sol\":2863:2865  id */\n      dup2\n        /* \"contracts/ERC6909.sol\":2854:2861  spender */\n      dup4\n        /* \"contracts/ERC6909.sol\":2833:2874  Approval(msg.sender, spender, id, amount) */\n      0xffffffffffffffffffffffffffffffffffffffff\n      and\n        /* \"contracts/ERC6909.sol\":2842:2852  msg.sender */\n      caller\n        /* \"contracts/ERC6909.sol\":2833:2874  Approval(msg.sender, spender, id, amount) */\n      0xffffffffffffffffffffffffffffffffffffffff\n      and\n      0xb3fd5071835887567a0671151121894ddccc2842f1d10bedad13e0d17cace9a7\n        /* \"contracts/ERC6909.sol\":2867:2873  amount */\n      dup5\n        /* \"contracts/ERC6909.sol\":2833:2874  Approval(msg.sender, spender, id, amount) */\n      mload(0x40)\n      tag_208\n      swap2\n      swap1\n      tag_37\n      jump\t// in\n    tag_208:\n      mload(0x40)\n      dup1\n      swap2\n      sub\n      swap1\n      log4\n        /* \"contracts/ERC6909.sol\":2696:2881  function approve(address spender, uint256 id, uint256 amount) public {... */\n      pop\n      pop\n      pop\n      jump\t// out\n        /* \"contracts/ERC6909.sol\":3055:3231  function setOperator(address spender, bool approved) public {... */\n    tag_79:\n        /* \"contracts/ERC6909.sol\":3159:3167  approved */\n      dup1\n        /* \"contracts/ERC6909.sol\":3125:3135  isOperator */\n      0x03\n        /* \"contracts/ERC6909.sol\":3125:3147  isOperator[msg.sender] */\n      0x00\n        /* \"contracts/ERC6909.sol\":3136:3146  msg.sender */\n      caller\n        /* \"contracts/ERC6909.sol\":3125:3147  isOperator[msg.sender] */\n      0xffffffffffffffffffffffffffffffffffffffff\n      and\n      0xffffffffffffffffffffffffffffffffffffffff\n      and\n      dup2\n      mstore\n      0x20\n      add\n      swap1\n      dup2\n      mstore\n      0x20\n      add\n      0x00\n      keccak256\n        /* \"contracts/ERC6909.sol\":3125:3156  isOperator[msg.sender][spender] */\n      0x00\n        /* \"contracts/ERC6909.sol\":3148:3155  spender */\n      dup5\n        /* \"contracts/ERC6909.sol\":3125:3156  isOperator[msg.sender][spender] */\n      0xffffffffffffffffffffffffffffffffffffffff\n      and\n      0xffffffffffffffffffffffffffffffffffffffff\n      and\n      dup2\n      mstore\n      0x20\n      add\n      swap1\n      dup2\n      mstore\n      0x20\n      add\n      0x00\n      keccak256\n      0x00\n        /* \"contracts/ERC6909.sol\":3125:3167  isOperator[msg.sender][spender] = approved */\n      0x0100\n      exp\n      dup2\n      sload\n      dup2\n      0xff\n      mul\n      not\n      and\n      swap1\n      dup4\n      iszero\n      iszero\n      mul\n      or\n      swap1\n      sstore\n      pop\n        /* \"contracts/ERC6909.sol\":3206:3213  spender */\n      dup2\n        /* \"contracts/ERC6909.sol\":3182:3224  OperatorSet(msg.sender, spender, approved) */\n      0xffffffffffffffffffffffffffffffffffffffff\n      and\n        /* \"contracts/ERC6909.sol\":3194:3204  msg.sender */\n      caller\n        /* \"contracts/ERC6909.sol\":3182:3224  OperatorSet(msg.sender, spender, approved) */\n      0xffffffffffffffffffffffffffffffffffffffff\n      and\n      0xceb576d9f15e4e200fdb5096d64d5dfd667e16def20c1eefd14256d8e3faa267\n        /* \"contracts/ERC6909.sol\":3215:3223  approved */\n      dup4\n        /* \"contracts/ERC6909.sol\":3182:3224  OperatorSet(msg.sender, spender, approved) */\n      mload(0x40)\n      tag_210\n      swap2\n      swap1\n      tag_43\n      jump\t// in\n    tag_210:\n      mload(0x40)\n      dup1\n      swap2\n      sub\n      swap1\n      log3\n        /* \"contracts/ERC6909.sol\":3055:3231  function setOperator(address spender, bool approved) public {... */\n      pop\n      pop\n      jump\t// out\n        /* \"contracts/UniversalTokenContract.sol\":1390:1448  mapping(uint assetTip => address creator) public creatorOf */\n    tag_82:\n      mstore(0x20, 0x07)\n      dup1\n      0x00\n      mstore\n      keccak256(0x00, 0x40)\n      0x00\n      swap2\n      pop\n      sload\n      swap1\n      0x0100\n      exp\n      swap1\n      div\n      0xffffffffffffffffffffffffffffffffffffffff\n      and\n      dup2\n      jump\t// out\n        /* \"contracts/ERC6909.sol\":827:935  mapping(address owner => mapping(address spender => mapping(uint256 id => uint256 amount))) public allowance */\n    tag_88:\n      mstore(0x20, 0x02)\n      dup3\n      0x00\n      mstore\n      mstore(0x20, keccak256(0x00, 0x40))\n      dup2\n      0x00\n      mstore\n      mstore(0x20, keccak256(0x00, 0x40))\n      dup1\n      0x00\n      mstore\n      keccak256(0x00, 0x40)\n      0x00\n      swap3\n      pop\n      swap3\n      pop\n      pop\n      pop\n      sload\n      dup2\n      jump\t// out\n        /* \"contracts/UniversalTokenContract.sol\":1454:1507  mapping(uint assetId => address owner) public ownerOf */\n    tag_92:\n      mstore(0x20, 0x08)\n      dup1\n      0x00\n      mstore\n      keccak256(0x00, 0x40)\n      0x00\n      swap2\n      pop\n      sload\n      swap1\n      0x0100\n      exp\n      swap1\n      div\n      0xffffffffffffffffffffffffffffffffffffffff\n      and\n      dup2\n      jump\t// out\n        /* \"contracts/UniversalTokenContract.sol\":6920:7160  function getWrappedAssetId(address token, uint originalTokenId, bool isFungible) public pure returns(uint assetId) {... */\n    tag_97:\n        /* \"contracts/UniversalTokenContract.sol\":7021:7033  uint assetId */\n      0x00\n        /* \"contracts/UniversalTokenContract.sol\":7055:7065  isFungible */\n      dup2\n        /* \"contracts/UniversalTokenContract.sol\":7055:7153  isFungible? uint256(uint160(token)) : uint256(keccak256(abi.encodePacked(token, originalTokenId))) */\n      tag_212\n      jumpi\n        /* \"contracts/UniversalTokenContract.sol\":7128:7133  token */\n      dup4\n        /* \"contracts/UniversalTokenContract.sol\":7135:7150  originalTokenId */\n      dup4\n        /* \"contracts/UniversalTokenContract.sol\":7111:7151  abi.encodePacked(token, originalTokenId) */\n      add(0x20, mload(0x40))\n      tag_213\n      swap3\n      swap2\n      swap1\n      tag_149\n      jump\t// in\n    tag_213:\n      mload(0x40)\n      0x20\n      dup2\n      dup4\n      sub\n      sub\n      dup2\n      mstore\n      swap1\n      0x40\n      mstore\n        /* \"contracts/UniversalTokenContract.sol\":7101:7152  keccak256(abi.encodePacked(token, originalTokenId)) */\n      dup1\n      mload\n      swap1\n      0x20\n      add\n      keccak256\n        /* \"contracts/UniversalTokenContract.sol\":7093:7153  uint256(keccak256(abi.encodePacked(token, originalTokenId))) */\n      0x00\n      shr\n        /* \"contracts/UniversalTokenContract.sol\":7055:7153  isFungible? uint256(uint160(token)) : uint256(keccak256(abi.encodePacked(token, originalTokenId))) */\n      jump(tag_214)\n    tag_212:\n        /* \"contracts/UniversalTokenContract.sol\":7083:7088  token */\n      dup4\n        /* \"contracts/UniversalTokenContract.sol\":7067:7090  uint256(uint160(token)) */\n      0xffffffffffffffffffffffffffffffffffffffff\n      and\n        /* \"contracts/UniversalTokenContract.sol\":7055:7153  isFungible? uint256(uint160(token)) : uint256(keccak256(abi.encodePacked(token, originalTokenId))) */\n    tag_214:\n        /* \"contracts/UniversalTokenContract.sol\":7045:7153  assetId = isFungible? uint256(uint160(token)) : uint256(keccak256(abi.encodePacked(token, originalTokenId))) */\n      swap1\n      pop\n        /* \"contracts/UniversalTokenContract.sol\":6920:7160  function getWrappedAssetId(address token, uint originalTokenId, bool isFungible) public pure returns(uint assetId) {... */\n      swap4\n      swap3\n      pop\n      pop\n      pop\n      jump\t// out\n        /* \"contracts/UniversalTokenContract.sol\":4627:5272  function wrapERC721(address token, uint originalTokenId) public {... */\n    tag_101:\n        /* \"contracts/UniversalTokenContract.sol\":4701:4713  uint assetId */\n      0x00\n        /* \"contracts/UniversalTokenContract.sol\":4751:4756  token */\n      dup3\n        /* \"contracts/UniversalTokenContract.sol\":4758:4773  originalTokenId */\n      dup3\n        /* \"contracts/UniversalTokenContract.sol\":4734:4774  abi.encodePacked(token, originalTokenId) */\n      add(0x20, mload(0x40))\n      tag_216\n      swap3\n      swap2\n      swap1\n      tag_149\n      jump\t// in\n    tag_216:\n      mload(0x40)\n      0x20\n      dup2\n      dup4\n      sub\n      sub\n      dup2\n      mstore\n      swap1\n      0x40\n      mstore\n        /* \"contracts/UniversalTokenContract.sol\":4724:4775  keccak256(abi.encodePacked(token, originalTokenId)) */\n      dup1\n      mload\n      swap1\n      0x20\n      add\n      keccak256\n        /* \"contracts/UniversalTokenContract.sol\":4716:4776  uint256(keccak256(abi.encodePacked(token, originalTokenId))) */\n      0x00\n      shr\n        /* \"contracts/UniversalTokenContract.sol\":4701:4776  uint assetId = uint256(keccak256(abi.encodePacked(token, originalTokenId))) */\n      swap1\n      pop\n        /* \"contracts/UniversalTokenContract.sol\":4786:4804  string memory name */\n      0x00\n        /* \"contracts/UniversalTokenContract.sol\":4823:4828  token */\n      dup4\n        /* \"contracts/UniversalTokenContract.sol\":4807:4834  IERC721Metadata(token).name */\n      0xffffffffffffffffffffffffffffffffffffffff\n      and\n      0x06fdde03\n        /* \"contracts/UniversalTokenContract.sol\":4807:4836  IERC721Metadata(token).name() */\n      mload(0x40)\n      dup2\n      0xffffffff\n      and\n      0xe0\n      shl\n      dup2\n      mstore\n      0x04\n      add\n      0x00\n      mload(0x40)\n      dup1\n      dup4\n      sub\n      dup2\n      dup7\n      gas\n      staticcall\n      iszero\n      dup1\n      iszero\n      tag_218\n      jumpi\n      returndatasize\n      0x00\n      dup1\n      returndatacopy\n      revert(0x00, returndatasize)\n    tag_218:\n      pop\n      pop\n      pop\n      pop\n      mload(0x40)\n      returndatasize\n      0x00\n      dup3\n      returndatacopy\n      returndatasize\n      not(0x1f)\n      0x1f\n      dup3\n      add\n      and\n      dup3\n      add\n      dup1\n      0x40\n      mstore\n      pop\n      dup2\n      add\n      swap1\n      tag_219\n      swap2\n      swap1\n      tag_164\n      jump\t// in\n    tag_219:\n        /* \"contracts/UniversalTokenContract.sol\":4786:4836  string memory name = IERC721Metadata(token).name() */\n      swap1\n      pop\n        /* \"contracts/UniversalTokenContract.sol\":4846:4866  string memory symbol */\n      0x00\n        /* \"contracts/UniversalTokenContract.sol\":4885:4890  token */\n      dup5\n        /* \"contracts/UniversalTokenContract.sol\":4869:4898  IERC721Metadata(token).symbol */\n      0xffffffffffffffffffffffffffffffffffffffff\n      and\n      0x95d89b41\n        /* \"contracts/UniversalTokenContract.sol\":4869:4900  IERC721Metadata(token).symbol() */\n      mload(0x40)\n      dup2\n      0xffffffff\n      and\n      0xe0\n      shl\n      dup2\n      mstore\n      0x04\n      add\n      0x00\n      mload(0x40)\n      dup1\n      dup4\n      sub\n      dup2\n      dup7\n      gas\n      staticcall\n      iszero\n      dup1\n      iszero\n      tag_221\n      jumpi\n      returndatasize\n      0x00\n      dup1\n      returndatacopy\n      revert(0x00, returndatasize)\n    tag_221:\n      pop\n      pop\n      pop\n      pop\n      mload(0x40)\n      returndatasize\n      0x00\n      dup3\n      returndatacopy\n      returndatasize\n      not(0x1f)\n      0x1f\n      dup3\n      add\n      and\n      dup3\n      add\n      dup1\n      0x40\n      mstore\n      pop\n      dup2\n      add\n      swap1\n      tag_222\n      swap2\n      swap1\n      tag_164\n      jump\t// in\n    tag_222:\n        /* \"contracts/UniversalTokenContract.sol\":4846:4900  string memory symbol = IERC721Metadata(token).symbol() */\n      swap1\n      pop\n        /* \"contracts/UniversalTokenContract.sol\":4943:4944  1 */\n      0x01\n        /* \"contracts/UniversalTokenContract.sol\":4910:4919  balanceOf */\n      dup1\n        /* \"contracts/UniversalTokenContract.sol\":4910:4931  balanceOf[msg.sender] */\n      0x00\n        /* \"contracts/UniversalTokenContract.sol\":4920:4930  msg.sender */\n      caller\n        /* \"contracts/UniversalTokenContract.sol\":4910:4931  balanceOf[msg.sender] */\n      0xffffffffffffffffffffffffffffffffffffffff\n      and\n      0xffffffffffffffffffffffffffffffffffffffff\n      and\n      dup2\n      mstore\n      0x20\n      add\n      swap1\n      dup2\n      mstore\n      0x20\n      add\n      0x00\n      keccak256\n        /* \"contracts/UniversalTokenContract.sol\":4910:4940  balanceOf[msg.sender][assetId] */\n      0x00\n        /* \"contracts/UniversalTokenContract.sol\":4932:4939  assetId */\n      dup6\n        /* \"contracts/UniversalTokenContract.sol\":4910:4940  balanceOf[msg.sender][assetId] */\n      dup2\n      mstore\n      0x20\n      add\n      swap1\n      dup2\n      mstore\n      0x20\n      add\n      0x00\n      keccak256\n        /* \"contracts/UniversalTokenContract.sol\":4910:4944  balanceOf[msg.sender][assetId] = 1 */\n      dup2\n      swap1\n      sstore\n      pop\n        /* \"contracts/UniversalTokenContract.sol\":4977:4978  1 */\n      0x01\n        /* \"contracts/UniversalTokenContract.sol\":4954:4965  totalSupply */\n      0x00\n        /* \"contracts/UniversalTokenContract.sol\":4954:4974  totalSupply[assetId] */\n      dup1\n        /* \"contracts/UniversalTokenContract.sol\":4966:4973  assetId */\n      dup6\n        /* \"contracts/UniversalTokenContract.sol\":4954:4974  totalSupply[assetId] */\n      dup2\n      mstore\n      0x20\n      add\n      swap1\n      dup2\n      mstore\n      0x20\n      add\n      0x00\n      keccak256\n        /* \"contracts/UniversalTokenContract.sol\":4954:4978  totalSupply[assetId] = 1 */\n      dup2\n      swap1\n      sstore\n      pop\n        /* \"contracts/UniversalTokenContract.sol\":5014:5059  AssetMetadata(name, symbol, AssetType.ERC721) */\n      mload(0x40)\n      dup1\n      0x60\n      add\n      0x40\n      mstore\n      dup1\n        /* \"contracts/UniversalTokenContract.sol\":5028:5032  name */\n      dup4\n        /* \"contracts/UniversalTokenContract.sol\":5014:5059  AssetMetadata(name, symbol, AssetType.ERC721) */\n      dup2\n      mstore\n      0x20\n      add\n        /* \"contracts/UniversalTokenContract.sol\":5034:5040  symbol */\n      dup3\n        /* \"contracts/UniversalTokenContract.sol\":5014:5059  AssetMetadata(name, symbol, AssetType.ERC721) */\n      dup2\n      mstore\n      0x20\n      add\n        /* \"contracts/UniversalTokenContract.sol\":5042:5058  AssetType.ERC721 */\n      0x02\n        /* \"contracts/UniversalTokenContract.sol\":5014:5059  AssetMetadata(name, symbol, AssetType.ERC721) */\n      0x03\n      dup2\n      gt\n      iszero\n      tag_223\n      jumpi\n      tag_224\n      tag_154\n      jump\t// in\n    tag_224:\n    tag_223:\n      dup2\n      mstore\n      pop\n        /* \"contracts/UniversalTokenContract.sol\":4988:5002  assetMetadatas */\n      0x05\n        /* \"contracts/UniversalTokenContract.sol\":4988:5011  assetMetadatas[assetId] */\n      0x00\n        /* \"contracts/UniversalTokenContract.sol\":5003:5010  assetId */\n      dup6\n        /* \"contracts/UniversalTokenContract.sol\":4988:5011  assetMetadatas[assetId] */\n      dup2\n      mstore\n      0x20\n      add\n      swap1\n      dup2\n      mstore\n      0x20\n      add\n      0x00\n      keccak256\n        /* \"contracts/UniversalTokenContract.sol\":4988:5059  assetMetadatas[assetId] = AssetMetadata(name, symbol, AssetType.ERC721) */\n      0x00\n      dup3\n      add\n      mload\n      dup2\n      0x00\n      add\n      swap1\n      dup2\n      tag_225\n      swap2\n      swap1\n      tag_156\n      jump\t// in\n    tag_225:\n      pop\n      0x20\n      dup3\n      add\n      mload\n      dup2\n      0x01\n      add\n      swap1\n      dup2\n      tag_226\n      swap2\n      swap1\n      tag_156\n      jump\t// in\n    tag_226:\n      pop\n      0x40\n      dup3\n      add\n      mload\n      dup2\n      0x02\n      add\n      exp(0x0100, 0x00)\n      dup2\n      sload\n      dup2\n      0xff\n      mul\n      not\n      and\n      swap1\n      dup4\n      0x03\n      dup2\n      gt\n      iszero\n      tag_227\n      jumpi\n      tag_228\n      tag_154\n      jump\t// in\n    tag_228:\n    tag_227:\n      mul\n      or\n      swap1\n      sstore\n      pop\n      swap1\n      pop\n      pop\n        /* \"contracts/UniversalTokenContract.sol\":5105:5110  token */\n      dup5\n        /* \"contracts/UniversalTokenContract.sol\":5089:5120  IERC721Metadata(token).tokenURI */\n      0xffffffffffffffffffffffffffffffffffffffff\n      and\n      0xc87b56dd\n        /* \"contracts/UniversalTokenContract.sol\":5121:5136  originalTokenId */\n      dup6\n        /* \"contracts/UniversalTokenContract.sol\":5089:5137  IERC721Metadata(token).tokenURI(originalTokenId) */\n      mload(0x40)\n      dup3\n      0xffffffff\n      and\n      0xe0\n      shl\n      dup2\n      mstore\n      0x04\n      add\n      tag_229\n      swap2\n      swap1\n      tag_37\n      jump\t// in\n    tag_229:\n      0x00\n      mload(0x40)\n      dup1\n      dup4\n      sub\n      dup2\n      dup7\n      gas\n      staticcall\n      iszero\n      dup1\n      iszero\n      tag_231\n      jumpi\n      returndatasize\n      0x00\n      dup1\n      returndatacopy\n      revert(0x00, returndatasize)\n    tag_231:\n      pop\n      pop\n      pop\n      pop\n      mload(0x40)\n      returndatasize\n      0x00\n      dup3\n      returndatacopy\n      returndatasize\n      not(0x1f)\n      0x1f\n      dup3\n      add\n      and\n      dup3\n      add\n      dup1\n      0x40\n      mstore\n      pop\n      dup2\n      add\n      swap1\n      tag_232\n      swap2\n      swap1\n      tag_164\n      jump\t// in\n    tag_232:\n        /* \"contracts/UniversalTokenContract.sol\":5069:5077  tokenURI */\n      0x06\n        /* \"contracts/UniversalTokenContract.sol\":5069:5086  tokenURI[assetId] */\n      0x00\n        /* \"contracts/UniversalTokenContract.sol\":5078:5085  assetId */\n      dup6\n        /* \"contracts/UniversalTokenContract.sol\":5069:5086  tokenURI[assetId] */\n      dup2\n      mstore\n      0x20\n      add\n      swap1\n      dup2\n      mstore\n      0x20\n      add\n      0x00\n      keccak256\n        /* \"contracts/UniversalTokenContract.sol\":5069:5137  tokenURI[assetId] = IERC721Metadata(token).tokenURI(originalTokenId) */\n      swap1\n      dup2\n      tag_233\n      swap2\n      swap1\n      tag_156\n      jump\t// in\n    tag_233:\n      pop\n        /* \"contracts/UniversalTokenContract.sol\":5166:5176  msg.sender */\n      caller\n        /* \"contracts/UniversalTokenContract.sol\":5147:5154  ownerOf */\n      0x08\n        /* \"contracts/UniversalTokenContract.sol\":5147:5163  ownerOf[assetId] */\n      0x00\n        /* \"contracts/UniversalTokenContract.sol\":5155:5162  assetId */\n      dup6\n        /* \"contracts/UniversalTokenContract.sol\":5147:5163  ownerOf[assetId] */\n      dup2\n      mstore\n      0x20\n      add\n      swap1\n      dup2\n      mstore\n      0x20\n      add\n      0x00\n      keccak256\n      0x00\n        /* \"contracts/UniversalTokenContract.sol\":5147:5176  ownerOf[assetId] = msg.sender */\n      0x0100\n      exp\n      dup2\n      sload\n      dup2\n      0xffffffffffffffffffffffffffffffffffffffff\n      mul\n      not\n      and\n      swap1\n      dup4\n      0xffffffffffffffffffffffffffffffffffffffff\n      and\n      mul\n      or\n      swap1\n      sstore\n      pop\n        /* \"contracts/UniversalTokenContract.sol\":5202:5207  token */\n      dup5\n        /* \"contracts/UniversalTokenContract.sol\":5186:5221  IERC721Metadata(token).transferFrom */\n      0xffffffffffffffffffffffffffffffffffffffff\n      and\n      0x23b872dd\n        /* \"contracts/UniversalTokenContract.sol\":5222:5232  msg.sender */\n      caller\n        /* \"contracts/UniversalTokenContract.sol\":5242:5246  this */\n      address\n        /* \"contracts/UniversalTokenContract.sol\":5249:5264  originalTokenId */\n      dup8\n        /* \"contracts/UniversalTokenContract.sol\":5186:5265  IERC721Metadata(token).transferFrom(msg.sender, address(this), originalTokenId) */\n      mload(0x40)\n      dup5\n      0xffffffff\n      and\n      0xe0\n      shl\n      dup2\n      mstore\n      0x04\n      add\n      tag_234\n      swap4\n      swap3\n      swap2\n      swap1\n      tag_167\n      jump\t// in\n    tag_234:\n      0x00\n      mload(0x40)\n      dup1\n      dup4\n      sub\n      dup2\n      0x00\n      dup8\n      dup1\n      extcodesize\n      iszero\n      dup1\n      iszero\n      tag_235\n      jumpi\n      0x00\n      dup1\n      revert\n    tag_235:\n      pop\n      gas\n      call\n      iszero\n      dup1\n      iszero\n      tag_237\n      jumpi\n      returndatasize\n      0x00\n      dup1\n      returndatacopy\n      revert(0x00, returndatasize)\n    tag_237:\n      pop\n      pop\n      pop\n      pop\n        /* \"contracts/UniversalTokenContract.sol\":4691:5272  {... */\n      pop\n      pop\n      pop\n        /* \"contracts/UniversalTokenContract.sol\":4627:5272  function wrapERC721(address token, uint originalTokenId) public {... */\n      pop\n      pop\n      jump\t// out\n        /* \"contracts/UniversalTokenContract.sol\":3218:3395  function mintNonFungibleAsset(uint assetTip, uint tokenId, string calldata tokenURI_, address to) public {... */\n    tag_105:\n        /* \"contracts/UniversalTokenContract.sol\":3333:3388  _mintNonFungibleAsset(assetTip, tokenId, tokenURI_, to) */\n      tag_239\n        /* \"contracts/UniversalTokenContract.sol\":3355:3363  assetTip */\n      dup6\n        /* \"contracts/UniversalTokenContract.sol\":3365:3372  tokenId */\n      dup6\n        /* \"contracts/UniversalTokenContract.sol\":3374:3383  tokenURI_ */\n      dup6\n      dup6\n        /* \"contracts/UniversalTokenContract.sol\":3333:3388  _mintNonFungibleAsset(assetTip, tokenId, tokenURI_, to) */\n      dup1\n      dup1\n      0x1f\n      add\n      0x20\n      dup1\n      swap2\n      div\n      mul\n      0x20\n      add\n      mload(0x40)\n      swap1\n      dup2\n      add\n      0x40\n      mstore\n      dup1\n      swap4\n      swap3\n      swap2\n      swap1\n      dup2\n      dup2\n      mstore\n      0x20\n      add\n      dup4\n      dup4\n      dup1\n      dup3\n      dup5\n      calldatacopy\n      0x00\n      dup2\n      dup5\n      add\n      mstore\n      not(0x1f)\n      0x1f\n      dup3\n      add\n      and\n      swap1\n      pop\n      dup1\n      dup4\n      add\n      swap3\n      pop\n      pop\n      pop\n      pop\n      pop\n      pop\n      pop\n        /* \"contracts/UniversalTokenContract.sol\":3385:3387  to */\n      dup5\n        /* \"contracts/UniversalTokenContract.sol\":3333:3354  _mintNonFungibleAsset */\n      tag_240\n        /* \"contracts/UniversalTokenContract.sol\":3333:3388  _mintNonFungibleAsset(assetTip, tokenId, tokenURI_, to) */\n      jump\t// in\n    tag_239:\n        /* \"contracts/UniversalTokenContract.sol\":3218:3395  function mintNonFungibleAsset(uint assetTip, uint tokenId, string calldata tokenURI_, address to) public {... */\n      pop\n      pop\n      pop\n      pop\n      pop\n      jump\t// out\n        /* \"contracts/UniversalTokenContract.sol\":1222:1241  uint public nextTip */\n    tag_107:\n      sload(0x04)\n      dup2\n      jump\t// out\n        /* \"contracts/UniversalTokenContract.sol\":4214:4467  function registerERC1155(address token, uint originalTokenId) public {... */\n    tag_111:\n        /* \"contracts/UniversalTokenContract.sol\":4293:4308  uint256 assetId */\n      0x00\n        /* \"contracts/UniversalTokenContract.sol\":4346:4351  token */\n      dup3\n        /* \"contracts/UniversalTokenContract.sol\":4353:4368  originalTokenId */\n      dup3\n        /* \"contracts/UniversalTokenContract.sol\":4329:4369  abi.encodePacked(token, originalTokenId) */\n      add(0x20, mload(0x40))\n      tag_242\n      swap3\n      swap2\n      swap1\n      tag_149\n      jump\t// in\n    tag_242:\n      mload(0x40)\n      0x20\n      dup2\n      dup4\n      sub\n      sub\n      dup2\n      mstore\n      swap1\n      0x40\n      mstore\n        /* \"contracts/UniversalTokenContract.sol\":4319:4370  keccak256(abi.encodePacked(token, originalTokenId)) */\n      dup1\n      mload\n      swap1\n      0x20\n      add\n      keccak256\n        /* \"contracts/UniversalTokenContract.sol\":4311:4371  uint256(keccak256(abi.encodePacked(token, originalTokenId))) */\n      0x00\n      shr\n        /* \"contracts/UniversalTokenContract.sol\":4293:4371  uint256 assetId = uint256(keccak256(abi.encodePacked(token, originalTokenId))) */\n      swap1\n      pop\n        /* \"contracts/UniversalTokenContract.sol\":4408:4412  true */\n      0x01\n        /* \"contracts/UniversalTokenContract.sol\":4381:4396  wrapperRegistry */\n      0x09\n        /* \"contracts/UniversalTokenContract.sol\":4381:4405  wrapperRegistry[assetId] */\n      0x00\n        /* \"contracts/UniversalTokenContract.sol\":4397:4404  assetId */\n      dup4\n        /* \"contracts/UniversalTokenContract.sol\":4381:4405  wrapperRegistry[assetId] */\n      dup2\n      mstore\n      0x20\n      add\n      swap1\n      dup2\n      mstore\n      0x20\n      add\n      0x00\n      keccak256\n      0x00\n        /* \"contracts/UniversalTokenContract.sol\":4381:4412  wrapperRegistry[assetId] = true */\n      0x0100\n      exp\n      dup2\n      sload\n      dup2\n      0xff\n      mul\n      not\n      and\n      swap1\n      dup4\n      iszero\n      iszero\n      mul\n      or\n      swap1\n      sstore\n      pop\n        /* \"contracts/UniversalTokenContract.sol\":4452:4459  assetId */\n      dup1\n        /* \"contracts/UniversalTokenContract.sol\":4445:4450  token */\n      dup4\n        /* \"contracts/UniversalTokenContract.sol\":4427:4460  ERC1155Registered(token, assetId) */\n      0xffffffffffffffffffffffffffffffffffffffff\n      and\n      0x42c699e356d055085063365a4e84c9e98c43d151c68d72ebc3f611d697810a76\n      mload(0x40)\n      mload(0x40)\n      dup1\n      swap2\n      sub\n      swap1\n      log3\n        /* \"contracts/UniversalTokenContract.sol\":4283:4467  {... */\n      pop\n        /* \"contracts/UniversalTokenContract.sol\":4214:4467  function registerERC1155(address token, uint originalTokenId) public {... */\n      pop\n      pop\n      jump\t// out\n        /* \"contracts/UniversalTokenContract.sol\":6169:6703  function wrapERC20(address token, uint amount) public {... */\n    tag_114:\n        /* \"contracts/UniversalTokenContract.sol\":6233:6248  uint256 assetId */\n      0x00\n        /* \"contracts/UniversalTokenContract.sol\":6267:6272  token */\n      dup3\n        /* \"contracts/UniversalTokenContract.sol\":6251:6274  uint256(uint160(token)) */\n      0xffffffffffffffffffffffffffffffffffffffff\n      and\n        /* \"contracts/UniversalTokenContract.sol\":6233:6274  uint256 assetId = uint256(uint160(token)) */\n      swap1\n      pop\n        /* \"contracts/UniversalTokenContract.sol\":6284:6302  string memory name */\n      0x00\n        /* \"contracts/UniversalTokenContract.sol\":6320:6325  token */\n      dup4\n        /* \"contracts/UniversalTokenContract.sol\":6305:6331  IERC20Metadata(token).name */\n      0xffffffffffffffffffffffffffffffffffffffff\n      and\n      0x06fdde03\n        /* \"contracts/UniversalTokenContract.sol\":6305:6333  IERC20Metadata(token).name() */\n      mload(0x40)\n      dup2\n      0xffffffff\n      and\n      0xe0\n      shl\n      dup2\n      mstore\n      0x04\n      add\n      0x00\n      mload(0x40)\n      dup1\n      dup4\n      sub\n      dup2\n      dup7\n      gas\n      staticcall\n      iszero\n      dup1\n      iszero\n      tag_245\n      jumpi\n      returndatasize\n      0x00\n      dup1\n      returndatacopy\n      revert(0x00, returndatasize)\n    tag_245:\n      pop\n      pop\n      pop\n      pop\n      mload(0x40)\n      returndatasize\n      0x00\n      dup3\n      returndatacopy\n      returndatasize\n      not(0x1f)\n      0x1f\n      dup3\n      add\n      and\n      dup3\n      add\n      dup1\n      0x40\n      mstore\n      pop\n      dup2\n      add\n      swap1\n      tag_246\n      swap2\n      swap1\n      tag_164\n      jump\t// in\n    tag_246:\n        /* \"contracts/UniversalTokenContract.sol\":6284:6333  string memory name = IERC20Metadata(token).name() */\n      swap1\n      pop\n        /* \"contracts/UniversalTokenContract.sol\":6343:6363  string memory symbol */\n      0x00\n        /* \"contracts/UniversalTokenContract.sol\":6381:6386  token */\n      dup5\n        /* \"contracts/UniversalTokenContract.sol\":6366:6394  IERC20Metadata(token).symbol */\n      0xffffffffffffffffffffffffffffffffffffffff\n      and\n      0x95d89b41\n        /* \"contracts/UniversalTokenContract.sol\":6366:6396  IERC20Metadata(token).symbol() */\n      mload(0x40)\n      dup2\n      0xffffffff\n      and\n      0xe0\n      shl\n      dup2\n      mstore\n      0x04\n      add\n      0x00\n      mload(0x40)\n      dup1\n      dup4\n      sub\n      dup2\n      dup7\n      gas\n      staticcall\n      iszero\n      dup1\n      iszero\n      tag_248\n      jumpi\n      returndatasize\n      0x00\n      dup1\n      returndatacopy\n      revert(0x00, returndatasize)\n    tag_248:\n      pop\n      pop\n      pop\n      pop\n      mload(0x40)\n      returndatasize\n      0x00\n      dup3\n      returndatacopy\n      returndatasize\n      not(0x1f)\n      0x1f\n      dup3\n      add\n      and\n      dup3\n      add\n      dup1\n      0x40\n      mstore\n      pop\n      dup2\n      add\n      swap1\n      tag_249\n      swap2\n      swap1\n      tag_164\n      jump\t// in\n    tag_249:\n        /* \"contracts/UniversalTokenContract.sol\":6343:6396  string memory symbol = IERC20Metadata(token).symbol() */\n      swap1\n      pop\n        /* \"contracts/UniversalTokenContract.sol\":6440:6446  amount */\n      dup4\n        /* \"contracts/UniversalTokenContract.sol\":6406:6415  balanceOf */\n      0x01\n        /* \"contracts/UniversalTokenContract.sol\":6406:6427  balanceOf[msg.sender] */\n      0x00\n        /* \"contracts/UniversalTokenContract.sol\":6416:6426  msg.sender */\n      caller\n        /* \"contracts/UniversalTokenContract.sol\":6406:6427  balanceOf[msg.sender] */\n      0xffffffffffffffffffffffffffffffffffffffff\n      and\n      0xffffffffffffffffffffffffffffffffffffffff\n      and\n      dup2\n      mstore\n      0x20\n      add\n      swap1\n      dup2\n      mstore\n      0x20\n      add\n      0x00\n      keccak256\n        /* \"contracts/UniversalTokenContract.sol\":6406:6436  balanceOf[msg.sender][assetId] */\n      0x00\n        /* \"contracts/UniversalTokenContract.sol\":6428:6435  assetId */\n      dup6\n        /* \"contracts/UniversalTokenContract.sol\":6406:6436  balanceOf[msg.sender][assetId] */\n      dup2\n      mstore\n      0x20\n      add\n      swap1\n      dup2\n      mstore\n      0x20\n      add\n      0x00\n      keccak256\n      0x00\n        /* \"contracts/UniversalTokenContract.sol\":6406:6446  balanceOf[msg.sender][assetId] += amount */\n      dup3\n      dup3\n      sload\n      tag_250\n      swap2\n      swap1\n      tag_145\n      jump\t// in\n    tag_250:\n      swap3\n      pop\n      pop\n      dup2\n      swap1\n      sstore\n      pop\n        /* \"contracts/UniversalTokenContract.sol\":6478:6484  amount */\n      dup4\n        /* \"contracts/UniversalTokenContract.sol\":6456:6467  totalSupply */\n      0x00\n        /* \"contracts/UniversalTokenContract.sol\":6456:6476  totalSupply[assetId] */\n      dup1\n        /* \"contracts/UniversalTokenContract.sol\":6468:6475  assetId */\n      dup6\n        /* \"contracts/UniversalTokenContract.sol\":6456:6476  totalSupply[assetId] */\n      dup2\n      mstore\n      0x20\n      add\n      swap1\n      dup2\n      mstore\n      0x20\n      add\n      0x00\n      keccak256\n      0x00\n        /* \"contracts/UniversalTokenContract.sol\":6456:6484  totalSupply[assetId]+=amount */\n      dup3\n      dup3\n      sload\n      tag_251\n      swap2\n      swap1\n      tag_145\n      jump\t// in\n    tag_251:\n      swap3\n      pop\n      pop\n      dup2\n      swap1\n      sstore\n      pop\n        /* \"contracts/UniversalTokenContract.sol\":6520:6564  AssetMetadata(name, symbol, AssetType.ERC20) */\n      mload(0x40)\n      dup1\n      0x60\n      add\n      0x40\n      mstore\n      dup1\n        /* \"contracts/UniversalTokenContract.sol\":6534:6538  name */\n      dup4\n        /* \"contracts/UniversalTokenContract.sol\":6520:6564  AssetMetadata(name, symbol, AssetType.ERC20) */\n      dup2\n      mstore\n      0x20\n      add\n        /* \"contracts/UniversalTokenContract.sol\":6540:6546  symbol */\n      dup3\n        /* \"contracts/UniversalTokenContract.sol\":6520:6564  AssetMetadata(name, symbol, AssetType.ERC20) */\n      dup2\n      mstore\n      0x20\n      add\n        /* \"contracts/UniversalTokenContract.sol\":6548:6563  AssetType.ERC20 */\n      0x01\n        /* \"contracts/UniversalTokenContract.sol\":6520:6564  AssetMetadata(name, symbol, AssetType.ERC20) */\n      0x03\n      dup2\n      gt\n      iszero\n      tag_252\n      jumpi\n      tag_253\n      tag_154\n      jump\t// in\n    tag_253:\n    tag_252:\n      dup2\n      mstore\n      pop\n        /* \"contracts/UniversalTokenContract.sol\":6494:6508  assetMetadatas */\n      0x05\n        /* \"contracts/UniversalTokenContract.sol\":6494:6517  assetMetadatas[assetId] */\n      0x00\n        /* \"contracts/UniversalTokenContract.sol\":6509:6516  assetId */\n      dup6\n        /* \"contracts/UniversalTokenContract.sol\":6494:6517  assetMetadatas[assetId] */\n      dup2\n      mstore\n      0x20\n      add\n      swap1\n      dup2\n      mstore\n      0x20\n      add\n      0x00\n      keccak256\n        /* \"contracts/UniversalTokenContract.sol\":6494:6564  assetMetadatas[assetId] = AssetMetadata(name, symbol, AssetType.ERC20) */\n      0x00\n      dup3\n      add\n      mload\n      dup2\n      0x00\n      add\n      swap1\n      dup2\n      tag_254\n      swap2\n      swap1\n      tag_156\n      jump\t// in\n    tag_254:\n      pop\n      0x20\n      dup3\n      add\n      mload\n      dup2\n      0x01\n      add\n      swap1\n      dup2\n      tag_255\n      swap2\n      swap1\n      tag_156\n      jump\t// in\n    tag_255:\n      pop\n      0x40\n      dup3\n      add\n      mload\n      dup2\n      0x02\n      add\n      exp(0x0100, 0x00)\n      dup2\n      sload\n      dup2\n      0xff\n      mul\n      not\n      and\n      swap1\n      dup4\n      0x03\n      dup2\n      gt\n      iszero\n      tag_256\n      jumpi\n      tag_257\n      tag_154\n      jump\t// in\n    tag_257:\n    tag_256:\n      mul\n      or\n      swap1\n      sstore\n      pop\n      swap1\n      pop\n      pop\n        /* \"contracts/UniversalTokenContract.sol\":6594:6599  token */\n      dup5\n        /* \"contracts/UniversalTokenContract.sol\":6579:6609  IERC20Metadata(token).transfer */\n      0xffffffffffffffffffffffffffffffffffffffff\n      and\n      0xa9059cbb\n        /* \"contracts/UniversalTokenContract.sol\":6610:6620  msg.sender */\n      caller\n        /* \"contracts/UniversalTokenContract.sol\":6622:6628  amount */\n      dup7\n        /* \"contracts/UniversalTokenContract.sol\":6579:6629  IERC20Metadata(token).transfer(msg.sender, amount) */\n      mload(0x40)\n      dup4\n      0xffffffff\n      and\n      0xe0\n      shl\n      dup2\n      mstore\n      0x04\n      add\n      tag_258\n      swap3\n      swap2\n      swap1\n      tag_141\n      jump\t// in\n    tag_258:\n      0x20\n      mload(0x40)\n      dup1\n      dup4\n      sub\n      dup2\n      0x00\n      dup8\n      gas\n      call\n      iszero\n      dup1\n      iszero\n      tag_260\n      jumpi\n      returndatasize\n      0x00\n      dup1\n      returndatacopy\n      revert(0x00, returndatasize)\n    tag_260:\n      pop\n      pop\n      pop\n      pop\n      mload(0x40)\n      returndatasize\n      not(0x1f)\n      0x1f\n      dup3\n      add\n      and\n      dup3\n      add\n      dup1\n      0x40\n      mstore\n      pop\n      dup2\n      add\n      swap1\n      tag_261\n      swap2\n      swap1\n      tag_262\n      jump\t// in\n    tag_261:\n        /* \"contracts/UniversalTokenContract.sol\":6574:6697  if (!IERC20Metadata(token).transfer(msg.sender, amount)) {... */\n      tag_263\n      jumpi\n        /* \"contracts/UniversalTokenContract.sol\":6672:6677  token */\n      dup5\n        /* \"contracts/UniversalTokenContract.sol\":6679:6685  amount */\n      dup5\n        /* \"contracts/UniversalTokenContract.sol\":6652:6686  ERC20TransferFailed(token, amount) */\n      mload(0x40)\n      0x29b46a3000000000000000000000000000000000000000000000000000000000\n      dup2\n      mstore\n      0x04\n      add\n      tag_264\n      swap3\n      swap2\n      swap1\n      tag_141\n      jump\t// in\n    tag_264:\n      mload(0x40)\n      dup1\n      swap2\n      sub\n      swap1\n      revert\n        /* \"contracts/UniversalTokenContract.sol\":6574:6697  if (!IERC20Metadata(token).transfer(msg.sender, amount)) {... */\n    tag_263:\n        /* \"contracts/UniversalTokenContract.sol\":6223:6703  {... */\n      pop\n      pop\n      pop\n        /* \"contracts/UniversalTokenContract.sol\":6169:6703  function wrapERC20(address token, uint amount) public {... */\n      pop\n      pop\n      jump\t// out\n        /* \"contracts/UniversalTokenContract.sol\":3823:4074  function registerERC721(address token, uint originalTokenId) public {... */\n    tag_117:\n        /* \"contracts/UniversalTokenContract.sol\":3901:3916  uint256 assetId */\n      0x00\n        /* \"contracts/UniversalTokenContract.sol\":3954:3959  token */\n      dup3\n        /* \"contracts/UniversalTokenContract.sol\":3961:3976  originalTokenId */\n      dup3\n        /* \"contracts/UniversalTokenContract.sol\":3937:3977  abi.encodePacked(token, originalTokenId) */\n      add(0x20, mload(0x40))\n      tag_266\n      swap3\n      swap2\n      swap1\n      tag_149\n      jump\t// in\n    tag_266:\n      mload(0x40)\n      0x20\n      dup2\n      dup4\n      sub\n      sub\n      dup2\n      mstore\n      swap1\n      0x40\n      mstore\n        /* \"contracts/UniversalTokenContract.sol\":3927:3978  keccak256(abi.encodePacked(token, originalTokenId)) */\n      dup1\n      mload\n      swap1\n      0x20\n      add\n      keccak256\n        /* \"contracts/UniversalTokenContract.sol\":3919:3979  uint256(keccak256(abi.encodePacked(token, originalTokenId))) */\n      0x00\n      shr\n        /* \"contracts/UniversalTokenContract.sol\":3901:3979  uint256 assetId = uint256(keccak256(abi.encodePacked(token, originalTokenId))) */\n      swap1\n      pop\n        /* \"contracts/UniversalTokenContract.sol\":4016:4020  true */\n      0x01\n        /* \"contracts/UniversalTokenContract.sol\":3989:4004  wrapperRegistry */\n      0x09\n        /* \"contracts/UniversalTokenContract.sol\":3989:4013  wrapperRegistry[assetId] */\n      0x00\n        /* \"contracts/UniversalTokenContract.sol\":4005:4012  assetId */\n      dup4\n        /* \"contracts/UniversalTokenContract.sol\":3989:4013  wrapperRegistry[assetId] */\n      dup2\n      mstore\n      0x20\n      add\n      swap1\n      dup2\n      mstore\n      0x20\n      add\n      0x00\n      keccak256\n      0x00\n        /* \"contracts/UniversalTokenContract.sol\":3989:4020  wrapperRegistry[assetId] = true */\n      0x0100\n      exp\n      dup2\n      sload\n      dup2\n      0xff\n      mul\n      not\n      and\n      swap1\n      dup4\n      iszero\n      iszero\n      mul\n      or\n      swap1\n      sstore\n      pop\n        /* \"contracts/UniversalTokenContract.sol\":4059:4066  assetId */\n      dup1\n        /* \"contracts/UniversalTokenContract.sol\":4052:4057  token */\n      dup4\n        /* \"contracts/UniversalTokenContract.sol\":4035:4067  ERC721Registered(token, assetId) */\n      0xffffffffffffffffffffffffffffffffffffffff\n      and\n      0xfa5c2ee785b78e697c290a0923bad9f131ccd33f1241bc40181177121ebd8195\n      mload(0x40)\n      mload(0x40)\n      dup1\n      swap2\n      sub\n      swap1\n      log3\n        /* \"contracts/UniversalTokenContract.sol\":3891:4074  {... */\n      pop\n        /* \"contracts/UniversalTokenContract.sol\":3823:4074  function registerERC721(address token, uint originalTokenId) public {... */\n      pop\n      pop\n      jump\t// out\n        /* \"contracts/ERC6909.sol\":1018:1094  mapping(address owner => mapping(address spender => bool)) public isOperator */\n    tag_121:\n      mstore(0x20, 0x03)\n      dup2\n      0x00\n      mstore\n      mstore(0x20, keccak256(0x00, 0x40))\n      dup1\n      0x00\n      mstore\n      keccak256(0x00, 0x40)\n      0x00\n      swap2\n      pop\n      swap2\n      pop\n      swap1\n      sload\n      swap1\n      0x0100\n      exp\n      swap1\n      div\n      0xff\n      and\n      dup2\n      jump\t// out\n        /* \"contracts/ERC6909.sol\":593:649  mapping(uint256 id => uint256 amount) public totalSupply */\n    tag_125:\n      mstore(0x20, 0x00)\n      dup1\n      0x00\n      mstore\n      keccak256(0x00, 0x40)\n      0x00\n      swap2\n      pop\n      swap1\n      pop\n      sload\n      dup2\n      jump\t// out\n        /* \"contracts/UniversalTokenContract.sol\":1328:1384  mapping(uint assetId => string tokenURI) public tokenURI */\n    tag_129:\n      mstore(0x20, 0x06)\n      dup1\n      0x00\n      mstore\n      keccak256(0x00, 0x40)\n      0x00\n      swap2\n      pop\n      swap1\n      pop\n      dup1\n      sload\n      tag_267\n      swap1\n      tag_197\n      jump\t// in\n    tag_267:\n      dup1\n      0x1f\n      add\n      0x20\n      dup1\n      swap2\n      div\n      mul\n      0x20\n      add\n      mload(0x40)\n      swap1\n      dup2\n      add\n      0x40\n      mstore\n      dup1\n      swap3\n      swap2\n      swap1\n      dup2\n      dup2\n      mstore\n      0x20\n      add\n      dup3\n      dup1\n      sload\n      tag_268\n      swap1\n      tag_197\n      jump\t// in\n    tag_268:\n      dup1\n      iszero\n      tag_269\n      jumpi\n      dup1\n      0x1f\n      lt\n      tag_270\n      jumpi\n      0x0100\n      dup1\n      dup4\n      sload\n      div\n      mul\n      dup4\n      mstore\n      swap2\n      0x20\n      add\n      swap2\n      jump(tag_269)\n    tag_270:\n      dup3\n      add\n      swap2\n      swap1\n      0x00\n      mstore\n      keccak256(0x00, 0x20)\n      swap1\n    tag_271:\n      dup2\n      sload\n      dup2\n      mstore\n      swap1\n      0x01\n      add\n      swap1\n      0x20\n      add\n      dup1\n      dup4\n      gt\n      tag_271\n      jumpi\n      dup3\n      swap1\n      sub\n      0x1f\n      and\n      dup3\n      add\n      swap2\n    tag_269:\n      pop\n      pop\n      pop\n      pop\n      pop\n      dup2\n      jump\t// out\n        /* \"contracts/ERC6909.sol\":1899:2495  function transferFrom(address sender, address receiver, uint256 id, uint256 amount) public {... */\n    tag_135:\n        /* \"contracts/ERC6909.sol\":2014:2024  msg.sender */\n      caller\n        /* \"contracts/ERC6909.sol\":2004:2024  sender != msg.sender */\n      0xffffffffffffffffffffffffffffffffffffffff\n      and\n        /* \"contracts/ERC6909.sol\":2004:2010  sender */\n      dup5\n        /* \"contracts/ERC6909.sol\":2004:2024  sender != msg.sender */\n      0xffffffffffffffffffffffffffffffffffffffff\n      and\n      eq\n      iszero\n        /* \"contracts/ERC6909.sol\":2004:2059  sender != msg.sender && !isOperator[sender][msg.sender] */\n      dup1\n      iszero\n      tag_273\n      jumpi\n      pop\n        /* \"contracts/ERC6909.sol\":2029:2039  isOperator */\n      0x03\n        /* \"contracts/ERC6909.sol\":2029:2047  isOperator[sender] */\n      0x00\n        /* \"contracts/ERC6909.sol\":2040:2046  sender */\n      dup6\n        /* \"contracts/ERC6909.sol\":2029:2047  isOperator[sender] */\n      0xffffffffffffffffffffffffffffffffffffffff\n      and\n      0xffffffffffffffffffffffffffffffffffffffff\n      and\n      dup2\n      mstore\n      0x20\n      add\n      swap1\n      dup2\n      mstore\n      0x20\n      add\n      0x00\n      keccak256\n        /* \"contracts/ERC6909.sol\":2029:2059  isOperator[sender][msg.sender] */\n      0x00\n        /* \"contracts/ERC6909.sol\":2048:2058  msg.sender */\n      caller\n        /* \"contracts/ERC6909.sol\":2029:2059  isOperator[sender][msg.sender] */\n      0xffffffffffffffffffffffffffffffffffffffff\n      and\n      0xffffffffffffffffffffffffffffffffffffffff\n      and\n      dup2\n      mstore\n      0x20\n      add\n      swap1\n      dup2\n      mstore\n      0x20\n      add\n      0x00\n      keccak256\n      0x00\n      swap1\n      sload\n      swap1\n      0x0100\n      exp\n      swap1\n      div\n      0xff\n      and\n        /* \"contracts/ERC6909.sol\":2028:2059  !isOperator[sender][msg.sender] */\n      iszero\n        /* \"contracts/ERC6909.sol\":2004:2059  sender != msg.sender && !isOperator[sender][msg.sender] */\n    tag_273:\n        /* \"contracts/ERC6909.sol\":2000:2268  if (sender != msg.sender && !isOperator[sender][msg.sender]) {... */\n      iszero\n      tag_274\n      jumpi\n        /* \"contracts/ERC6909.sol\":2115:2121  amount */\n      dup1\n        /* \"contracts/ERC6909.sol\":2079:2088  allowance */\n      0x02\n        /* \"contracts/ERC6909.sol\":2079:2096  allowance[sender] */\n      0x00\n        /* \"contracts/ERC6909.sol\":2089:2095  sender */\n      dup7\n        /* \"contracts/ERC6909.sol\":2079:2096  allowance[sender] */\n      0xffffffffffffffffffffffffffffffffffffffff\n      and\n      0xffffffffffffffffffffffffffffffffffffffff\n      and\n      dup2\n      mstore\n      0x20\n      add\n      swap1\n      dup2\n      mstore\n      0x20\n      add\n      0x00\n      keccak256\n        /* \"contracts/ERC6909.sol\":2079:2108  allowance[sender][msg.sender] */\n      0x00\n        /* \"contracts/ERC6909.sol\":2097:2107  msg.sender */\n      caller\n        /* \"contracts/ERC6909.sol\":2079:2108  allowance[sender][msg.sender] */\n      0xffffffffffffffffffffffffffffffffffffffff\n      and\n      0xffffffffffffffffffffffffffffffffffffffff\n      and\n      dup2\n      mstore\n      0x20\n      add\n      swap1\n      dup2\n      mstore\n      0x20\n      add\n      0x00\n      keccak256\n        /* \"contracts/ERC6909.sol\":2079:2112  allowance[sender][msg.sender][id] */\n      0x00\n        /* \"contracts/ERC6909.sol\":2109:2111  id */\n      dup5\n        /* \"contracts/ERC6909.sol\":2079:2112  allowance[sender][msg.sender][id] */\n      dup2\n      mstore\n      0x20\n      add\n      swap1\n      dup2\n      mstore\n      0x20\n      add\n      0x00\n      keccak256\n      sload\n        /* \"contracts/ERC6909.sol\":2079:2121  allowance[sender][msg.sender][id] < amount */\n      lt\n        /* \"contracts/ERC6909.sol\":2075:2201  if (allowance[sender][msg.sender][id] < amount) {... */\n      iszero\n      tag_275\n      jumpi\n        /* \"contracts/ERC6909.sol\":2171:2181  msg.sender */\n      caller\n        /* \"contracts/ERC6909.sol\":2183:2185  id */\n      dup3\n        /* \"contracts/ERC6909.sol\":2148:2186  InsufficientPermission(msg.sender, id) */\n      mload(0x40)\n      0x731555bd00000000000000000000000000000000000000000000000000000000\n      dup2\n      mstore\n      0x04\n      add\n      tag_276\n      swap3\n      swap2\n      swap1\n      tag_141\n      jump\t// in\n    tag_276:\n      mload(0x40)\n      dup1\n      swap2\n      sub\n      swap1\n      revert\n        /* \"contracts/ERC6909.sol\":2075:2201  if (allowance[sender][msg.sender][id] < amount) {... */\n    tag_275:\n        /* \"contracts/ERC6909.sol\":2251:2257  amount */\n      dup1\n        /* \"contracts/ERC6909.sol\":2214:2223  allowance */\n      0x02\n        /* \"contracts/ERC6909.sol\":2214:2231  allowance[sender] */\n      0x00\n        /* \"contracts/ERC6909.sol\":2224:2230  sender */\n      dup7\n        /* \"contracts/ERC6909.sol\":2214:2231  allowance[sender] */\n      0xffffffffffffffffffffffffffffffffffffffff\n      and\n      0xffffffffffffffffffffffffffffffffffffffff\n      and\n      dup2\n      mstore\n      0x20\n      add\n      swap1\n      dup2\n      mstore\n      0x20\n      add\n      0x00\n      keccak256\n        /* \"contracts/ERC6909.sol\":2214:2243  allowance[sender][msg.sender] */\n      0x00\n        /* \"contracts/ERC6909.sol\":2232:2242  msg.sender */\n      caller\n        /* \"contracts/ERC6909.sol\":2214:2243  allowance[sender][msg.sender] */\n      0xffffffffffffffffffffffffffffffffffffffff\n      and\n      0xffffffffffffffffffffffffffffffffffffffff\n      and\n      dup2\n      mstore\n      0x20\n      add\n      swap1\n      dup2\n      mstore\n      0x20\n      add\n      0x00\n      keccak256\n        /* \"contracts/ERC6909.sol\":2214:2247  allowance[sender][msg.sender][id] */\n      0x00\n        /* \"contracts/ERC6909.sol\":2244:2246  id */\n      dup5\n        /* \"contracts/ERC6909.sol\":2214:2247  allowance[sender][msg.sender][id] */\n      dup2\n      mstore\n      0x20\n      add\n      swap1\n      dup2\n      mstore\n      0x20\n      add\n      0x00\n      keccak256\n      0x00\n        /* \"contracts/ERC6909.sol\":2214:2257  allowance[sender][msg.sender][id] -= amount */\n      dup3\n      dup3\n      sload\n      tag_277\n      swap2\n      swap1\n      tag_143\n      jump\t// in\n    tag_277:\n      swap3\n      pop\n      pop\n      dup2\n      swap1\n      sstore\n      pop\n        /* \"contracts/ERC6909.sol\":2000:2268  if (sender != msg.sender && !isOperator[sender][msg.sender]) {... */\n    tag_274:\n        /* \"contracts/ERC6909.sol\":2305:2311  amount */\n      dup1\n        /* \"contracts/ERC6909.sol\":2281:2290  balanceOf */\n      0x01\n        /* \"contracts/ERC6909.sol\":2281:2298  balanceOf[sender] */\n      0x00\n        /* \"contracts/ERC6909.sol\":2291:2297  sender */\n      dup7\n        /* \"contracts/ERC6909.sol\":2281:2298  balanceOf[sender] */\n      0xffffffffffffffffffffffffffffffffffffffff\n      and\n      0xffffffffffffffffffffffffffffffffffffffff\n      and\n      dup2\n      mstore\n      0x20\n      add\n      swap1\n      dup2\n      mstore\n      0x20\n      add\n      0x00\n      keccak256\n        /* \"contracts/ERC6909.sol\":2281:2302  balanceOf[sender][id] */\n      0x00\n        /* \"contracts/ERC6909.sol\":2299:2301  id */\n      dup5\n        /* \"contracts/ERC6909.sol\":2281:2302  balanceOf[sender][id] */\n      dup2\n      mstore\n      0x20\n      add\n      swap1\n      dup2\n      mstore\n      0x20\n      add\n      0x00\n      keccak256\n      sload\n        /* \"contracts/ERC6909.sol\":2281:2311  balanceOf[sender][id] < amount */\n      lt\n        /* \"contracts/ERC6909.sol\":2277:2351  if (balanceOf[sender][id] < amount) revert InsufficientBalance(sender, id) */\n      iszero\n      tag_278\n      jumpi\n        /* \"contracts/ERC6909.sol\":2340:2346  sender */\n      dup4\n        /* \"contracts/ERC6909.sol\":2348:2350  id */\n      dup3\n        /* \"contracts/ERC6909.sol\":2320:2351  InsufficientBalance(sender, id) */\n      mload(0x40)\n      0xf6deaa0400000000000000000000000000000000000000000000000000000000\n      dup2\n      mstore\n      0x04\n      add\n      tag_279\n      swap3\n      swap2\n      swap1\n      tag_141\n      jump\t// in\n    tag_279:\n      mload(0x40)\n      dup1\n      swap2\n      sub\n      swap1\n      revert\n        /* \"contracts/ERC6909.sol\":2277:2351  if (balanceOf[sender][id] < amount) revert InsufficientBalance(sender, id) */\n    tag_278:\n        /* \"contracts/ERC6909.sol\":2386:2392  amount */\n      dup1\n        /* \"contracts/ERC6909.sol\":2361:2370  balanceOf */\n      0x01\n        /* \"contracts/ERC6909.sol\":2361:2378  balanceOf[sender] */\n      0x00\n        /* \"contracts/ERC6909.sol\":2371:2377  sender */\n      dup7\n        /* \"contracts/ERC6909.sol\":2361:2378  balanceOf[sender] */\n      0xffffffffffffffffffffffffffffffffffffffff\n      and\n      0xffffffffffffffffffffffffffffffffffffffff\n      and\n      dup2\n      mstore\n      0x20\n      add\n      swap1\n      dup2\n      mstore\n      0x20\n      add\n      0x00\n      keccak256\n        /* \"contracts/ERC6909.sol\":2361:2382  balanceOf[sender][id] */\n      0x00\n        /* \"contracts/ERC6909.sol\":2379:2381  id */\n      dup5\n        /* \"contracts/ERC6909.sol\":2361:2382  balanceOf[sender][id] */\n      dup2\n      mstore\n      0x20\n      add\n      swap1\n      dup2\n      mstore\n      0x20\n      add\n      0x00\n      keccak256\n      0x00\n        /* \"contracts/ERC6909.sol\":2361:2392  balanceOf[sender][id] -= amount */\n      dup3\n      dup3\n      sload\n      tag_280\n      swap2\n      swap1\n      tag_143\n      jump\t// in\n    tag_280:\n      swap3\n      pop\n      pop\n      dup2\n      swap1\n      sstore\n      pop\n        /* \"contracts/ERC6909.sol\":2429:2435  amount */\n      dup1\n        /* \"contracts/ERC6909.sol\":2402:2411  balanceOf */\n      0x01\n        /* \"contracts/ERC6909.sol\":2402:2421  balanceOf[receiver] */\n      0x00\n        /* \"contracts/ERC6909.sol\":2412:2420  receiver */\n      dup6\n        /* \"contracts/ERC6909.sol\":2402:2421  balanceOf[receiver] */\n      0xffffffffffffffffffffffffffffffffffffffff\n      and\n      0xffffffffffffffffffffffffffffffffffffffff\n      and\n      dup2\n      mstore\n      0x20\n      add\n      swap1\n      dup2\n      mstore\n      0x20\n      add\n      0x00\n      keccak256\n        /* \"contracts/ERC6909.sol\":2402:2425  balanceOf[receiver][id] */\n      0x00\n        /* \"contracts/ERC6909.sol\":2422:2424  id */\n      dup5\n        /* \"contracts/ERC6909.sol\":2402:2425  balanceOf[receiver][id] */\n      dup2\n      mstore\n      0x20\n      add\n      swap1\n      dup2\n      mstore\n      0x20\n      add\n      0x00\n      keccak256\n      0x00\n        /* \"contracts/ERC6909.sol\":2402:2435  balanceOf[receiver][id] += amount */\n      dup3\n      dup3\n      sload\n      tag_281\n      swap2\n      swap1\n      tag_145\n      jump\t// in\n    tag_281:\n      swap3\n      pop\n      pop\n      dup2\n      swap1\n      sstore\n      pop\n        /* \"contracts/ERC6909.sol\":2477:2479  id */\n      dup2\n        /* \"contracts/ERC6909.sol\":2467:2475  receiver */\n      dup4\n        /* \"contracts/ERC6909.sol\":2450:2488  Transfer(sender, receiver, id, amount) */\n      0xffffffffffffffffffffffffffffffffffffffff\n      and\n        /* \"contracts/ERC6909.sol\":2459:2465  sender */\n      dup6\n        /* \"contracts/ERC6909.sol\":2450:2488  Transfer(sender, receiver, id, amount) */\n      0xffffffffffffffffffffffffffffffffffffffff\n      and\n      0x9ed053bb818ff08b8353cd46f78db1f0799f31c9e4458fdb425c10eccd2efc44\n        /* \"contracts/ERC6909.sol\":2481:2487  amount */\n      dup5\n        /* \"contracts/ERC6909.sol\":2450:2488  Transfer(sender, receiver, id, amount) */\n      mload(0x40)\n      tag_282\n      swap2\n      swap1\n      tag_37\n      jump\t// in\n    tag_282:\n      mload(0x40)\n      dup1\n      swap2\n      sub\n      swap1\n      log4\n        /* \"contracts/ERC6909.sol\":1899:2495  function transferFrom(address sender, address receiver, uint256 id, uint256 amount) public {... */\n      pop\n      pop\n      pop\n      pop\n      jump\t// out\n        /* \"contracts/UniversalTokenContract.sol\":7444:8139  function _mintNonFungibleAsset(uint assetTip, uint tokenId, string memory tokenURI_, address to) internal {... */\n    tag_240:\n        /* \"contracts/UniversalTokenContract.sol\":7606:7622  AssetType.ERC721 */\n      0x02\n        /* \"contracts/UniversalTokenContract.sol\":7568:7622  assetMetadatas[assetTip].assetType == AssetType.ERC721 */\n      0x03\n      dup2\n      gt\n      iszero\n      tag_284\n      jumpi\n      tag_285\n      tag_154\n      jump\t// in\n    tag_285:\n    tag_284:\n        /* \"contracts/UniversalTokenContract.sol\":7568:7582  assetMetadatas */\n      0x05\n        /* \"contracts/UniversalTokenContract.sol\":7568:7592  assetMetadatas[assetTip] */\n      0x00\n        /* \"contracts/UniversalTokenContract.sol\":7583:7591  assetTip */\n      dup7\n        /* \"contracts/UniversalTokenContract.sol\":7568:7592  assetMetadatas[assetTip] */\n      dup2\n      mstore\n      0x20\n      add\n      swap1\n      dup2\n      mstore\n      0x20\n      add\n      0x00\n      keccak256\n        /* \"contracts/UniversalTokenContract.sol\":7568:7602  assetMetadatas[assetTip].assetType */\n      0x02\n      add\n      0x00\n      swap1\n      sload\n      swap1\n      0x0100\n      exp\n      swap1\n      div\n      0xff\n      and\n        /* \"contracts/UniversalTokenContract.sol\":7568:7622  assetMetadatas[assetTip].assetType == AssetType.ERC721 */\n      0x03\n      dup2\n      gt\n      iszero\n      tag_286\n      jumpi\n      tag_287\n      tag_154\n      jump\t// in\n    tag_287:\n    tag_286:\n      eq\n        /* \"contracts/UniversalTokenContract.sol\":7560:7651  require(assetMetadatas[assetTip].assetType == AssetType.ERC721, \"This asset is not an NFT\") */\n      tag_288\n      jumpi\n      mload(0x40)\n      0x08c379a000000000000000000000000000000000000000000000000000000000\n      dup2\n      mstore\n      0x04\n      add\n      tag_289\n      swap1\n      tag_290\n      jump\t// in\n    tag_289:\n      mload(0x40)\n      dup1\n      swap2\n      sub\n      swap1\n      revert\n    tag_288:\n        /* \"contracts/UniversalTokenContract.sol\":7661:7673  uint assetId */\n      0x00\n        /* \"contracts/UniversalTokenContract.sol\":7687:7694  tokenId */\n      dup4\n        /* \"contracts/UniversalTokenContract.sol\":7676:7684  assetTip */\n      dup6\n        /* \"contracts/UniversalTokenContract.sol\":7676:7694  assetTip + tokenId */\n      tag_291\n      swap2\n      swap1\n      tag_145\n      jump\t// in\n    tag_291:\n        /* \"contracts/UniversalTokenContract.sol\":7661:7694  uint assetId = assetTip + tokenId */\n      swap1\n      pop\n        /* \"contracts/UniversalTokenContract.sol\":7740:7743  0x0 */\n      0x00\n        /* \"contracts/UniversalTokenContract.sol\":7712:7744  ownerOf[assetId] == address(0x0) */\n      0xffffffffffffffffffffffffffffffffffffffff\n      and\n        /* \"contracts/UniversalTokenContract.sol\":7712:7719  ownerOf */\n      0x08\n        /* \"contracts/UniversalTokenContract.sol\":7712:7728  ownerOf[assetId] */\n      0x00\n        /* \"contracts/UniversalTokenContract.sol\":7720:7727  assetId */\n      dup4\n        /* \"contracts/UniversalTokenContract.sol\":7712:7728  ownerOf[assetId] */\n      dup2\n      mstore\n      0x20\n      add\n      swap1\n      dup2\n      mstore\n      0x20\n      add\n      0x00\n      keccak256\n      0x00\n      swap1\n      sload\n      swap1\n      0x0100\n      exp\n      swap1\n      div\n      0xffffffffffffffffffffffffffffffffffffffff\n      and\n        /* \"contracts/UniversalTokenContract.sol\":7712:7744  ownerOf[assetId] == address(0x0) */\n      0xffffffffffffffffffffffffffffffffffffffff\n      and\n      eq\n        /* \"contracts/UniversalTokenContract.sol\":7704:7776  require(ownerOf[assetId] == address(0x0), \"This asset is already owned\") */\n      tag_292\n      jumpi\n      mload(0x40)\n      0x08c379a000000000000000000000000000000000000000000000000000000000\n      dup2\n      mstore\n      0x04\n      add\n      tag_293\n      swap1\n      tag_294\n      jump\t// in\n    tag_293:\n      mload(0x40)\n      dup1\n      swap2\n      sub\n      swap1\n      revert\n    tag_292:\n        /* \"contracts/UniversalTokenContract.sol\":7816:7827  totalSupply */\n      0x00\n        /* \"contracts/UniversalTokenContract.sol\":7816:7837  totalSupply[assetTip] */\n      dup1\n        /* \"contracts/UniversalTokenContract.sol\":7828:7836  assetTip */\n      dup7\n        /* \"contracts/UniversalTokenContract.sol\":7816:7837  totalSupply[assetTip] */\n      dup2\n      mstore\n      0x20\n      add\n      swap1\n      dup2\n      mstore\n      0x20\n      add\n      0x00\n      keccak256\n      sload\n        /* \"contracts/UniversalTokenContract.sol\":7805:7813  assetTip */\n      dup6\n        /* \"contracts/UniversalTokenContract.sol\":7805:7837  assetTip + totalSupply[assetTip] */\n      tag_295\n      swap2\n      swap1\n      tag_145\n      jump\t// in\n    tag_295:\n        /* \"contracts/UniversalTokenContract.sol\":7794:7801  assetId */\n      dup2\n        /* \"contracts/UniversalTokenContract.sol\":7794:7837  assetId <= assetTip + totalSupply[assetTip] */\n      gt\n      iszero\n        /* \"contracts/UniversalTokenContract.sol\":7786:7863  require(assetId <= assetTip + totalSupply[assetTip], \"Asset member exceeded\") */\n      tag_296\n      jumpi\n      mload(0x40)\n      0x08c379a000000000000000000000000000000000000000000000000000000000\n      dup2\n      mstore\n      0x04\n      add\n      tag_297\n      swap1\n      tag_298\n      jump\t// in\n    tag_297:\n      mload(0x40)\n      dup1\n      swap2\n      sub\n      swap1\n      revert\n    tag_296:\n        /* \"contracts/UniversalTokenContract.sol\":7892:7900  assetTip */\n      dup5\n        /* \"contracts/UniversalTokenContract.sol\":7881:7888  assetId */\n      dup2\n        /* \"contracts/UniversalTokenContract.sol\":7881:7900  assetId != assetTip */\n      sub\n        /* \"contracts/UniversalTokenContract.sol\":7873:7971  require(assetId != assetTip, \"An asset tip is only an identifier and cannot be owned as an asset\") */\n      tag_299\n      jumpi\n      mload(0x40)\n      0x08c379a000000000000000000000000000000000000000000000000000000000\n      dup2\n      mstore\n      0x04\n      add\n      tag_300\n      swap1\n      tag_301\n      jump\t// in\n    tag_300:\n      mload(0x40)\n      dup1\n      swap2\n      sub\n      swap1\n      revert\n    tag_299:\n        /* \"contracts/UniversalTokenContract.sol\":7981:7990  balanceOf */\n      0x01\n        /* \"contracts/UniversalTokenContract.sol\":7981:7994  balanceOf[to] */\n      0x00\n        /* \"contracts/UniversalTokenContract.sol\":7991:7993  to */\n      dup4\n        /* \"contracts/UniversalTokenContract.sol\":7981:7994  balanceOf[to] */\n      0xffffffffffffffffffffffffffffffffffffffff\n      and\n      0xffffffffffffffffffffffffffffffffffffffff\n      and\n      dup2\n      mstore\n      0x20\n      add\n      swap1\n      dup2\n      mstore\n      0x20\n      add\n      0x00\n      keccak256\n        /* \"contracts/UniversalTokenContract.sol\":7981:8004  balanceOf[to][assetTip] */\n      0x00\n        /* \"contracts/UniversalTokenContract.sol\":7995:8003  assetTip */\n      dup7\n        /* \"contracts/UniversalTokenContract.sol\":7981:8004  balanceOf[to][assetTip] */\n      dup2\n      mstore\n      0x20\n      add\n      swap1\n      dup2\n      mstore\n      0x20\n      add\n      0x00\n      keccak256\n      0x00\n        /* \"contracts/UniversalTokenContract.sol\":7981:8006  balanceOf[to][assetTip]++ */\n      dup2\n      sload\n      dup1\n      swap3\n      swap2\n      swap1\n      tag_302\n      swap1\n      tag_303\n      jump\t// in\n    tag_302:\n      swap2\n      swap1\n      pop\n      sstore\n      pop\n        /* \"contracts/UniversalTokenContract.sol\":8036:8045  tokenURI_ */\n      dup3\n        /* \"contracts/UniversalTokenContract.sol\":8016:8024  tokenURI */\n      0x06\n        /* \"contracts/UniversalTokenContract.sol\":8016:8033  tokenURI[assetId] */\n      0x00\n        /* \"contracts/UniversalTokenContract.sol\":8025:8032  assetId */\n      dup4\n        /* \"contracts/UniversalTokenContract.sol\":8016:8033  tokenURI[assetId] */\n      dup2\n      mstore\n      0x20\n      add\n      swap1\n      dup2\n      mstore\n      0x20\n      add\n      0x00\n      keccak256\n        /* \"contracts/UniversalTokenContract.sol\":8016:8045  tokenURI[assetId] = tokenURI_ */\n      swap1\n      dup2\n      tag_304\n      swap2\n      swap1\n      tag_156\n      jump\t// in\n    tag_304:\n      pop\n        /* \"contracts/UniversalTokenContract.sol\":8074:8076  to */\n      dup2\n        /* \"contracts/UniversalTokenContract.sol\":8055:8062  ownerOf */\n      0x08\n        /* \"contracts/UniversalTokenContract.sol\":8055:8071  ownerOf[assetId] */\n      0x00\n        /* \"contracts/UniversalTokenContract.sol\":8063:8070  assetId */\n      dup4\n        /* \"contracts/UniversalTokenContract.sol\":8055:8071  ownerOf[assetId] */\n      dup2\n      mstore\n      0x20\n      add\n      swap1\n      dup2\n      mstore\n      0x20\n      add\n      0x00\n      keccak256\n      0x00\n        /* \"contracts/UniversalTokenContract.sol\":8055:8076  ownerOf[assetId] = to */\n      0x0100\n      exp\n      dup2\n      sload\n      dup2\n      0xffffffffffffffffffffffffffffffffffffffff\n      mul\n      not\n      and\n      swap1\n      dup4\n      0xffffffffffffffffffffffffffffffffffffffff\n      and\n      mul\n      or\n      swap1\n      sstore\n      pop\n        /* \"contracts/UniversalTokenContract.sol\":8124:8131  assetId */\n      dup1\n        /* \"contracts/UniversalTokenContract.sol\":8114:8122  assetTip */\n      dup6\n        /* \"contracts/UniversalTokenContract.sol\":8091:8132  NonFungibleAssetMinted(assetTip, assetId) */\n      0x678b5f168892e2bf516fc9ca84c58d7315e2f6d5606c651e5dcd8ee43905b116\n      mload(0x40)\n      mload(0x40)\n      dup1\n      swap2\n      sub\n      swap1\n      log3\n        /* \"contracts/UniversalTokenContract.sol\":7550:8139  {... */\n      pop\n        /* \"contracts/UniversalTokenContract.sol\":7444:8139  function _mintNonFungibleAsset(uint assetTip, uint tokenId, string memory tokenURI_, address to) internal {... */\n      pop\n      pop\n      pop\n      pop\n      jump\t// out\n        /* \"#utility.yul\":7:82   */\n    tag_305:\n        /* \"#utility.yul\":40:46   */\n      0x00\n        /* \"#utility.yul\":73:75   */\n      0x40\n        /* \"#utility.yul\":67:76   */\n      mload\n        /* \"#utility.yul\":57:76   */\n      swap1\n      pop\n        /* \"#utility.yul\":7:82   */\n      swap1\n      jump\t// out\n        /* \"#utility.yul\":88:205   */\n    tag_306:\n        /* \"#utility.yul\":197:198   */\n      0x00\n        /* \"#utility.yul\":194:195   */\n      dup1\n        /* \"#utility.yul\":187:199   */\n      revert\n        /* \"#utility.yul\":211:328   */\n    tag_307:\n        /* \"#utility.yul\":320:321   */\n      0x00\n        /* \"#utility.yul\":317:318   */\n      dup1\n        /* \"#utility.yul\":310:322   */\n      revert\n        /* \"#utility.yul\":334:460   */\n    tag_308:\n        /* \"#utility.yul\":371:378   */\n      0x00\n        /* \"#utility.yul\":411:453   */\n      0xffffffffffffffffffffffffffffffffffffffff\n        /* \"#utility.yul\":404:409   */\n      dup3\n        /* \"#utility.yul\":400:454   */\n      and\n        /* \"#utility.yul\":389:454   */\n      swap1\n      pop\n        /* \"#utility.yul\":334:460   */\n      swap2\n      swap1\n      pop\n      jump\t// out\n        /* \"#utility.yul\":466:562   */\n    tag_309:\n        /* \"#utility.yul\":503:510   */\n      0x00\n        /* \"#utility.yul\":532:556   */\n      tag_385\n        /* \"#utility.yul\":550:555   */\n      dup3\n        /* \"#utility.yul\":532:556   */\n      tag_308\n      jump\t// in\n    tag_385:\n        /* \"#utility.yul\":521:556   */\n      swap1\n      pop\n        /* \"#utility.yul\":466:562   */\n      swap2\n      swap1\n      pop\n      jump\t// out\n        /* \"#utility.yul\":568:690   */\n    tag_310:\n        /* \"#utility.yul\":641:665   */\n      tag_387\n        /* \"#utility.yul\":659:664   */\n      dup2\n        /* \"#utility.yul\":641:665   */\n      tag_309\n      jump\t// in\n    tag_387:\n        /* \"#utility.yul\":634:639   */\n      dup2\n        /* \"#utility.yul\":631:666   */\n      eq\n        /* \"#utility.yul\":621:684   */\n      tag_388\n      jumpi\n        /* \"#utility.yul\":680:681   */\n      0x00\n        /* \"#utility.yul\":677:678   */\n      dup1\n        /* \"#utility.yul\":670:682   */\n      revert\n        /* \"#utility.yul\":621:684   */\n    tag_388:\n        /* \"#utility.yul\":568:690   */\n      pop\n      jump\t// out\n        /* \"#utility.yul\":696:835   */\n    tag_311:\n        /* \"#utility.yul\":742:747   */\n      0x00\n        /* \"#utility.yul\":780:786   */\n      dup2\n        /* \"#utility.yul\":767:787   */\n      calldataload\n        /* \"#utility.yul\":758:787   */\n      swap1\n      pop\n        /* \"#utility.yul\":796:829   */\n      tag_390\n        /* \"#utility.yul\":823:828   */\n      dup2\n        /* \"#utility.yul\":796:829   */\n      tag_310\n      jump\t// in\n    tag_390:\n        /* \"#utility.yul\":696:835   */\n      swap3\n      swap2\n      pop\n      pop\n      jump\t// out\n        /* \"#utility.yul\":841:918   */\n    tag_312:\n        /* \"#utility.yul\":878:885   */\n      0x00\n        /* \"#utility.yul\":907:912   */\n      dup2\n        /* \"#utility.yul\":896:912   */\n      swap1\n      pop\n        /* \"#utility.yul\":841:918   */\n      swap2\n      swap1\n      pop\n      jump\t// out\n        /* \"#utility.yul\":924:1046   */\n    tag_313:\n        /* \"#utility.yul\":997:1021   */\n      tag_393\n        /* \"#utility.yul\":1015:1020   */\n      dup2\n        /* \"#utility.yul\":997:1021   */\n      tag_312\n      jump\t// in\n    tag_393:\n        /* \"#utility.yul\":990:995   */\n      dup2\n        /* \"#utility.yul\":987:1022   */\n      eq\n        /* \"#utility.yul\":977:1040   */\n      tag_394\n      jumpi\n        /* \"#utility.yul\":1036:1037   */\n      0x00\n        /* \"#utility.yul\":1033:1034   */\n      dup1\n        /* \"#utility.yul\":1026:1038   */\n      revert\n        /* \"#utility.yul\":977:1040   */\n    tag_394:\n        /* \"#utility.yul\":924:1046   */\n      pop\n      jump\t// out\n        /* \"#utility.yul\":1052:1191   */\n    tag_314:\n        /* \"#utility.yul\":1098:1103   */\n      0x00\n        /* \"#utility.yul\":1136:1142   */\n      dup2\n        /* \"#utility.yul\":1123:1143   */\n      calldataload\n        /* \"#utility.yul\":1114:1143   */\n      swap1\n      pop\n        /* \"#utility.yul\":1152:1185   */\n      tag_396\n        /* \"#utility.yul\":1179:1184   */\n      dup2\n        /* \"#utility.yul\":1152:1185   */\n      tag_313\n      jump\t// in\n    tag_396:\n        /* \"#utility.yul\":1052:1191   */\n      swap3\n      swap2\n      pop\n      pop\n      jump\t// out\n        /* \"#utility.yul\":1197:1671   */\n    tag_34:\n        /* \"#utility.yul\":1265:1271   */\n      0x00\n        /* \"#utility.yul\":1273:1279   */\n      dup1\n        /* \"#utility.yul\":1322:1324   */\n      0x40\n        /* \"#utility.yul\":1310:1319   */\n      dup4\n        /* \"#utility.yul\":1301:1308   */\n      dup6\n        /* \"#utility.yul\":1297:1320   */\n      sub\n        /* \"#utility.yul\":1293:1325   */\n      slt\n        /* \"#utility.yul\":1290:1409   */\n      iszero\n      tag_398\n      jumpi\n        /* \"#utility.yul\":1328:1407   */\n      tag_399\n      tag_306\n      jump\t// in\n    tag_399:\n        /* \"#utility.yul\":1290:1409   */\n    tag_398:\n        /* \"#utility.yul\":1448:1449   */\n      0x00\n        /* \"#utility.yul\":1473:1526   */\n      tag_400\n        /* \"#utility.yul\":1518:1525   */\n      dup6\n        /* \"#utility.yul\":1509:1515   */\n      dup3\n        /* \"#utility.yul\":1498:1507   */\n      dup7\n        /* \"#utility.yul\":1494:1516   */\n      add\n        /* \"#utility.yul\":1473:1526   */\n      tag_311\n      jump\t// in\n    tag_400:\n        /* \"#utility.yul\":1463:1526   */\n      swap3\n      pop\n        /* \"#utility.yul\":1419:1536   */\n      pop\n        /* \"#utility.yul\":1575:1577   */\n      0x20\n        /* \"#utility.yul\":1601:1654   */\n      tag_401\n        /* \"#utility.yul\":1646:1653   */\n      dup6\n        /* \"#utility.yul\":1637:1643   */\n      dup3\n        /* \"#utility.yul\":1626:1635   */\n      dup7\n        /* \"#utility.yul\":1622:1644   */\n      add\n        /* \"#utility.yul\":1601:1654   */\n      tag_314\n      jump\t// in\n    tag_401:\n        /* \"#utility.yul\":1591:1654   */\n      swap2\n      pop\n        /* \"#utility.yul\":1546:1664   */\n      pop\n        /* \"#utility.yul\":1197:1671   */\n      swap3\n      pop\n      swap3\n      swap1\n      pop\n      jump\t// out\n        /* \"#utility.yul\":1677:1795   */\n    tag_315:\n        /* \"#utility.yul\":1764:1788   */\n      tag_403\n        /* \"#utility.yul\":1782:1787   */\n      dup2\n        /* \"#utility.yul\":1764:1788   */\n      tag_312\n      jump\t// in\n    tag_403:\n        /* \"#utility.yul\":1759:1762   */\n      dup3\n        /* \"#utility.yul\":1752:1789   */\n      mstore\n        /* \"#utility.yul\":1677:1795   */\n      pop\n      pop\n      jump\t// out\n        /* \"#utility.yul\":1801:2023   */\n    tag_37:\n        /* \"#utility.yul\":1894:1898   */\n      0x00\n        /* \"#utility.yul\":1932:1934   */\n      0x20\n        /* \"#utility.yul\":1921:1930   */\n      dup3\n        /* \"#utility.yul\":1917:1935   */\n      add\n        /* \"#utility.yul\":1909:1935   */\n      swap1\n      pop\n        /* \"#utility.yul\":1945:2016   */\n      tag_405\n        /* \"#utility.yul\":2013:2014   */\n      0x00\n        /* \"#utility.yul\":2002:2011   */\n      dup4\n        /* \"#utility.yul\":1998:2015   */\n      add\n        /* \"#utility.yul\":1989:1995   */\n      dup5\n        /* \"#utility.yul\":1945:2016   */\n      tag_315\n      jump\t// in\n    tag_405:\n        /* \"#utility.yul\":1801:2023   */\n      swap3\n      swap2\n      pop\n      pop\n      jump\t// out\n        /* \"#utility.yul\":2029:2178   */\n    tag_316:\n        /* \"#utility.yul\":2065:2072   */\n      0x00\n        /* \"#utility.yul\":2105:2171   */\n      0xffffffff00000000000000000000000000000000000000000000000000000000\n        /* \"#utility.yul\":2098:2103   */\n      dup3\n        /* \"#utility.yul\":2094:2172   */\n      and\n        /* \"#utility.yul\":2083:2172   */\n      swap1\n      pop\n        /* \"#utility.yul\":2029:2178   */\n      swap2\n      swap1\n      pop\n      jump\t// out\n        /* \"#utility.yul\":2184:2304   */\n    tag_317:\n        /* \"#utility.yul\":2256:2279   */\n      tag_408\n        /* \"#utility.yul\":2273:2278   */\n      dup2\n        /* \"#utility.yul\":2256:2279   */\n      tag_316\n      jump\t// in\n    tag_408:\n        /* \"#utility.yul\":2249:2254   */\n      dup2\n        /* \"#utility.yul\":2246:2280   */\n      eq\n        /* \"#utility.yul\":2236:2298   */\n      tag_409\n      jumpi\n        /* \"#utility.yul\":2294:2295   */\n      0x00\n        /* \"#utility.yul\":2291:2292   */\n      dup1\n        /* \"#utility.yul\":2284:2296   */\n      revert\n        /* \"#utility.yul\":2236:2298   */\n    tag_409:\n        /* \"#utility.yul\":2184:2304   */\n      pop\n      jump\t// out\n        /* \"#utility.yul\":2310:2447   */\n    tag_318:\n        /* \"#utility.yul\":2355:2360   */\n      0x00\n        /* \"#utility.yul\":2393:2399   */\n      dup2\n        /* \"#utility.yul\":2380:2400   */\n      calldataload\n        /* \"#utility.yul\":2371:2400   */\n      swap1\n      pop\n        /* \"#utility.yul\":2409:2441   */\n      tag_411\n        /* \"#utility.yul\":2435:2440   */\n      dup2\n        /* \"#utility.yul\":2409:2441   */\n      tag_317\n      jump\t// in\n    tag_411:\n        /* \"#utility.yul\":2310:2447   */\n      swap3\n      swap2\n      pop\n      pop\n      jump\t// out\n        /* \"#utility.yul\":2453:2780   */\n    tag_40:\n        /* \"#utility.yul\":2511:2517   */\n      0x00\n        /* \"#utility.yul\":2560:2562   */\n      0x20\n        /* \"#utility.yul\":2548:2557   */\n      dup3\n        /* \"#utility.yul\":2539:2546   */\n      dup5\n        /* \"#utility.yul\":2535:2558   */\n      sub\n        /* \"#utility.yul\":2531:2563   */\n      slt\n        /* \"#utility.yul\":2528:2647   */\n      iszero\n      tag_413\n      jumpi\n        /* \"#utility.yul\":2566:2645   */\n      tag_414\n      tag_306\n      jump\t// in\n    tag_414:\n        /* \"#utility.yul\":2528:2647   */\n    tag_413:\n        /* \"#utility.yul\":2686:2687   */\n      0x00\n        /* \"#utility.yul\":2711:2763   */\n      tag_415\n        /* \"#utility.yul\":2755:2762   */\n      dup5\n        /* \"#utility.yul\":2746:2752   */\n      dup3\n        /* \"#utility.yul\":2735:2744   */\n      dup6\n        /* \"#utility.yul\":2731:2753   */\n      add\n        /* \"#utility.yul\":2711:2763   */\n      tag_318\n      jump\t// in\n    tag_415:\n        /* \"#utility.yul\":2701:2763   */\n      swap2\n      pop\n        /* \"#utility.yul\":2657:2773   */\n      pop\n        /* \"#utility.yul\":2453:2780   */\n      swap3\n      swap2\n      pop\n      pop\n      jump\t// out\n        /* \"#utility.yul\":2786:2876   */\n    tag_319:\n        /* \"#utility.yul\":2820:2827   */\n      0x00\n        /* \"#utility.yul\":2863:2868   */\n      dup2\n        /* \"#utility.yul\":2856:2869   */\n      iszero\n        /* \"#utility.yul\":2849:2870   */\n      iszero\n        /* \"#utility.yul\":2838:2870   */\n      swap1\n      pop\n        /* \"#utility.yul\":2786:2876   */\n      swap2\n      swap1\n      pop\n      jump\t// out\n        /* \"#utility.yul\":2882:2991   */\n    tag_320:\n        /* \"#utility.yul\":2963:2984   */\n      tag_418\n        /* \"#utility.yul\":2978:2983   */\n      dup2\n        /* \"#utility.yul\":2963:2984   */\n      tag_319\n      jump\t// in\n    tag_418:\n        /* \"#utility.yul\":2958:2961   */\n      dup3\n        /* \"#utility.yul\":2951:2985   */\n      mstore\n        /* \"#utility.yul\":2882:2991   */\n      pop\n      pop\n      jump\t// out\n        /* \"#utility.yul\":2997:3207   */\n    tag_43:\n        /* \"#utility.yul\":3084:3088   */\n      0x00\n        /* \"#utility.yul\":3122:3124   */\n      0x20\n        /* \"#utility.yul\":3111:3120   */\n      dup3\n        /* \"#utility.yul\":3107:3125   */\n      add\n        /* \"#utility.yul\":3099:3125   */\n      swap1\n      pop\n        /* \"#utility.yul\":3135:3200   */\n      tag_420\n        /* \"#utility.yul\":3197:3198   */\n      0x00\n        /* \"#utility.yul\":3186:3195   */\n      dup4\n        /* \"#utility.yul\":3182:3199   */\n      add\n        /* \"#utility.yul\":3173:3179   */\n      dup5\n        /* \"#utility.yul\":3135:3200   */\n      tag_320\n      jump\t// in\n    tag_420:\n        /* \"#utility.yul\":2997:3207   */\n      swap3\n      swap2\n      pop\n      pop\n      jump\t// out\n        /* \"#utility.yul\":3213:3542   */\n    tag_46:\n        /* \"#utility.yul\":3272:3278   */\n      0x00\n        /* \"#utility.yul\":3321:3323   */\n      0x20\n        /* \"#utility.yul\":3309:3318   */\n      dup3\n        /* \"#utility.yul\":3300:3307   */\n      dup5\n        /* \"#utility.yul\":3296:3319   */\n      sub\n        /* \"#utility.yul\":3292:3324   */\n      slt\n        /* \"#utility.yul\":3289:3408   */\n      iszero\n      tag_422\n      jumpi\n        /* \"#utility.yul\":3327:3406   */\n      tag_423\n      tag_306\n      jump\t// in\n    tag_423:\n        /* \"#utility.yul\":3289:3408   */\n    tag_422:\n        /* \"#utility.yul\":3447:3448   */\n      0x00\n        /* \"#utility.yul\":3472:3525   */\n      tag_424\n        /* \"#utility.yul\":3517:3524   */\n      dup5\n        /* \"#utility.yul\":3508:3514   */\n      dup3\n        /* \"#utility.yul\":3497:3506   */\n      dup6\n        /* \"#utility.yul\":3493:3515   */\n      add\n        /* \"#utility.yul\":3472:3525   */\n      tag_314\n      jump\t// in\n    tag_424:\n        /* \"#utility.yul\":3462:3525   */\n      swap2\n      pop\n        /* \"#utility.yul\":3418:3535   */\n      pop\n        /* \"#utility.yul\":3213:3542   */\n      swap3\n      swap2\n      pop\n      pop\n      jump\t// out\n        /* \"#utility.yul\":3548:4167   */\n    tag_51:\n        /* \"#utility.yul\":3625:3631   */\n      0x00\n        /* \"#utility.yul\":3633:3639   */\n      dup1\n        /* \"#utility.yul\":3641:3647   */\n      0x00\n        /* \"#utility.yul\":3690:3692   */\n      0x60\n        /* \"#utility.yul\":3678:3687   */\n      dup5\n        /* \"#utility.yul\":3669:3676   */\n      dup7\n        /* \"#utility.yul\":3665:3688   */\n      sub\n        /* \"#utility.yul\":3661:3693   */\n      slt\n        /* \"#utility.yul\":3658:3777   */\n      iszero\n      tag_426\n      jumpi\n        /* \"#utility.yul\":3696:3775   */\n      tag_427\n      tag_306\n      jump\t// in\n    tag_427:\n        /* \"#utility.yul\":3658:3777   */\n    tag_426:\n        /* \"#utility.yul\":3816:3817   */\n      0x00\n        /* \"#utility.yul\":3841:3894   */\n      tag_428\n        /* \"#utility.yul\":3886:3893   */\n      dup7\n        /* \"#utility.yul\":3877:3883   */\n      dup3\n        /* \"#utility.yul\":3866:3875   */\n      dup8\n        /* \"#utility.yul\":3862:3884   */\n      add\n        /* \"#utility.yul\":3841:3894   */\n      tag_311\n      jump\t// in\n    tag_428:\n        /* \"#utility.yul\":3831:3894   */\n      swap4\n      pop\n        /* \"#utility.yul\":3787:3904   */\n      pop\n        /* \"#utility.yul\":3943:3945   */\n      0x20\n        /* \"#utility.yul\":3969:4022   */\n      tag_429\n        /* \"#utility.yul\":4014:4021   */\n      dup7\n        /* \"#utility.yul\":4005:4011   */\n      dup3\n        /* \"#utility.yul\":3994:4003   */\n      dup8\n        /* \"#utility.yul\":3990:4012   */\n      add\n        /* \"#utility.yul\":3969:4022   */\n      tag_314\n      jump\t// in\n    tag_429:\n        /* \"#utility.yul\":3959:4022   */\n      swap3\n      pop\n        /* \"#utility.yul\":3914:4032   */\n      pop\n        /* \"#utility.yul\":4071:4073   */\n      0x40\n        /* \"#utility.yul\":4097:4150   */\n      tag_430\n        /* \"#utility.yul\":4142:4149   */\n      dup7\n        /* \"#utility.yul\":4133:4139   */\n      dup3\n        /* \"#utility.yul\":4122:4131   */\n      dup8\n        /* \"#utility.yul\":4118:4140   */\n      add\n        /* \"#utility.yul\":4097:4150   */\n      tag_314\n      jump\t// in\n    tag_430:\n        /* \"#utility.yul\":4087:4150   */\n      swap2\n      pop\n        /* \"#utility.yul\":4042:4160   */\n      pop\n        /* \"#utility.yul\":3548:4167   */\n      swap3\n      pop\n      swap3\n      pop\n      swap3\n      jump\t// out\n        /* \"#utility.yul\":4173:4290   */\n    tag_321:\n        /* \"#utility.yul\":4282:4283   */\n      0x00\n        /* \"#utility.yul\":4279:4280   */\n      dup1\n        /* \"#utility.yul\":4272:4284   */\n      revert\n        /* \"#utility.yul\":4296:4413   */\n    tag_322:\n        /* \"#utility.yul\":4405:4406   */\n      0x00\n        /* \"#utility.yul\":4402:4403   */\n      dup1\n        /* \"#utility.yul\":4395:4407   */\n      revert\n        /* \"#utility.yul\":4419:4536   */\n    tag_323:\n        /* \"#utility.yul\":4528:4529   */\n      0x00\n        /* \"#utility.yul\":4525:4526   */\n      dup1\n        /* \"#utility.yul\":4518:4530   */\n      revert\n        /* \"#utility.yul\":4556:5109   */\n    tag_324:\n        /* \"#utility.yul\":4614:4622   */\n      0x00\n        /* \"#utility.yul\":4624:4630   */\n      dup1\n        /* \"#utility.yul\":4674:4677   */\n      dup4\n        /* \"#utility.yul\":4667:4671   */\n      0x1f\n        /* \"#utility.yul\":4659:4665   */\n      dup5\n        /* \"#utility.yul\":4655:4672   */\n      add\n        /* \"#utility.yul\":4651:4678   */\n      slt\n        /* \"#utility.yul\":4641:4763   */\n      tag_435\n      jumpi\n        /* \"#utility.yul\":4682:4761   */\n      tag_436\n      tag_321\n      jump\t// in\n    tag_436:\n        /* \"#utility.yul\":4641:4763   */\n    tag_435:\n        /* \"#utility.yul\":4795:4801   */\n      dup3\n        /* \"#utility.yul\":4782:4802   */\n      calldataload\n        /* \"#utility.yul\":4772:4802   */\n      swap1\n      pop\n        /* \"#utility.yul\":4825:4843   */\n      0xffffffffffffffff\n        /* \"#utility.yul\":4817:4823   */\n      dup2\n        /* \"#utility.yul\":4814:4844   */\n      gt\n        /* \"#utility.yul\":4811:4928   */\n      iszero\n      tag_437\n      jumpi\n        /* \"#utility.yul\":4847:4926   */\n      tag_438\n      tag_322\n      jump\t// in\n    tag_438:\n        /* \"#utility.yul\":4811:4928   */\n    tag_437:\n        /* \"#utility.yul\":4961:4965   */\n      0x20\n        /* \"#utility.yul\":4953:4959   */\n      dup4\n        /* \"#utility.yul\":4949:4966   */\n      add\n        /* \"#utility.yul\":4937:4966   */\n      swap2\n      pop\n        /* \"#utility.yul\":5015:5018   */\n      dup4\n        /* \"#utility.yul\":5007:5011   */\n      0x01\n        /* \"#utility.yul\":4999:5005   */\n      dup3\n        /* \"#utility.yul\":4995:5012   */\n      mul\n        /* \"#utility.yul\":4985:4993   */\n      dup4\n        /* \"#utility.yul\":4981:5013   */\n      add\n        /* \"#utility.yul\":4978:5019   */\n      gt\n        /* \"#utility.yul\":4975:5103   */\n      iszero\n      tag_439\n      jumpi\n        /* \"#utility.yul\":5022:5101   */\n      tag_440\n      tag_323\n      jump\t// in\n    tag_440:\n        /* \"#utility.yul\":4975:5103   */\n    tag_439:\n        /* \"#utility.yul\":4556:5109   */\n      swap3\n      pop\n      swap3\n      swap1\n      pop\n      jump\t// out\n        /* \"#utility.yul\":5115:6134   */\n    tag_58:\n        /* \"#utility.yul\":5216:5222   */\n      0x00\n        /* \"#utility.yul\":5224:5230   */\n      dup1\n        /* \"#utility.yul\":5232:5238   */\n      0x00\n        /* \"#utility.yul\":5240:5246   */\n      dup1\n        /* \"#utility.yul\":5248:5254   */\n      0x00\n        /* \"#utility.yul\":5297:5299   */\n      0x60\n        /* \"#utility.yul\":5285:5294   */\n      dup7\n        /* \"#utility.yul\":5276:5283   */\n      dup9\n        /* \"#utility.yul\":5272:5295   */\n      sub\n        /* \"#utility.yul\":5268:5300   */\n      slt\n        /* \"#utility.yul\":5265:5384   */\n      iszero\n      tag_442\n      jumpi\n        /* \"#utility.yul\":5303:5382   */\n      tag_443\n      tag_306\n      jump\t// in\n    tag_443:\n        /* \"#utility.yul\":5265:5384   */\n    tag_442:\n        /* \"#utility.yul\":5451:5452   */\n      0x00\n        /* \"#utility.yul\":5440:5449   */\n      dup7\n        /* \"#utility.yul\":5436:5453   */\n      add\n        /* \"#utility.yul\":5423:5454   */\n      calldataload\n        /* \"#utility.yul\":5481:5499   */\n      0xffffffffffffffff\n        /* \"#utility.yul\":5473:5479   */\n      dup2\n        /* \"#utility.yul\":5470:5500   */\n      gt\n        /* \"#utility.yul\":5467:5584   */\n      iszero\n      tag_444\n      jumpi\n        /* \"#utility.yul\":5503:5582   */\n      tag_445\n      tag_307\n      jump\t// in\n    tag_445:\n        /* \"#utility.yul\":5467:5584   */\n    tag_444:\n        /* \"#utility.yul\":5616:5681   */\n      tag_446\n        /* \"#utility.yul\":5673:5680   */\n      dup9\n        /* \"#utility.yul\":5664:5670   */\n      dup3\n        /* \"#utility.yul\":5653:5662   */\n      dup10\n        /* \"#utility.yul\":5649:5671   */\n      add\n        /* \"#utility.yul\":5616:5681   */\n      tag_324\n      jump\t// in\n    tag_446:\n        /* \"#utility.yul\":5598:5681   */\n      swap6\n      pop\n      swap6\n      pop\n        /* \"#utility.yul\":5394:5691   */\n      pop\n        /* \"#utility.yul\":5758:5760   */\n      0x20\n        /* \"#utility.yul\":5747:5756   */\n      dup7\n        /* \"#utility.yul\":5743:5761   */\n      add\n        /* \"#utility.yul\":5730:5762   */\n      calldataload\n        /* \"#utility.yul\":5789:5807   */\n      0xffffffffffffffff\n        /* \"#utility.yul\":5781:5787   */\n      dup2\n        /* \"#utility.yul\":5778:5808   */\n      gt\n        /* \"#utility.yul\":5775:5892   */\n      iszero\n      tag_447\n      jumpi\n        /* \"#utility.yul\":5811:5890   */\n      tag_448\n      tag_307\n      jump\t// in\n    tag_448:\n        /* \"#utility.yul\":5775:5892   */\n    tag_447:\n        /* \"#utility.yul\":5924:5989   */\n      tag_449\n        /* \"#utility.yul\":5981:5988   */\n      dup9\n        /* \"#utility.yul\":5972:5978   */\n      dup3\n        /* \"#utility.yul\":5961:5970   */\n      dup10\n        /* \"#utility.yul\":5957:5979   */\n      add\n        /* \"#utility.yul\":5924:5989   */\n      tag_324\n      jump\t// in\n    tag_449:\n        /* \"#utility.yul\":5906:5989   */\n      swap4\n      pop\n      swap4\n      pop\n        /* \"#utility.yul\":5701:5999   */\n      pop\n        /* \"#utility.yul\":6038:6040   */\n      0x40\n        /* \"#utility.yul\":6064:6117   */\n      tag_450\n        /* \"#utility.yul\":6109:6116   */\n      dup9\n        /* \"#utility.yul\":6100:6106   */\n      dup3\n        /* \"#utility.yul\":6089:6098   */\n      dup10\n        /* \"#utility.yul\":6085:6107   */\n      add\n        /* \"#utility.yul\":6064:6117   */\n      tag_314\n      jump\t// in\n    tag_450:\n        /* \"#utility.yul\":6054:6117   */\n      swap2\n      pop\n        /* \"#utility.yul\":6009:6127   */\n      pop\n        /* \"#utility.yul\":5115:6134   */\n      swap3\n      swap6\n      pop\n      swap3\n      swap6\n      swap1\n      swap4\n      pop\n      jump\t// out\n        /* \"#utility.yul\":6140:7305   */\n    tag_62:\n        /* \"#utility.yul\":6250:6256   */\n      0x00\n        /* \"#utility.yul\":6258:6264   */\n      dup1\n        /* \"#utility.yul\":6266:6272   */\n      0x00\n        /* \"#utility.yul\":6274:6280   */\n      dup1\n        /* \"#utility.yul\":6282:6288   */\n      0x00\n        /* \"#utility.yul\":6290:6296   */\n      dup1\n        /* \"#utility.yul\":6339:6342   */\n      0x80\n        /* \"#utility.yul\":6327:6336   */\n      dup8\n        /* \"#utility.yul\":6318:6325   */\n      dup10\n        /* \"#utility.yul\":6314:6337   */\n      sub\n        /* \"#utility.yul\":6310:6343   */\n      slt\n        /* \"#utility.yul\":6307:6427   */\n      iszero\n      tag_452\n      jumpi\n        /* \"#utility.yul\":6346:6425   */\n      tag_453\n      tag_306\n      jump\t// in\n    tag_453:\n        /* \"#utility.yul\":6307:6427   */\n    tag_452:\n        /* \"#utility.yul\":6494:6495   */\n      0x00\n        /* \"#utility.yul\":6483:6492   */\n      dup8\n        /* \"#utility.yul\":6479:6496   */\n      add\n        /* \"#utility.yul\":6466:6497   */\n      calldataload\n        /* \"#utility.yul\":6524:6542   */\n      0xffffffffffffffff\n        /* \"#utility.yul\":6516:6522   */\n      dup2\n        /* \"#utility.yul\":6513:6543   */\n      gt\n        /* \"#utility.yul\":6510:6627   */\n      iszero\n      tag_454\n      jumpi\n        /* \"#utility.yul\":6546:6625   */\n      tag_455\n      tag_307\n      jump\t// in\n    tag_455:\n        /* \"#utility.yul\":6510:6627   */\n    tag_454:\n        /* \"#utility.yul\":6659:6724   */\n      tag_456\n        /* \"#utility.yul\":6716:6723   */\n      dup10\n        /* \"#utility.yul\":6707:6713   */\n      dup3\n        /* \"#utility.yul\":6696:6705   */\n      dup11\n        /* \"#utility.yul\":6692:6714   */\n      add\n        /* \"#utility.yul\":6659:6724   */\n      tag_324\n      jump\t// in\n    tag_456:\n        /* \"#utility.yul\":6641:6724   */\n      swap7\n      pop\n      swap7\n      pop\n        /* \"#utility.yul\":6437:6734   */\n      pop\n        /* \"#utility.yul\":6801:6803   */\n      0x20\n        /* \"#utility.yul\":6790:6799   */\n      dup8\n        /* \"#utility.yul\":6786:6804   */\n      add\n        /* \"#utility.yul\":6773:6805   */\n      calldataload\n        /* \"#utility.yul\":6832:6850   */\n      0xffffffffffffffff\n        /* \"#utility.yul\":6824:6830   */\n      dup2\n        /* \"#utility.yul\":6821:6851   */\n      gt\n        /* \"#utility.yul\":6818:6935   */\n      iszero\n      tag_457\n      jumpi\n        /* \"#utility.yul\":6854:6933   */\n      tag_458\n      tag_307\n      jump\t// in\n    tag_458:\n        /* \"#utility.yul\":6818:6935   */\n    tag_457:\n        /* \"#utility.yul\":6967:7032   */\n      tag_459\n        /* \"#utility.yul\":7024:7031   */\n      dup10\n        /* \"#utility.yul\":7015:7021   */\n      dup3\n        /* \"#utility.yul\":7004:7013   */\n      dup11\n        /* \"#utility.yul\":7000:7022   */\n      add\n        /* \"#utility.yul\":6967:7032   */\n      tag_324\n      jump\t// in\n    tag_459:\n        /* \"#utility.yul\":6949:7032   */\n      swap5\n      pop\n      swap5\n      pop\n        /* \"#utility.yul\":6744:7042   */\n      pop\n        /* \"#utility.yul\":7081:7083   */\n      0x40\n        /* \"#utility.yul\":7107:7160   */\n      tag_460\n        /* \"#utility.yul\":7152:7159   */\n      dup10\n        /* \"#utility.yul\":7143:7149   */\n      dup3\n        /* \"#utility.yul\":7132:7141   */\n      dup11\n        /* \"#utility.yul\":7128:7150   */\n      add\n        /* \"#utility.yul\":7107:7160   */\n      tag_314\n      jump\t// in\n    tag_460:\n        /* \"#utility.yul\":7097:7160   */\n      swap3\n      pop\n        /* \"#utility.yul\":7052:7170   */\n      pop\n        /* \"#utility.yul\":7209:7211   */\n      0x60\n        /* \"#utility.yul\":7235:7288   */\n      tag_461\n        /* \"#utility.yul\":7280:7287   */\n      dup10\n        /* \"#utility.yul\":7271:7277   */\n      dup3\n        /* \"#utility.yul\":7260:7269   */\n      dup11\n        /* \"#utility.yul\":7256:7278   */\n      add\n        /* \"#utility.yul\":7235:7288   */\n      tag_311\n      jump\t// in\n    tag_461:\n        /* \"#utility.yul\":7225:7288   */\n      swap2\n      pop\n        /* \"#utility.yul\":7180:7298   */\n      pop\n        /* \"#utility.yul\":6140:7305   */\n      swap3\n      swap6\n      pop\n      swap3\n      swap6\n      pop\n      swap3\n      swap6\n      jump\t// out\n        /* \"#utility.yul\":7311:7640   */\n    tag_66:\n        /* \"#utility.yul\":7370:7376   */\n      0x00\n        /* \"#utility.yul\":7419:7421   */\n      0x20\n        /* \"#utility.yul\":7407:7416   */\n      dup3\n        /* \"#utility.yul\":7398:7405   */\n      dup5\n        /* \"#utility.yul\":7394:7417   */\n      sub\n        /* \"#utility.yul\":7390:7422   */\n      slt\n        /* \"#utility.yul\":7387:7506   */\n      iszero\n      tag_463\n      jumpi\n        /* \"#utility.yul\":7425:7504   */\n      tag_464\n      tag_306\n      jump\t// in\n    tag_464:\n        /* \"#utility.yul\":7387:7506   */\n    tag_463:\n        /* \"#utility.yul\":7545:7546   */\n      0x00\n        /* \"#utility.yul\":7570:7623   */\n      tag_465\n        /* \"#utility.yul\":7615:7622   */\n      dup5\n        /* \"#utility.yul\":7606:7612   */\n      dup3\n        /* \"#utility.yul\":7595:7604   */\n      dup6\n        /* \"#utility.yul\":7591:7613   */\n      add\n        /* \"#utility.yul\":7570:7623   */\n      tag_311\n      jump\t// in\n    tag_465:\n        /* \"#utility.yul\":7560:7623   */\n      swap2\n      pop\n        /* \"#utility.yul\":7516:7633   */\n      pop\n        /* \"#utility.yul\":7311:7640   */\n      swap3\n      swap2\n      pop\n      pop\n      jump\t// out\n        /* \"#utility.yul\":7646:7745   */\n    tag_325:\n        /* \"#utility.yul\":7698:7704   */\n      0x00\n        /* \"#utility.yul\":7732:7737   */\n      dup2\n        /* \"#utility.yul\":7726:7738   */\n      mload\n        /* \"#utility.yul\":7716:7738   */\n      swap1\n      pop\n        /* \"#utility.yul\":7646:7745   */\n      swap2\n      swap1\n      pop\n      jump\t// out\n        /* \"#utility.yul\":7751:7920   */\n    tag_326:\n        /* \"#utility.yul\":7835:7846   */\n      0x00\n        /* \"#utility.yul\":7869:7875   */\n      dup3\n        /* \"#utility.yul\":7864:7867   */\n      dup3\n        /* \"#utility.yul\":7857:7876   */\n      mstore\n        /* \"#utility.yul\":7909:7913   */\n      0x20\n        /* \"#utility.yul\":7904:7907   */\n      dup3\n        /* \"#utility.yul\":7900:7914   */\n      add\n        /* \"#utility.yul\":7885:7914   */\n      swap1\n      pop\n        /* \"#utility.yul\":7751:7920   */\n      swap3\n      swap2\n      pop\n      pop\n      jump\t// out\n        /* \"#utility.yul\":7926:8065   */\n    tag_327:\n        /* \"#utility.yul\":8015:8021   */\n      dup3\n        /* \"#utility.yul\":8010:8013   */\n      dup2\n        /* \"#utility.yul\":8005:8008   */\n      dup4\n        /* \"#utility.yul\":7999:8022   */\n      mcopy\n        /* \"#utility.yul\":8056:8057   */\n      0x00\n        /* \"#utility.yul\":8047:8053   */\n      dup4\n        /* \"#utility.yul\":8042:8045   */\n      dup4\n        /* \"#utility.yul\":8038:8054   */\n      add\n        /* \"#utility.yul\":8031:8058   */\n      mstore\n        /* \"#utility.yul\":7926:8065   */\n      pop\n      pop\n      pop\n      jump\t// out\n        /* \"#utility.yul\":8071:8173   */\n    tag_328:\n        /* \"#utility.yul\":8112:8118   */\n      0x00\n        /* \"#utility.yul\":8163:8165   */\n      0x1f\n        /* \"#utility.yul\":8159:8166   */\n      not\n        /* \"#utility.yul\":8154:8156   */\n      0x1f\n        /* \"#utility.yul\":8147:8152   */\n      dup4\n        /* \"#utility.yul\":8143:8157   */\n      add\n        /* \"#utility.yul\":8139:8167   */\n      and\n        /* \"#utility.yul\":8129:8167   */\n      swap1\n      pop\n        /* \"#utility.yul\":8071:8173   */\n      swap2\n      swap1\n      pop\n      jump\t// out\n        /* \"#utility.yul\":8179:8556   */\n    tag_329:\n        /* \"#utility.yul\":8267:8270   */\n      0x00\n        /* \"#utility.yul\":8295:8334   */\n      tag_471\n        /* \"#utility.yul\":8328:8333   */\n      dup3\n        /* \"#utility.yul\":8295:8334   */\n      tag_325\n      jump\t// in\n    tag_471:\n        /* \"#utility.yul\":8350:8421   */\n      tag_472\n        /* \"#utility.yul\":8414:8420   */\n      dup2\n        /* \"#utility.yul\":8409:8412   */\n      dup6\n        /* \"#utility.yul\":8350:8421   */\n      tag_326\n      jump\t// in\n    tag_472:\n        /* \"#utility.yul\":8343:8421   */\n      swap4\n      pop\n        /* \"#utility.yul\":8430:8495   */\n      tag_473\n        /* \"#utility.yul\":8488:8494   */\n      dup2\n        /* \"#utility.yul\":8483:8486   */\n      dup6\n        /* \"#utility.yul\":8476:8480   */\n      0x20\n        /* \"#utility.yul\":8469:8474   */\n      dup7\n        /* \"#utility.yul\":8465:8481   */\n      add\n        /* \"#utility.yul\":8430:8495   */\n      tag_327\n      jump\t// in\n    tag_473:\n        /* \"#utility.yul\":8520:8549   */\n      tag_474\n        /* \"#utility.yul\":8542:8548   */\n      dup2\n        /* \"#utility.yul\":8520:8549   */\n      tag_328\n      jump\t// in\n    tag_474:\n        /* \"#utility.yul\":8515:8518   */\n      dup5\n        /* \"#utility.yul\":8511:8550   */\n      add\n        /* \"#utility.yul\":8504:8550   */\n      swap2\n      pop\n        /* \"#utility.yul\":8271:8556   */\n      pop\n        /* \"#utility.yul\":8179:8556   */\n      swap3\n      swap2\n      pop\n      pop\n      jump\t// out\n        /* \"#utility.yul\":8562:8742   */\n    tag_154:\n        /* \"#utility.yul\":8610:8687   */\n      0x4e487b7100000000000000000000000000000000000000000000000000000000\n        /* \"#utility.yul\":8607:8608   */\n      0x00\n        /* \"#utility.yul\":8600:8688   */\n      mstore\n        /* \"#utility.yul\":8707:8711   */\n      0x21\n        /* \"#utility.yul\":8704:8705   */\n      0x04\n        /* \"#utility.yul\":8697:8712   */\n      mstore\n        /* \"#utility.yul\":8731:8735   */\n      0x24\n        /* \"#utility.yul\":8728:8729   */\n      0x00\n        /* \"#utility.yul\":8721:8736   */\n      revert\n        /* \"#utility.yul\":8748:8866   */\n    tag_330:\n        /* \"#utility.yul\":8834:8835   */\n      0x04\n        /* \"#utility.yul\":8827:8832   */\n      dup2\n        /* \"#utility.yul\":8824:8836   */\n      lt\n        /* \"#utility.yul\":8814:8860   */\n      tag_477\n      jumpi\n        /* \"#utility.yul\":8840:8858   */\n      tag_478\n      tag_154\n      jump\t// in\n    tag_478:\n        /* \"#utility.yul\":8814:8860   */\n    tag_477:\n        /* \"#utility.yul\":8748:8866   */\n      pop\n      jump\t// out\n        /* \"#utility.yul\":8872:9009   */\n    tag_331:\n        /* \"#utility.yul\":8922:8929   */\n      0x00\n        /* \"#utility.yul\":8951:8956   */\n      dup2\n        /* \"#utility.yul\":8940:8956   */\n      swap1\n      pop\n        /* \"#utility.yul\":8957:9003   */\n      tag_480\n        /* \"#utility.yul\":8997:9002   */\n      dup3\n        /* \"#utility.yul\":8957:9003   */\n      tag_330\n      jump\t// in\n    tag_480:\n        /* \"#utility.yul\":8872:9009   */\n      swap2\n      swap1\n      pop\n      jump\t// out\n        /* \"#utility.yul\":9015:9152   */\n    tag_332:\n        /* \"#utility.yul\":9076:9085   */\n      0x00\n        /* \"#utility.yul\":9109:9146   */\n      tag_482\n        /* \"#utility.yul\":9140:9145   */\n      dup3\n        /* \"#utility.yul\":9109:9146   */\n      tag_331\n      jump\t// in\n    tag_482:\n        /* \"#utility.yul\":9096:9146   */\n      swap1\n      pop\n        /* \"#utility.yul\":9015:9152   */\n      swap2\n      swap1\n      pop\n      jump\t// out\n        /* \"#utility.yul\":9158:9311   */\n    tag_333:\n        /* \"#utility.yul\":9256:9304   */\n      tag_484\n        /* \"#utility.yul\":9298:9303   */\n      dup2\n        /* \"#utility.yul\":9256:9304   */\n      tag_332\n      jump\t// in\n    tag_484:\n        /* \"#utility.yul\":9251:9254   */\n      dup3\n        /* \"#utility.yul\":9244:9305   */\n      mstore\n        /* \"#utility.yul\":9158:9311   */\n      pop\n      pop\n      jump\t// out\n        /* \"#utility.yul\":9317:9963   */\n    tag_72:\n        /* \"#utility.yul\":9517:9521   */\n      0x00\n        /* \"#utility.yul\":9555:9557   */\n      0x60\n        /* \"#utility.yul\":9544:9553   */\n      dup3\n        /* \"#utility.yul\":9540:9558   */\n      add\n        /* \"#utility.yul\":9532:9558   */\n      swap1\n      pop\n        /* \"#utility.yul\":9604:9613   */\n      dup2\n        /* \"#utility.yul\":9598:9602   */\n      dup2\n        /* \"#utility.yul\":9594:9614   */\n      sub\n        /* \"#utility.yul\":9590:9591   */\n      0x00\n        /* \"#utility.yul\":9579:9588   */\n      dup4\n        /* \"#utility.yul\":9575:9592   */\n      add\n        /* \"#utility.yul\":9568:9615   */\n      mstore\n        /* \"#utility.yul\":9632:9710   */\n      tag_486\n        /* \"#utility.yul\":9705:9709   */\n      dup2\n        /* \"#utility.yul\":9696:9702   */\n      dup7\n        /* \"#utility.yul\":9632:9710   */\n      tag_329\n      jump\t// in\n    tag_486:\n        /* \"#utility.yul\":9624:9710   */\n      swap1\n      pop\n        /* \"#utility.yul\":9757:9766   */\n      dup2\n        /* \"#utility.yul\":9751:9755   */\n      dup2\n        /* \"#utility.yul\":9747:9767   */\n      sub\n        /* \"#utility.yul\":9742:9744   */\n      0x20\n        /* \"#utility.yul\":9731:9740   */\n      dup4\n        /* \"#utility.yul\":9727:9745   */\n      add\n        /* \"#utility.yul\":9720:9768   */\n      mstore\n        /* \"#utility.yul\":9785:9863   */\n      tag_487\n        /* \"#utility.yul\":9858:9862   */\n      dup2\n        /* \"#utility.yul\":9849:9855   */\n      dup6\n        /* \"#utility.yul\":9785:9863   */\n      tag_329\n      jump\t// in\n    tag_487:\n        /* \"#utility.yul\":9777:9863   */\n      swap1\n      pop\n        /* \"#utility.yul\":9873:9956   */\n      tag_488\n        /* \"#utility.yul\":9952:9954   */\n      0x40\n        /* \"#utility.yul\":9941:9950   */\n      dup4\n        /* \"#utility.yul\":9937:9955   */\n      add\n        /* \"#utility.yul\":9928:9934   */\n      dup5\n        /* \"#utility.yul\":9873:9956   */\n      tag_333\n      jump\t// in\n    tag_488:\n        /* \"#utility.yul\":9317:9963   */\n      swap5\n      swap4\n      pop\n      pop\n      pop\n      pop\n      jump\t// out\n        /* \"#utility.yul\":9969:10085   */\n    tag_334:\n        /* \"#utility.yul\":10039:10060   */\n      tag_490\n        /* \"#utility.yul\":10054:10059   */\n      dup2\n        /* \"#utility.yul\":10039:10060   */\n      tag_319\n      jump\t// in\n    tag_490:\n        /* \"#utility.yul\":10032:10037   */\n      dup2\n        /* \"#utility.yul\":10029:10061   */\n      eq\n        /* \"#utility.yul\":10019:10079   */\n      tag_491\n      jumpi\n        /* \"#utility.yul\":10075:10076   */\n      0x00\n        /* \"#utility.yul\":10072:10073   */\n      dup1\n        /* \"#utility.yul\":10065:10077   */\n      revert\n        /* \"#utility.yul\":10019:10079   */\n    tag_491:\n        /* \"#utility.yul\":9969:10085   */\n      pop\n      jump\t// out\n        /* \"#utility.yul\":10091:10224   */\n    tag_335:\n        /* \"#utility.yul\":10134:10139   */\n      0x00\n        /* \"#utility.yul\":10172:10178   */\n      dup2\n        /* \"#utility.yul\":10159:10179   */\n      calldataload\n        /* \"#utility.yul\":10150:10179   */\n      swap1\n      pop\n        /* \"#utility.yul\":10188:10218   */\n      tag_493\n        /* \"#utility.yul\":10212:10217   */\n      dup2\n        /* \"#utility.yul\":10188:10218   */\n      tag_334\n      jump\t// in\n    tag_493:\n        /* \"#utility.yul\":10091:10224   */\n      swap3\n      swap2\n      pop\n      pop\n      jump\t// out\n        /* \"#utility.yul\":10230:10698   */\n    tag_78:\n        /* \"#utility.yul\":10295:10301   */\n      0x00\n        /* \"#utility.yul\":10303:10309   */\n      dup1\n        /* \"#utility.yul\":10352:10354   */\n      0x40\n        /* \"#utility.yul\":10340:10349   */\n      dup4\n        /* \"#utility.yul\":10331:10338   */\n      dup6\n        /* \"#utility.yul\":10327:10350   */\n      sub\n        /* \"#utility.yul\":10323:10355   */\n      slt\n        /* \"#utility.yul\":10320:10439   */\n      iszero\n      tag_495\n      jumpi\n        /* \"#utility.yul\":10358:10437   */\n      tag_496\n      tag_306\n      jump\t// in\n    tag_496:\n        /* \"#utility.yul\":10320:10439   */\n    tag_495:\n        /* \"#utility.yul\":10478:10479   */\n      0x00\n        /* \"#utility.yul\":10503:10556   */\n      tag_497\n        /* \"#utility.yul\":10548:10555   */\n      dup6\n        /* \"#utility.yul\":10539:10545   */\n      dup3\n        /* \"#utility.yul\":10528:10537   */\n      dup7\n        /* \"#utility.yul\":10524:10546   */\n      add\n        /* \"#utility.yul\":10503:10556   */\n      tag_311\n      jump\t// in\n    tag_497:\n        /* \"#utility.yul\":10493:10556   */\n      swap3\n      pop\n        /* \"#utility.yul\":10449:10566   */\n      pop\n        /* \"#utility.yul\":10605:10607   */\n      0x20\n        /* \"#utility.yul\":10631:10681   */\n      tag_498\n        /* \"#utility.yul\":10673:10680   */\n      dup6\n        /* \"#utility.yul\":10664:10670   */\n      dup3\n        /* \"#utility.yul\":10653:10662   */\n      dup7\n        /* \"#utility.yul\":10649:10671   */\n      add\n        /* \"#utility.yul\":10631:10681   */\n      tag_335\n      jump\t// in\n    tag_498:\n        /* \"#utility.yul\":10621:10681   */\n      swap2\n      pop\n        /* \"#utility.yul\":10576:10691   */\n      pop\n        /* \"#utility.yul\":10230:10698   */\n      swap3\n      pop\n      swap3\n      swap1\n      pop\n      jump\t// out\n        /* \"#utility.yul\":10704:10822   */\n    tag_336:\n        /* \"#utility.yul\":10791:10815   */\n      tag_500\n        /* \"#utility.yul\":10809:10814   */\n      dup2\n        /* \"#utility.yul\":10791:10815   */\n      tag_309\n      jump\t// in\n    tag_500:\n        /* \"#utility.yul\":10786:10789   */\n      dup3\n        /* \"#utility.yul\":10779:10816   */\n      mstore\n        /* \"#utility.yul\":10704:10822   */\n      pop\n      pop\n      jump\t// out\n        /* \"#utility.yul\":10828:11050   */\n    tag_84:\n        /* \"#utility.yul\":10921:10925   */\n      0x00\n        /* \"#utility.yul\":10959:10961   */\n      0x20\n        /* \"#utility.yul\":10948:10957   */\n      dup3\n        /* \"#utility.yul\":10944:10962   */\n      add\n        /* \"#utility.yul\":10936:10962   */\n      swap1\n      pop\n        /* \"#utility.yul\":10972:11043   */\n      tag_502\n        /* \"#utility.yul\":11040:11041   */\n      0x00\n        /* \"#utility.yul\":11029:11038   */\n      dup4\n        /* \"#utility.yul\":11025:11042   */\n      add\n        /* \"#utility.yul\":11016:11022   */\n      dup5\n        /* \"#utility.yul\":10972:11043   */\n      tag_336\n      jump\t// in\n    tag_502:\n        /* \"#utility.yul\":10828:11050   */\n      swap3\n      swap2\n      pop\n      pop\n      jump\t// out\n        /* \"#utility.yul\":11056:11675   */\n    tag_87:\n        /* \"#utility.yul\":11133:11139   */\n      0x00\n        /* \"#utility.yul\":11141:11147   */\n      dup1\n        /* \"#utility.yul\":11149:11155   */\n      0x00\n        /* \"#utility.yul\":11198:11200   */\n      0x60\n        /* \"#utility.yul\":11186:11195   */\n      dup5\n        /* \"#utility.yul\":11177:11184   */\n      dup7\n        /* \"#utility.yul\":11173:11196   */\n      sub\n        /* \"#utility.yul\":11169:11201   */\n      slt\n        /* \"#utility.yul\":11166:11285   */\n      iszero\n      tag_504\n      jumpi\n        /* \"#utility.yul\":11204:11283   */\n      tag_505\n      tag_306\n      jump\t// in\n    tag_505:\n        /* \"#utility.yul\":11166:11285   */\n    tag_504:\n        /* \"#utility.yul\":11324:11325   */\n      0x00\n        /* \"#utility.yul\":11349:11402   */\n      tag_506\n        /* \"#utility.yul\":11394:11401   */\n      dup7\n        /* \"#utility.yul\":11385:11391   */\n      dup3\n        /* \"#utility.yul\":11374:11383   */\n      dup8\n        /* \"#utility.yul\":11370:11392   */\n      add\n        /* \"#utility.yul\":11349:11402   */\n      tag_311\n      jump\t// in\n    tag_506:\n        /* \"#utility.yul\":11339:11402   */\n      swap4\n      pop\n        /* \"#utility.yul\":11295:11412   */\n      pop\n        /* \"#utility.yul\":11451:11453   */\n      0x20\n        /* \"#utility.yul\":11477:11530   */\n      tag_507\n        /* \"#utility.yul\":11522:11529   */\n      dup7\n        /* \"#utility.yul\":11513:11519   */\n      dup3\n        /* \"#utility.yul\":11502:11511   */\n      dup8\n        /* \"#utility.yul\":11498:11520   */\n      add\n        /* \"#utility.yul\":11477:11530   */\n      tag_311\n      jump\t// in\n    tag_507:\n        /* \"#utility.yul\":11467:11530   */\n      swap3\n      pop\n        /* \"#utility.yul\":11422:11540   */\n      pop\n        /* \"#utility.yul\":11579:11581   */\n      0x40\n        /* \"#utility.yul\":11605:11658   */\n      tag_508\n        /* \"#utility.yul\":11650:11657   */\n      dup7\n        /* \"#utility.yul\":11641:11647   */\n      dup3\n        /* \"#utility.yul\":11630:11639   */\n      dup8\n        /* \"#utility.yul\":11626:11648   */\n      add\n        /* \"#utility.yul\":11605:11658   */\n      tag_314\n      jump\t// in\n    tag_508:\n        /* \"#utility.yul\":11595:11658   */\n      swap2\n      pop\n        /* \"#utility.yul\":11550:11668   */\n      pop\n        /* \"#utility.yul\":11056:11675   */\n      swap3\n      pop\n      swap3\n      pop\n      swap3\n      jump\t// out\n        /* \"#utility.yul\":11681:12294   */\n    tag_96:\n        /* \"#utility.yul\":11755:11761   */\n      0x00\n        /* \"#utility.yul\":11763:11769   */\n      dup1\n        /* \"#utility.yul\":11771:11777   */\n      0x00\n        /* \"#utility.yul\":11820:11822   */\n      0x60\n        /* \"#utility.yul\":11808:11817   */\n      dup5\n        /* \"#utility.yul\":11799:11806   */\n      dup7\n        /* \"#utility.yul\":11795:11818   */\n      sub\n        /* \"#utility.yul\":11791:11823   */\n      slt\n        /* \"#utility.yul\":11788:11907   */\n      iszero\n      tag_510\n      jumpi\n        /* \"#utility.yul\":11826:11905   */\n      tag_511\n      tag_306\n      jump\t// in\n    tag_511:\n        /* \"#utility.yul\":11788:11907   */\n    tag_510:\n        /* \"#utility.yul\":11946:11947   */\n      0x00\n        /* \"#utility.yul\":11971:12024   */\n      tag_512\n        /* \"#utility.yul\":12016:12023   */\n      dup7\n        /* \"#utility.yul\":12007:12013   */\n      dup3\n        /* \"#utility.yul\":11996:12005   */\n      dup8\n        /* \"#utility.yul\":11992:12014   */\n      add\n        /* \"#utility.yul\":11971:12024   */\n      tag_311\n      jump\t// in\n    tag_512:\n        /* \"#utility.yul\":11961:12024   */\n      swap4\n      pop\n        /* \"#utility.yul\":11917:12034   */\n      pop\n        /* \"#utility.yul\":12073:12075   */\n      0x20\n        /* \"#utility.yul\":12099:12152   */\n      tag_513\n        /* \"#utility.yul\":12144:12151   */\n      dup7\n        /* \"#utility.yul\":12135:12141   */\n      dup3\n        /* \"#utility.yul\":12124:12133   */\n      dup8\n        /* \"#utility.yul\":12120:12142   */\n      add\n        /* \"#utility.yul\":12099:12152   */\n      tag_314\n      jump\t// in\n    tag_513:\n        /* \"#utility.yul\":12089:12152   */\n      swap3\n      pop\n        /* \"#utility.yul\":12044:12162   */\n      pop\n        /* \"#utility.yul\":12201:12203   */\n      0x40\n        /* \"#utility.yul\":12227:12277   */\n      tag_514\n        /* \"#utility.yul\":12269:12276   */\n      dup7\n        /* \"#utility.yul\":12260:12266   */\n      dup3\n        /* \"#utility.yul\":12249:12258   */\n      dup8\n        /* \"#utility.yul\":12245:12267   */\n      add\n        /* \"#utility.yul\":12227:12277   */\n      tag_335\n      jump\t// in\n    tag_514:\n        /* \"#utility.yul\":12217:12277   */\n      swap2\n      pop\n        /* \"#utility.yul\":12172:12287   */\n      pop\n        /* \"#utility.yul\":11681:12294   */\n      swap3\n      pop\n      swap3\n      pop\n      swap3\n      jump\t// out\n        /* \"#utility.yul\":12300:13265   */\n    tag_104:\n        /* \"#utility.yul\":12398:12404   */\n      0x00\n        /* \"#utility.yul\":12406:12412   */\n      dup1\n        /* \"#utility.yul\":12414:12420   */\n      0x00\n        /* \"#utility.yul\":12422:12428   */\n      dup1\n        /* \"#utility.yul\":12430:12436   */\n      0x00\n        /* \"#utility.yul\":12479:12482   */\n      0x80\n        /* \"#utility.yul\":12467:12476   */\n      dup7\n        /* \"#utility.yul\":12458:12465   */\n      dup9\n        /* \"#utility.yul\":12454:12477   */\n      sub\n        /* \"#utility.yul\":12450:12483   */\n      slt\n        /* \"#utility.yul\":12447:12567   */\n      iszero\n      tag_516\n      jumpi\n        /* \"#utility.yul\":12486:12565   */\n      tag_517\n      tag_306\n      jump\t// in\n    tag_517:\n        /* \"#utility.yul\":12447:12567   */\n    tag_516:\n        /* \"#utility.yul\":12606:12607   */\n      0x00\n        /* \"#utility.yul\":12631:12684   */\n      tag_518\n        /* \"#utility.yul\":12676:12683   */\n      dup9\n        /* \"#utility.yul\":12667:12673   */\n      dup3\n        /* \"#utility.yul\":12656:12665   */\n      dup10\n        /* \"#utility.yul\":12652:12674   */\n      add\n        /* \"#utility.yul\":12631:12684   */\n      tag_314\n      jump\t// in\n    tag_518:\n        /* \"#utility.yul\":12621:12684   */\n      swap6\n      pop\n        /* \"#utility.yul\":12577:12694   */\n      pop\n        /* \"#utility.yul\":12733:12735   */\n      0x20\n        /* \"#utility.yul\":12759:12812   */\n      tag_519\n        /* \"#utility.yul\":12804:12811   */\n      dup9\n        /* \"#utility.yul\":12795:12801   */\n      dup3\n        /* \"#utility.yul\":12784:12793   */\n      dup10\n        /* \"#utility.yul\":12780:12802   */\n      add\n        /* \"#utility.yul\":12759:12812   */\n      tag_314\n      jump\t// in\n    tag_519:\n        /* \"#utility.yul\":12749:12812   */\n      swap5\n      pop\n        /* \"#utility.yul\":12704:12822   */\n      pop\n        /* \"#utility.yul\":12889:12891   */\n      0x40\n        /* \"#utility.yul\":12878:12887   */\n      dup7\n        /* \"#utility.yul\":12874:12892   */\n      add\n        /* \"#utility.yul\":12861:12893   */\n      calldataload\n        /* \"#utility.yul\":12920:12938   */\n      0xffffffffffffffff\n        /* \"#utility.yul\":12912:12918   */\n      dup2\n        /* \"#utility.yul\":12909:12939   */\n      gt\n        /* \"#utility.yul\":12906:13023   */\n      iszero\n      tag_520\n      jumpi\n        /* \"#utility.yul\":12942:13021   */\n      tag_521\n      tag_307\n      jump\t// in\n    tag_521:\n        /* \"#utility.yul\":12906:13023   */\n    tag_520:\n        /* \"#utility.yul\":13055:13120   */\n      tag_522\n        /* \"#utility.yul\":13112:13119   */\n      dup9\n        /* \"#utility.yul\":13103:13109   */\n      dup3\n        /* \"#utility.yul\":13092:13101   */\n      dup10\n        /* \"#utility.yul\":13088:13110   */\n      add\n        /* \"#utility.yul\":13055:13120   */\n      tag_324\n      jump\t// in\n    tag_522:\n        /* \"#utility.yul\":13037:13120   */\n      swap4\n      pop\n      swap4\n      pop\n        /* \"#utility.yul\":12832:13130   */\n      pop\n        /* \"#utility.yul\":13169:13171   */\n      0x60\n        /* \"#utility.yul\":13195:13248   */\n      tag_523\n        /* \"#utility.yul\":13240:13247   */\n      dup9\n        /* \"#utility.yul\":13231:13237   */\n      dup3\n        /* \"#utility.yul\":13220:13229   */\n      dup10\n        /* \"#utility.yul\":13216:13238   */\n      add\n        /* \"#utility.yul\":13195:13248   */\n      tag_311\n      jump\t// in\n    tag_523:\n        /* \"#utility.yul\":13185:13248   */\n      swap2\n      pop\n        /* \"#utility.yul\":13140:13258   */\n      pop\n        /* \"#utility.yul\":12300:13265   */\n      swap3\n      swap6\n      pop\n      swap3\n      swap6\n      swap1\n      swap4\n      pop\n      jump\t// out\n        /* \"#utility.yul\":13271:13745   */\n    tag_120:\n        /* \"#utility.yul\":13339:13345   */\n      0x00\n        /* \"#utility.yul\":13347:13353   */\n      dup1\n        /* \"#utility.yul\":13396:13398   */\n      0x40\n        /* \"#utility.yul\":13384:13393   */\n      dup4\n        /* \"#utility.yul\":13375:13382   */\n      dup6\n        /* \"#utility.yul\":13371:13394   */\n      sub\n        /* \"#utility.yul\":13367:13399   */\n      slt\n        /* \"#utility.yul\":13364:13483   */\n      iszero\n      tag_525\n      jumpi\n        /* \"#utility.yul\":13402:13481   */\n      tag_526\n      tag_306\n      jump\t// in\n    tag_526:\n        /* \"#utility.yul\":13364:13483   */\n    tag_525:\n        /* \"#utility.yul\":13522:13523   */\n      0x00\n        /* \"#utility.yul\":13547:13600   */\n      tag_527\n        /* \"#utility.yul\":13592:13599   */\n      dup6\n        /* \"#utility.yul\":13583:13589   */\n      dup3\n        /* \"#utility.yul\":13572:13581   */\n      dup7\n        /* \"#utility.yul\":13568:13590   */\n      add\n        /* \"#utility.yul\":13547:13600   */\n      tag_311\n      jump\t// in\n    tag_527:\n        /* \"#utility.yul\":13537:13600   */\n      swap3\n      pop\n        /* \"#utility.yul\":13493:13610   */\n      pop\n        /* \"#utility.yul\":13649:13651   */\n      0x20\n        /* \"#utility.yul\":13675:13728   */\n      tag_528\n        /* \"#utility.yul\":13720:13727   */\n      dup6\n        /* \"#utility.yul\":13711:13717   */\n      dup3\n        /* \"#utility.yul\":13700:13709   */\n      dup7\n        /* \"#utility.yul\":13696:13718   */\n      add\n        /* \"#utility.yul\":13675:13728   */\n      tag_311\n      jump\t// in\n    tag_528:\n        /* \"#utility.yul\":13665:13728   */\n      swap2\n      pop\n        /* \"#utility.yul\":13620:13738   */\n      pop\n        /* \"#utility.yul\":13271:13745   */\n      swap3\n      pop\n      swap3\n      swap1\n      pop\n      jump\t// out\n        /* \"#utility.yul\":13751:14064   */\n    tag_131:\n        /* \"#utility.yul\":13864:13868   */\n      0x00\n        /* \"#utility.yul\":13902:13904   */\n      0x20\n        /* \"#utility.yul\":13891:13900   */\n      dup3\n        /* \"#utility.yul\":13887:13905   */\n      add\n        /* \"#utility.yul\":13879:13905   */\n      swap1\n      pop\n        /* \"#utility.yul\":13951:13960   */\n      dup2\n        /* \"#utility.yul\":13945:13949   */\n      dup2\n        /* \"#utility.yul\":13941:13961   */\n      sub\n        /* \"#utility.yul\":13937:13938   */\n      0x00\n        /* \"#utility.yul\":13926:13935   */\n      dup4\n        /* \"#utility.yul\":13922:13939   */\n      add\n        /* \"#utility.yul\":13915:13962   */\n      mstore\n        /* \"#utility.yul\":13979:14057   */\n      tag_530\n        /* \"#utility.yul\":14052:14056   */\n      dup2\n        /* \"#utility.yul\":14043:14049   */\n      dup5\n        /* \"#utility.yul\":13979:14057   */\n      tag_329\n      jump\t// in\n    tag_530:\n        /* \"#utility.yul\":13971:14057   */\n      swap1\n      pop\n        /* \"#utility.yul\":13751:14064   */\n      swap3\n      swap2\n      pop\n      pop\n      jump\t// out\n        /* \"#utility.yul\":14070:14835   */\n    tag_134:\n        /* \"#utility.yul\":14156:14162   */\n      0x00\n        /* \"#utility.yul\":14164:14170   */\n      dup1\n        /* \"#utility.yul\":14172:14178   */\n      0x00\n        /* \"#utility.yul\":14180:14186   */\n      dup1\n        /* \"#utility.yul\":14229:14232   */\n      0x80\n        /* \"#utility.yul\":14217:14226   */\n      dup6\n        /* \"#utility.yul\":14208:14215   */\n      dup8\n        /* \"#utility.yul\":14204:14227   */\n      sub\n        /* \"#utility.yul\":14200:14233   */\n      slt\n        /* \"#utility.yul\":14197:14317   */\n      iszero\n      tag_532\n      jumpi\n        /* \"#utility.yul\":14236:14315   */\n      tag_533\n      tag_306\n      jump\t// in\n    tag_533:\n        /* \"#utility.yul\":14197:14317   */\n    tag_532:\n        /* \"#utility.yul\":14356:14357   */\n      0x00\n        /* \"#utility.yul\":14381:14434   */\n      tag_534\n        /* \"#utility.yul\":14426:14433   */\n      dup8\n        /* \"#utility.yul\":14417:14423   */\n      dup3\n        /* \"#utility.yul\":14406:14415   */\n      dup9\n        /* \"#utility.yul\":14402:14424   */\n      add\n        /* \"#utility.yul\":14381:14434   */\n      tag_311\n      jump\t// in\n    tag_534:\n        /* \"#utility.yul\":14371:14434   */\n      swap5\n      pop\n        /* \"#utility.yul\":14327:14444   */\n      pop\n        /* \"#utility.yul\":14483:14485   */\n      0x20\n        /* \"#utility.yul\":14509:14562   */\n      tag_535\n        /* \"#utility.yul\":14554:14561   */\n      dup8\n        /* \"#utility.yul\":14545:14551   */\n      dup3\n        /* \"#utility.yul\":14534:14543   */\n      dup9\n        /* \"#utility.yul\":14530:14552   */\n      add\n        /* \"#utility.yul\":14509:14562   */\n      tag_311\n      jump\t// in\n    tag_535:\n        /* \"#utility.yul\":14499:14562   */\n      swap4\n      pop\n        /* \"#utility.yul\":14454:14572   */\n      pop\n        /* \"#utility.yul\":14611:14613   */\n      0x40\n        /* \"#utility.yul\":14637:14690   */\n      tag_536\n        /* \"#utility.yul\":14682:14689   */\n      dup8\n        /* \"#utility.yul\":14673:14679   */\n      dup3\n        /* \"#utility.yul\":14662:14671   */\n      dup9\n        /* \"#utility.yul\":14658:14680   */\n      add\n        /* \"#utility.yul\":14637:14690   */\n      tag_314\n      jump\t// in\n    tag_536:\n        /* \"#utility.yul\":14627:14690   */\n      swap3\n      pop\n        /* \"#utility.yul\":14582:14700   */\n      pop\n        /* \"#utility.yul\":14739:14741   */\n      0x60\n        /* \"#utility.yul\":14765:14818   */\n      tag_537\n        /* \"#utility.yul\":14810:14817   */\n      dup8\n        /* \"#utility.yul\":14801:14807   */\n      dup3\n        /* \"#utility.yul\":14790:14799   */\n      dup9\n        /* \"#utility.yul\":14786:14808   */\n      add\n        /* \"#utility.yul\":14765:14818   */\n      tag_314\n      jump\t// in\n    tag_537:\n        /* \"#utility.yul\":14755:14818   */\n      swap2\n      pop\n        /* \"#utility.yul\":14710:14828   */\n      pop\n        /* \"#utility.yul\":14070:14835   */\n      swap3\n      swap6\n      swap2\n      swap5\n      pop\n      swap3\n      pop\n      jump\t// out\n        /* \"#utility.yul\":14841:15173   */\n    tag_141:\n        /* \"#utility.yul\":14962:14966   */\n      0x00\n        /* \"#utility.yul\":15000:15002   */\n      0x40\n        /* \"#utility.yul\":14989:14998   */\n      dup3\n        /* \"#utility.yul\":14985:15003   */\n      add\n        /* \"#utility.yul\":14977:15003   */\n      swap1\n      pop\n        /* \"#utility.yul\":15013:15084   */\n      tag_539\n        /* \"#utility.yul\":15081:15082   */\n      0x00\n        /* \"#utility.yul\":15070:15079   */\n      dup4\n        /* \"#utility.yul\":15066:15083   */\n      add\n        /* \"#utility.yul\":15057:15063   */\n      dup6\n        /* \"#utility.yul\":15013:15084   */\n      tag_336\n      jump\t// in\n    tag_539:\n        /* \"#utility.yul\":15094:15166   */\n      tag_540\n        /* \"#utility.yul\":15162:15164   */\n      0x20\n        /* \"#utility.yul\":15151:15160   */\n      dup4\n        /* \"#utility.yul\":15147:15165   */\n      add\n        /* \"#utility.yul\":15138:15144   */\n      dup5\n        /* \"#utility.yul\":15094:15166   */\n      tag_315\n      jump\t// in\n    tag_540:\n        /* \"#utility.yul\":14841:15173   */\n      swap4\n      swap3\n      pop\n      pop\n      pop\n      jump\t// out\n        /* \"#utility.yul\":15179:15359   */\n    tag_337:\n        /* \"#utility.yul\":15227:15304   */\n      0x4e487b7100000000000000000000000000000000000000000000000000000000\n        /* \"#utility.yul\":15224:15225   */\n      0x00\n        /* \"#utility.yul\":15217:15305   */\n      mstore\n        /* \"#utility.yul\":15324:15328   */\n      0x11\n        /* \"#utility.yul\":15321:15322   */\n      0x04\n        /* \"#utility.yul\":15314:15329   */\n      mstore\n        /* \"#utility.yul\":15348:15352   */\n      0x24\n        /* \"#utility.yul\":15345:15346   */\n      0x00\n        /* \"#utility.yul\":15338:15353   */\n      revert\n        /* \"#utility.yul\":15365:15559   */\n    tag_143:\n        /* \"#utility.yul\":15405:15409   */\n      0x00\n        /* \"#utility.yul\":15425:15445   */\n      tag_543\n        /* \"#utility.yul\":15443:15444   */\n      dup3\n        /* \"#utility.yul\":15425:15445   */\n      tag_312\n      jump\t// in\n    tag_543:\n        /* \"#utility.yul\":15420:15445   */\n      swap2\n      pop\n        /* \"#utility.yul\":15459:15479   */\n      tag_544\n        /* \"#utility.yul\":15477:15478   */\n      dup4\n        /* \"#utility.yul\":15459:15479   */\n      tag_312\n      jump\t// in\n    tag_544:\n        /* \"#utility.yul\":15454:15479   */\n      swap3\n      pop\n        /* \"#utility.yul\":15503:15504   */\n      dup3\n        /* \"#utility.yul\":15500:15501   */\n      dup3\n        /* \"#utility.yul\":15496:15505   */\n      sub\n        /* \"#utility.yul\":15488:15505   */\n      swap1\n      pop\n        /* \"#utility.yul\":15527:15528   */\n      dup2\n        /* \"#utility.yul\":15521:15525   */\n      dup2\n        /* \"#utility.yul\":15518:15529   */\n      gt\n        /* \"#utility.yul\":15515:15552   */\n      iszero\n      tag_545\n      jumpi\n        /* \"#utility.yul\":15532:15550   */\n      tag_546\n      tag_337\n      jump\t// in\n    tag_546:\n        /* \"#utility.yul\":15515:15552   */\n    tag_545:\n        /* \"#utility.yul\":15365:15559   */\n      swap3\n      swap2\n      pop\n      pop\n      jump\t// out\n        /* \"#utility.yul\":15565:15756   */\n    tag_145:\n        /* \"#utility.yul\":15605:15608   */\n      0x00\n        /* \"#utility.yul\":15624:15644   */\n      tag_548\n        /* \"#utility.yul\":15642:15643   */\n      dup3\n        /* \"#utility.yul\":15624:15644   */\n      tag_312\n      jump\t// in\n    tag_548:\n        /* \"#utility.yul\":15619:15644   */\n      swap2\n      pop\n        /* \"#utility.yul\":15658:15678   */\n      tag_549\n        /* \"#utility.yul\":15676:15677   */\n      dup4\n        /* \"#utility.yul\":15658:15678   */\n      tag_312\n      jump\t// in\n    tag_549:\n        /* \"#utility.yul\":15653:15678   */\n      swap3\n      pop\n        /* \"#utility.yul\":15701:15702   */\n      dup3\n        /* \"#utility.yul\":15698:15699   */\n      dup3\n        /* \"#utility.yul\":15694:15703   */\n      add\n        /* \"#utility.yul\":15687:15703   */\n      swap1\n      pop\n        /* \"#utility.yul\":15722:15725   */\n      dup1\n        /* \"#utility.yul\":15719:15720   */\n      dup3\n        /* \"#utility.yul\":15716:15726   */\n      gt\n        /* \"#utility.yul\":15713:15749   */\n      iszero\n      tag_550\n      jumpi\n        /* \"#utility.yul\":15729:15747   */\n      tag_551\n      tag_337\n      jump\t// in\n    tag_551:\n        /* \"#utility.yul\":15713:15749   */\n    tag_550:\n        /* \"#utility.yul\":15565:15756   */\n      swap3\n      swap2\n      pop\n      pop\n      jump\t// out\n        /* \"#utility.yul\":15762:15856   */\n    tag_338:\n        /* \"#utility.yul\":15795:15803   */\n      0x00\n        /* \"#utility.yul\":15843:15848   */\n      dup2\n        /* \"#utility.yul\":15839:15841   */\n      0x60\n        /* \"#utility.yul\":15835:15849   */\n      shl\n        /* \"#utility.yul\":15814:15849   */\n      swap1\n      pop\n        /* \"#utility.yul\":15762:15856   */\n      swap2\n      swap1\n      pop\n      jump\t// out\n        /* \"#utility.yul\":15862:15956   */\n    tag_339:\n        /* \"#utility.yul\":15901:15908   */\n      0x00\n        /* \"#utility.yul\":15930:15950   */\n      tag_554\n        /* \"#utility.yul\":15944:15949   */\n      dup3\n        /* \"#utility.yul\":15930:15950   */\n      tag_338\n      jump\t// in\n    tag_554:\n        /* \"#utility.yul\":15919:15950   */\n      swap1\n      pop\n        /* \"#utility.yul\":15862:15956   */\n      swap2\n      swap1\n      pop\n      jump\t// out\n        /* \"#utility.yul\":15962:16062   */\n    tag_340:\n        /* \"#utility.yul\":16001:16008   */\n      0x00\n        /* \"#utility.yul\":16030:16056   */\n      tag_556\n        /* \"#utility.yul\":16050:16055   */\n      dup3\n        /* \"#utility.yul\":16030:16056   */\n      tag_339\n      jump\t// in\n    tag_556:\n        /* \"#utility.yul\":16019:16056   */\n      swap1\n      pop\n        /* \"#utility.yul\":15962:16062   */\n      swap2\n      swap1\n      pop\n      jump\t// out\n        /* \"#utility.yul\":16068:16225   */\n    tag_341:\n        /* \"#utility.yul\":16173:16218   */\n      tag_558\n        /* \"#utility.yul\":16193:16217   */\n      tag_559\n        /* \"#utility.yul\":16211:16216   */\n      dup3\n        /* \"#utility.yul\":16193:16217   */\n      tag_309\n      jump\t// in\n    tag_559:\n        /* \"#utility.yul\":16173:16218   */\n      tag_340\n      jump\t// in\n    tag_558:\n        /* \"#utility.yul\":16168:16171   */\n      dup3\n        /* \"#utility.yul\":16161:16219   */\n      mstore\n        /* \"#utility.yul\":16068:16225   */\n      pop\n      pop\n      jump\t// out\n        /* \"#utility.yul\":16231:16310   */\n    tag_342:\n        /* \"#utility.yul\":16270:16277   */\n      0x00\n        /* \"#utility.yul\":16299:16304   */\n      dup2\n        /* \"#utility.yul\":16288:16304   */\n      swap1\n      pop\n        /* \"#utility.yul\":16231:16310   */\n      swap2\n      swap1\n      pop\n      jump\t// out\n        /* \"#utility.yul\":16316:16473   */\n    tag_343:\n        /* \"#utility.yul\":16421:16466   */\n      tag_562\n        /* \"#utility.yul\":16441:16465   */\n      tag_563\n        /* \"#utility.yul\":16459:16464   */\n      dup3\n        /* \"#utility.yul\":16441:16465   */\n      tag_312\n      jump\t// in\n    tag_563:\n        /* \"#utility.yul\":16421:16466   */\n      tag_342\n      jump\t// in\n    tag_562:\n        /* \"#utility.yul\":16416:16419   */\n      dup3\n        /* \"#utility.yul\":16409:16467   */\n      mstore\n        /* \"#utility.yul\":16316:16473   */\n      pop\n      pop\n      jump\t// out\n        /* \"#utility.yul\":16479:16876   */\n    tag_149:\n        /* \"#utility.yul\":16619:16622   */\n      0x00\n        /* \"#utility.yul\":16634:16709   */\n      tag_565\n        /* \"#utility.yul\":16705:16708   */\n      dup3\n        /* \"#utility.yul\":16696:16702   */\n      dup6\n        /* \"#utility.yul\":16634:16709   */\n      tag_341\n      jump\t// in\n    tag_565:\n        /* \"#utility.yul\":16734:16736   */\n      0x14\n        /* \"#utility.yul\":16729:16732   */\n      dup3\n        /* \"#utility.yul\":16725:16737   */\n      add\n        /* \"#utility.yul\":16718:16737   */\n      swap2\n      pop\n        /* \"#utility.yul\":16747:16822   */\n      tag_566\n        /* \"#utility.yul\":16818:16821   */\n      dup3\n        /* \"#utility.yul\":16809:16815   */\n      dup5\n        /* \"#utility.yul\":16747:16822   */\n      tag_343\n      jump\t// in\n    tag_566:\n        /* \"#utility.yul\":16847:16849   */\n      0x20\n        /* \"#utility.yul\":16842:16845   */\n      dup3\n        /* \"#utility.yul\":16838:16850   */\n      add\n        /* \"#utility.yul\":16831:16850   */\n      swap2\n      pop\n        /* \"#utility.yul\":16867:16870   */\n      dup2\n        /* \"#utility.yul\":16860:16870   */\n      swap1\n      pop\n        /* \"#utility.yul\":16479:16876   */\n      swap4\n      swap3\n      pop\n      pop\n      pop\n      jump\t// out\n        /* \"#utility.yul\":16882:17062   */\n    tag_344:\n        /* \"#utility.yul\":16930:17007   */\n      0x4e487b7100000000000000000000000000000000000000000000000000000000\n        /* \"#utility.yul\":16927:16928   */\n      0x00\n        /* \"#utility.yul\":16920:17008   */\n      mstore\n        /* \"#utility.yul\":17027:17031   */\n      0x41\n        /* \"#utility.yul\":17024:17025   */\n      0x04\n        /* \"#utility.yul\":17017:17032   */\n      mstore\n        /* \"#utility.yul\":17051:17055   */\n      0x24\n        /* \"#utility.yul\":17048:17049   */\n      0x00\n        /* \"#utility.yul\":17041:17056   */\n      revert\n        /* \"#utility.yul\":17068:17248   */\n    tag_345:\n        /* \"#utility.yul\":17116:17193   */\n      0x4e487b7100000000000000000000000000000000000000000000000000000000\n        /* \"#utility.yul\":17113:17114   */\n      0x00\n        /* \"#utility.yul\":17106:17194   */\n      mstore\n        /* \"#utility.yul\":17213:17217   */\n      0x22\n        /* \"#utility.yul\":17210:17211   */\n      0x04\n        /* \"#utility.yul\":17203:17218   */\n      mstore\n        /* \"#utility.yul\":17237:17241   */\n      0x24\n        /* \"#utility.yul\":17234:17235   */\n      0x00\n        /* \"#utility.yul\":17227:17242   */\n      revert\n        /* \"#utility.yul\":17254:17574   */\n    tag_197:\n        /* \"#utility.yul\":17298:17304   */\n      0x00\n        /* \"#utility.yul\":17335:17336   */\n      0x02\n        /* \"#utility.yul\":17329:17333   */\n      dup3\n        /* \"#utility.yul\":17325:17337   */\n      div\n        /* \"#utility.yul\":17315:17337   */\n      swap1\n      pop\n        /* \"#utility.yul\":17382:17383   */\n      0x01\n        /* \"#utility.yul\":17376:17380   */\n      dup3\n        /* \"#utility.yul\":17372:17384   */\n      and\n        /* \"#utility.yul\":17403:17421   */\n      dup1\n        /* \"#utility.yul\":17393:17474   */\n      tag_570\n      jumpi\n        /* \"#utility.yul\":17459:17463   */\n      0x7f\n        /* \"#utility.yul\":17451:17457   */\n      dup3\n        /* \"#utility.yul\":17447:17464   */\n      and\n        /* \"#utility.yul\":17437:17464   */\n      swap2\n      pop\n        /* \"#utility.yul\":17393:17474   */\n    tag_570:\n        /* \"#utility.yul\":17521:17523   */\n      0x20\n        /* \"#utility.yul\":17513:17519   */\n      dup3\n        /* \"#utility.yul\":17510:17524   */\n      lt\n        /* \"#utility.yul\":17490:17508   */\n      dup2\n        /* \"#utility.yul\":17487:17525   */\n      sub\n        /* \"#utility.yul\":17484:17568   */\n      tag_571\n      jumpi\n        /* \"#utility.yul\":17540:17558   */\n      tag_572\n      tag_345\n      jump\t// in\n    tag_572:\n        /* \"#utility.yul\":17484:17568   */\n    tag_571:\n        /* \"#utility.yul\":17305:17574   */\n      pop\n        /* \"#utility.yul\":17254:17574   */\n      swap2\n      swap1\n      pop\n      jump\t// out\n        /* \"#utility.yul\":17580:17721   */\n    tag_346:\n        /* \"#utility.yul\":17629:17633   */\n      0x00\n        /* \"#utility.yul\":17652:17655   */\n      dup2\n        /* \"#utility.yul\":17644:17655   */\n      swap1\n      pop\n        /* \"#utility.yul\":17675:17678   */\n      dup2\n        /* \"#utility.yul\":17672:17673   */\n      0x00\n        /* \"#utility.yul\":17665:17679   */\n      mstore\n        /* \"#utility.yul\":17709:17713   */\n      0x20\n        /* \"#utility.yul\":17706:17707   */\n      0x00\n        /* \"#utility.yul\":17696:17714   */\n      keccak256\n        /* \"#utility.yul\":17688:17714   */\n      swap1\n      pop\n        /* \"#utility.yul\":17580:17721   */\n      swap2\n      swap1\n      pop\n      jump\t// out\n        /* \"#utility.yul\":17727:17820   */\n    tag_347:\n        /* \"#utility.yul\":17764:17770   */\n      0x00\n        /* \"#utility.yul\":17811:17813   */\n      0x20\n        /* \"#utility.yul\":17806:17808   */\n      0x1f\n        /* \"#utility.yul\":17799:17804   */\n      dup4\n        /* \"#utility.yul\":17795:17809   */\n      add\n        /* \"#utility.yul\":17791:17814   */\n      div\n        /* \"#utility.yul\":17781:17814   */\n      swap1\n      pop\n        /* \"#utility.yul\":17727:17820   */\n      swap2\n      swap1\n      pop\n      jump\t// out\n        /* \"#utility.yul\":17826:17933   */\n    tag_348:\n        /* \"#utility.yul\":17870:17878   */\n      0x00\n        /* \"#utility.yul\":17920:17925   */\n      dup3\n        /* \"#utility.yul\":17914:17918   */\n      dup3\n        /* \"#utility.yul\":17910:17926   */\n      shl\n        /* \"#utility.yul\":17889:17926   */\n      swap1\n      pop\n        /* \"#utility.yul\":17826:17933   */\n      swap3\n      swap2\n      pop\n      pop\n      jump\t// out\n        /* \"#utility.yul\":17939:18332   */\n    tag_349:\n        /* \"#utility.yul\":18008:18014   */\n      0x00\n        /* \"#utility.yul\":18058:18059   */\n      0x08\n        /* \"#utility.yul\":18046:18056   */\n      dup4\n        /* \"#utility.yul\":18042:18060   */\n      mul\n        /* \"#utility.yul\":18081:18178   */\n      tag_577\n        /* \"#utility.yul\":18111:18177   */\n      0xffffffffffffffffffffffffffffffffffffffffffffffffffffffffffffffff\n        /* \"#utility.yul\":18100:18109   */\n      dup3\n        /* \"#utility.yul\":18081:18178   */\n      tag_348\n      jump\t// in\n    tag_577:\n        /* \"#utility.yul\":18199:18238   */\n      tag_578\n        /* \"#utility.yul\":18229:18237   */\n      dup7\n        /* \"#utility.yul\":18218:18227   */\n      dup4\n        /* \"#utility.yul\":18199:18238   */\n      tag_348\n      jump\t// in\n    tag_578:\n        /* \"#utility.yul\":18187:18238   */\n      swap6\n      pop\n        /* \"#utility.yul\":18271:18275   */\n      dup1\n        /* \"#utility.yul\":18267:18276   */\n      not\n        /* \"#utility.yul\":18260:18265   */\n      dup5\n        /* \"#utility.yul\":18256:18277   */\n      and\n        /* \"#utility.yul\":18247:18277   */\n      swap4\n      pop\n        /* \"#utility.yul\":18320:18324   */\n      dup1\n        /* \"#utility.yul\":18310:18318   */\n      dup7\n        /* \"#utility.yul\":18306:18325   */\n      and\n        /* \"#utility.yul\":18299:18304   */\n      dup5\n        /* \"#utility.yul\":18296:18326   */\n      or\n        /* \"#utility.yul\":18286:18326   */\n      swap3\n      pop\n        /* \"#utility.yul\":18015:18332   */\n      pop\n      pop\n        /* \"#utility.yul\":17939:18332   */\n      swap4\n      swap3\n      pop\n      pop\n      pop\n      jump\t// out\n        /* \"#utility.yul\":18338:18398   */\n    tag_350:\n        /* \"#utility.yul\":18366:18369   */\n      0x00\n        /* \"#utility.yul\":18387:18392   */\n      dup2\n        /* \"#utility.yul\":18380:18392   */\n      swap1\n      pop\n        /* \"#utility.yul\":18338:18398   */\n      swap2\n      swap1\n      pop\n      jump\t// out\n        /* \"#utility.yul\":18404:18546   */\n    tag_351:\n        /* \"#utility.yul\":18454:18463   */\n      0x00\n        /* \"#utility.yul\":18487:18540   */\n      tag_581\n        /* \"#utility.yul\":18505:18539   */\n      tag_582\n        /* \"#utility.yul\":18514:18538   */\n      tag_583\n        /* \"#utility.yul\":18532:18537   */\n      dup5\n        /* \"#utility.yul\":18514:18538   */\n      tag_312\n      jump\t// in\n    tag_583:\n        /* \"#utility.yul\":18505:18539   */\n      tag_350\n      jump\t// in\n    tag_582:\n        /* \"#utility.yul\":18487:18540   */\n      tag_312\n      jump\t// in\n    tag_581:\n        /* \"#utility.yul\":18474:18540   */\n      swap1\n      pop\n        /* \"#utility.yul\":18404:18546   */\n      swap2\n      swap1\n      pop\n      jump\t// out\n        /* \"#utility.yul\":18552:18627   */\n    tag_352:\n        /* \"#utility.yul\":18595:18598   */\n      0x00\n        /* \"#utility.yul\":18616:18621   */\n      dup2\n        /* \"#utility.yul\":18609:18621   */\n      swap1\n      pop\n        /* \"#utility.yul\":18552:18627   */\n      swap2\n      swap1\n      pop\n      jump\t// out\n        /* \"#utility.yul\":18633:18902   */\n    tag_353:\n        /* \"#utility.yul\":18743:18782   */\n      tag_586\n        /* \"#utility.yul\":18774:18781   */\n      dup4\n        /* \"#utility.yul\":18743:18782   */\n      tag_351\n      jump\t// in\n    tag_586:\n        /* \"#utility.yul\":18804:18895   */\n      tag_587\n        /* \"#utility.yul\":18853:18894   */\n      tag_588\n        /* \"#utility.yul\":18877:18893   */\n      dup3\n        /* \"#utility.yul\":18853:18894   */\n      tag_352\n      jump\t// in\n    tag_588:\n        /* \"#utility.yul\":18845:18851   */\n      dup5\n        /* \"#utility.yul\":18838:18842   */\n      dup5\n        /* \"#utility.yul\":18832:18843   */\n      sload\n        /* \"#utility.yul\":18804:18895   */\n      tag_349\n      jump\t// in\n    tag_587:\n        /* \"#utility.yul\":18798:18802   */\n      dup3\n        /* \"#utility.yul\":18791:18896   */\n      sstore\n        /* \"#utility.yul\":18709:18902   */\n      pop\n        /* \"#utility.yul\":18633:18902   */\n      pop\n      pop\n      pop\n      jump\t// out\n        /* \"#utility.yul\":18908:18981   */\n    tag_354:\n        /* \"#utility.yul\":18953:18956   */\n      0x00\n        /* \"#utility.yul\":18908:18981   */\n      swap1\n      jump\t// out\n        /* \"#utility.yul\":18987:19176   */\n    tag_355:\n        /* \"#utility.yul\":19064:19096   */\n      tag_591\n      tag_354\n      jump\t// in\n    tag_591:\n        /* \"#utility.yul\":19105:19170   */\n      tag_592\n        /* \"#utility.yul\":19163:19169   */\n      dup2\n        /* \"#utility.yul\":19155:19161   */\n      dup5\n        /* \"#utility.yul\":19149:19153   */\n      dup5\n        /* \"#utility.yul\":19105:19170   */\n      tag_353\n      jump\t// in\n    tag_592:\n        /* \"#utility.yul\":19040:19176   */\n      pop\n        /* \"#utility.yul\":18987:19176   */\n      pop\n      pop\n      jump\t// out\n        /* \"#utility.yul\":19182:19368   */\n    tag_356:\n        /* \"#utility.yul\":19242:19362   */\n    tag_594:\n        /* \"#utility.yul\":19259:19262   */\n      dup2\n        /* \"#utility.yul\":19252:19257   */\n      dup2\n        /* \"#utility.yul\":19249:19263   */\n      lt\n        /* \"#utility.yul\":19242:19362   */\n      iszero\n      tag_596\n      jumpi\n        /* \"#utility.yul\":19313:19352   */\n      tag_597\n        /* \"#utility.yul\":19350:19351   */\n      0x00\n        /* \"#utility.yul\":19343:19348   */\n      dup3\n        /* \"#utility.yul\":19313:19352   */\n      tag_355\n      jump\t// in\n    tag_597:\n        /* \"#utility.yul\":19286:19287   */\n      0x01\n        /* \"#utility.yul\":19279:19284   */\n      dup2\n        /* \"#utility.yul\":19275:19288   */\n      add\n        /* \"#utility.yul\":19266:19288   */\n      swap1\n      pop\n        /* \"#utility.yul\":19242:19362   */\n      jump(tag_594)\n    tag_596:\n        /* \"#utility.yul\":19182:19368   */\n      pop\n      pop\n      jump\t// out\n        /* \"#utility.yul\":19374:19917   */\n    tag_357:\n        /* \"#utility.yul\":19475:19477   */\n      0x1f\n        /* \"#utility.yul\":19470:19473   */\n      dup3\n        /* \"#utility.yul\":19467:19478   */\n      gt\n        /* \"#utility.yul\":19464:19910   */\n      iszero\n      tag_599\n      jumpi\n        /* \"#utility.yul\":19509:19547   */\n      tag_600\n        /* \"#utility.yul\":19541:19546   */\n      dup2\n        /* \"#utility.yul\":19509:19547   */\n      tag_346\n      jump\t// in\n    tag_600:\n        /* \"#utility.yul\":19593:19622   */\n      tag_601\n        /* \"#utility.yul\":19611:19621   */\n      dup5\n        /* \"#utility.yul\":19593:19622   */\n      tag_347\n      jump\t// in\n    tag_601:\n        /* \"#utility.yul\":19583:19591   */\n      dup2\n        /* \"#utility.yul\":19579:19623   */\n      add\n        /* \"#utility.yul\":19776:19778   */\n      0x20\n        /* \"#utility.yul\":19764:19774   */\n      dup6\n        /* \"#utility.yul\":19761:19779   */\n      lt\n        /* \"#utility.yul\":19758:19807   */\n      iszero\n      tag_602\n      jumpi\n        /* \"#utility.yul\":19797:19805   */\n      dup2\n        /* \"#utility.yul\":19782:19805   */\n      swap1\n      pop\n        /* \"#utility.yul\":19758:19807   */\n    tag_602:\n        /* \"#utility.yul\":19820:19900   */\n      tag_603\n        /* \"#utility.yul\":19876:19898   */\n      tag_604\n        /* \"#utility.yul\":19894:19897   */\n      dup6\n        /* \"#utility.yul\":19876:19898   */\n      tag_347\n      jump\t// in\n    tag_604:\n        /* \"#utility.yul\":19866:19874   */\n      dup4\n        /* \"#utility.yul\":19862:19899   */\n      add\n        /* \"#utility.yul\":19849:19860   */\n      dup3\n        /* \"#utility.yul\":19820:19900   */\n      tag_356\n      jump\t// in\n    tag_603:\n        /* \"#utility.yul\":19479:19910   */\n      pop\n      pop\n        /* \"#utility.yul\":19464:19910   */\n    tag_599:\n        /* \"#utility.yul\":19374:19917   */\n      pop\n      pop\n      pop\n      jump\t// out\n        /* \"#utility.yul\":19923:20040   */\n    tag_358:\n        /* \"#utility.yul\":19977:19985   */\n      0x00\n        /* \"#utility.yul\":20027:20032   */\n      dup3\n        /* \"#utility.yul\":20021:20025   */\n      dup3\n        /* \"#utility.yul\":20017:20033   */\n      shr\n        /* \"#utility.yul\":19996:20033   */\n      swap1\n      pop\n        /* \"#utility.yul\":19923:20040   */\n      swap3\n      swap2\n      pop\n      pop\n      jump\t// out\n        /* \"#utility.yul\":20046:20215   */\n    tag_359:\n        /* \"#utility.yul\":20090:20096   */\n      0x00\n        /* \"#utility.yul\":20123:20174   */\n      tag_607\n        /* \"#utility.yul\":20171:20172   */\n      0x00\n        /* \"#utility.yul\":20167:20173   */\n      not\n        /* \"#utility.yul\":20159:20164   */\n      dup5\n        /* \"#utility.yul\":20156:20157   */\n      0x08\n        /* \"#utility.yul\":20152:20165   */\n      mul\n        /* \"#utility.yul\":20123:20174   */\n      tag_358\n      jump\t// in\n    tag_607:\n        /* \"#utility.yul\":20119:20175   */\n      not\n        /* \"#utility.yul\":20204:20208   */\n      dup1\n        /* \"#utility.yul\":20198:20202   */\n      dup4\n        /* \"#utility.yul\":20194:20209   */\n      and\n        /* \"#utility.yul\":20184:20209   */\n      swap2\n      pop\n        /* \"#utility.yul\":20097:20215   */\n      pop\n        /* \"#utility.yul\":20046:20215   */\n      swap3\n      swap2\n      pop\n      pop\n      jump\t// out\n        /* \"#utility.yul\":20220:20515   */\n    tag_360:\n        /* \"#utility.yul\":20296:20300   */\n      0x00\n        /* \"#utility.yul\":20442:20471   */\n      tag_609\n        /* \"#utility.yul\":20467:20470   */\n      dup4\n        /* \"#utility.yul\":20461:20465   */\n      dup4\n        /* \"#utility.yul\":20442:20471   */\n      tag_359\n      jump\t// in\n    tag_609:\n        /* \"#utility.yul\":20434:20471   */\n      swap2\n      pop\n        /* \"#utility.yul\":20504:20507   */\n      dup3\n        /* \"#utility.yul\":20501:20502   */\n      0x02\n        /* \"#utility.yul\":20497:20508   */\n      mul\n        /* \"#utility.yul\":20491:20495   */\n      dup3\n        /* \"#utility.yul\":20488:20509   */\n      or\n        /* \"#utility.yul\":20480:20509   */\n      swap1\n      pop\n        /* \"#utility.yul\":20220:20515   */\n      swap3\n      swap2\n      pop\n      pop\n      jump\t// out\n        /* \"#utility.yul\":20520:21915   */\n    tag_156:\n        /* \"#utility.yul\":20637:20674   */\n      tag_611\n        /* \"#utility.yul\":20670:20673   */\n      dup3\n        /* \"#utility.yul\":20637:20674   */\n      tag_325\n      jump\t// in\n    tag_611:\n        /* \"#utility.yul\":20739:20757   */\n      0xffffffffffffffff\n        /* \"#utility.yul\":20731:20737   */\n      dup2\n        /* \"#utility.yul\":20728:20758   */\n      gt\n        /* \"#utility.yul\":20725:20781   */\n      iszero\n      tag_612\n      jumpi\n        /* \"#utility.yul\":20761:20779   */\n      tag_613\n      tag_344\n      jump\t// in\n    tag_613:\n        /* \"#utility.yul\":20725:20781   */\n    tag_612:\n        /* \"#utility.yul\":20805:20843   */\n      tag_614\n        /* \"#utility.yul\":20837:20841   */\n      dup3\n        /* \"#utility.yul\":20831:20842   */\n      sload\n        /* \"#utility.yul\":20805:20843   */\n      tag_197\n      jump\t// in\n    tag_614:\n        /* \"#utility.yul\":20890:20957   */\n      tag_615\n        /* \"#utility.yul\":20950:20956   */\n      dup3\n        /* \"#utility.yul\":20942:20948   */\n      dup3\n        /* \"#utility.yul\":20936:20940   */\n      dup6\n        /* \"#utility.yul\":20890:20957   */\n      tag_357\n      jump\t// in\n    tag_615:\n        /* \"#utility.yul\":20984:20985   */\n      0x00\n        /* \"#utility.yul\":21008:21012   */\n      0x20\n        /* \"#utility.yul\":20995:21012   */\n      swap1\n      pop\n        /* \"#utility.yul\":21040:21042   */\n      0x1f\n        /* \"#utility.yul\":21032:21038   */\n      dup4\n        /* \"#utility.yul\":21029:21043   */\n      gt\n        /* \"#utility.yul\":21057:21058   */\n      0x01\n        /* \"#utility.yul\":21052:21670   */\n      dup2\n      eq\n      tag_617\n      jumpi\n        /* \"#utility.yul\":21714:21715   */\n      0x00\n        /* \"#utility.yul\":21731:21737   */\n      dup5\n        /* \"#utility.yul\":21728:21805   */\n      iszero\n      tag_618\n      jumpi\n        /* \"#utility.yul\":21780:21789   */\n      dup3\n        /* \"#utility.yul\":21775:21778   */\n      dup8\n        /* \"#utility.yul\":21771:21790   */\n      add\n        /* \"#utility.yul\":21765:21791   */\n      mload\n        /* \"#utility.yul\":21756:21791   */\n      swap1\n      pop\n        /* \"#utility.yul\":21728:21805   */\n    tag_618:\n        /* \"#utility.yul\":21831:21898   */\n      tag_619\n        /* \"#utility.yul\":21891:21897   */\n      dup6\n        /* \"#utility.yul\":21884:21889   */\n      dup3\n        /* \"#utility.yul\":21831:21898   */\n      tag_360\n      jump\t// in\n    tag_619:\n        /* \"#utility.yul\":21825:21829   */\n      dup7\n        /* \"#utility.yul\":21818:21899   */\n      sstore\n        /* \"#utility.yul\":21687:21909   */\n      pop\n        /* \"#utility.yul\":21022:21909   */\n      jump(tag_616)\n        /* \"#utility.yul\":21052:21670   */\n    tag_617:\n        /* \"#utility.yul\":21104:21108   */\n      0x1f\n        /* \"#utility.yul\":21100:21109   */\n      not\n        /* \"#utility.yul\":21092:21098   */\n      dup5\n        /* \"#utility.yul\":21088:21110   */\n      and\n        /* \"#utility.yul\":21138:21175   */\n      tag_620\n        /* \"#utility.yul\":21170:21174   */\n      dup7\n        /* \"#utility.yul\":21138:21175   */\n      tag_346\n      jump\t// in\n    tag_620:\n        /* \"#utility.yul\":21197:21198   */\n      0x00\n        /* \"#utility.yul\":21211:21419   */\n    tag_621:\n        /* \"#utility.yul\":21225:21232   */\n      dup3\n        /* \"#utility.yul\":21222:21223   */\n      dup2\n        /* \"#utility.yul\":21219:21233   */\n      lt\n        /* \"#utility.yul\":21211:21419   */\n      iszero\n      tag_623\n      jumpi\n        /* \"#utility.yul\":21304:21313   */\n      dup5\n        /* \"#utility.yul\":21299:21302   */\n      dup10\n        /* \"#utility.yul\":21295:21314   */\n      add\n        /* \"#utility.yul\":21289:21315   */\n      mload\n        /* \"#utility.yul\":21281:21287   */\n      dup3\n        /* \"#utility.yul\":21274:21316   */\n      sstore\n        /* \"#utility.yul\":21355:21356   */\n      0x01\n        /* \"#utility.yul\":21347:21353   */\n      dup3\n        /* \"#utility.yul\":21343:21357   */\n      add\n        /* \"#utility.yul\":21333:21357   */\n      swap2\n      pop\n        /* \"#utility.yul\":21402:21404   */\n      0x20\n        /* \"#utility.yul\":21391:21400   */\n      dup6\n        /* \"#utility.yul\":21387:21405   */\n      add\n        /* \"#utility.yul\":21374:21405   */\n      swap5\n      pop\n        /* \"#utility.yul\":21248:21252   */\n      0x20\n        /* \"#utility.yul\":21245:21246   */\n      dup2\n        /* \"#utility.yul\":21241:21253   */\n      add\n        /* \"#utility.yul\":21236:21253   */\n      swap1\n      pop\n        /* \"#utility.yul\":21211:21419   */\n      jump(tag_621)\n    tag_623:\n        /* \"#utility.yul\":21447:21453   */\n      dup7\n        /* \"#utility.yul\":21438:21445   */\n      dup4\n        /* \"#utility.yul\":21435:21454   */\n      lt\n        /* \"#utility.yul\":21432:21611   */\n      iszero\n      tag_624\n      jumpi\n        /* \"#utility.yul\":21505:21514   */\n      dup5\n        /* \"#utility.yul\":21500:21503   */\n      dup10\n        /* \"#utility.yul\":21496:21515   */\n      add\n        /* \"#utility.yul\":21490:21516   */\n      mload\n        /* \"#utility.yul\":21548:21596   */\n      tag_625\n        /* \"#utility.yul\":21590:21594   */\n      0x1f\n        /* \"#utility.yul\":21582:21588   */\n      dup10\n        /* \"#utility.yul\":21578:21595   */\n      and\n        /* \"#utility.yul\":21567:21576   */\n      dup3\n        /* \"#utility.yul\":21548:21596   */\n      tag_359\n      jump\t// in\n    tag_625:\n        /* \"#utility.yul\":21540:21546   */\n      dup4\n        /* \"#utility.yul\":21533:21597   */\n      sstore\n        /* \"#utility.yul\":21455:21611   */\n      pop\n        /* \"#utility.yul\":21432:21611   */\n    tag_624:\n        /* \"#utility.yul\":21657:21658   */\n      0x01\n        /* \"#utility.yul\":21653:21654   */\n      0x02\n        /* \"#utility.yul\":21645:21651   */\n      dup9\n        /* \"#utility.yul\":21641:21655   */\n      mul\n        /* \"#utility.yul\":21637:21659   */\n      add\n        /* \"#utility.yul\":21631:21635   */\n      dup9\n        /* \"#utility.yul\":21624:21660   */\n      sstore\n        /* \"#utility.yul\":21059:21670   */\n      pop\n      pop\n      pop\n        /* \"#utility.yul\":21022:21909   */\n    tag_616:\n      pop\n        /* \"#utility.yul\":20612:21915   */\n      pop\n      pop\n      pop\n        /* \"#utility.yul\":20520:21915   */\n      pop\n      pop\n      jump\t// out\n        /* \"#utility.yul\":21921:22038   */\n    tag_361:\n        /* \"#utility.yul\":22030:22031   */\n      0x00\n        /* \"#utility.yul\":22027:22028   */\n      dup1\n        /* \"#utility.yul\":22020:22032   */\n      revert\n        /* \"#utility.yul\":22044:22325   */\n    tag_362:\n        /* \"#utility.yul\":22127:22154   */\n      tag_628\n        /* \"#utility.yul\":22149:22153   */\n      dup3\n        /* \"#utility.yul\":22127:22154   */\n      tag_328\n      jump\t// in\n    tag_628:\n        /* \"#utility.yul\":22119:22125   */\n      dup2\n        /* \"#utility.yul\":22115:22155   */\n      add\n        /* \"#utility.yul\":22257:22263   */\n      dup2\n        /* \"#utility.yul\":22245:22255   */\n      dup2\n        /* \"#utility.yul\":22242:22264   */\n      lt\n        /* \"#utility.yul\":22221:22239   */\n      0xffffffffffffffff\n        /* \"#utility.yul\":22209:22219   */\n      dup3\n        /* \"#utility.yul\":22206:22240   */\n      gt\n        /* \"#utility.yul\":22203:22265   */\n      or\n        /* \"#utility.yul\":22200:22288   */\n      iszero\n      tag_629\n      jumpi\n        /* \"#utility.yul\":22268:22286   */\n      tag_630\n      tag_344\n      jump\t// in\n    tag_630:\n        /* \"#utility.yul\":22200:22288   */\n    tag_629:\n        /* \"#utility.yul\":22308:22318   */\n      dup1\n        /* \"#utility.yul\":22304:22306   */\n      0x40\n        /* \"#utility.yul\":22297:22319   */\n      mstore\n        /* \"#utility.yul\":22087:22325   */\n      pop\n        /* \"#utility.yul\":22044:22325   */\n      pop\n      pop\n      jump\t// out\n        /* \"#utility.yul\":22331:22460   */\n    tag_363:\n        /* \"#utility.yul\":22365:22371   */\n      0x00\n        /* \"#utility.yul\":22392:22412   */\n      tag_632\n      tag_305\n      jump\t// in\n    tag_632:\n        /* \"#utility.yul\":22382:22412   */\n      swap1\n      pop\n        /* \"#utility.yul\":22421:22454   */\n      tag_633\n        /* \"#utility.yul\":22449:22453   */\n      dup3\n        /* \"#utility.yul\":22441:22447   */\n      dup3\n        /* \"#utility.yul\":22421:22454   */\n      tag_362\n      jump\t// in\n    tag_633:\n        /* \"#utility.yul\":22331:22460   */\n      swap2\n      swap1\n      pop\n      jump\t// out\n        /* \"#utility.yul\":22466:22774   */\n    tag_364:\n        /* \"#utility.yul\":22528:22532   */\n      0x00\n        /* \"#utility.yul\":22618:22636   */\n      0xffffffffffffffff\n        /* \"#utility.yul\":22610:22616   */\n      dup3\n        /* \"#utility.yul\":22607:22637   */\n      gt\n        /* \"#utility.yul\":22604:22660   */\n      iszero\n      tag_635\n      jumpi\n        /* \"#utility.yul\":22640:22658   */\n      tag_636\n      tag_344\n      jump\t// in\n    tag_636:\n        /* \"#utility.yul\":22604:22660   */\n    tag_635:\n        /* \"#utility.yul\":22678:22707   */\n      tag_637\n        /* \"#utility.yul\":22700:22706   */\n      dup3\n        /* \"#utility.yul\":22678:22707   */\n      tag_328\n      jump\t// in\n    tag_637:\n        /* \"#utility.yul\":22670:22707   */\n      swap1\n      pop\n        /* \"#utility.yul\":22762:22766   */\n      0x20\n        /* \"#utility.yul\":22756:22760   */\n      dup2\n        /* \"#utility.yul\":22752:22767   */\n      add\n        /* \"#utility.yul\":22744:22767   */\n      swap1\n      pop\n        /* \"#utility.yul\":22466:22774   */\n      swap2\n      swap1\n      pop\n      jump\t// out\n        /* \"#utility.yul\":22780:23214   */\n    tag_365:\n        /* \"#utility.yul\":22869:22874   */\n      0x00\n        /* \"#utility.yul\":22894:22960   */\n      tag_639\n        /* \"#utility.yul\":22910:22959   */\n      tag_640\n        /* \"#utility.yul\":22952:22958   */\n      dup5\n        /* \"#utility.yul\":22910:22959   */\n      tag_364\n      jump\t// in\n    tag_640:\n        /* \"#utility.yul\":22894:22960   */\n      tag_363\n      jump\t// in\n    tag_639:\n        /* \"#utility.yul\":22885:22960   */\n      swap1\n      pop\n        /* \"#utility.yul\":22983:22989   */\n      dup3\n        /* \"#utility.yul\":22976:22981   */\n      dup2\n        /* \"#utility.yul\":22969:22990   */\n      mstore\n        /* \"#utility.yul\":23021:23025   */\n      0x20\n        /* \"#utility.yul\":23014:23019   */\n      dup2\n        /* \"#utility.yul\":23010:23026   */\n      add\n        /* \"#utility.yul\":23059:23062   */\n      dup5\n        /* \"#utility.yul\":23050:23056   */\n      dup5\n        /* \"#utility.yul\":23045:23048   */\n      dup5\n        /* \"#utility.yul\":23041:23057   */\n      add\n        /* \"#utility.yul\":23038:23063   */\n      gt\n        /* \"#utility.yul\":23035:23147   */\n      iszero\n      tag_641\n      jumpi\n        /* \"#utility.yul\":23066:23145   */\n      tag_642\n      tag_361\n      jump\t// in\n    tag_642:\n        /* \"#utility.yul\":23035:23147   */\n    tag_641:\n        /* \"#utility.yul\":23156:23208   */\n      tag_643\n        /* \"#utility.yul\":23201:23207   */\n      dup5\n        /* \"#utility.yul\":23196:23199   */\n      dup3\n        /* \"#utility.yul\":23191:23194   */\n      dup6\n        /* \"#utility.yul\":23156:23208   */\n      tag_327\n      jump\t// in\n    tag_643:\n        /* \"#utility.yul\":22875:23214   */\n      pop\n        /* \"#utility.yul\":22780:23214   */\n      swap4\n      swap3\n      pop\n      pop\n      pop\n      jump\t// out\n        /* \"#utility.yul\":23234:23589   */\n    tag_366:\n        /* \"#utility.yul\":23301:23306   */\n      0x00\n        /* \"#utility.yul\":23350:23353   */\n      dup3\n        /* \"#utility.yul\":23343:23347   */\n      0x1f\n        /* \"#utility.yul\":23335:23341   */\n      dup4\n        /* \"#utility.yul\":23331:23348   */\n      add\n        /* \"#utility.yul\":23327:23354   */\n      slt\n        /* \"#utility.yul\":23317:23439   */\n      tag_645\n      jumpi\n        /* \"#utility.yul\":23358:23437   */\n      tag_646\n      tag_321\n      jump\t// in\n    tag_646:\n        /* \"#utility.yul\":23317:23439   */\n    tag_645:\n        /* \"#utility.yul\":23468:23474   */\n      dup2\n        /* \"#utility.yul\":23462:23475   */\n      mload\n        /* \"#utility.yul\":23493:23583   */\n      tag_647\n        /* \"#utility.yul\":23579:23582   */\n      dup5\n        /* \"#utility.yul\":23571:23577   */\n      dup3\n        /* \"#utility.yul\":23564:23568   */\n      0x20\n        /* \"#utility.yul\":23556:23562   */\n      dup7\n        /* \"#utility.yul\":23552:23569   */\n      add\n        /* \"#utility.yul\":23493:23583   */\n      tag_365\n      jump\t// in\n    tag_647:\n        /* \"#utility.yul\":23484:23583   */\n      swap2\n      pop\n        /* \"#utility.yul\":23307:23589   */\n      pop\n        /* \"#utility.yul\":23234:23589   */\n      swap3\n      swap2\n      pop\n      pop\n      jump\t// out\n        /* \"#utility.yul\":23595:24119   */\n    tag_164:\n        /* \"#utility.yul\":23675:23681   */\n      0x00\n        /* \"#utility.yul\":23724:23726   */\n      0x20\n        /* \"#utility.yul\":23712:23721   */\n      dup3\n        /* \"#utility.yul\":23703:23710   */\n      dup5\n        /* \"#utility.yul\":23699:23722   */\n      sub\n        /* \"#utility.yul\":23695:23727   */\n      slt\n        /* \"#utility.yul\":23692:23811   */\n      iszero\n      tag_649\n      jumpi\n        /* \"#utility.yul\":23730:23809   */\n      tag_650\n      tag_306\n      jump\t// in\n    tag_650:\n        /* \"#utility.yul\":23692:23811   */\n    tag_649:\n        /* \"#utility.yul\":23871:23872   */\n      0x00\n        /* \"#utility.yul\":23860:23869   */\n      dup3\n        /* \"#utility.yul\":23856:23873   */\n      add\n        /* \"#utility.yul\":23850:23874   */\n      mload\n        /* \"#utility.yul\":23901:23919   */\n      0xffffffffffffffff\n        /* \"#utility.yul\":23893:23899   */\n      dup2\n        /* \"#utility.yul\":23890:23920   */\n      gt\n        /* \"#utility.yul\":23887:24004   */\n      iszero\n      tag_651\n      jumpi\n        /* \"#utility.yul\":23923:24002   */\n      tag_652\n      tag_307\n      jump\t// in\n    tag_652:\n        /* \"#utility.yul\":23887:24004   */\n    tag_651:\n        /* \"#utility.yul\":24028:24102   */\n      tag_653\n        /* \"#utility.yul\":24094:24101   */\n      dup5\n        /* \"#utility.yul\":24085:24091   */\n      dup3\n        /* \"#utility.yul\":24074:24083   */\n      dup6\n        /* \"#utility.yul\":24070:24092   */\n      add\n        /* \"#utility.yul\":24028:24102   */\n      tag_366\n      jump\t// in\n    tag_653:\n        /* \"#utility.yul\":24018:24102   */\n      swap2\n      pop\n        /* \"#utility.yul\":23821:24112   */\n      pop\n        /* \"#utility.yul\":23595:24119   */\n      swap3\n      swap2\n      pop\n      pop\n      jump\t// out\n        /* \"#utility.yul\":24125:24567   */\n    tag_167:\n        /* \"#utility.yul\":24274:24278   */\n      0x00\n        /* \"#utility.yul\":24312:24314   */\n      0x60\n        /* \"#utility.yul\":24301:24310   */\n      dup3\n        /* \"#utility.yul\":24297:24315   */\n      add\n        /* \"#utility.yul\":24289:24315   */\n      swap1\n      pop\n        /* \"#utility.yul\":24325:24396   */\n      tag_655\n        /* \"#utility.yul\":24393:24394   */\n      0x00\n        /* \"#utility.yul\":24382:24391   */\n      dup4\n        /* \"#utility.yul\":24378:24395   */\n      add\n        /* \"#utility.yul\":24369:24375   */\n      dup7\n        /* \"#utility.yul\":24325:24396   */\n      tag_336\n      jump\t// in\n    tag_655:\n        /* \"#utility.yul\":24406:24478   */\n      tag_656\n        /* \"#utility.yul\":24474:24476   */\n      0x20\n        /* \"#utility.yul\":24463:24472   */\n      dup4\n        /* \"#utility.yul\":24459:24477   */\n      add\n        /* \"#utility.yul\":24450:24456   */\n      dup6\n        /* \"#utility.yul\":24406:24478   */\n      tag_336\n      jump\t// in\n    tag_656:\n        /* \"#utility.yul\":24488:24560   */\n      tag_657\n        /* \"#utility.yul\":24556:24558   */\n      0x40\n        /* \"#utility.yul\":24545:24554   */\n      dup4\n        /* \"#utility.yul\":24541:24559   */\n      add\n        /* \"#utility.yul\":24532:24538   */\n      dup5\n        /* \"#utility.yul\":24488:24560   */\n      tag_315\n      jump\t// in\n    tag_657:\n        /* \"#utility.yul\":24125:24567   */\n      swap5\n      swap4\n      pop\n      pop\n      pop\n      pop\n      jump\t// out\n        /* \"#utility.yul\":24573:24721   */\n    tag_367:\n        /* \"#utility.yul\":24675:24686   */\n      0x00\n        /* \"#utility.yul\":24712:24715   */\n      dup2\n        /* \"#utility.yul\":24697:24715   */\n      swap1\n      pop\n        /* \"#utility.yul\":24573:24721   */\n      swap3\n      swap2\n      pop\n      pop\n      jump\t// out\n        /* \"#utility.yul\":24727:24875   */\n    tag_368:\n        /* \"#utility.yul\":24825:24831   */\n      dup3\n        /* \"#utility.yul\":24820:24823   */\n      dup2\n        /* \"#utility.yul\":24815:24818   */\n      dup4\n        /* \"#utility.yul\":24802:24832   */\n      calldatacopy\n        /* \"#utility.yul\":24866:24867   */\n      0x00\n        /* \"#utility.yul\":24857:24863   */\n      dup4\n        /* \"#utility.yul\":24852:24855   */\n      dup4\n        /* \"#utility.yul\":24848:24864   */\n      add\n        /* \"#utility.yul\":24841:24868   */\n      mstore\n        /* \"#utility.yul\":24727:24875   */\n      pop\n      pop\n      pop\n      jump\t// out\n        /* \"#utility.yul\":24905:25235   */\n    tag_369:\n        /* \"#utility.yul\":25021:25024   */\n      0x00\n        /* \"#utility.yul\":25042:25131   */\n      tag_661\n        /* \"#utility.yul\":25124:25130   */\n      dup4\n        /* \"#utility.yul\":25119:25122   */\n      dup6\n        /* \"#utility.yul\":25042:25131   */\n      tag_367\n      jump\t// in\n    tag_661:\n        /* \"#utility.yul\":25035:25131   */\n      swap4\n      pop\n        /* \"#utility.yul\":25141:25197   */\n      tag_662\n        /* \"#utility.yul\":25190:25196   */\n      dup4\n        /* \"#utility.yul\":25185:25188   */\n      dup6\n        /* \"#utility.yul\":25178:25183   */\n      dup5\n        /* \"#utility.yul\":25141:25197   */\n      tag_368\n      jump\t// in\n    tag_662:\n        /* \"#utility.yul\":25222:25228   */\n      dup3\n        /* \"#utility.yul\":25217:25220   */\n      dup5\n        /* \"#utility.yul\":25213:25229   */\n      add\n        /* \"#utility.yul\":25206:25229   */\n      swap1\n      pop\n        /* \"#utility.yul\":24905:25235   */\n      swap4\n      swap3\n      pop\n      pop\n      pop\n      jump\t// out\n        /* \"#utility.yul\":25241:25536   */\n    tag_181:\n        /* \"#utility.yul\":25383:25386   */\n      0x00\n        /* \"#utility.yul\":25405:25510   */\n      tag_664\n        /* \"#utility.yul\":25506:25509   */\n      dup3\n        /* \"#utility.yul\":25497:25503   */\n      dup5\n        /* \"#utility.yul\":25489:25495   */\n      dup7\n        /* \"#utility.yul\":25405:25510   */\n      tag_369\n      jump\t// in\n    tag_664:\n        /* \"#utility.yul\":25398:25510   */\n      swap2\n      pop\n        /* \"#utility.yul\":25527:25530   */\n      dup2\n        /* \"#utility.yul\":25520:25530   */\n      swap1\n      pop\n        /* \"#utility.yul\":25241:25536   */\n      swap4\n      swap3\n      pop\n      pop\n      pop\n      jump\t// out\n        /* \"#utility.yul\":25542:25679   */\n    tag_370:\n        /* \"#utility.yul\":25596:25601   */\n      0x00\n        /* \"#utility.yul\":25627:25633   */\n      dup2\n        /* \"#utility.yul\":25621:25634   */\n      mload\n        /* \"#utility.yul\":25612:25634   */\n      swap1\n      pop\n        /* \"#utility.yul\":25643:25673   */\n      tag_666\n        /* \"#utility.yul\":25667:25672   */\n      dup2\n        /* \"#utility.yul\":25643:25673   */\n      tag_334\n      jump\t// in\n    tag_666:\n        /* \"#utility.yul\":25542:25679   */\n      swap3\n      swap2\n      pop\n      pop\n      jump\t// out\n        /* \"#utility.yul\":25685:26030   */\n    tag_262:\n        /* \"#utility.yul\":25752:25758   */\n      0x00\n        /* \"#utility.yul\":25801:25803   */\n      0x20\n        /* \"#utility.yul\":25789:25798   */\n      dup3\n        /* \"#utility.yul\":25780:25787   */\n      dup5\n        /* \"#utility.yul\":25776:25799   */\n      sub\n        /* \"#utility.yul\":25772:25804   */\n      slt\n        /* \"#utility.yul\":25769:25888   */\n      iszero\n      tag_668\n      jumpi\n        /* \"#utility.yul\":25807:25886   */\n      tag_669\n      tag_306\n      jump\t// in\n    tag_669:\n        /* \"#utility.yul\":25769:25888   */\n    tag_668:\n        /* \"#utility.yul\":25927:25928   */\n      0x00\n        /* \"#utility.yul\":25952:26013   */\n      tag_670\n        /* \"#utility.yul\":26005:26012   */\n      dup5\n        /* \"#utility.yul\":25996:26002   */\n      dup3\n        /* \"#utility.yul\":25985:25994   */\n      dup6\n        /* \"#utility.yul\":25981:26003   */\n      add\n        /* \"#utility.yul\":25952:26013   */\n      tag_370\n      jump\t// in\n    tag_670:\n        /* \"#utility.yul\":25942:26013   */\n      swap2\n      pop\n        /* \"#utility.yul\":25898:26023   */\n      pop\n        /* \"#utility.yul\":25685:26030   */\n      swap3\n      swap2\n      pop\n      pop\n      jump\t// out\n        /* \"#utility.yul\":26036:26210   */\n    tag_371:\n        /* \"#utility.yul\":26176:26202   */\n      0x54686973206173736574206973206e6f7420616e204e46540000000000000000\n        /* \"#utility.yul\":26172:26173   */\n      0x00\n        /* \"#utility.yul\":26164:26170   */\n      dup3\n        /* \"#utility.yul\":26160:26174   */\n      add\n        /* \"#utility.yul\":26153:26203   */\n      mstore\n        /* \"#utility.yul\":26036:26210   */\n      pop\n      jump\t// out\n        /* \"#utility.yul\":26216:26582   */\n    tag_372:\n        /* \"#utility.yul\":26358:26361   */\n      0x00\n        /* \"#utility.yul\":26379:26446   */\n      tag_673\n        /* \"#utility.yul\":26443:26445   */\n      0x18\n        /* \"#utility.yul\":26438:26441   */\n      dup4\n        /* \"#utility.yul\":26379:26446   */\n      tag_326\n      jump\t// in\n    tag_673:\n        /* \"#utility.yul\":26372:26446   */\n      swap2\n      pop\n        /* \"#utility.yul\":26455:26548   */\n      tag_674\n        /* \"#utility.yul\":26544:26547   */\n      dup3\n        /* \"#utility.yul\":26455:26548   */\n      tag_371\n      jump\t// in\n    tag_674:\n        /* \"#utility.yul\":26573:26575   */\n      0x20\n        /* \"#utility.yul\":26568:26571   */\n      dup3\n        /* \"#utility.yul\":26564:26576   */\n      add\n        /* \"#utility.yul\":26557:26576   */\n      swap1\n      pop\n        /* \"#utility.yul\":26216:26582   */\n      swap2\n      swap1\n      pop\n      jump\t// out\n        /* \"#utility.yul\":26588:27007   */\n    tag_290:\n        /* \"#utility.yul\":26754:26758   */\n      0x00\n        /* \"#utility.yul\":26792:26794   */\n      0x20\n        /* \"#utility.yul\":26781:26790   */\n      dup3\n        /* \"#utility.yul\":26777:26795   */\n      add\n        /* \"#utility.yul\":26769:26795   */\n      swap1\n      pop\n        /* \"#utility.yul\":26841:26850   */\n      dup2\n        /* \"#utility.yul\":26835:26839   */\n      dup2\n        /* \"#utility.yul\":26831:26851   */\n      sub\n        /* \"#utility.yul\":26827:26828   */\n      0x00\n        /* \"#utility.yul\":26816:26825   */\n      dup4\n        /* \"#utility.yul\":26812:26829   */\n      add\n        /* \"#utility.yul\":26805:26852   */\n      mstore\n        /* \"#utility.yul\":26869:27000   */\n      tag_676\n        /* \"#utility.yul\":26995:26999   */\n      dup2\n        /* \"#utility.yul\":26869:27000   */\n      tag_372\n      jump\t// in\n    tag_676:\n        /* \"#utility.yul\":26861:27000   */\n      swap1\n      pop\n        /* \"#utility.yul\":26588:27007   */\n      swap2\n      swap1\n      pop\n      jump\t// out\n        /* \"#utility.yul\":27013:27190   */\n    tag_373:\n        /* \"#utility.yul\":27153:27182   */\n      0x5468697320617373657420697320616c7265616479206f776e65640000000000\n        /* \"#utility.yul\":27149:27150   */\n      0x00\n        /* \"#utility.yul\":27141:27147   */\n      dup3\n        /* \"#utility.yul\":27137:27151   */\n      add\n        /* \"#utility.yul\":27130:27183   */\n      mstore\n        /* \"#utility.yul\":27013:27190   */\n      pop\n      jump\t// out\n        /* \"#utility.yul\":27196:27562   */\n    tag_374:\n        /* \"#utility.yul\":27338:27341   */\n      0x00\n        /* \"#utility.yul\":27359:27426   */\n      tag_679\n        /* \"#utility.yul\":27423:27425   */\n      0x1b\n        /* \"#utility.yul\":27418:27421   */\n      dup4\n        /* \"#utility.yul\":27359:27426   */\n      tag_326\n      jump\t// in\n    tag_679:\n        /* \"#utility.yul\":27352:27426   */\n      swap2\n      pop\n        /* \"#utility.yul\":27435:27528   */\n      tag_680\n        /* \"#utility.yul\":27524:27527   */\n      dup3\n        /* \"#utility.yul\":27435:27528   */\n      tag_373\n      jump\t// in\n    tag_680:\n        /* \"#utility.yul\":27553:27555   */\n      0x20\n        /* \"#utility.yul\":27548:27551   */\n      dup3\n        /* \"#utility.yul\":27544:27556   */\n      add\n        /* \"#utility.yul\":27537:27556   */\n      swap1\n      pop\n        /* \"#utility.yul\":27196:27562   */\n      swap2\n      swap1\n      pop\n      jump\t// out\n        /* \"#utility.yul\":27568:27987   */\n    tag_294:\n        /* \"#utility.yul\":27734:27738   */\n      0x00\n        /* \"#utility.yul\":27772:27774   */\n      0x20\n        /* \"#utility.yul\":27761:27770   */\n      dup3\n        /* \"#utility.yul\":27757:27775   */\n      add\n        /* \"#utility.yul\":27749:27775   */\n      swap1\n      pop\n        /* \"#utility.yul\":27821:27830   */\n      dup2\n        /* \"#utility.yul\":27815:27819   */\n      dup2\n        /* \"#utility.yul\":27811:27831   */\n      sub\n        /* \"#utility.yul\":27807:27808   */\n      0x00\n        /* \"#utility.yul\":27796:27805   */\n      dup4\n        /* \"#utility.yul\":27792:27809   */\n      add\n        /* \"#utility.yul\":27785:27832   */\n      mstore\n        /* \"#utility.yul\":27849:27980   */\n      tag_682\n        /* \"#utility.yul\":27975:27979   */\n      dup2\n        /* \"#utility.yul\":27849:27980   */\n      tag_374\n      jump\t// in\n    tag_682:\n        /* \"#utility.yul\":27841:27980   */\n      swap1\n      pop\n        /* \"#utility.yul\":27568:27987   */\n      swap2\n      swap1\n      pop\n      jump\t// out\n        /* \"#utility.yul\":27993:28164   */\n    tag_375:\n        /* \"#utility.yul\":28133:28156   */\n      0x4173736574206d656d6265722065786365656465640000000000000000000000\n        /* \"#utility.yul\":28129:28130   */\n      0x00\n        /* \"#utility.yul\":28121:28127   */\n      dup3\n        /* \"#utility.yul\":28117:28131   */\n      add\n        /* \"#utility.yul\":28110:28157   */\n      mstore\n        /* \"#utility.yul\":27993:28164   */\n      pop\n      jump\t// out\n        /* \"#utility.yul\":28170:28536   */\n    tag_376:\n        /* \"#utility.yul\":28312:28315   */\n      0x00\n        /* \"#utility.yul\":28333:28400   */\n      tag_685\n        /* \"#utility.yul\":28397:28399   */\n      0x15\n        /* \"#utility.yul\":28392:28395   */\n      dup4\n        /* \"#utility.yul\":28333:28400   */\n      tag_326\n      jump\t// in\n    tag_685:\n        /* \"#utility.yul\":28326:28400   */\n      swap2\n      pop\n        /* \"#utility.yul\":28409:28502   */\n      tag_686\n        /* \"#utility.yul\":28498:28501   */\n      dup3\n        /* \"#utility.yul\":28409:28502   */\n      tag_375\n      jump\t// in\n    tag_686:\n        /* \"#utility.yul\":28527:28529   */\n      0x20\n        /* \"#utility.yul\":28522:28525   */\n      dup3\n        /* \"#utility.yul\":28518:28530   */\n      add\n        /* \"#utility.yul\":28511:28530   */\n      swap1\n      pop\n        /* \"#utility.yul\":28170:28536   */\n      swap2\n      swap1\n      pop\n      jump\t// out\n        /* \"#utility.yul\":28542:28961   */\n    tag_298:\n        /* \"#utility.yul\":28708:28712   */\n      0x00\n        /* \"#utility.yul\":28746:28748   */\n      0x20\n        /* \"#utility.yul\":28735:28744   */\n      dup3\n        /* \"#utility.yul\":28731:28749   */\n      add\n        /* \"#utility.yul\":28723:28749   */\n      swap1\n      pop\n        /* \"#utility.yul\":28795:28804   */\n      dup2\n        /* \"#utility.yul\":28789:28793   */\n      dup2\n        /* \"#utility.yul\":28785:28805   */\n      sub\n        /* \"#utility.yul\":28781:28782   */\n      0x00\n        /* \"#utility.yul\":28770:28779   */\n      dup4\n        /* \"#utility.yul\":28766:28783   */\n      add\n        /* \"#utility.yul\":28759:28806   */\n      mstore\n        /* \"#utility.yul\":28823:28954   */\n      tag_688\n        /* \"#utility.yul\":28949:28953   */\n      dup2\n        /* \"#utility.yul\":28823:28954   */\n      tag_376\n      jump\t// in\n    tag_688:\n        /* \"#utility.yul\":28815:28954   */\n      swap1\n      pop\n        /* \"#utility.yul\":28542:28961   */\n      swap2\n      swap1\n      pop\n      jump\t// out\n        /* \"#utility.yul\":28967:29257   */\n    tag_377:\n        /* \"#utility.yul\":29107:29141   */\n      0x416e20617373657420746970206973206f6e6c7920616e206964656e74696669\n        /* \"#utility.yul\":29103:29104   */\n      0x00\n        /* \"#utility.yul\":29095:29101   */\n      dup3\n        /* \"#utility.yul\":29091:29105   */\n      add\n        /* \"#utility.yul\":29084:29142   */\n      mstore\n        /* \"#utility.yul\":29176:29210   */\n      0x657220616e642063616e6e6f74206265206f776e656420617320616e20617373\n        /* \"#utility.yul\":29171:29173   */\n      0x20\n        /* \"#utility.yul\":29163:29169   */\n      dup3\n        /* \"#utility.yul\":29159:29174   */\n      add\n        /* \"#utility.yul\":29152:29211   */\n      mstore\n        /* \"#utility.yul\":29245:29249   */\n      0x6574000000000000000000000000000000000000000000000000000000000000\n        /* \"#utility.yul\":29240:29242   */\n      0x40\n        /* \"#utility.yul\":29232:29238   */\n      dup3\n        /* \"#utility.yul\":29228:29243   */\n      add\n        /* \"#utility.yul\":29221:29250   */\n      mstore\n        /* \"#utility.yul\":28967:29257   */\n      pop\n      jump\t// out\n        /* \"#utility.yul\":29263:29629   */\n    tag_378:\n        /* \"#utility.yul\":29405:29408   */\n      0x00\n        /* \"#utility.yul\":29426:29493   */\n      tag_691\n        /* \"#utility.yul\":29490:29492   */\n      0x42\n        /* \"#utility.yul\":29485:29488   */\n      dup4\n        /* \"#utility.yul\":29426:29493   */\n      tag_326\n      jump\t// in\n    tag_691:\n        /* \"#utility.yul\":29419:29493   */\n      swap2\n      pop\n        /* \"#utility.yul\":29502:29595   */\n      tag_692\n        /* \"#utility.yul\":29591:29594   */\n      dup3\n        /* \"#utility.yul\":29502:29595   */\n      tag_377\n      jump\t// in\n    tag_692:\n        /* \"#utility.yul\":29620:29622   */\n      0x60\n        /* \"#utility.yul\":29615:29618   */\n      dup3\n        /* \"#utility.yul\":29611:29623   */\n      add\n        /* \"#utility.yul\":29604:29623   */\n      swap1\n      pop\n        /* \"#utility.yul\":29263:29629   */\n      swap2\n      swap1\n      pop\n      jump\t// out\n        /* \"#utility.yul\":29635:30054   */\n    tag_301:\n        /* \"#utility.yul\":29801:29805   */\n      0x00\n        /* \"#utility.yul\":29839:29841   */\n      0x20\n        /* \"#utility.yul\":29828:29837   */\n      dup3\n        /* \"#utility.yul\":29824:29842   */\n      add\n        /* \"#utility.yul\":29816:29842   */\n      swap1\n      pop\n        /* \"#utility.yul\":29888:29897   */\n      dup2\n        /* \"#utility.yul\":29882:29886   */\n      dup2\n        /* \"#utility.yul\":29878:29898   */\n      sub\n        /* \"#utility.yul\":29874:29875   */\n      0x00\n        /* \"#utility.yul\":29863:29872   */\n      dup4\n        /* \"#utility.yul\":29859:29876   */\n      add\n        /* \"#utility.yul\":29852:29899   */\n      mstore\n        /* \"#utility.yul\":29916:30047   */\n      tag_694\n        /* \"#utility.yul\":30042:30046   */\n      dup2\n        /* \"#utility.yul\":29916:30047   */\n      tag_378\n      jump\t// in\n    tag_694:\n        /* \"#utility.yul\":29908:30047   */\n      swap1\n      pop\n        /* \"#utility.yul\":29635:30054   */\n      swap2\n      swap1\n      pop\n      jump\t// out\n        /* \"#utility.yul\":30060:30293   */\n    tag_303:\n        /* \"#utility.yul\":30099:30102   */\n      0x00\n        /* \"#utility.yul\":30122:30146   */\n      tag_696\n        /* \"#utility.yul\":30140:30145   */\n      dup3\n        /* \"#utility.yul\":30122:30146   */\n      tag_312\n      jump\t// in\n    tag_696:\n        /* \"#utility.yul\":30113:30146   */\n      swap2\n      pop\n        /* \"#utility.yul\":30168:30234   */\n      0xffffffffffffffffffffffffffffffffffffffffffffffffffffffffffffffff\n        /* \"#utility.yul\":30161:30166   */\n      dup3\n        /* \"#utility.yul\":30158:30235   */\n      sub\n        /* \"#utility.yul\":30155:30258   */\n      tag_697\n      jumpi\n        /* \"#utility.yul\":30238:30256   */\n      tag_698\n      tag_337\n      jump\t// in\n    tag_698:\n        /* \"#utility.yul\":30155:30258   */\n    tag_697:\n        /* \"#utility.yul\":30285:30286   */\n      0x01\n        /* \"#utility.yul\":30278:30283   */\n      dup3\n        /* \"#utility.yul\":30274:30287   */\n      add\n        /* \"#utility.yul\":30267:30287   */\n      swap1\n      pop\n        /* \"#utility.yul\":30060:30293   */\n      swap2\n      swap1\n      pop\n      jump\t// out\n\n    auxdata: 0xa26469706673582212208b6c19fc4430c224743970b1de0a32810d409cfd5a66e85d5a7150be8dc961c664736f6c634300081a0033\n}\n",
				"bytecode": {
					"linkReferences": {},
					"object": "6080604052348015600e575f80fd5b506133968061001c5f395ff3fe608060405234801561000f575f80fd5b5060043610610170575f3560e01c8063598af9e7116100dc5780639166442811610095578063b6363cf21161006f578063b6363cf214610464578063bd85b03914610494578063c87b56dd146104c4578063fe99049a146104f457610170565b8063916644281461041057806394548dae1461042c578063b4e6e1be1461044857610170565b8063598af9e71461032a5780636352211e1461035a578063743cdd251461038a57806377cb24ee146103ba5780637e3075cf146103d6578063842fe0f6146103f257610170565b80632fc170bb1161012e5780632fc170bb146102585780633bb810c0146102745780633bdfa8ac14610290578063426a8493146102c2578063558a7297146102de578063589a1743146102fa57610170565b8062fdd58e1461017457806301ffc9a7146101a457806309266836146101d4578063095bcdb61461020457806312c017e21461022057806322d4e4ad1461023c575b5f80fd5b61018e60048036038101906101899190612401565b610510565b60405161019b919061244e565b60405180910390f35b6101be60048036038101906101b991906124bc565b610530565b6040516101cb9190612501565b60405180910390f35b6101ee60048036038101906101e9919061251a565b610601565b6040516101fb9190612501565b60405180910390f35b61021e60048036038101906102199190612545565b61061e565b005b61023a60048036038101906102359190612545565b6107e0565b005b610256600480360381019061025191906125f6565b610aa4565b005b610272600480360381019061026d9190612687565b610cc8565b005b61028e6004803603810190610289919061272a565b610f33565b005b6102aa60048036038101906102a5919061251a565b610fbe565b6040516102b993929190612838565b60405180910390f35b6102dc60048036038101906102d79190612545565b6110fc565b005b6102f860048036038101906102f391906128a5565b6111f3565b005b610314600480360381019061030f919061251a565b6112eb565b60405161032191906128f2565b60405180910390f35b610344600480360381019061033f919061290b565b61131b565b604051610351919061244e565b60405180910390f35b610374600480360381019061036f919061251a565b611346565b60405161038191906128f2565b60405180910390f35b6103a4600480360381019061039f919061295b565b611376565b6040516103b1919061244e565b60405180910390f35b6103d460048036038101906103cf9190612401565b6113cd565b005b6103f060048036038101906103eb91906129ab565b61173c565b005b6103fa611792565b604051610407919061244e565b60405180910390f35b61042a60048036038101906104259190612401565b611798565b005b61044660048036038101906104419190612401565b611838565b005b610462600480360381019061045d9190612401565b611b20565b005b61047e60048036038101906104799190612a2f565b611bc0565b60405161048b9190612501565b60405180910390f35b6104ae60048036038101906104a9919061251a565b611bea565b6040516104bb919061244e565b60405180910390f35b6104de60048036038101906104d9919061251a565b611bfe565b6040516104eb9190612a6d565b60405180910390f35b61050e60048036038101906105099190612a8d565b611c99565b005b6001602052815f5260405f20602052805f5260405f205f91509150505481565b5f7fb2e69f8a000000000000000000000000000000000000000000000000000000007bffffffffffffffffffffffffffffffffffffffffffffffffffffffff1916827bffffffffffffffffffffffffffffffffffffffffffffffffffffffff191614806105fa57507f01ffc9a7000000000000000000000000000000000000000000000000000000007bffffffffffffffffffffffffffffffffffffffffffffffffffffffff1916827bffffffffffffffffffffffffffffffffffffffffffffffffffffffff1916145b9050919050565b6009602052805f5260405f205f915054906101000a900460ff1681565b8060015f3373ffffffffffffffffffffffffffffffffffffffff1673ffffffffffffffffffffffffffffffffffffffff1681526020019081526020015f205f8481526020019081526020015f205410156106b15733826040517ff6deaa040000000000000000000000000000000000000000000000000000000081526004016106a8929190612af1565b60405180910390fd5b8060015f3373ffffffffffffffffffffffffffffffffffffffff1673ffffffffffffffffffffffffffffffffffffffff1681526020019081526020015f205f8481526020019081526020015f205f82825461070c9190612b45565b925050819055508060015f8573ffffffffffffffffffffffffffffffffffffffff1673ffffffffffffffffffffffffffffffffffffffff1681526020019081526020015f205f8481526020019081526020015f205f82825461076e9190612b78565b92505081905550818373ffffffffffffffffffffffffffffffffffffffff163373ffffffffffffffffffffffffffffffffffffffff167f9ed053bb818ff08b8353cd46f78db1f0799f31c9e4458fdb425c10eccd2efc44846040516107d3919061244e565b60405180910390a4505050565b5f83836040516020016107f4929190612c10565b604051602081830303815290604052805190602001205f1c90508160015f3373ffffffffffffffffffffffffffffffffffffffff1673ffffffffffffffffffffffffffffffffffffffff1681526020019081526020015f205f8381526020019081526020015f205f8282546108699190612b78565b92505081905550815f808381526020019081526020015f205f82825461088f9190612b78565b92505081905550604051806060016040528060405180602001604052805f815250815260200160405180602001604052805f81525081526020016003808111156108dc576108db6127c5565b5b81525060055f8381526020019081526020015f205f820151815f0190816109039190612e62565b5060208201518160010190816109199190612e62565b506040820151816002015f6101000a81548160ff02191690836003811115610944576109436127c5565b5b02179055509050508373ffffffffffffffffffffffffffffffffffffffff16630e89341c846040518263ffffffff1660e01b8152600401610985919061244e565b5f60405180830381865afa15801561099f573d5f803e3d5ffd5b505050506040513d5f823e3d601f19601f820116820180604052508101906109c7919061301e565b60065f8381526020019081526020015f2090816109e49190612e62565b503360085f8381526020019081526020015f205f6101000a81548173ffffffffffffffffffffffffffffffffffffffff021916908373ffffffffffffffffffffffffffffffffffffffff1602179055508373ffffffffffffffffffffffffffffffffffffffff166323b872dd3330866040518463ffffffff1660e01b8152600401610a7193929190613065565b5f604051808303815f87803b158015610a88575f80fd5b505af1158015610a9a573d5f803e3d5ffd5b5050505050505050565b5f604051806060016040528087878080601f0160208091040260200160405190810160405280939291908181526020018383808284375f81840152601f19601f82011690508083019250505050505050815260200185858080601f0160208091040260200160405190810160405280939291908181526020018383808284375f81840152601f19601f82011690508083019250505050505050815260200160026003811115610b5657610b556127c5565b5b81525090505f6004549050825f808381526020019081526020015f20819055508160055f8381526020019081526020015f205f820151815f019081610b9b9190612e62565b506020820151816001019081610bb19190612e62565b506040820151816002015f6101000a81548160ff02191690836003811115610bdc57610bdb6127c5565b5b02179055509050503360075f8381526020019081526020015f205f6101000a81548173ffffffffffffffffffffffffffffffffffffffff021916908373ffffffffffffffffffffffffffffffffffffffff160217905550600183610c409190612b78565b60045f828254610c509190612b78565b92505081905550808585604051610c689291906130d6565b60405180910390208888604051610c809291906130d6565b60405180910390207fe4e2dd35e175b51f02aae07806c301807c1b9181a0614e23df9dfa67e7142cd186604051610cb7919061244e565b60405180910390a450505050505050565b5f604051806060016040528088888080601f0160208091040260200160405190810160405280939291908181526020018383808284375f81840152601f19601f82011690508083019250505050505050815260200186868080601f0160208091040260200160405190810160405280939291908181526020018383808284375f81840152601f19601f82011690508083019250505050505050815260200160016003811115610d7a57610d796127c5565b5b81525090505f6004549050835f808381526020019081526020015f20819055508160055f8381526020019081526020015f205f820151815f019081610dbf9190612e62565b506020820151816001019081610dd59190612e62565b506040820151816002015f6101000a81548160ff02191690836003811115610e0057610dff6127c5565b5b02179055509050508360015f8573ffffffffffffffffffffffffffffffffffffffff1673ffffffffffffffffffffffffffffffffffffffff1681526020019081526020015f205f8381526020019081526020015f20819055503360075f8381526020019081526020015f205f6101000a81548173ffffffffffffffffffffffffffffffffffffffff021916908373ffffffffffffffffffffffffffffffffffffffff160217905550600160045f828254610eba9190612b78565b92505081905550808686604051610ed29291906130d6565b60405180910390208989604051610eea9291906130d6565b60405180910390207f263d8abadf2a89bb2e2c9d65ff421f068882b46cc779f5db9e2b52ad97ed21b487604051610f21919061244e565b60405180910390a45050505050505050565b5f8173ffffffffffffffffffffffffffffffffffffffff169050600160095f8381526020019081526020015f205f6101000a81548160ff021916908315150217905550808273ffffffffffffffffffffffffffffffffffffffff167f5b3d0d66cd77c80fba853caba07ab174c47c6b13523c3418292b88c5a85272c060405160405180910390a35050565b6005602052805f5260405f205f91509050805f018054610fdd90612c95565b80601f016020809104026020016040519081016040528092919081815260200182805461100990612c95565b80156110545780601f1061102b57610100808354040283529160200191611054565b820191905f5260205f20905b81548152906001019060200180831161103757829003601f168201915b50505050509080600101805461106990612c95565b80601f016020809104026020016040519081016040528092919081815260200182805461109590612c95565b80156110e05780601f106110b7576101008083540402835291602001916110e0565b820191905f5260205f20905b8154815290600101906020018083116110c357829003601f168201915b505050505090806002015f9054906101000a900460ff16905083565b8060025f3373ffffffffffffffffffffffffffffffffffffffff1673ffffffffffffffffffffffffffffffffffffffff1681526020019081526020015f205f8573ffffffffffffffffffffffffffffffffffffffff1673ffffffffffffffffffffffffffffffffffffffff1681526020019081526020015f205f8481526020019081526020015f2081905550818373ffffffffffffffffffffffffffffffffffffffff163373ffffffffffffffffffffffffffffffffffffffff167fb3fd5071835887567a0671151121894ddccc2842f1d10bedad13e0d17cace9a7846040516111e6919061244e565b60405180910390a4505050565b8060035f3373ffffffffffffffffffffffffffffffffffffffff1673ffffffffffffffffffffffffffffffffffffffff1681526020019081526020015f205f8473ffffffffffffffffffffffffffffffffffffffff1673ffffffffffffffffffffffffffffffffffffffff1681526020019081526020015f205f6101000a81548160ff0219169083151502179055508173ffffffffffffffffffffffffffffffffffffffff163373ffffffffffffffffffffffffffffffffffffffff167fceb576d9f15e4e200fdb5096d64d5dfd667e16def20c1eefd14256d8e3faa267836040516112df9190612501565b60405180910390a35050565b6007602052805f5260405f205f915054906101000a900473ffffffffffffffffffffffffffffffffffffffff1681565b6002602052825f5260405f20602052815f5260405f20602052805f5260405f205f9250925050505481565b6008602052805f5260405f205f915054906101000a900473ffffffffffffffffffffffffffffffffffffffff1681565b5f816113ac57838360405160200161138f929190612c10565b604051602081830303815290604052805190602001205f1c6113c4565b8373ffffffffffffffffffffffffffffffffffffffff165b90509392505050565b5f82826040516020016113e1929190612c10565b604051602081830303815290604052805190602001205f1c90505f8373ffffffffffffffffffffffffffffffffffffffff166306fdde036040518163ffffffff1660e01b81526004015f60405180830381865afa158015611444573d5f803e3d5ffd5b505050506040513d5f823e3d601f19601f8201168201806040525081019061146c919061301e565b90505f8473ffffffffffffffffffffffffffffffffffffffff166395d89b416040518163ffffffff1660e01b81526004015f60405180830381865afa1580156114b7573d5f803e3d5ffd5b505050506040513d5f823e3d601f19601f820116820180604052508101906114df919061301e565b90506001805f3373ffffffffffffffffffffffffffffffffffffffff1673ffffffffffffffffffffffffffffffffffffffff1681526020019081526020015f205f8581526020019081526020015f208190555060015f808581526020019081526020015f2081905550604051806060016040528083815260200182815260200160026003811115611573576115726127c5565b5b81525060055f8581526020019081526020015f205f820151815f01908161159a9190612e62565b5060208201518160010190816115b09190612e62565b506040820151816002015f6101000a81548160ff021916908360038111156115db576115da6127c5565b5b02179055509050508473ffffffffffffffffffffffffffffffffffffffff1663c87b56dd856040518263ffffffff1660e01b815260040161161c919061244e565b5f60405180830381865afa158015611636573d5f803e3d5ffd5b505050506040513d5f823e3d601f19601f8201168201806040525081019061165e919061301e565b60065f8581526020019081526020015f20908161167b9190612e62565b503360085f8581526020019081526020015f205f6101000a81548173ffffffffffffffffffffffffffffffffffffffff021916908373ffffffffffffffffffffffffffffffffffffffff1602179055508473ffffffffffffffffffffffffffffffffffffffff166323b872dd3330876040518463ffffffff1660e01b815260040161170893929190613065565b5f604051808303815f87803b15801561171f575f80fd5b505af1158015611731573d5f803e3d5ffd5b505050505050505050565b61178b858585858080601f0160208091040260200160405190810160405280939291908181526020018383808284375f81840152601f19601f820116905080830192505050505050508461208b565b5050505050565b60045481565b5f82826040516020016117ac929190612c10565b604051602081830303815290604052805190602001205f1c9050600160095f8381526020019081526020015f205f6101000a81548160ff021916908315150217905550808373ffffffffffffffffffffffffffffffffffffffff167f42c699e356d055085063365a4e84c9e98c43d151c68d72ebc3f611d697810a7660405160405180910390a3505050565b5f8273ffffffffffffffffffffffffffffffffffffffff1690505f8373ffffffffffffffffffffffffffffffffffffffff166306fdde036040518163ffffffff1660e01b81526004015f60405180830381865afa15801561189b573d5f803e3d5ffd5b505050506040513d5f823e3d601f19601f820116820180604052508101906118c3919061301e565b90505f8473ffffffffffffffffffffffffffffffffffffffff166395d89b416040518163ffffffff1660e01b81526004015f60405180830381865afa15801561190e573d5f803e3d5ffd5b505050506040513d5f823e3d601f19601f82011682018060405250810190611936919061301e565b90508360015f3373ffffffffffffffffffffffffffffffffffffffff1673ffffffffffffffffffffffffffffffffffffffff1681526020019081526020015f205f8581526020019081526020015f205f8282546119939190612b78565b92505081905550835f808581526020019081526020015f205f8282546119b99190612b78565b925050819055506040518060600160405280838152602001828152602001600160038111156119eb576119ea6127c5565b5b81525060055f8581526020019081526020015f205f820151815f019081611a129190612e62565b506020820151816001019081611a289190612e62565b506040820151816002015f6101000a81548160ff02191690836003811115611a5357611a526127c5565b5b02179055509050508473ffffffffffffffffffffffffffffffffffffffff1663a9059cbb33866040518363ffffffff1660e01b8152600401611a96929190612af1565b6020604051808303815f875af1158015611ab2573d5f803e3d5ffd5b505050506040513d601f19601f82011682018060405250810190611ad69190613102565b611b195784846040517f29b46a30000000000000000000000000000000000000000000000000000000008152600401611b10929190612af1565b60405180910390fd5b5050505050565b5f8282604051602001611b34929190612c10565b604051602081830303815290604052805190602001205f1c9050600160095f8381526020019081526020015f205f6101000a81548160ff021916908315150217905550808373ffffffffffffffffffffffffffffffffffffffff167ffa5c2ee785b78e697c290a0923bad9f131ccd33f1241bc40181177121ebd819560405160405180910390a3505050565b6003602052815f5260405f20602052805f5260405f205f915091509054906101000a900460ff1681565b5f602052805f5260405f205f915090505481565b6006602052805f5260405f205f915090508054611c1a90612c95565b80601f0160208091040260200160405190810160405280929190818152602001828054611c4690612c95565b8015611c915780601f10611c6857610100808354040283529160200191611c91565b820191905f5260205f20905b815481529060010190602001808311611c7457829003601f168201915b505050505081565b3373ffffffffffffffffffffffffffffffffffffffff168473ffffffffffffffffffffffffffffffffffffffff1614158015611d57575060035f8573ffffffffffffffffffffffffffffffffffffffff1673ffffffffffffffffffffffffffffffffffffffff1681526020019081526020015f205f3373ffffffffffffffffffffffffffffffffffffffff1673ffffffffffffffffffffffffffffffffffffffff1681526020019081526020015f205f9054906101000a900460ff16155b15611ec8578060025f8673ffffffffffffffffffffffffffffffffffffffff1673ffffffffffffffffffffffffffffffffffffffff1681526020019081526020015f205f3373ffffffffffffffffffffffffffffffffffffffff1673ffffffffffffffffffffffffffffffffffffffff1681526020019081526020015f205f8481526020019081526020015f20541015611e2a5733826040517f731555bd000000000000000000000000000000000000000000000000000000008152600401611e21929190612af1565b60405180910390fd5b8060025f8673ffffffffffffffffffffffffffffffffffffffff1673ffffffffffffffffffffffffffffffffffffffff1681526020019081526020015f205f3373ffffffffffffffffffffffffffffffffffffffff1673ffffffffffffffffffffffffffffffffffffffff1681526020019081526020015f205f8481526020019081526020015f205f828254611ec09190612b45565b925050819055505b8060015f8673ffffffffffffffffffffffffffffffffffffffff1673ffffffffffffffffffffffffffffffffffffffff1681526020019081526020015f205f8481526020019081526020015f20541015611f5b5783826040517ff6deaa04000000000000000000000000000000000000000000000000000000008152600401611f52929190612af1565b60405180910390fd5b8060015f8673ffffffffffffffffffffffffffffffffffffffff1673ffffffffffffffffffffffffffffffffffffffff1681526020019081526020015f205f8481526020019081526020015f205f828254611fb69190612b45565b925050819055508060015f8573ffffffffffffffffffffffffffffffffffffffff1673ffffffffffffffffffffffffffffffffffffffff1681526020019081526020015f205f8481526020019081526020015f205f8282546120189190612b78565b92505081905550818373ffffffffffffffffffffffffffffffffffffffff168573ffffffffffffffffffffffffffffffffffffffff167f9ed053bb818ff08b8353cd46f78db1f0799f31c9e4458fdb425c10eccd2efc448460405161207d919061244e565b60405180910390a450505050565b6002600381111561209f5761209e6127c5565b5b60055f8681526020019081526020015f206002015f9054906101000a900460ff1660038111156120d2576120d16127c5565b5b14612112576040517f08c379a000000000000000000000000000000000000000000000000000000000815260040161210990613177565b60405180910390fd5b5f838561211f9190612b78565b90505f73ffffffffffffffffffffffffffffffffffffffff1660085f8381526020019081526020015f205f9054906101000a900473ffffffffffffffffffffffffffffffffffffffff1673ffffffffffffffffffffffffffffffffffffffff16146121bf576040517f08c379a00000000000000000000000000000000000000000000000000000000081526004016121b6906131df565b60405180910390fd5b5f808681526020019081526020015f2054856121db9190612b78565b81111561221d576040517f08c379a000000000000000000000000000000000000000000000000000000000815260040161221490613247565b60405180910390fd5b84810361225f576040517f08c379a0000000000000000000000000000000000000000000000000000000008152600401612256906132fb565b60405180910390fd5b60015f8373ffffffffffffffffffffffffffffffffffffffff1673ffffffffffffffffffffffffffffffffffffffff1681526020019081526020015f205f8681526020019081526020015f205f8154809291906122bb90613319565b91905055508260065f8381526020019081526020015f2090816122de9190612e62565b508160085f8381526020019081526020015f205f6101000a81548173ffffffffffffffffffffffffffffffffffffffff021916908373ffffffffffffffffffffffffffffffffffffffff16021790555080857f678b5f168892e2bf516fc9ca84c58d7315e2f6d5606c651e5dcd8ee43905b11660405160405180910390a35050505050565b5f604051905090565b5f80fd5b5f80fd5b5f73ffffffffffffffffffffffffffffffffffffffff82169050919050565b5f61239d82612374565b9050919050565b6123ad81612393565b81146123b7575f80fd5b50565b5f813590506123c8816123a4565b92915050565b5f819050919050565b6123e0816123ce565b81146123ea575f80fd5b50565b5f813590506123fb816123d7565b92915050565b5f80604083850312156124175761241661236c565b5b5f612424858286016123ba565b9250506020612435858286016123ed565b9150509250929050565b612448816123ce565b82525050565b5f6020820190506124615f83018461243f565b92915050565b5f7fffffffff0000000000000000000000000000000000000000000000000000000082169050919050565b61249b81612467565b81146124a5575f80fd5b50565b5f813590506124b681612492565b92915050565b5f602082840312156124d1576124d061236c565b5b5f6124de848285016124a8565b91505092915050565b5f8115159050919050565b6124fb816124e7565b82525050565b5f6020820190506125145f8301846124f2565b92915050565b5f6020828403121561252f5761252e61236c565b5b5f61253c848285016123ed565b91505092915050565b5f805f6060848603121561255c5761255b61236c565b5b5f612569868287016123ba565b935050602061257a868287016123ed565b925050604061258b868287016123ed565b9150509250925092565b5f80fd5b5f80fd5b5f80fd5b5f8083601f8401126125b6576125b5612595565b5b8235905067ffffffffffffffff8111156125d3576125d2612599565b5b6020830191508360018202830111156125ef576125ee61259d565b5b9250929050565b5f805f805f6060868803121561260f5761260e61236c565b5b5f86013567ffffffffffffffff81111561262c5761262b612370565b5b612638888289016125a1565b9550955050602086013567ffffffffffffffff81111561265b5761265a612370565b5b612667888289016125a1565b9350935050604061267a888289016123ed565b9150509295509295909350565b5f805f805f80608087890312156126a1576126a061236c565b5b5f87013567ffffffffffffffff8111156126be576126bd612370565b5b6126ca89828a016125a1565b9650965050602087013567ffffffffffffffff8111156126ed576126ec612370565b5b6126f989828a016125a1565b9450945050604061270c89828a016123ed565b925050606061271d89828a016123ba565b9150509295509295509295565b5f6020828403121561273f5761273e61236c565b5b5f61274c848285016123ba565b91505092915050565b5f81519050919050565b5f82825260208201905092915050565b8281835e5f83830152505050565b5f601f19601f8301169050919050565b5f61279782612755565b6127a1818561275f565b93506127b181856020860161276f565b6127ba8161277d565b840191505092915050565b7f4e487b71000000000000000000000000000000000000000000000000000000005f52602160045260245ffd5b60048110612803576128026127c5565b5b50565b5f819050612813826127f2565b919050565b5f61282282612806565b9050919050565b61283281612818565b82525050565b5f6060820190508181035f830152612850818661278d565b90508181036020830152612864818561278d565b90506128736040830184612829565b949350505050565b612884816124e7565b811461288e575f80fd5b50565b5f8135905061289f8161287b565b92915050565b5f80604083850312156128bb576128ba61236c565b5b5f6128c8858286016123ba565b92505060206128d985828601612891565b9150509250929050565b6128ec81612393565b82525050565b5f6020820190506129055f8301846128e3565b92915050565b5f805f606084860312156129225761292161236c565b5b5f61292f868287016123ba565b9350506020612940868287016123ba565b9250506040612951868287016123ed565b9150509250925092565b5f805f606084860312156129725761297161236c565b5b5f61297f868287016123ba565b9350506020612990868287016123ed565b92505060406129a186828701612891565b9150509250925092565b5f805f805f608086880312156129c4576129c361236c565b5b5f6129d1888289016123ed565b95505060206129e2888289016123ed565b945050604086013567ffffffffffffffff811115612a0357612a02612370565b5b612a0f888289016125a1565b93509350506060612a22888289016123ba565b9150509295509295909350565b5f8060408385031215612a4557612a4461236c565b5b5f612a52858286016123ba565b9250506020612a63858286016123ba565b9150509250929050565b5f6020820190508181035f830152612a85818461278d565b905092915050565b5f805f8060808587031215612aa557612aa461236c565b5b5f612ab2878288016123ba565b9450506020612ac3878288016123ba565b9350506040612ad4878288016123ed565b9250506060612ae5878288016123ed565b91505092959194509250565b5f604082019050612b045f8301856128e3565b612b11602083018461243f565b9392505050565b7f4e487b71000000000000000000000000000000000000000000000000000000005f52601160045260245ffd5b5f612b4f826123ce565b9150612b5a836123ce565b9250828203905081811115612b7257612b71612b18565b5b92915050565b5f612b82826123ce565b9150612b8d836123ce565b9250828201905080821115612ba557612ba4612b18565b5b92915050565b5f8160601b9050919050565b5f612bc182612bab565b9050919050565b5f612bd282612bb7565b9050919050565b612bea612be582612393565b612bc8565b82525050565b5f819050919050565b612c0a612c05826123ce565b612bf0565b82525050565b5f612c1b8285612bd9565b601482019150612c2b8284612bf9565b6020820191508190509392505050565b7f4e487b71000000000000000000000000000000000000000000000000000000005f52604160045260245ffd5b7f4e487b71000000000000000000000000000000000000000000000000000000005f52602260045260245ffd5b5f6002820490506001821680612cac57607f821691505b602082108103612cbf57612cbe612c68565b5b50919050565b5f819050815f5260205f209050919050565b5f6020601f8301049050919050565b5f82821b905092915050565b5f60088302612d217fffffffffffffffffffffffffffffffffffffffffffffffffffffffffffffffff82612ce6565b612d2b8683612ce6565b95508019841693508086168417925050509392505050565b5f819050919050565b5f612d66612d61612d5c846123ce565b612d43565b6123ce565b9050919050565b5f819050919050565b612d7f83612d4c565b612d93612d8b82612d6d565b848454612cf2565b825550505050565b5f90565b612da7612d9b565b612db2818484612d76565b505050565b5b81811015612dd557612dca5f82612d9f565b600181019050612db8565b5050565b601f821115612e1a57612deb81612cc5565b612df484612cd7565b81016020851015612e03578190505b612e17612e0f85612cd7565b830182612db7565b50505b505050565b5f82821c905092915050565b5f612e3a5f1984600802612e1f565b1980831691505092915050565b5f612e528383612e2b565b9150826002028217905092915050565b612e6b82612755565b67ffffffffffffffff811115612e8457612e83612c3b565b5b612e8e8254612c95565b612e99828285612dd9565b5f60209050601f831160018114612eca575f8415612eb8578287015190505b612ec28582612e47565b865550612f29565b601f198416612ed886612cc5565b5f5b82811015612eff57848901518255600182019150602085019450602081019050612eda565b86831015612f1c5784890151612f18601f891682612e2b565b8355505b6001600288020188555050505b505050505050565b5f80fd5b612f3e8261277d565b810181811067ffffffffffffffff82111715612f5d57612f5c612c3b565b5b80604052505050565b5f612f6f612363565b9050612f7b8282612f35565b919050565b5f67ffffffffffffffff821115612f9a57612f99612c3b565b5b612fa38261277d565b9050602081019050919050565b5f612fc2612fbd84612f80565b612f66565b905082815260208101848484011115612fde57612fdd612f31565b5b612fe984828561276f565b509392505050565b5f82601f83011261300557613004612595565b5b8151613015848260208601612fb0565b91505092915050565b5f602082840312156130335761303261236c565b5b5f82015167ffffffffffffffff8111156130505761304f612370565b5b61305c84828501612ff1565b91505092915050565b5f6060820190506130785f8301866128e3565b61308560208301856128e3565b613092604083018461243f565b949350505050565b5f81905092915050565b828183375f83830152505050565b5f6130bd838561309a565b93506130ca8385846130a4565b82840190509392505050565b5f6130e28284866130b2565b91508190509392505050565b5f815190506130fc8161287b565b92915050565b5f602082840312156131175761311661236c565b5b5f613124848285016130ee565b91505092915050565b7f54686973206173736574206973206e6f7420616e204e465400000000000000005f82015250565b5f61316160188361275f565b915061316c8261312d565b602082019050919050565b5f6020820190508181035f83015261318e81613155565b9050919050565b7f5468697320617373657420697320616c7265616479206f776e656400000000005f82015250565b5f6131c9601b8361275f565b91506131d482613195565b602082019050919050565b5f6020820190508181035f8301526131f6816131bd565b9050919050565b7f4173736574206d656d62657220657863656564656400000000000000000000005f82015250565b5f61323160158361275f565b915061323c826131fd565b602082019050919050565b5f6020820190508181035f83015261325e81613225565b9050919050565b7f416e20617373657420746970206973206f6e6c7920616e206964656e746966695f8201527f657220616e642063616e6e6f74206265206f776e656420617320616e2061737360208201527f6574000000000000000000000000000000000000000000000000000000000000604082015250565b5f6132e560428361275f565b91506132f082613265565b606082019050919050565b5f6020820190508181035f830152613312816132d9565b9050919050565b5f613323826123ce565b91507fffffffffffffffffffffffffffffffffffffffffffffffffffffffffffffffff820361335557613354612b18565b5b60018201905091905056fea26469706673582212208b6c19fc4430c224743970b1de0a32810d409cfd5a66e85d5a7150be8dc961c664736f6c634300081a0033",
					"opcodes": "PUSH1 0x80 PUSH1 0x40 MSTORE CALLVALUE DUP1 ISZERO PUSH1 0xE JUMPI PUSH0 DUP1 REVERT JUMPDEST POP PUSH2 0x3396 DUP1 PUSH2 0x1C PUSH0 CODECOPY PUSH0 RETURN INVALID PUSH1 0x80 PUSH1 0x40 MSTORE CALLVALUE DUP1 ISZERO PUSH2 0xF JUMPI PUSH0 DUP1 REVERT JUMPDEST POP PUSH1 0x4 CALLDATASIZE LT PUSH2 0x170 JUMPI PUSH0 CALLDATALOAD PUSH1 0xE0 SHR DUP1 PUSH4 0x598AF9E7 GT PUSH2 0xDC JUMPI DUP1 PUSH4 0x91664428 GT PUSH2 0x95 JUMPI DUP1 PUSH4 0xB6363CF2 GT PUSH2 0x6F JUMPI DUP1 PUSH4 0xB6363CF2 EQ PUSH2 0x464 JUMPI DUP1 PUSH4 0xBD85B039 EQ PUSH2 0x494 JUMPI DUP1 PUSH4 0xC87B56DD EQ PUSH2 0x4C4 JUMPI DUP1 PUSH4 0xFE99049A EQ PUSH2 0x4F4 JUMPI PUSH2 0x170 JUMP JUMPDEST DUP1 PUSH4 0x91664428 EQ PUSH2 0x410 JUMPI DUP1 PUSH4 0x94548DAE EQ PUSH2 0x42C JUMPI DUP1 PUSH4 0xB4E6E1BE EQ PUSH2 0x448 JUMPI PUSH2 0x170 JUMP JUMPDEST DUP1 PUSH4 0x598AF9E7 EQ PUSH2 0x32A JUMPI DUP1 PUSH4 0x6352211E EQ PUSH2 0x35A JUMPI DUP1 PUSH4 0x743CDD25 EQ PUSH2 0x38A JUMPI DUP1 PUSH4 0x77CB24EE EQ PUSH2 0x3BA JUMPI DUP1 PUSH4 0x7E3075CF EQ PUSH2 0x3D6 JUMPI DUP1 PUSH4 0x842FE0F6 EQ PUSH2 0x3F2 JUMPI PUSH2 0x170 JUMP JUMPDEST DUP1 PUSH4 0x2FC170BB GT PUSH2 0x12E JUMPI DUP1 PUSH4 0x2FC170BB EQ PUSH2 0x258 JUMPI DUP1 PUSH4 0x3BB810C0 EQ PUSH2 0x274 JUMPI DUP1 PUSH4 0x3BDFA8AC EQ PUSH2 0x290 JUMPI DUP1 PUSH4 0x426A8493 EQ PUSH2 0x2C2 JUMPI DUP1 PUSH4 0x558A7297 EQ PUSH2 0x2DE JUMPI DUP1 PUSH4 0x589A1743 EQ PUSH2 0x2FA JUMPI PUSH2 0x170 JUMP JUMPDEST DUP1 PUSH3 0xFDD58E EQ PUSH2 0x174 JUMPI DUP1 PUSH4 0x1FFC9A7 EQ PUSH2 0x1A4 JUMPI DUP1 PUSH4 0x9266836 EQ PUSH2 0x1D4 JUMPI DUP1 PUSH4 0x95BCDB6 EQ PUSH2 0x204 JUMPI DUP1 PUSH4 0x12C017E2 EQ PUSH2 0x220 JUMPI DUP1 PUSH4 0x22D4E4AD EQ PUSH2 0x23C JUMPI JUMPDEST PUSH0 DUP1 REVERT JUMPDEST PUSH2 0x18E PUSH1 0x4 DUP1 CALLDATASIZE SUB DUP2 ADD SWAP1 PUSH2 0x189 SWAP2 SWAP1 PUSH2 0x2401 JUMP JUMPDEST PUSH2 0x510 JUMP JUMPDEST PUSH1 0x40 MLOAD PUSH2 0x19B SWAP2 SWAP1 PUSH2 0x244E JUMP JUMPDEST PUSH1 0x40 MLOAD DUP1 SWAP2 SUB SWAP1 RETURN JUMPDEST PUSH2 0x1BE PUSH1 0x4 DUP1 CALLDATASIZE SUB DUP2 ADD SWAP1 PUSH2 0x1B9 SWAP2 SWAP1 PUSH2 0x24BC JUMP JUMPDEST PUSH2 0x530 JUMP JUMPDEST PUSH1 0x40 MLOAD PUSH2 0x1CB SWAP2 SWAP1 PUSH2 0x2501 JUMP JUMPDEST PUSH1 0x40 MLOAD DUP1 SWAP2 SUB SWAP1 RETURN JUMPDEST PUSH2 0x1EE PUSH1 0x4 DUP1 CALLDATASIZE SUB DUP2 ADD SWAP1 PUSH2 0x1E9 SWAP2 SWAP1 PUSH2 0x251A JUMP JUMPDEST PUSH2 0x601 JUMP JUMPDEST PUSH1 0x40 MLOAD PUSH2 0x1FB SWAP2 SWAP1 PUSH2 0x2501 JUMP JUMPDEST PUSH1 0x40 MLOAD DUP1 SWAP2 SUB SWAP1 RETURN JUMPDEST PUSH2 0x21E PUSH1 0x4 DUP1 CALLDATASIZE SUB DUP2 ADD SWAP1 PUSH2 0x219 SWAP2 SWAP1 PUSH2 0x2545 JUMP JUMPDEST PUSH2 0x61E JUMP JUMPDEST STOP JUMPDEST PUSH2 0x23A PUSH1 0x4 DUP1 CALLDATASIZE SUB DUP2 ADD SWAP1 PUSH2 0x235 SWAP2 SWAP1 PUSH2 0x2545 JUMP JUMPDEST PUSH2 0x7E0 JUMP JUMPDEST STOP JUMPDEST PUSH2 0x256 PUSH1 0x4 DUP1 CALLDATASIZE SUB DUP2 ADD SWAP1 PUSH2 0x251 SWAP2 SWAP1 PUSH2 0x25F6 JUMP JUMPDEST PUSH2 0xAA4 JUMP JUMPDEST STOP JUMPDEST PUSH2 0x272 PUSH1 0x4 DUP1 CALLDATASIZE SUB DUP2 ADD SWAP1 PUSH2 0x26D SWAP2 SWAP1 PUSH2 0x2687 JUMP JUMPDEST PUSH2 0xCC8 JUMP JUMPDEST STOP JUMPDEST PUSH2 0x28E PUSH1 0x4 DUP1 CALLDATASIZE SUB DUP2 ADD SWAP1 PUSH2 0x289 SWAP2 SWAP1 PUSH2 0x272A JUMP JUMPDEST PUSH2 0xF33 JUMP JUMPDEST STOP JUMPDEST PUSH2 0x2AA PUSH1 0x4 DUP1 CALLDATASIZE SUB DUP2 ADD SWAP1 PUSH2 0x2A5 SWAP2 SWAP1 PUSH2 0x251A JUMP JUMPDEST PUSH2 0xFBE JUMP JUMPDEST PUSH1 0x40 MLOAD PUSH2 0x2B9 SWAP4 SWAP3 SWAP2 SWAP1 PUSH2 0x2838 JUMP JUMPDEST PUSH1 0x40 MLOAD DUP1 SWAP2 SUB SWAP1 RETURN JUMPDEST PUSH2 0x2DC PUSH1 0x4 DUP1 CALLDATASIZE SUB DUP2 ADD SWAP1 PUSH2 0x2D7 SWAP2 SWAP1 PUSH2 0x2545 JUMP JUMPDEST PUSH2 0x10FC JUMP JUMPDEST STOP JUMPDEST PUSH2 0x2F8 PUSH1 0x4 DUP1 CALLDATASIZE SUB DUP2 ADD SWAP1 PUSH2 0x2F3 SWAP2 SWAP1 PUSH2 0x28A5 JUMP JUMPDEST PUSH2 0x11F3 JUMP JUMPDEST STOP JUMPDEST PUSH2 0x314 PUSH1 0x4 DUP1 CALLDATASIZE SUB DUP2 ADD SWAP1 PUSH2 0x30F SWAP2 SWAP1 PUSH2 0x251A JUMP JUMPDEST PUSH2 0x12EB JUMP JUMPDEST PUSH1 0x40 MLOAD PUSH2 0x321 SWAP2 SWAP1 PUSH2 0x28F2 JUMP JUMPDEST PUSH1 0x40 MLOAD DUP1 SWAP2 SUB SWAP1 RETURN JUMPDEST PUSH2 0x344 PUSH1 0x4 DUP1 CALLDATASIZE SUB DUP2 ADD SWAP1 PUSH2 0x33F SWAP2 SWAP1 PUSH2 0x290B JUMP JUMPDEST PUSH2 0x131B JUMP JUMPDEST PUSH1 0x40 MLOAD PUSH2 0x351 SWAP2 SWAP1 PUSH2 0x244E JUMP JUMPDEST PUSH1 0x40 MLOAD DUP1 SWAP2 SUB SWAP1 RETURN JUMPDEST PUSH2 0x374 PUSH1 0x4 DUP1 CALLDATASIZE SUB DUP2 ADD SWAP1 PUSH2 0x36F SWAP2 SWAP1 PUSH2 0x251A JUMP JUMPDEST PUSH2 0x1346 JUMP JUMPDEST PUSH1 0x40 MLOAD PUSH2 0x381 SWAP2 SWAP1 PUSH2 0x28F2 JUMP JUMPDEST PUSH1 0x40 MLOAD DUP1 SWAP2 SUB SWAP1 RETURN JUMPDEST PUSH2 0x3A4 PUSH1 0x4 DUP1 CALLDATASIZE SUB DUP2 ADD SWAP1 PUSH2 0x39F SWAP2 SWAP1 PUSH2 0x295B JUMP JUMPDEST PUSH2 0x1376 JUMP JUMPDEST PUSH1 0x40 MLOAD PUSH2 0x3B1 SWAP2 SWAP1 PUSH2 0x244E JUMP JUMPDEST PUSH1 0x40 MLOAD DUP1 SWAP2 SUB SWAP1 RETURN JUMPDEST PUSH2 0x3D4 PUSH1 0x4 DUP1 CALLDATASIZE SUB DUP2 ADD SWAP1 PUSH2 0x3CF SWAP2 SWAP1 PUSH2 0x2401 JUMP JUMPDEST PUSH2 0x13CD JUMP JUMPDEST STOP JUMPDEST PUSH2 0x3F0 PUSH1 0x4 DUP1 CALLDATASIZE SUB DUP2 ADD SWAP1 PUSH2 0x3EB SWAP2 SWAP1 PUSH2 0x29AB JUMP JUMPDEST PUSH2 0x173C JUMP JUMPDEST STOP JUMPDEST PUSH2 0x3FA PUSH2 0x1792 JUMP JUMPDEST PUSH1 0x40 MLOAD PUSH2 0x407 SWAP2 SWAP1 PUSH2 0x244E JUMP JUMPDEST PUSH1 0x40 MLOAD DUP1 SWAP2 SUB SWAP1 RETURN JUMPDEST PUSH2 0x42A PUSH1 0x4 DUP1 CALLDATASIZE SUB DUP2 ADD SWAP1 PUSH2 0x425 SWAP2 SWAP1 PUSH2 0x2401 JUMP JUMPDEST PUSH2 0x1798 JUMP JUMPDEST STOP JUMPDEST PUSH2 0x446 PUSH1 0x4 DUP1 CALLDATASIZE SUB DUP2 ADD SWAP1 PUSH2 0x441 SWAP2 SWAP1 PUSH2 0x2401 JUMP JUMPDEST PUSH2 0x1838 JUMP JUMPDEST STOP JUMPDEST PUSH2 0x462 PUSH1 0x4 DUP1 CALLDATASIZE SUB DUP2 ADD SWAP1 PUSH2 0x45D SWAP2 SWAP1 PUSH2 0x2401 JUMP JUMPDEST PUSH2 0x1B20 JUMP JUMPDEST STOP JUMPDEST PUSH2 0x47E PUSH1 0x4 DUP1 CALLDATASIZE SUB DUP2 ADD SWAP1 PUSH2 0x479 SWAP2 SWAP1 PUSH2 0x2A2F JUMP JUMPDEST PUSH2 0x1BC0 JUMP JUMPDEST PUSH1 0x40 MLOAD PUSH2 0x48B SWAP2 SWAP1 PUSH2 0x2501 JUMP JUMPDEST PUSH1 0x40 MLOAD DUP1 SWAP2 SUB SWAP1 RETURN JUMPDEST PUSH2 0x4AE PUSH1 0x4 DUP1 CALLDATASIZE SUB DUP2 ADD SWAP1 PUSH2 0x4A9 SWAP2 SWAP1 PUSH2 0x251A JUMP JUMPDEST PUSH2 0x1BEA JUMP JUMPDEST PUSH1 0x40 MLOAD PUSH2 0x4BB SWAP2 SWAP1 PUSH2 0x244E JUMP JUMPDEST PUSH1 0x40 MLOAD DUP1 SWAP2 SUB SWAP1 RETURN JUMPDEST PUSH2 0x4DE PUSH1 0x4 DUP1 CALLDATASIZE SUB DUP2 ADD SWAP1 PUSH2 0x4D9 SWAP2 SWAP1 PUSH2 0x251A JUMP JUMPDEST PUSH2 0x1BFE JUMP JUMPDEST PUSH1 0x40 MLOAD PUSH2 0x4EB SWAP2 SWAP1 PUSH2 0x2A6D JUMP JUMPDEST PUSH1 0x40 MLOAD DUP1 SWAP2 SUB SWAP1 RETURN JUMPDEST PUSH2 0x50E PUSH1 0x4 DUP1 CALLDATASIZE SUB DUP2 ADD SWAP1 PUSH2 0x509 SWAP2 SWAP1 PUSH2 0x2A8D JUMP JUMPDEST PUSH2 0x1C99 JUMP JUMPDEST STOP JUMPDEST PUSH1 0x1 PUSH1 0x20 MSTORE DUP2 PUSH0 MSTORE PUSH1 0x40 PUSH0 KECCAK256 PUSH1 0x20 MSTORE DUP1 PUSH0 MSTORE PUSH1 0x40 PUSH0 KECCAK256 PUSH0 SWAP2 POP SWAP2 POP POP SLOAD DUP2 JUMP JUMPDEST PUSH0 PUSH32 0xB2E69F8A00000000000000000000000000000000000000000000000000000000 PUSH28 0xFFFFFFFFFFFFFFFFFFFFFFFFFFFFFFFFFFFFFFFFFFFFFFFFFFFFFFFF NOT AND DUP3 PUSH28 0xFFFFFFFFFFFFFFFFFFFFFFFFFFFFFFFFFFFFFFFFFFFFFFFFFFFFFFFF NOT AND EQ DUP1 PUSH2 0x5FA JUMPI POP PUSH32 0x1FFC9A700000000000000000000000000000000000000000000000000000000 PUSH28 0xFFFFFFFFFFFFFFFFFFFFFFFFFFFFFFFFFFFFFFFFFFFFFFFFFFFFFFFF NOT AND DUP3 PUSH28 0xFFFFFFFFFFFFFFFFFFFFFFFFFFFFFFFFFFFFFFFFFFFFFFFFFFFFFFFF NOT AND EQ JUMPDEST SWAP1 POP SWAP2 SWAP1 POP JUMP JUMPDEST PUSH1 0x9 PUSH1 0x20 MSTORE DUP1 PUSH0 MSTORE PUSH1 0x40 PUSH0 KECCAK256 PUSH0 SWAP2 POP SLOAD SWAP1 PUSH2 0x100 EXP SWAP1 DIV PUSH1 0xFF AND DUP2 JUMP JUMPDEST DUP1 PUSH1 0x1 PUSH0 CALLER PUSH20 0xFFFFFFFFFFFFFFFFFFFFFFFFFFFFFFFFFFFFFFFF AND PUSH20 0xFFFFFFFFFFFFFFFFFFFFFFFFFFFFFFFFFFFFFFFF AND DUP2 MSTORE PUSH1 0x20 ADD SWAP1 DUP2 MSTORE PUSH1 0x20 ADD PUSH0 KECCAK256 PUSH0 DUP5 DUP2 MSTORE PUSH1 0x20 ADD SWAP1 DUP2 MSTORE PUSH1 0x20 ADD PUSH0 KECCAK256 SLOAD LT ISZERO PUSH2 0x6B1 JUMPI CALLER DUP3 PUSH1 0x40 MLOAD PUSH32 0xF6DEAA0400000000000000000000000000000000000000000000000000000000 DUP2 MSTORE PUSH1 0x4 ADD PUSH2 0x6A8 SWAP3 SWAP2 SWAP1 PUSH2 0x2AF1 JUMP JUMPDEST PUSH1 0x40 MLOAD DUP1 SWAP2 SUB SWAP1 REVERT JUMPDEST DUP1 PUSH1 0x1 PUSH0 CALLER PUSH20 0xFFFFFFFFFFFFFFFFFFFFFFFFFFFFFFFFFFFFFFFF AND PUSH20 0xFFFFFFFFFFFFFFFFFFFFFFFFFFFFFFFFFFFFFFFF AND DUP2 MSTORE PUSH1 0x20 ADD SWAP1 DUP2 MSTORE PUSH1 0x20 ADD PUSH0 KECCAK256 PUSH0 DUP5 DUP2 MSTORE PUSH1 0x20 ADD SWAP1 DUP2 MSTORE PUSH1 0x20 ADD PUSH0 KECCAK256 PUSH0 DUP3 DUP3 SLOAD PUSH2 0x70C SWAP2 SWAP1 PUSH2 0x2B45 JUMP JUMPDEST SWAP3 POP POP DUP2 SWAP1 SSTORE POP DUP1 PUSH1 0x1 PUSH0 DUP6 PUSH20 0xFFFFFFFFFFFFFFFFFFFFFFFFFFFFFFFFFFFFFFFF AND PUSH20 0xFFFFFFFFFFFFFFFFFFFFFFFFFFFFFFFFFFFFFFFF AND DUP2 MSTORE PUSH1 0x20 ADD SWAP1 DUP2 MSTORE PUSH1 0x20 ADD PUSH0 KECCAK256 PUSH0 DUP5 DUP2 MSTORE PUSH1 0x20 ADD SWAP1 DUP2 MSTORE PUSH1 0x20 ADD PUSH0 KECCAK256 PUSH0 DUP3 DUP3 SLOAD PUSH2 0x76E SWAP2 SWAP1 PUSH2 0x2B78 JUMP JUMPDEST SWAP3 POP POP DUP2 SWAP1 SSTORE POP DUP2 DUP4 PUSH20 0xFFFFFFFFFFFFFFFFFFFFFFFFFFFFFFFFFFFFFFFF AND CALLER PUSH20 0xFFFFFFFFFFFFFFFFFFFFFFFFFFFFFFFFFFFFFFFF AND PUSH32 0x9ED053BB818FF08B8353CD46F78DB1F0799F31C9E4458FDB425C10ECCD2EFC44 DUP5 PUSH1 0x40 MLOAD PUSH2 0x7D3 SWAP2 SWAP1 PUSH2 0x244E JUMP JUMPDEST PUSH1 0x40 MLOAD DUP1 SWAP2 SUB SWAP1 LOG4 POP POP POP JUMP JUMPDEST PUSH0 DUP4 DUP4 PUSH1 0x40 MLOAD PUSH1 0x20 ADD PUSH2 0x7F4 SWAP3 SWAP2 SWAP1 PUSH2 0x2C10 JUMP JUMPDEST PUSH1 0x40 MLOAD PUSH1 0x20 DUP2 DUP4 SUB SUB DUP2 MSTORE SWAP1 PUSH1 0x40 MSTORE DUP1 MLOAD SWAP1 PUSH1 0x20 ADD KECCAK256 PUSH0 SHR SWAP1 POP DUP2 PUSH1 0x1 PUSH0 CALLER PUSH20 0xFFFFFFFFFFFFFFFFFFFFFFFFFFFFFFFFFFFFFFFF AND PUSH20 0xFFFFFFFFFFFFFFFFFFFFFFFFFFFFFFFFFFFFFFFF AND DUP2 MSTORE PUSH1 0x20 ADD SWAP1 DUP2 MSTORE PUSH1 0x20 ADD PUSH0 KECCAK256 PUSH0 DUP4 DUP2 MSTORE PUSH1 0x20 ADD SWAP1 DUP2 MSTORE PUSH1 0x20 ADD PUSH0 KECCAK256 PUSH0 DUP3 DUP3 SLOAD PUSH2 0x869 SWAP2 SWAP1 PUSH2 0x2B78 JUMP JUMPDEST SWAP3 POP POP DUP2 SWAP1 SSTORE POP DUP2 PUSH0 DUP1 DUP4 DUP2 MSTORE PUSH1 0x20 ADD SWAP1 DUP2 MSTORE PUSH1 0x20 ADD PUSH0 KECCAK256 PUSH0 DUP3 DUP3 SLOAD PUSH2 0x88F SWAP2 SWAP1 PUSH2 0x2B78 JUMP JUMPDEST SWAP3 POP POP DUP2 SWAP1 SSTORE POP PUSH1 0x40 MLOAD DUP1 PUSH1 0x60 ADD PUSH1 0x40 MSTORE DUP1 PUSH1 0x40 MLOAD DUP1 PUSH1 0x20 ADD PUSH1 0x40 MSTORE DUP1 PUSH0 DUP2 MSTORE POP DUP2 MSTORE PUSH1 0x20 ADD PUSH1 0x40 MLOAD DUP1 PUSH1 0x20 ADD PUSH1 0x40 MSTORE DUP1 PUSH0 DUP2 MSTORE POP DUP2 MSTORE PUSH1 0x20 ADD PUSH1 0x3 DUP1 DUP2 GT ISZERO PUSH2 0x8DC JUMPI PUSH2 0x8DB PUSH2 0x27C5 JUMP JUMPDEST JUMPDEST DUP2 MSTORE POP PUSH1 0x5 PUSH0 DUP4 DUP2 MSTORE PUSH1 0x20 ADD SWAP1 DUP2 MSTORE PUSH1 0x20 ADD PUSH0 KECCAK256 PUSH0 DUP3 ADD MLOAD DUP2 PUSH0 ADD SWAP1 DUP2 PUSH2 0x903 SWAP2 SWAP1 PUSH2 0x2E62 JUMP JUMPDEST POP PUSH1 0x20 DUP3 ADD MLOAD DUP2 PUSH1 0x1 ADD SWAP1 DUP2 PUSH2 0x919 SWAP2 SWAP1 PUSH2 0x2E62 JUMP JUMPDEST POP PUSH1 0x40 DUP3 ADD MLOAD DUP2 PUSH1 0x2 ADD PUSH0 PUSH2 0x100 EXP DUP2 SLOAD DUP2 PUSH1 0xFF MUL NOT AND SWAP1 DUP4 PUSH1 0x3 DUP2 GT ISZERO PUSH2 0x944 JUMPI PUSH2 0x943 PUSH2 0x27C5 JUMP JUMPDEST JUMPDEST MUL OR SWAP1 SSTORE POP SWAP1 POP POP DUP4 PUSH20 0xFFFFFFFFFFFFFFFFFFFFFFFFFFFFFFFFFFFFFFFF AND PUSH4 0xE89341C DUP5 PUSH1 0x40 MLOAD DUP3 PUSH4 0xFFFFFFFF AND PUSH1 0xE0 SHL DUP2 MSTORE PUSH1 0x4 ADD PUSH2 0x985 SWAP2 SWAP1 PUSH2 0x244E JUMP JUMPDEST PUSH0 PUSH1 0x40 MLOAD DUP1 DUP4 SUB DUP2 DUP7 GAS STATICCALL ISZERO DUP1 ISZERO PUSH2 0x99F JUMPI RETURNDATASIZE PUSH0 DUP1 RETURNDATACOPY RETURNDATASIZE PUSH0 REVERT JUMPDEST POP POP POP POP PUSH1 0x40 MLOAD RETURNDATASIZE PUSH0 DUP3 RETURNDATACOPY RETURNDATASIZE PUSH1 0x1F NOT PUSH1 0x1F DUP3 ADD AND DUP3 ADD DUP1 PUSH1 0x40 MSTORE POP DUP2 ADD SWAP1 PUSH2 0x9C7 SWAP2 SWAP1 PUSH2 0x301E JUMP JUMPDEST PUSH1 0x6 PUSH0 DUP4 DUP2 MSTORE PUSH1 0x20 ADD SWAP1 DUP2 MSTORE PUSH1 0x20 ADD PUSH0 KECCAK256 SWAP1 DUP2 PUSH2 0x9E4 SWAP2 SWAP1 PUSH2 0x2E62 JUMP JUMPDEST POP CALLER PUSH1 0x8 PUSH0 DUP4 DUP2 MSTORE PUSH1 0x20 ADD SWAP1 DUP2 MSTORE PUSH1 0x20 ADD PUSH0 KECCAK256 PUSH0 PUSH2 0x100 EXP DUP2 SLOAD DUP2 PUSH20 0xFFFFFFFFFFFFFFFFFFFFFFFFFFFFFFFFFFFFFFFF MUL NOT AND SWAP1 DUP4 PUSH20 0xFFFFFFFFFFFFFFFFFFFFFFFFFFFFFFFFFFFFFFFF AND MUL OR SWAP1 SSTORE POP DUP4 PUSH20 0xFFFFFFFFFFFFFFFFFFFFFFFFFFFFFFFFFFFFFFFF AND PUSH4 0x23B872DD CALLER ADDRESS DUP7 PUSH1 0x40 MLOAD DUP5 PUSH4 0xFFFFFFFF AND PUSH1 0xE0 SHL DUP2 MSTORE PUSH1 0x4 ADD PUSH2 0xA71 SWAP4 SWAP3 SWAP2 SWAP1 PUSH2 0x3065 JUMP JUMPDEST PUSH0 PUSH1 0x40 MLOAD DUP1 DUP4 SUB DUP2 PUSH0 DUP8 DUP1 EXTCODESIZE ISZERO DUP1 ISZERO PUSH2 0xA88 JUMPI PUSH0 DUP1 REVERT JUMPDEST POP GAS CALL ISZERO DUP1 ISZERO PUSH2 0xA9A JUMPI RETURNDATASIZE PUSH0 DUP1 RETURNDATACOPY RETURNDATASIZE PUSH0 REVERT JUMPDEST POP POP POP POP POP POP POP POP JUMP JUMPDEST PUSH0 PUSH1 0x40 MLOAD DUP1 PUSH1 0x60 ADD PUSH1 0x40 MSTORE DUP1 DUP8 DUP8 DUP1 DUP1 PUSH1 0x1F ADD PUSH1 0x20 DUP1 SWAP2 DIV MUL PUSH1 0x20 ADD PUSH1 0x40 MLOAD SWAP1 DUP2 ADD PUSH1 0x40 MSTORE DUP1 SWAP4 SWAP3 SWAP2 SWAP1 DUP2 DUP2 MSTORE PUSH1 0x20 ADD DUP4 DUP4 DUP1 DUP3 DUP5 CALLDATACOPY PUSH0 DUP2 DUP5 ADD MSTORE PUSH1 0x1F NOT PUSH1 0x1F DUP3 ADD AND SWAP1 POP DUP1 DUP4 ADD SWAP3 POP POP POP POP POP POP POP DUP2 MSTORE PUSH1 0x20 ADD DUP6 DUP6 DUP1 DUP1 PUSH1 0x1F ADD PUSH1 0x20 DUP1 SWAP2 DIV MUL PUSH1 0x20 ADD PUSH1 0x40 MLOAD SWAP1 DUP2 ADD PUSH1 0x40 MSTORE DUP1 SWAP4 SWAP3 SWAP2 SWAP1 DUP2 DUP2 MSTORE PUSH1 0x20 ADD DUP4 DUP4 DUP1 DUP3 DUP5 CALLDATACOPY PUSH0 DUP2 DUP5 ADD MSTORE PUSH1 0x1F NOT PUSH1 0x1F DUP3 ADD AND SWAP1 POP DUP1 DUP4 ADD SWAP3 POP POP POP POP POP POP POP DUP2 MSTORE PUSH1 0x20 ADD PUSH1 0x2 PUSH1 0x3 DUP2 GT ISZERO PUSH2 0xB56 JUMPI PUSH2 0xB55 PUSH2 0x27C5 JUMP JUMPDEST JUMPDEST DUP2 MSTORE POP SWAP1 POP PUSH0 PUSH1 0x4 SLOAD SWAP1 POP DUP3 PUSH0 DUP1 DUP4 DUP2 MSTORE PUSH1 0x20 ADD SWAP1 DUP2 MSTORE PUSH1 0x20 ADD PUSH0 KECCAK256 DUP2 SWAP1 SSTORE POP DUP2 PUSH1 0x5 PUSH0 DUP4 DUP2 MSTORE PUSH1 0x20 ADD SWAP1 DUP2 MSTORE PUSH1 0x20 ADD PUSH0 KECCAK256 PUSH0 DUP3 ADD MLOAD DUP2 PUSH0 ADD SWAP1 DUP2 PUSH2 0xB9B SWAP2 SWAP1 PUSH2 0x2E62 JUMP JUMPDEST POP PUSH1 0x20 DUP3 ADD MLOAD DUP2 PUSH1 0x1 ADD SWAP1 DUP2 PUSH2 0xBB1 SWAP2 SWAP1 PUSH2 0x2E62 JUMP JUMPDEST POP PUSH1 0x40 DUP3 ADD MLOAD DUP2 PUSH1 0x2 ADD PUSH0 PUSH2 0x100 EXP DUP2 SLOAD DUP2 PUSH1 0xFF MUL NOT AND SWAP1 DUP4 PUSH1 0x3 DUP2 GT ISZERO PUSH2 0xBDC JUMPI PUSH2 0xBDB PUSH2 0x27C5 JUMP JUMPDEST JUMPDEST MUL OR SWAP1 SSTORE POP SWAP1 POP POP CALLER PUSH1 0x7 PUSH0 DUP4 DUP2 MSTORE PUSH1 0x20 ADD SWAP1 DUP2 MSTORE PUSH1 0x20 ADD PUSH0 KECCAK256 PUSH0 PUSH2 0x100 EXP DUP2 SLOAD DUP2 PUSH20 0xFFFFFFFFFFFFFFFFFFFFFFFFFFFFFFFFFFFFFFFF MUL NOT AND SWAP1 DUP4 PUSH20 0xFFFFFFFFFFFFFFFFFFFFFFFFFFFFFFFFFFFFFFFF AND MUL OR SWAP1 SSTORE POP PUSH1 0x1 DUP4 PUSH2 0xC40 SWAP2 SWAP1 PUSH2 0x2B78 JUMP JUMPDEST PUSH1 0x4 PUSH0 DUP3 DUP3 SLOAD PUSH2 0xC50 SWAP2 SWAP1 PUSH2 0x2B78 JUMP JUMPDEST SWAP3 POP POP DUP2 SWAP1 SSTORE POP DUP1 DUP6 DUP6 PUSH1 0x40 MLOAD PUSH2 0xC68 SWAP3 SWAP2 SWAP1 PUSH2 0x30D6 JUMP JUMPDEST PUSH1 0x40 MLOAD DUP1 SWAP2 SUB SWAP1 KECCAK256 DUP9 DUP9 PUSH1 0x40 MLOAD PUSH2 0xC80 SWAP3 SWAP2 SWAP1 PUSH2 0x30D6 JUMP JUMPDEST PUSH1 0x40 MLOAD DUP1 SWAP2 SUB SWAP1 KECCAK256 PUSH32 0xE4E2DD35E175B51F02AAE07806C301807C1B9181A0614E23DF9DFA67E7142CD1 DUP7 PUSH1 0x40 MLOAD PUSH2 0xCB7 SWAP2 SWAP1 PUSH2 0x244E JUMP JUMPDEST PUSH1 0x40 MLOAD DUP1 SWAP2 SUB SWAP1 LOG4 POP POP POP POP POP POP POP JUMP JUMPDEST PUSH0 PUSH1 0x40 MLOAD DUP1 PUSH1 0x60 ADD PUSH1 0x40 MSTORE DUP1 DUP9 DUP9 DUP1 DUP1 PUSH1 0x1F ADD PUSH1 0x20 DUP1 SWAP2 DIV MUL PUSH1 0x20 ADD PUSH1 0x40 MLOAD SWAP1 DUP2 ADD PUSH1 0x40 MSTORE DUP1 SWAP4 SWAP3 SWAP2 SWAP1 DUP2 DUP2 MSTORE PUSH1 0x20 ADD DUP4 DUP4 DUP1 DUP3 DUP5 CALLDATACOPY PUSH0 DUP2 DUP5 ADD MSTORE PUSH1 0x1F NOT PUSH1 0x1F DUP3 ADD AND SWAP1 POP DUP1 DUP4 ADD SWAP3 POP POP POP POP POP POP POP DUP2 MSTORE PUSH1 0x20 ADD DUP7 DUP7 DUP1 DUP1 PUSH1 0x1F ADD PUSH1 0x20 DUP1 SWAP2 DIV MUL PUSH1 0x20 ADD PUSH1 0x40 MLOAD SWAP1 DUP2 ADD PUSH1 0x40 MSTORE DUP1 SWAP4 SWAP3 SWAP2 SWAP1 DUP2 DUP2 MSTORE PUSH1 0x20 ADD DUP4 DUP4 DUP1 DUP3 DUP5 CALLDATACOPY PUSH0 DUP2 DUP5 ADD MSTORE PUSH1 0x1F NOT PUSH1 0x1F DUP3 ADD AND SWAP1 POP DUP1 DUP4 ADD SWAP3 POP POP POP POP POP POP POP DUP2 MSTORE PUSH1 0x20 ADD PUSH1 0x1 PUSH1 0x3 DUP2 GT ISZERO PUSH2 0xD7A JUMPI PUSH2 0xD79 PUSH2 0x27C5 JUMP JUMPDEST JUMPDEST DUP2 MSTORE POP SWAP1 POP PUSH0 PUSH1 0x4 SLOAD SWAP1 POP DUP4 PUSH0 DUP1 DUP4 DUP2 MSTORE PUSH1 0x20 ADD SWAP1 DUP2 MSTORE PUSH1 0x20 ADD PUSH0 KECCAK256 DUP2 SWAP1 SSTORE POP DUP2 PUSH1 0x5 PUSH0 DUP4 DUP2 MSTORE PUSH1 0x20 ADD SWAP1 DUP2 MSTORE PUSH1 0x20 ADD PUSH0 KECCAK256 PUSH0 DUP3 ADD MLOAD DUP2 PUSH0 ADD SWAP1 DUP2 PUSH2 0xDBF SWAP2 SWAP1 PUSH2 0x2E62 JUMP JUMPDEST POP PUSH1 0x20 DUP3 ADD MLOAD DUP2 PUSH1 0x1 ADD SWAP1 DUP2 PUSH2 0xDD5 SWAP2 SWAP1 PUSH2 0x2E62 JUMP JUMPDEST POP PUSH1 0x40 DUP3 ADD MLOAD DUP2 PUSH1 0x2 ADD PUSH0 PUSH2 0x100 EXP DUP2 SLOAD DUP2 PUSH1 0xFF MUL NOT AND SWAP1 DUP4 PUSH1 0x3 DUP2 GT ISZERO PUSH2 0xE00 JUMPI PUSH2 0xDFF PUSH2 0x27C5 JUMP JUMPDEST JUMPDEST MUL OR SWAP1 SSTORE POP SWAP1 POP POP DUP4 PUSH1 0x1 PUSH0 DUP6 PUSH20 0xFFFFFFFFFFFFFFFFFFFFFFFFFFFFFFFFFFFFFFFF AND PUSH20 0xFFFFFFFFFFFFFFFFFFFFFFFFFFFFFFFFFFFFFFFF AND DUP2 MSTORE PUSH1 0x20 ADD SWAP1 DUP2 MSTORE PUSH1 0x20 ADD PUSH0 KECCAK256 PUSH0 DUP4 DUP2 MSTORE PUSH1 0x20 ADD SWAP1 DUP2 MSTORE PUSH1 0x20 ADD PUSH0 KECCAK256 DUP2 SWAP1 SSTORE POP CALLER PUSH1 0x7 PUSH0 DUP4 DUP2 MSTORE PUSH1 0x20 ADD SWAP1 DUP2 MSTORE PUSH1 0x20 ADD PUSH0 KECCAK256 PUSH0 PUSH2 0x100 EXP DUP2 SLOAD DUP2 PUSH20 0xFFFFFFFFFFFFFFFFFFFFFFFFFFFFFFFFFFFFFFFF MUL NOT AND SWAP1 DUP4 PUSH20 0xFFFFFFFFFFFFFFFFFFFFFFFFFFFFFFFFFFFFFFFF AND MUL OR SWAP1 SSTORE POP PUSH1 0x1 PUSH1 0x4 PUSH0 DUP3 DUP3 SLOAD PUSH2 0xEBA SWAP2 SWAP1 PUSH2 0x2B78 JUMP JUMPDEST SWAP3 POP POP DUP2 SWAP1 SSTORE POP DUP1 DUP7 DUP7 PUSH1 0x40 MLOAD PUSH2 0xED2 SWAP3 SWAP2 SWAP1 PUSH2 0x30D6 JUMP JUMPDEST PUSH1 0x40 MLOAD DUP1 SWAP2 SUB SWAP1 KECCAK256 DUP10 DUP10 PUSH1 0x40 MLOAD PUSH2 0xEEA SWAP3 SWAP2 SWAP1 PUSH2 0x30D6 JUMP JUMPDEST PUSH1 0x40 MLOAD DUP1 SWAP2 SUB SWAP1 KECCAK256 PUSH32 0x263D8ABADF2A89BB2E2C9D65FF421F068882B46CC779F5DB9E2B52AD97ED21B4 DUP8 PUSH1 0x40 MLOAD PUSH2 0xF21 SWAP2 SWAP1 PUSH2 0x244E JUMP JUMPDEST PUSH1 0x40 MLOAD DUP1 SWAP2 SUB SWAP1 LOG4 POP POP POP POP POP POP POP POP JUMP JUMPDEST PUSH0 DUP2 PUSH20 0xFFFFFFFFFFFFFFFFFFFFFFFFFFFFFFFFFFFFFFFF AND SWAP1 POP PUSH1 0x1 PUSH1 0x9 PUSH0 DUP4 DUP2 MSTORE PUSH1 0x20 ADD SWAP1 DUP2 MSTORE PUSH1 0x20 ADD PUSH0 KECCAK256 PUSH0 PUSH2 0x100 EXP DUP2 SLOAD DUP2 PUSH1 0xFF MUL NOT AND SWAP1 DUP4 ISZERO ISZERO MUL OR SWAP1 SSTORE POP DUP1 DUP3 PUSH20 0xFFFFFFFFFFFFFFFFFFFFFFFFFFFFFFFFFFFFFFFF AND PUSH32 0x5B3D0D66CD77C80FBA853CABA07AB174C47C6B13523C3418292B88C5A85272C0 PUSH1 0x40 MLOAD PUSH1 0x40 MLOAD DUP1 SWAP2 SUB SWAP1 LOG3 POP POP JUMP JUMPDEST PUSH1 0x5 PUSH1 0x20 MSTORE DUP1 PUSH0 MSTORE PUSH1 0x40 PUSH0 KECCAK256 PUSH0 SWAP2 POP SWAP1 POP DUP1 PUSH0 ADD DUP1 SLOAD PUSH2 0xFDD SWAP1 PUSH2 0x2C95 JUMP JUMPDEST DUP1 PUSH1 0x1F ADD PUSH1 0x20 DUP1 SWAP2 DIV MUL PUSH1 0x20 ADD PUSH1 0x40 MLOAD SWAP1 DUP2 ADD PUSH1 0x40 MSTORE DUP1 SWAP3 SWAP2 SWAP1 DUP2 DUP2 MSTORE PUSH1 0x20 ADD DUP3 DUP1 SLOAD PUSH2 0x1009 SWAP1 PUSH2 0x2C95 JUMP JUMPDEST DUP1 ISZERO PUSH2 0x1054 JUMPI DUP1 PUSH1 0x1F LT PUSH2 0x102B JUMPI PUSH2 0x100 DUP1 DUP4 SLOAD DIV MUL DUP4 MSTORE SWAP2 PUSH1 0x20 ADD SWAP2 PUSH2 0x1054 JUMP JUMPDEST DUP3 ADD SWAP2 SWAP1 PUSH0 MSTORE PUSH1 0x20 PUSH0 KECCAK256 SWAP1 JUMPDEST DUP2 SLOAD DUP2 MSTORE SWAP1 PUSH1 0x1 ADD SWAP1 PUSH1 0x20 ADD DUP1 DUP4 GT PUSH2 0x1037 JUMPI DUP3 SWAP1 SUB PUSH1 0x1F AND DUP3 ADD SWAP2 JUMPDEST POP POP POP POP POP SWAP1 DUP1 PUSH1 0x1 ADD DUP1 SLOAD PUSH2 0x1069 SWAP1 PUSH2 0x2C95 JUMP JUMPDEST DUP1 PUSH1 0x1F ADD PUSH1 0x20 DUP1 SWAP2 DIV MUL PUSH1 0x20 ADD PUSH1 0x40 MLOAD SWAP1 DUP2 ADD PUSH1 0x40 MSTORE DUP1 SWAP3 SWAP2 SWAP1 DUP2 DUP2 MSTORE PUSH1 0x20 ADD DUP3 DUP1 SLOAD PUSH2 0x1095 SWAP1 PUSH2 0x2C95 JUMP JUMPDEST DUP1 ISZERO PUSH2 0x10E0 JUMPI DUP1 PUSH1 0x1F LT PUSH2 0x10B7 JUMPI PUSH2 0x100 DUP1 DUP4 SLOAD DIV MUL DUP4 MSTORE SWAP2 PUSH1 0x20 ADD SWAP2 PUSH2 0x10E0 JUMP JUMPDEST DUP3 ADD SWAP2 SWAP1 PUSH0 MSTORE PUSH1 0x20 PUSH0 KECCAK256 SWAP1 JUMPDEST DUP2 SLOAD DUP2 MSTORE SWAP1 PUSH1 0x1 ADD SWAP1 PUSH1 0x20 ADD DUP1 DUP4 GT PUSH2 0x10C3 JUMPI DUP3 SWAP1 SUB PUSH1 0x1F AND DUP3 ADD SWAP2 JUMPDEST POP POP POP POP POP SWAP1 DUP1 PUSH1 0x2 ADD PUSH0 SWAP1 SLOAD SWAP1 PUSH2 0x100 EXP SWAP1 DIV PUSH1 0xFF AND SWAP1 POP DUP4 JUMP JUMPDEST DUP1 PUSH1 0x2 PUSH0 CALLER PUSH20 0xFFFFFFFFFFFFFFFFFFFFFFFFFFFFFFFFFFFFFFFF AND PUSH20 0xFFFFFFFFFFFFFFFFFFFFFFFFFFFFFFFFFFFFFFFF AND DUP2 MSTORE PUSH1 0x20 ADD SWAP1 DUP2 MSTORE PUSH1 0x20 ADD PUSH0 KECCAK256 PUSH0 DUP6 PUSH20 0xFFFFFFFFFFFFFFFFFFFFFFFFFFFFFFFFFFFFFFFF AND PUSH20 0xFFFFFFFFFFFFFFFFFFFFFFFFFFFFFFFFFFFFFFFF AND DUP2 MSTORE PUSH1 0x20 ADD SWAP1 DUP2 MSTORE PUSH1 0x20 ADD PUSH0 KECCAK256 PUSH0 DUP5 DUP2 MSTORE PUSH1 0x20 ADD SWAP1 DUP2 MSTORE PUSH1 0x20 ADD PUSH0 KECCAK256 DUP2 SWAP1 SSTORE POP DUP2 DUP4 PUSH20 0xFFFFFFFFFFFFFFFFFFFFFFFFFFFFFFFFFFFFFFFF AND CALLER PUSH20 0xFFFFFFFFFFFFFFFFFFFFFFFFFFFFFFFFFFFFFFFF AND PUSH32 0xB3FD5071835887567A0671151121894DDCCC2842F1D10BEDAD13E0D17CACE9A7 DUP5 PUSH1 0x40 MLOAD PUSH2 0x11E6 SWAP2 SWAP1 PUSH2 0x244E JUMP JUMPDEST PUSH1 0x40 MLOAD DUP1 SWAP2 SUB SWAP1 LOG4 POP POP POP JUMP JUMPDEST DUP1 PUSH1 0x3 PUSH0 CALLER PUSH20 0xFFFFFFFFFFFFFFFFFFFFFFFFFFFFFFFFFFFFFFFF AND PUSH20 0xFFFFFFFFFFFFFFFFFFFFFFFFFFFFFFFFFFFFFFFF AND DUP2 MSTORE PUSH1 0x20 ADD SWAP1 DUP2 MSTORE PUSH1 0x20 ADD PUSH0 KECCAK256 PUSH0 DUP5 PUSH20 0xFFFFFFFFFFFFFFFFFFFFFFFFFFFFFFFFFFFFFFFF AND PUSH20 0xFFFFFFFFFFFFFFFFFFFFFFFFFFFFFFFFFFFFFFFF AND DUP2 MSTORE PUSH1 0x20 ADD SWAP1 DUP2 MSTORE PUSH1 0x20 ADD PUSH0 KECCAK256 PUSH0 PUSH2 0x100 EXP DUP2 SLOAD DUP2 PUSH1 0xFF MUL NOT AND SWAP1 DUP4 ISZERO ISZERO MUL OR SWAP1 SSTORE POP DUP2 PUSH20 0xFFFFFFFFFFFFFFFFFFFFFFFFFFFFFFFFFFFFFFFF AND CALLER PUSH20 0xFFFFFFFFFFFFFFFFFFFFFFFFFFFFFFFFFFFFFFFF AND PUSH32 0xCEB576D9F15E4E200FDB5096D64D5DFD667E16DEF20C1EEFD14256D8E3FAA267 DUP4 PUSH1 0x40 MLOAD PUSH2 0x12DF SWAP2 SWAP1 PUSH2 0x2501 JUMP JUMPDEST PUSH1 0x40 MLOAD DUP1 SWAP2 SUB SWAP1 LOG3 POP POP JUMP JUMPDEST PUSH1 0x7 PUSH1 0x20 MSTORE DUP1 PUSH0 MSTORE PUSH1 0x40 PUSH0 KECCAK256 PUSH0 SWAP2 POP SLOAD SWAP1 PUSH2 0x100 EXP SWAP1 DIV PUSH20 0xFFFFFFFFFFFFFFFFFFFFFFFFFFFFFFFFFFFFFFFF AND DUP2 JUMP JUMPDEST PUSH1 0x2 PUSH1 0x20 MSTORE DUP3 PUSH0 MSTORE PUSH1 0x40 PUSH0 KECCAK256 PUSH1 0x20 MSTORE DUP2 PUSH0 MSTORE PUSH1 0x40 PUSH0 KECCAK256 PUSH1 0x20 MSTORE DUP1 PUSH0 MSTORE PUSH1 0x40 PUSH0 KECCAK256 PUSH0 SWAP3 POP SWAP3 POP POP POP SLOAD DUP2 JUMP JUMPDEST PUSH1 0x8 PUSH1 0x20 MSTORE DUP1 PUSH0 MSTORE PUSH1 0x40 PUSH0 KECCAK256 PUSH0 SWAP2 POP SLOAD SWAP1 PUSH2 0x100 EXP SWAP1 DIV PUSH20 0xFFFFFFFFFFFFFFFFFFFFFFFFFFFFFFFFFFFFFFFF AND DUP2 JUMP JUMPDEST PUSH0 DUP2 PUSH2 0x13AC JUMPI DUP4 DUP4 PUSH1 0x40 MLOAD PUSH1 0x20 ADD PUSH2 0x138F SWAP3 SWAP2 SWAP1 PUSH2 0x2C10 JUMP JUMPDEST PUSH1 0x40 MLOAD PUSH1 0x20 DUP2 DUP4 SUB SUB DUP2 MSTORE SWAP1 PUSH1 0x40 MSTORE DUP1 MLOAD SWAP1 PUSH1 0x20 ADD KECCAK256 PUSH0 SHR PUSH2 0x13C4 JUMP JUMPDEST DUP4 PUSH20 0xFFFFFFFFFFFFFFFFFFFFFFFFFFFFFFFFFFFFFFFF AND JUMPDEST SWAP1 POP SWAP4 SWAP3 POP POP POP JUMP JUMPDEST PUSH0 DUP3 DUP3 PUSH1 0x40 MLOAD PUSH1 0x20 ADD PUSH2 0x13E1 SWAP3 SWAP2 SWAP1 PUSH2 0x2C10 JUMP JUMPDEST PUSH1 0x40 MLOAD PUSH1 0x20 DUP2 DUP4 SUB SUB DUP2 MSTORE SWAP1 PUSH1 0x40 MSTORE DUP1 MLOAD SWAP1 PUSH1 0x20 ADD KECCAK256 PUSH0 SHR SWAP1 POP PUSH0 DUP4 PUSH20 0xFFFFFFFFFFFFFFFFFFFFFFFFFFFFFFFFFFFFFFFF AND PUSH4 0x6FDDE03 PUSH1 0x40 MLOAD DUP2 PUSH4 0xFFFFFFFF AND PUSH1 0xE0 SHL DUP2 MSTORE PUSH1 0x4 ADD PUSH0 PUSH1 0x40 MLOAD DUP1 DUP4 SUB DUP2 DUP7 GAS STATICCALL ISZERO DUP1 ISZERO PUSH2 0x1444 JUMPI RETURNDATASIZE PUSH0 DUP1 RETURNDATACOPY RETURNDATASIZE PUSH0 REVERT JUMPDEST POP POP POP POP PUSH1 0x40 MLOAD RETURNDATASIZE PUSH0 DUP3 RETURNDATACOPY RETURNDATASIZE PUSH1 0x1F NOT PUSH1 0x1F DUP3 ADD AND DUP3 ADD DUP1 PUSH1 0x40 MSTORE POP DUP2 ADD SWAP1 PUSH2 0x146C SWAP2 SWAP1 PUSH2 0x301E JUMP JUMPDEST SWAP1 POP PUSH0 DUP5 PUSH20 0xFFFFFFFFFFFFFFFFFFFFFFFFFFFFFFFFFFFFFFFF AND PUSH4 0x95D89B41 PUSH1 0x40 MLOAD DUP2 PUSH4 0xFFFFFFFF AND PUSH1 0xE0 SHL DUP2 MSTORE PUSH1 0x4 ADD PUSH0 PUSH1 0x40 MLOAD DUP1 DUP4 SUB DUP2 DUP7 GAS STATICCALL ISZERO DUP1 ISZERO PUSH2 0x14B7 JUMPI RETURNDATASIZE PUSH0 DUP1 RETURNDATACOPY RETURNDATASIZE PUSH0 REVERT JUMPDEST POP POP POP POP PUSH1 0x40 MLOAD RETURNDATASIZE PUSH0 DUP3 RETURNDATACOPY RETURNDATASIZE PUSH1 0x1F NOT PUSH1 0x1F DUP3 ADD AND DUP3 ADD DUP1 PUSH1 0x40 MSTORE POP DUP2 ADD SWAP1 PUSH2 0x14DF SWAP2 SWAP1 PUSH2 0x301E JUMP JUMPDEST SWAP1 POP PUSH1 0x1 DUP1 PUSH0 CALLER PUSH20 0xFFFFFFFFFFFFFFFFFFFFFFFFFFFFFFFFFFFFFFFF AND PUSH20 0xFFFFFFFFFFFFFFFFFFFFFFFFFFFFFFFFFFFFFFFF AND DUP2 MSTORE PUSH1 0x20 ADD SWAP1 DUP2 MSTORE PUSH1 0x20 ADD PUSH0 KECCAK256 PUSH0 DUP6 DUP2 MSTORE PUSH1 0x20 ADD SWAP1 DUP2 MSTORE PUSH1 0x20 ADD PUSH0 KECCAK256 DUP2 SWAP1 SSTORE POP PUSH1 0x1 PUSH0 DUP1 DUP6 DUP2 MSTORE PUSH1 0x20 ADD SWAP1 DUP2 MSTORE PUSH1 0x20 ADD PUSH0 KECCAK256 DUP2 SWAP1 SSTORE POP PUSH1 0x40 MLOAD DUP1 PUSH1 0x60 ADD PUSH1 0x40 MSTORE DUP1 DUP4 DUP2 MSTORE PUSH1 0x20 ADD DUP3 DUP2 MSTORE PUSH1 0x20 ADD PUSH1 0x2 PUSH1 0x3 DUP2 GT ISZERO PUSH2 0x1573 JUMPI PUSH2 0x1572 PUSH2 0x27C5 JUMP JUMPDEST JUMPDEST DUP2 MSTORE POP PUSH1 0x5 PUSH0 DUP6 DUP2 MSTORE PUSH1 0x20 ADD SWAP1 DUP2 MSTORE PUSH1 0x20 ADD PUSH0 KECCAK256 PUSH0 DUP3 ADD MLOAD DUP2 PUSH0 ADD SWAP1 DUP2 PUSH2 0x159A SWAP2 SWAP1 PUSH2 0x2E62 JUMP JUMPDEST POP PUSH1 0x20 DUP3 ADD MLOAD DUP2 PUSH1 0x1 ADD SWAP1 DUP2 PUSH2 0x15B0 SWAP2 SWAP1 PUSH2 0x2E62 JUMP JUMPDEST POP PUSH1 0x40 DUP3 ADD MLOAD DUP2 PUSH1 0x2 ADD PUSH0 PUSH2 0x100 EXP DUP2 SLOAD DUP2 PUSH1 0xFF MUL NOT AND SWAP1 DUP4 PUSH1 0x3 DUP2 GT ISZERO PUSH2 0x15DB JUMPI PUSH2 0x15DA PUSH2 0x27C5 JUMP JUMPDEST JUMPDEST MUL OR SWAP1 SSTORE POP SWAP1 POP POP DUP5 PUSH20 0xFFFFFFFFFFFFFFFFFFFFFFFFFFFFFFFFFFFFFFFF AND PUSH4 0xC87B56DD DUP6 PUSH1 0x40 MLOAD DUP3 PUSH4 0xFFFFFFFF AND PUSH1 0xE0 SHL DUP2 MSTORE PUSH1 0x4 ADD PUSH2 0x161C SWAP2 SWAP1 PUSH2 0x244E JUMP JUMPDEST PUSH0 PUSH1 0x40 MLOAD DUP1 DUP4 SUB DUP2 DUP7 GAS STATICCALL ISZERO DUP1 ISZERO PUSH2 0x1636 JUMPI RETURNDATASIZE PUSH0 DUP1 RETURNDATACOPY RETURNDATASIZE PUSH0 REVERT JUMPDEST POP POP POP POP PUSH1 0x40 MLOAD RETURNDATASIZE PUSH0 DUP3 RETURNDATACOPY RETURNDATASIZE PUSH1 0x1F NOT PUSH1 0x1F DUP3 ADD AND DUP3 ADD DUP1 PUSH1 0x40 MSTORE POP DUP2 ADD SWAP1 PUSH2 0x165E SWAP2 SWAP1 PUSH2 0x301E JUMP JUMPDEST PUSH1 0x6 PUSH0 DUP6 DUP2 MSTORE PUSH1 0x20 ADD SWAP1 DUP2 MSTORE PUSH1 0x20 ADD PUSH0 KECCAK256 SWAP1 DUP2 PUSH2 0x167B SWAP2 SWAP1 PUSH2 0x2E62 JUMP JUMPDEST POP CALLER PUSH1 0x8 PUSH0 DUP6 DUP2 MSTORE PUSH1 0x20 ADD SWAP1 DUP2 MSTORE PUSH1 0x20 ADD PUSH0 KECCAK256 PUSH0 PUSH2 0x100 EXP DUP2 SLOAD DUP2 PUSH20 0xFFFFFFFFFFFFFFFFFFFFFFFFFFFFFFFFFFFFFFFF MUL NOT AND SWAP1 DUP4 PUSH20 0xFFFFFFFFFFFFFFFFFFFFFFFFFFFFFFFFFFFFFFFF AND MUL OR SWAP1 SSTORE POP DUP5 PUSH20 0xFFFFFFFFFFFFFFFFFFFFFFFFFFFFFFFFFFFFFFFF AND PUSH4 0x23B872DD CALLER ADDRESS DUP8 PUSH1 0x40 MLOAD DUP5 PUSH4 0xFFFFFFFF AND PUSH1 0xE0 SHL DUP2 MSTORE PUSH1 0x4 ADD PUSH2 0x1708 SWAP4 SWAP3 SWAP2 SWAP1 PUSH2 0x3065 JUMP JUMPDEST PUSH0 PUSH1 0x40 MLOAD DUP1 DUP4 SUB DUP2 PUSH0 DUP8 DUP1 EXTCODESIZE ISZERO DUP1 ISZERO PUSH2 0x171F JUMPI PUSH0 DUP1 REVERT JUMPDEST POP GAS CALL ISZERO DUP1 ISZERO PUSH2 0x1731 JUMPI RETURNDATASIZE PUSH0 DUP1 RETURNDATACOPY RETURNDATASIZE PUSH0 REVERT JUMPDEST POP POP POP POP POP POP POP POP POP JUMP JUMPDEST PUSH2 0x178B DUP6 DUP6 DUP6 DUP6 DUP1 DUP1 PUSH1 0x1F ADD PUSH1 0x20 DUP1 SWAP2 DIV MUL PUSH1 0x20 ADD PUSH1 0x40 MLOAD SWAP1 DUP2 ADD PUSH1 0x40 MSTORE DUP1 SWAP4 SWAP3 SWAP2 SWAP1 DUP2 DUP2 MSTORE PUSH1 0x20 ADD DUP4 DUP4 DUP1 DUP3 DUP5 CALLDATACOPY PUSH0 DUP2 DUP5 ADD MSTORE PUSH1 0x1F NOT PUSH1 0x1F DUP3 ADD AND SWAP1 POP DUP1 DUP4 ADD SWAP3 POP POP POP POP POP POP POP DUP5 PUSH2 0x208B JUMP JUMPDEST POP POP POP POP POP JUMP JUMPDEST PUSH1 0x4 SLOAD DUP2 JUMP JUMPDEST PUSH0 DUP3 DUP3 PUSH1 0x40 MLOAD PUSH1 0x20 ADD PUSH2 0x17AC SWAP3 SWAP2 SWAP1 PUSH2 0x2C10 JUMP JUMPDEST PUSH1 0x40 MLOAD PUSH1 0x20 DUP2 DUP4 SUB SUB DUP2 MSTORE SWAP1 PUSH1 0x40 MSTORE DUP1 MLOAD SWAP1 PUSH1 0x20 ADD KECCAK256 PUSH0 SHR SWAP1 POP PUSH1 0x1 PUSH1 0x9 PUSH0 DUP4 DUP2 MSTORE PUSH1 0x20 ADD SWAP1 DUP2 MSTORE PUSH1 0x20 ADD PUSH0 KECCAK256 PUSH0 PUSH2 0x100 EXP DUP2 SLOAD DUP2 PUSH1 0xFF MUL NOT AND SWAP1 DUP4 ISZERO ISZERO MUL OR SWAP1 SSTORE POP DUP1 DUP4 PUSH20 0xFFFFFFFFFFFFFFFFFFFFFFFFFFFFFFFFFFFFFFFF AND PUSH32 0x42C699E356D055085063365A4E84C9E98C43D151C68D72EBC3F611D697810A76 PUSH1 0x40 MLOAD PUSH1 0x40 MLOAD DUP1 SWAP2 SUB SWAP1 LOG3 POP POP POP JUMP JUMPDEST PUSH0 DUP3 PUSH20 0xFFFFFFFFFFFFFFFFFFFFFFFFFFFFFFFFFFFFFFFF AND SWAP1 POP PUSH0 DUP4 PUSH20 0xFFFFFFFFFFFFFFFFFFFFFFFFFFFFFFFFFFFFFFFF AND PUSH4 0x6FDDE03 PUSH1 0x40 MLOAD DUP2 PUSH4 0xFFFFFFFF AND PUSH1 0xE0 SHL DUP2 MSTORE PUSH1 0x4 ADD PUSH0 PUSH1 0x40 MLOAD DUP1 DUP4 SUB DUP2 DUP7 GAS STATICCALL ISZERO DUP1 ISZERO PUSH2 0x189B JUMPI RETURNDATASIZE PUSH0 DUP1 RETURNDATACOPY RETURNDATASIZE PUSH0 REVERT JUMPDEST POP POP POP POP PUSH1 0x40 MLOAD RETURNDATASIZE PUSH0 DUP3 RETURNDATACOPY RETURNDATASIZE PUSH1 0x1F NOT PUSH1 0x1F DUP3 ADD AND DUP3 ADD DUP1 PUSH1 0x40 MSTORE POP DUP2 ADD SWAP1 PUSH2 0x18C3 SWAP2 SWAP1 PUSH2 0x301E JUMP JUMPDEST SWAP1 POP PUSH0 DUP5 PUSH20 0xFFFFFFFFFFFFFFFFFFFFFFFFFFFFFFFFFFFFFFFF AND PUSH4 0x95D89B41 PUSH1 0x40 MLOAD DUP2 PUSH4 0xFFFFFFFF AND PUSH1 0xE0 SHL DUP2 MSTORE PUSH1 0x4 ADD PUSH0 PUSH1 0x40 MLOAD DUP1 DUP4 SUB DUP2 DUP7 GAS STATICCALL ISZERO DUP1 ISZERO PUSH2 0x190E JUMPI RETURNDATASIZE PUSH0 DUP1 RETURNDATACOPY RETURNDATASIZE PUSH0 REVERT JUMPDEST POP POP POP POP PUSH1 0x40 MLOAD RETURNDATASIZE PUSH0 DUP3 RETURNDATACOPY RETURNDATASIZE PUSH1 0x1F NOT PUSH1 0x1F DUP3 ADD AND DUP3 ADD DUP1 PUSH1 0x40 MSTORE POP DUP2 ADD SWAP1 PUSH2 0x1936 SWAP2 SWAP1 PUSH2 0x301E JUMP JUMPDEST SWAP1 POP DUP4 PUSH1 0x1 PUSH0 CALLER PUSH20 0xFFFFFFFFFFFFFFFFFFFFFFFFFFFFFFFFFFFFFFFF AND PUSH20 0xFFFFFFFFFFFFFFFFFFFFFFFFFFFFFFFFFFFFFFFF AND DUP2 MSTORE PUSH1 0x20 ADD SWAP1 DUP2 MSTORE PUSH1 0x20 ADD PUSH0 KECCAK256 PUSH0 DUP6 DUP2 MSTORE PUSH1 0x20 ADD SWAP1 DUP2 MSTORE PUSH1 0x20 ADD PUSH0 KECCAK256 PUSH0 DUP3 DUP3 SLOAD PUSH2 0x1993 SWAP2 SWAP1 PUSH2 0x2B78 JUMP JUMPDEST SWAP3 POP POP DUP2 SWAP1 SSTORE POP DUP4 PUSH0 DUP1 DUP6 DUP2 MSTORE PUSH1 0x20 ADD SWAP1 DUP2 MSTORE PUSH1 0x20 ADD PUSH0 KECCAK256 PUSH0 DUP3 DUP3 SLOAD PUSH2 0x19B9 SWAP2 SWAP1 PUSH2 0x2B78 JUMP JUMPDEST SWAP3 POP POP DUP2 SWAP1 SSTORE POP PUSH1 0x40 MLOAD DUP1 PUSH1 0x60 ADD PUSH1 0x40 MSTORE DUP1 DUP4 DUP2 MSTORE PUSH1 0x20 ADD DUP3 DUP2 MSTORE PUSH1 0x20 ADD PUSH1 0x1 PUSH1 0x3 DUP2 GT ISZERO PUSH2 0x19EB JUMPI PUSH2 0x19EA PUSH2 0x27C5 JUMP JUMPDEST JUMPDEST DUP2 MSTORE POP PUSH1 0x5 PUSH0 DUP6 DUP2 MSTORE PUSH1 0x20 ADD SWAP1 DUP2 MSTORE PUSH1 0x20 ADD PUSH0 KECCAK256 PUSH0 DUP3 ADD MLOAD DUP2 PUSH0 ADD SWAP1 DUP2 PUSH2 0x1A12 SWAP2 SWAP1 PUSH2 0x2E62 JUMP JUMPDEST POP PUSH1 0x20 DUP3 ADD MLOAD DUP2 PUSH1 0x1 ADD SWAP1 DUP2 PUSH2 0x1A28 SWAP2 SWAP1 PUSH2 0x2E62 JUMP JUMPDEST POP PUSH1 0x40 DUP3 ADD MLOAD DUP2 PUSH1 0x2 ADD PUSH0 PUSH2 0x100 EXP DUP2 SLOAD DUP2 PUSH1 0xFF MUL NOT AND SWAP1 DUP4 PUSH1 0x3 DUP2 GT ISZERO PUSH2 0x1A53 JUMPI PUSH2 0x1A52 PUSH2 0x27C5 JUMP JUMPDEST JUMPDEST MUL OR SWAP1 SSTORE POP SWAP1 POP POP DUP5 PUSH20 0xFFFFFFFFFFFFFFFFFFFFFFFFFFFFFFFFFFFFFFFF AND PUSH4 0xA9059CBB CALLER DUP7 PUSH1 0x40 MLOAD DUP4 PUSH4 0xFFFFFFFF AND PUSH1 0xE0 SHL DUP2 MSTORE PUSH1 0x4 ADD PUSH2 0x1A96 SWAP3 SWAP2 SWAP1 PUSH2 0x2AF1 JUMP JUMPDEST PUSH1 0x20 PUSH1 0x40 MLOAD DUP1 DUP4 SUB DUP2 PUSH0 DUP8 GAS CALL ISZERO DUP1 ISZERO PUSH2 0x1AB2 JUMPI RETURNDATASIZE PUSH0 DUP1 RETURNDATACOPY RETURNDATASIZE PUSH0 REVERT JUMPDEST POP POP POP POP PUSH1 0x40 MLOAD RETURNDATASIZE PUSH1 0x1F NOT PUSH1 0x1F DUP3 ADD AND DUP3 ADD DUP1 PUSH1 0x40 MSTORE POP DUP2 ADD SWAP1 PUSH2 0x1AD6 SWAP2 SWAP1 PUSH2 0x3102 JUMP JUMPDEST PUSH2 0x1B19 JUMPI DUP5 DUP5 PUSH1 0x40 MLOAD PUSH32 0x29B46A3000000000000000000000000000000000000000000000000000000000 DUP2 MSTORE PUSH1 0x4 ADD PUSH2 0x1B10 SWAP3 SWAP2 SWAP1 PUSH2 0x2AF1 JUMP JUMPDEST PUSH1 0x40 MLOAD DUP1 SWAP2 SUB SWAP1 REVERT JUMPDEST POP POP POP POP POP JUMP JUMPDEST PUSH0 DUP3 DUP3 PUSH1 0x40 MLOAD PUSH1 0x20 ADD PUSH2 0x1B34 SWAP3 SWAP2 SWAP1 PUSH2 0x2C10 JUMP JUMPDEST PUSH1 0x40 MLOAD PUSH1 0x20 DUP2 DUP4 SUB SUB DUP2 MSTORE SWAP1 PUSH1 0x40 MSTORE DUP1 MLOAD SWAP1 PUSH1 0x20 ADD KECCAK256 PUSH0 SHR SWAP1 POP PUSH1 0x1 PUSH1 0x9 PUSH0 DUP4 DUP2 MSTORE PUSH1 0x20 ADD SWAP1 DUP2 MSTORE PUSH1 0x20 ADD PUSH0 KECCAK256 PUSH0 PUSH2 0x100 EXP DUP2 SLOAD DUP2 PUSH1 0xFF MUL NOT AND SWAP1 DUP4 ISZERO ISZERO MUL OR SWAP1 SSTORE POP DUP1 DUP4 PUSH20 0xFFFFFFFFFFFFFFFFFFFFFFFFFFFFFFFFFFFFFFFF AND PUSH32 0xFA5C2EE785B78E697C290A0923BAD9F131CCD33F1241BC40181177121EBD8195 PUSH1 0x40 MLOAD PUSH1 0x40 MLOAD DUP1 SWAP2 SUB SWAP1 LOG3 POP POP POP JUMP JUMPDEST PUSH1 0x3 PUSH1 0x20 MSTORE DUP2 PUSH0 MSTORE PUSH1 0x40 PUSH0 KECCAK256 PUSH1 0x20 MSTORE DUP1 PUSH0 MSTORE PUSH1 0x40 PUSH0 KECCAK256 PUSH0 SWAP2 POP SWAP2 POP SWAP1 SLOAD SWAP1 PUSH2 0x100 EXP SWAP1 DIV PUSH1 0xFF AND DUP2 JUMP JUMPDEST PUSH0 PUSH1 0x20 MSTORE DUP1 PUSH0 MSTORE PUSH1 0x40 PUSH0 KECCAK256 PUSH0 SWAP2 POP SWAP1 POP SLOAD DUP2 JUMP JUMPDEST PUSH1 0x6 PUSH1 0x20 MSTORE DUP1 PUSH0 MSTORE PUSH1 0x40 PUSH0 KECCAK256 PUSH0 SWAP2 POP SWAP1 POP DUP1 SLOAD PUSH2 0x1C1A SWAP1 PUSH2 0x2C95 JUMP JUMPDEST DUP1 PUSH1 0x1F ADD PUSH1 0x20 DUP1 SWAP2 DIV MUL PUSH1 0x20 ADD PUSH1 0x40 MLOAD SWAP1 DUP2 ADD PUSH1 0x40 MSTORE DUP1 SWAP3 SWAP2 SWAP1 DUP2 DUP2 MSTORE PUSH1 0x20 ADD DUP3 DUP1 SLOAD PUSH2 0x1C46 SWAP1 PUSH2 0x2C95 JUMP JUMPDEST DUP1 ISZERO PUSH2 0x1C91 JUMPI DUP1 PUSH1 0x1F LT PUSH2 0x1C68 JUMPI PUSH2 0x100 DUP1 DUP4 SLOAD DIV MUL DUP4 MSTORE SWAP2 PUSH1 0x20 ADD SWAP2 PUSH2 0x1C91 JUMP JUMPDEST DUP3 ADD SWAP2 SWAP1 PUSH0 MSTORE PUSH1 0x20 PUSH0 KECCAK256 SWAP1 JUMPDEST DUP2 SLOAD DUP2 MSTORE SWAP1 PUSH1 0x1 ADD SWAP1 PUSH1 0x20 ADD DUP1 DUP4 GT PUSH2 0x1C74 JUMPI DUP3 SWAP1 SUB PUSH1 0x1F AND DUP3 ADD SWAP2 JUMPDEST POP POP POP POP POP DUP2 JUMP JUMPDEST CALLER PUSH20 0xFFFFFFFFFFFFFFFFFFFFFFFFFFFFFFFFFFFFFFFF AND DUP5 PUSH20 0xFFFFFFFFFFFFFFFFFFFFFFFFFFFFFFFFFFFFFFFF AND EQ ISZERO DUP1 ISZERO PUSH2 0x1D57 JUMPI POP PUSH1 0x3 PUSH0 DUP6 PUSH20 0xFFFFFFFFFFFFFFFFFFFFFFFFFFFFFFFFFFFFFFFF AND PUSH20 0xFFFFFFFFFFFFFFFFFFFFFFFFFFFFFFFFFFFFFFFF AND DUP2 MSTORE PUSH1 0x20 ADD SWAP1 DUP2 MSTORE PUSH1 0x20 ADD PUSH0 KECCAK256 PUSH0 CALLER PUSH20 0xFFFFFFFFFFFFFFFFFFFFFFFFFFFFFFFFFFFFFFFF AND PUSH20 0xFFFFFFFFFFFFFFFFFFFFFFFFFFFFFFFFFFFFFFFF AND DUP2 MSTORE PUSH1 0x20 ADD SWAP1 DUP2 MSTORE PUSH1 0x20 ADD PUSH0 KECCAK256 PUSH0 SWAP1 SLOAD SWAP1 PUSH2 0x100 EXP SWAP1 DIV PUSH1 0xFF AND ISZERO JUMPDEST ISZERO PUSH2 0x1EC8 JUMPI DUP1 PUSH1 0x2 PUSH0 DUP7 PUSH20 0xFFFFFFFFFFFFFFFFFFFFFFFFFFFFFFFFFFFFFFFF AND PUSH20 0xFFFFFFFFFFFFFFFFFFFFFFFFFFFFFFFFFFFFFFFF AND DUP2 MSTORE PUSH1 0x20 ADD SWAP1 DUP2 MSTORE PUSH1 0x20 ADD PUSH0 KECCAK256 PUSH0 CALLER PUSH20 0xFFFFFFFFFFFFFFFFFFFFFFFFFFFFFFFFFFFFFFFF AND PUSH20 0xFFFFFFFFFFFFFFFFFFFFFFFFFFFFFFFFFFFFFFFF AND DUP2 MSTORE PUSH1 0x20 ADD SWAP1 DUP2 MSTORE PUSH1 0x20 ADD PUSH0 KECCAK256 PUSH0 DUP5 DUP2 MSTORE PUSH1 0x20 ADD SWAP1 DUP2 MSTORE PUSH1 0x20 ADD PUSH0 KECCAK256 SLOAD LT ISZERO PUSH2 0x1E2A JUMPI CALLER DUP3 PUSH1 0x40 MLOAD PUSH32 0x731555BD00000000000000000000000000000000000000000000000000000000 DUP2 MSTORE PUSH1 0x4 ADD PUSH2 0x1E21 SWAP3 SWAP2 SWAP1 PUSH2 0x2AF1 JUMP JUMPDEST PUSH1 0x40 MLOAD DUP1 SWAP2 SUB SWAP1 REVERT JUMPDEST DUP1 PUSH1 0x2 PUSH0 DUP7 PUSH20 0xFFFFFFFFFFFFFFFFFFFFFFFFFFFFFFFFFFFFFFFF AND PUSH20 0xFFFFFFFFFFFFFFFFFFFFFFFFFFFFFFFFFFFFFFFF AND DUP2 MSTORE PUSH1 0x20 ADD SWAP1 DUP2 MSTORE PUSH1 0x20 ADD PUSH0 KECCAK256 PUSH0 CALLER PUSH20 0xFFFFFFFFFFFFFFFFFFFFFFFFFFFFFFFFFFFFFFFF AND PUSH20 0xFFFFFFFFFFFFFFFFFFFFFFFFFFFFFFFFFFFFFFFF AND DUP2 MSTORE PUSH1 0x20 ADD SWAP1 DUP2 MSTORE PUSH1 0x20 ADD PUSH0 KECCAK256 PUSH0 DUP5 DUP2 MSTORE PUSH1 0x20 ADD SWAP1 DUP2 MSTORE PUSH1 0x20 ADD PUSH0 KECCAK256 PUSH0 DUP3 DUP3 SLOAD PUSH2 0x1EC0 SWAP2 SWAP1 PUSH2 0x2B45 JUMP JUMPDEST SWAP3 POP POP DUP2 SWAP1 SSTORE POP JUMPDEST DUP1 PUSH1 0x1 PUSH0 DUP7 PUSH20 0xFFFFFFFFFFFFFFFFFFFFFFFFFFFFFFFFFFFFFFFF AND PUSH20 0xFFFFFFFFFFFFFFFFFFFFFFFFFFFFFFFFFFFFFFFF AND DUP2 MSTORE PUSH1 0x20 ADD SWAP1 DUP2 MSTORE PUSH1 0x20 ADD PUSH0 KECCAK256 PUSH0 DUP5 DUP2 MSTORE PUSH1 0x20 ADD SWAP1 DUP2 MSTORE PUSH1 0x20 ADD PUSH0 KECCAK256 SLOAD LT ISZERO PUSH2 0x1F5B JUMPI DUP4 DUP3 PUSH1 0x40 MLOAD PUSH32 0xF6DEAA0400000000000000000000000000000000000000000000000000000000 DUP2 MSTORE PUSH1 0x4 ADD PUSH2 0x1F52 SWAP3 SWAP2 SWAP1 PUSH2 0x2AF1 JUMP JUMPDEST PUSH1 0x40 MLOAD DUP1 SWAP2 SUB SWAP1 REVERT JUMPDEST DUP1 PUSH1 0x1 PUSH0 DUP7 PUSH20 0xFFFFFFFFFFFFFFFFFFFFFFFFFFFFFFFFFFFFFFFF AND PUSH20 0xFFFFFFFFFFFFFFFFFFFFFFFFFFFFFFFFFFFFFFFF AND DUP2 MSTORE PUSH1 0x20 ADD SWAP1 DUP2 MSTORE PUSH1 0x20 ADD PUSH0 KECCAK256 PUSH0 DUP5 DUP2 MSTORE PUSH1 0x20 ADD SWAP1 DUP2 MSTORE PUSH1 0x20 ADD PUSH0 KECCAK256 PUSH0 DUP3 DUP3 SLOAD PUSH2 0x1FB6 SWAP2 SWAP1 PUSH2 0x2B45 JUMP JUMPDEST SWAP3 POP POP DUP2 SWAP1 SSTORE POP DUP1 PUSH1 0x1 PUSH0 DUP6 PUSH20 0xFFFFFFFFFFFFFFFFFFFFFFFFFFFFFFFFFFFFFFFF AND PUSH20 0xFFFFFFFFFFFFFFFFFFFFFFFFFFFFFFFFFFFFFFFF AND DUP2 MSTORE PUSH1 0x20 ADD SWAP1 DUP2 MSTORE PUSH1 0x20 ADD PUSH0 KECCAK256 PUSH0 DUP5 DUP2 MSTORE PUSH1 0x20 ADD SWAP1 DUP2 MSTORE PUSH1 0x20 ADD PUSH0 KECCAK256 PUSH0 DUP3 DUP3 SLOAD PUSH2 0x2018 SWAP2 SWAP1 PUSH2 0x2B78 JUMP JUMPDEST SWAP3 POP POP DUP2 SWAP1 SSTORE POP DUP2 DUP4 PUSH20 0xFFFFFFFFFFFFFFFFFFFFFFFFFFFFFFFFFFFFFFFF AND DUP6 PUSH20 0xFFFFFFFFFFFFFFFFFFFFFFFFFFFFFFFFFFFFFFFF AND PUSH32 0x9ED053BB818FF08B8353CD46F78DB1F0799F31C9E4458FDB425C10ECCD2EFC44 DUP5 PUSH1 0x40 MLOAD PUSH2 0x207D SWAP2 SWAP1 PUSH2 0x244E JUMP JUMPDEST PUSH1 0x40 MLOAD DUP1 SWAP2 SUB SWAP1 LOG4 POP POP POP POP JUMP JUMPDEST PUSH1 0x2 PUSH1 0x3 DUP2 GT ISZERO PUSH2 0x209F JUMPI PUSH2 0x209E PUSH2 0x27C5 JUMP JUMPDEST JUMPDEST PUSH1 0x5 PUSH0 DUP7 DUP2 MSTORE PUSH1 0x20 ADD SWAP1 DUP2 MSTORE PUSH1 0x20 ADD PUSH0 KECCAK256 PUSH1 0x2 ADD PUSH0 SWAP1 SLOAD SWAP1 PUSH2 0x100 EXP SWAP1 DIV PUSH1 0xFF AND PUSH1 0x3 DUP2 GT ISZERO PUSH2 0x20D2 JUMPI PUSH2 0x20D1 PUSH2 0x27C5 JUMP JUMPDEST JUMPDEST EQ PUSH2 0x2112 JUMPI PUSH1 0x40 MLOAD PUSH32 0x8C379A000000000000000000000000000000000000000000000000000000000 DUP2 MSTORE PUSH1 0x4 ADD PUSH2 0x2109 SWAP1 PUSH2 0x3177 JUMP JUMPDEST PUSH1 0x40 MLOAD DUP1 SWAP2 SUB SWAP1 REVERT JUMPDEST PUSH0 DUP4 DUP6 PUSH2 0x211F SWAP2 SWAP1 PUSH2 0x2B78 JUMP JUMPDEST SWAP1 POP PUSH0 PUSH20 0xFFFFFFFFFFFFFFFFFFFFFFFFFFFFFFFFFFFFFFFF AND PUSH1 0x8 PUSH0 DUP4 DUP2 MSTORE PUSH1 0x20 ADD SWAP1 DUP2 MSTORE PUSH1 0x20 ADD PUSH0 KECCAK256 PUSH0 SWAP1 SLOAD SWAP1 PUSH2 0x100 EXP SWAP1 DIV PUSH20 0xFFFFFFFFFFFFFFFFFFFFFFFFFFFFFFFFFFFFFFFF AND PUSH20 0xFFFFFFFFFFFFFFFFFFFFFFFFFFFFFFFFFFFFFFFF AND EQ PUSH2 0x21BF JUMPI PUSH1 0x40 MLOAD PUSH32 0x8C379A000000000000000000000000000000000000000000000000000000000 DUP2 MSTORE PUSH1 0x4 ADD PUSH2 0x21B6 SWAP1 PUSH2 0x31DF JUMP JUMPDEST PUSH1 0x40 MLOAD DUP1 SWAP2 SUB SWAP1 REVERT JUMPDEST PUSH0 DUP1 DUP7 DUP2 MSTORE PUSH1 0x20 ADD SWAP1 DUP2 MSTORE PUSH1 0x20 ADD PUSH0 KECCAK256 SLOAD DUP6 PUSH2 0x21DB SWAP2 SWAP1 PUSH2 0x2B78 JUMP JUMPDEST DUP2 GT ISZERO PUSH2 0x221D JUMPI PUSH1 0x40 MLOAD PUSH32 0x8C379A000000000000000000000000000000000000000000000000000000000 DUP2 MSTORE PUSH1 0x4 ADD PUSH2 0x2214 SWAP1 PUSH2 0x3247 JUMP JUMPDEST PUSH1 0x40 MLOAD DUP1 SWAP2 SUB SWAP1 REVERT JUMPDEST DUP5 DUP2 SUB PUSH2 0x225F JUMPI PUSH1 0x40 MLOAD PUSH32 0x8C379A000000000000000000000000000000000000000000000000000000000 DUP2 MSTORE PUSH1 0x4 ADD PUSH2 0x2256 SWAP1 PUSH2 0x32FB JUMP JUMPDEST PUSH1 0x40 MLOAD DUP1 SWAP2 SUB SWAP1 REVERT JUMPDEST PUSH1 0x1 PUSH0 DUP4 PUSH20 0xFFFFFFFFFFFFFFFFFFFFFFFFFFFFFFFFFFFFFFFF AND PUSH20 0xFFFFFFFFFFFFFFFFFFFFFFFFFFFFFFFFFFFFFFFF AND DUP2 MSTORE PUSH1 0x20 ADD SWAP1 DUP2 MSTORE PUSH1 0x20 ADD PUSH0 KECCAK256 PUSH0 DUP7 DUP2 MSTORE PUSH1 0x20 ADD SWAP1 DUP2 MSTORE PUSH1 0x20 ADD PUSH0 KECCAK256 PUSH0 DUP2 SLOAD DUP1 SWAP3 SWAP2 SWAP1 PUSH2 0x22BB SWAP1 PUSH2 0x3319 JUMP JUMPDEST SWAP2 SWAP1 POP SSTORE POP DUP3 PUSH1 0x6 PUSH0 DUP4 DUP2 MSTORE PUSH1 0x20 ADD SWAP1 DUP2 MSTORE PUSH1 0x20 ADD PUSH0 KECCAK256 SWAP1 DUP2 PUSH2 0x22DE SWAP2 SWAP1 PUSH2 0x2E62 JUMP JUMPDEST POP DUP2 PUSH1 0x8 PUSH0 DUP4 DUP2 MSTORE PUSH1 0x20 ADD SWAP1 DUP2 MSTORE PUSH1 0x20 ADD PUSH0 KECCAK256 PUSH0 PUSH2 0x100 EXP DUP2 SLOAD DUP2 PUSH20 0xFFFFFFFFFFFFFFFFFFFFFFFFFFFFFFFFFFFFFFFF MUL NOT AND SWAP1 DUP4 PUSH20 0xFFFFFFFFFFFFFFFFFFFFFFFFFFFFFFFFFFFFFFFF AND MUL OR SWAP1 SSTORE POP DUP1 DUP6 PUSH32 0x678B5F168892E2BF516FC9CA84C58D7315E2F6D5606C651E5DCD8EE43905B116 PUSH1 0x40 MLOAD PUSH1 0x40 MLOAD DUP1 SWAP2 SUB SWAP1 LOG3 POP POP POP POP POP JUMP JUMPDEST PUSH0 PUSH1 0x40 MLOAD SWAP1 POP SWAP1 JUMP JUMPDEST PUSH0 DUP1 REVERT JUMPDEST PUSH0 DUP1 REVERT JUMPDEST PUSH0 PUSH20 0xFFFFFFFFFFFFFFFFFFFFFFFFFFFFFFFFFFFFFFFF DUP3 AND SWAP1 POP SWAP2 SWAP1 POP JUMP JUMPDEST PUSH0 PUSH2 0x239D DUP3 PUSH2 0x2374 JUMP JUMPDEST SWAP1 POP SWAP2 SWAP1 POP JUMP JUMPDEST PUSH2 0x23AD DUP2 PUSH2 0x2393 JUMP JUMPDEST DUP2 EQ PUSH2 0x23B7 JUMPI PUSH0 DUP1 REVERT JUMPDEST POP JUMP JUMPDEST PUSH0 DUP2 CALLDATALOAD SWAP1 POP PUSH2 0x23C8 DUP2 PUSH2 0x23A4 JUMP JUMPDEST SWAP3 SWAP2 POP POP JUMP JUMPDEST PUSH0 DUP2 SWAP1 POP SWAP2 SWAP1 POP JUMP JUMPDEST PUSH2 0x23E0 DUP2 PUSH2 0x23CE JUMP JUMPDEST DUP2 EQ PUSH2 0x23EA JUMPI PUSH0 DUP1 REVERT JUMPDEST POP JUMP JUMPDEST PUSH0 DUP2 CALLDATALOAD SWAP1 POP PUSH2 0x23FB DUP2 PUSH2 0x23D7 JUMP JUMPDEST SWAP3 SWAP2 POP POP JUMP JUMPDEST PUSH0 DUP1 PUSH1 0x40 DUP4 DUP6 SUB SLT ISZERO PUSH2 0x2417 JUMPI PUSH2 0x2416 PUSH2 0x236C JUMP JUMPDEST JUMPDEST PUSH0 PUSH2 0x2424 DUP6 DUP3 DUP7 ADD PUSH2 0x23BA JUMP JUMPDEST SWAP3 POP POP PUSH1 0x20 PUSH2 0x2435 DUP6 DUP3 DUP7 ADD PUSH2 0x23ED JUMP JUMPDEST SWAP2 POP POP SWAP3 POP SWAP3 SWAP1 POP JUMP JUMPDEST PUSH2 0x2448 DUP2 PUSH2 0x23CE JUMP JUMPDEST DUP3 MSTORE POP POP JUMP JUMPDEST PUSH0 PUSH1 0x20 DUP3 ADD SWAP1 POP PUSH2 0x2461 PUSH0 DUP4 ADD DUP5 PUSH2 0x243F JUMP JUMPDEST SWAP3 SWAP2 POP POP JUMP JUMPDEST PUSH0 PUSH32 0xFFFFFFFF00000000000000000000000000000000000000000000000000000000 DUP3 AND SWAP1 POP SWAP2 SWAP1 POP JUMP JUMPDEST PUSH2 0x249B DUP2 PUSH2 0x2467 JUMP JUMPDEST DUP2 EQ PUSH2 0x24A5 JUMPI PUSH0 DUP1 REVERT JUMPDEST POP JUMP JUMPDEST PUSH0 DUP2 CALLDATALOAD SWAP1 POP PUSH2 0x24B6 DUP2 PUSH2 0x2492 JUMP JUMPDEST SWAP3 SWAP2 POP POP JUMP JUMPDEST PUSH0 PUSH1 0x20 DUP3 DUP5 SUB SLT ISZERO PUSH2 0x24D1 JUMPI PUSH2 0x24D0 PUSH2 0x236C JUMP JUMPDEST JUMPDEST PUSH0 PUSH2 0x24DE DUP5 DUP3 DUP6 ADD PUSH2 0x24A8 JUMP JUMPDEST SWAP2 POP POP SWAP3 SWAP2 POP POP JUMP JUMPDEST PUSH0 DUP2 ISZERO ISZERO SWAP1 POP SWAP2 SWAP1 POP JUMP JUMPDEST PUSH2 0x24FB DUP2 PUSH2 0x24E7 JUMP JUMPDEST DUP3 MSTORE POP POP JUMP JUMPDEST PUSH0 PUSH1 0x20 DUP3 ADD SWAP1 POP PUSH2 0x2514 PUSH0 DUP4 ADD DUP5 PUSH2 0x24F2 JUMP JUMPDEST SWAP3 SWAP2 POP POP JUMP JUMPDEST PUSH0 PUSH1 0x20 DUP3 DUP5 SUB SLT ISZERO PUSH2 0x252F JUMPI PUSH2 0x252E PUSH2 0x236C JUMP JUMPDEST JUMPDEST PUSH0 PUSH2 0x253C DUP5 DUP3 DUP6 ADD PUSH2 0x23ED JUMP JUMPDEST SWAP2 POP POP SWAP3 SWAP2 POP POP JUMP JUMPDEST PUSH0 DUP1 PUSH0 PUSH1 0x60 DUP5 DUP7 SUB SLT ISZERO PUSH2 0x255C JUMPI PUSH2 0x255B PUSH2 0x236C JUMP JUMPDEST JUMPDEST PUSH0 PUSH2 0x2569 DUP7 DUP3 DUP8 ADD PUSH2 0x23BA JUMP JUMPDEST SWAP4 POP POP PUSH1 0x20 PUSH2 0x257A DUP7 DUP3 DUP8 ADD PUSH2 0x23ED JUMP JUMPDEST SWAP3 POP POP PUSH1 0x40 PUSH2 0x258B DUP7 DUP3 DUP8 ADD PUSH2 0x23ED JUMP JUMPDEST SWAP2 POP POP SWAP3 POP SWAP3 POP SWAP3 JUMP JUMPDEST PUSH0 DUP1 REVERT JUMPDEST PUSH0 DUP1 REVERT JUMPDEST PUSH0 DUP1 REVERT JUMPDEST PUSH0 DUP1 DUP4 PUSH1 0x1F DUP5 ADD SLT PUSH2 0x25B6 JUMPI PUSH2 0x25B5 PUSH2 0x2595 JUMP JUMPDEST JUMPDEST DUP3 CALLDATALOAD SWAP1 POP PUSH8 0xFFFFFFFFFFFFFFFF DUP2 GT ISZERO PUSH2 0x25D3 JUMPI PUSH2 0x25D2 PUSH2 0x2599 JUMP JUMPDEST JUMPDEST PUSH1 0x20 DUP4 ADD SWAP2 POP DUP4 PUSH1 0x1 DUP3 MUL DUP4 ADD GT ISZERO PUSH2 0x25EF JUMPI PUSH2 0x25EE PUSH2 0x259D JUMP JUMPDEST JUMPDEST SWAP3 POP SWAP3 SWAP1 POP JUMP JUMPDEST PUSH0 DUP1 PUSH0 DUP1 PUSH0 PUSH1 0x60 DUP7 DUP9 SUB SLT ISZERO PUSH2 0x260F JUMPI PUSH2 0x260E PUSH2 0x236C JUMP JUMPDEST JUMPDEST PUSH0 DUP7 ADD CALLDATALOAD PUSH8 0xFFFFFFFFFFFFFFFF DUP2 GT ISZERO PUSH2 0x262C JUMPI PUSH2 0x262B PUSH2 0x2370 JUMP JUMPDEST JUMPDEST PUSH2 0x2638 DUP9 DUP3 DUP10 ADD PUSH2 0x25A1 JUMP JUMPDEST SWAP6 POP SWAP6 POP POP PUSH1 0x20 DUP7 ADD CALLDATALOAD PUSH8 0xFFFFFFFFFFFFFFFF DUP2 GT ISZERO PUSH2 0x265B JUMPI PUSH2 0x265A PUSH2 0x2370 JUMP JUMPDEST JUMPDEST PUSH2 0x2667 DUP9 DUP3 DUP10 ADD PUSH2 0x25A1 JUMP JUMPDEST SWAP4 POP SWAP4 POP POP PUSH1 0x40 PUSH2 0x267A DUP9 DUP3 DUP10 ADD PUSH2 0x23ED JUMP JUMPDEST SWAP2 POP POP SWAP3 SWAP6 POP SWAP3 SWAP6 SWAP1 SWAP4 POP JUMP JUMPDEST PUSH0 DUP1 PUSH0 DUP1 PUSH0 DUP1 PUSH1 0x80 DUP8 DUP10 SUB SLT ISZERO PUSH2 0x26A1 JUMPI PUSH2 0x26A0 PUSH2 0x236C JUMP JUMPDEST JUMPDEST PUSH0 DUP8 ADD CALLDATALOAD PUSH8 0xFFFFFFFFFFFFFFFF DUP2 GT ISZERO PUSH2 0x26BE JUMPI PUSH2 0x26BD PUSH2 0x2370 JUMP JUMPDEST JUMPDEST PUSH2 0x26CA DUP10 DUP3 DUP11 ADD PUSH2 0x25A1 JUMP JUMPDEST SWAP7 POP SWAP7 POP POP PUSH1 0x20 DUP8 ADD CALLDATALOAD PUSH8 0xFFFFFFFFFFFFFFFF DUP2 GT ISZERO PUSH2 0x26ED JUMPI PUSH2 0x26EC PUSH2 0x2370 JUMP JUMPDEST JUMPDEST PUSH2 0x26F9 DUP10 DUP3 DUP11 ADD PUSH2 0x25A1 JUMP JUMPDEST SWAP5 POP SWAP5 POP POP PUSH1 0x40 PUSH2 0x270C DUP10 DUP3 DUP11 ADD PUSH2 0x23ED JUMP JUMPDEST SWAP3 POP POP PUSH1 0x60 PUSH2 0x271D DUP10 DUP3 DUP11 ADD PUSH2 0x23BA JUMP JUMPDEST SWAP2 POP POP SWAP3 SWAP6 POP SWAP3 SWAP6 POP SWAP3 SWAP6 JUMP JUMPDEST PUSH0 PUSH1 0x20 DUP3 DUP5 SUB SLT ISZERO PUSH2 0x273F JUMPI PUSH2 0x273E PUSH2 0x236C JUMP JUMPDEST JUMPDEST PUSH0 PUSH2 0x274C DUP5 DUP3 DUP6 ADD PUSH2 0x23BA JUMP JUMPDEST SWAP2 POP POP SWAP3 SWAP2 POP POP JUMP JUMPDEST PUSH0 DUP2 MLOAD SWAP1 POP SWAP2 SWAP1 POP JUMP JUMPDEST PUSH0 DUP3 DUP3 MSTORE PUSH1 0x20 DUP3 ADD SWAP1 POP SWAP3 SWAP2 POP POP JUMP JUMPDEST DUP3 DUP2 DUP4 MCOPY PUSH0 DUP4 DUP4 ADD MSTORE POP POP POP JUMP JUMPDEST PUSH0 PUSH1 0x1F NOT PUSH1 0x1F DUP4 ADD AND SWAP1 POP SWAP2 SWAP1 POP JUMP JUMPDEST PUSH0 PUSH2 0x2797 DUP3 PUSH2 0x2755 JUMP JUMPDEST PUSH2 0x27A1 DUP2 DUP6 PUSH2 0x275F JUMP JUMPDEST SWAP4 POP PUSH2 0x27B1 DUP2 DUP6 PUSH1 0x20 DUP7 ADD PUSH2 0x276F JUMP JUMPDEST PUSH2 0x27BA DUP2 PUSH2 0x277D JUMP JUMPDEST DUP5 ADD SWAP2 POP POP SWAP3 SWAP2 POP POP JUMP JUMPDEST PUSH32 0x4E487B7100000000000000000000000000000000000000000000000000000000 PUSH0 MSTORE PUSH1 0x21 PUSH1 0x4 MSTORE PUSH1 0x24 PUSH0 REVERT JUMPDEST PUSH1 0x4 DUP2 LT PUSH2 0x2803 JUMPI PUSH2 0x2802 PUSH2 0x27C5 JUMP JUMPDEST JUMPDEST POP JUMP JUMPDEST PUSH0 DUP2 SWAP1 POP PUSH2 0x2813 DUP3 PUSH2 0x27F2 JUMP JUMPDEST SWAP2 SWAP1 POP JUMP JUMPDEST PUSH0 PUSH2 0x2822 DUP3 PUSH2 0x2806 JUMP JUMPDEST SWAP1 POP SWAP2 SWAP1 POP JUMP JUMPDEST PUSH2 0x2832 DUP2 PUSH2 0x2818 JUMP JUMPDEST DUP3 MSTORE POP POP JUMP JUMPDEST PUSH0 PUSH1 0x60 DUP3 ADD SWAP1 POP DUP2 DUP2 SUB PUSH0 DUP4 ADD MSTORE PUSH2 0x2850 DUP2 DUP7 PUSH2 0x278D JUMP JUMPDEST SWAP1 POP DUP2 DUP2 SUB PUSH1 0x20 DUP4 ADD MSTORE PUSH2 0x2864 DUP2 DUP6 PUSH2 0x278D JUMP JUMPDEST SWAP1 POP PUSH2 0x2873 PUSH1 0x40 DUP4 ADD DUP5 PUSH2 0x2829 JUMP JUMPDEST SWAP5 SWAP4 POP POP POP POP JUMP JUMPDEST PUSH2 0x2884 DUP2 PUSH2 0x24E7 JUMP JUMPDEST DUP2 EQ PUSH2 0x288E JUMPI PUSH0 DUP1 REVERT JUMPDEST POP JUMP JUMPDEST PUSH0 DUP2 CALLDATALOAD SWAP1 POP PUSH2 0x289F DUP2 PUSH2 0x287B JUMP JUMPDEST SWAP3 SWAP2 POP POP JUMP JUMPDEST PUSH0 DUP1 PUSH1 0x40 DUP4 DUP6 SUB SLT ISZERO PUSH2 0x28BB JUMPI PUSH2 0x28BA PUSH2 0x236C JUMP JUMPDEST JUMPDEST PUSH0 PUSH2 0x28C8 DUP6 DUP3 DUP7 ADD PUSH2 0x23BA JUMP JUMPDEST SWAP3 POP POP PUSH1 0x20 PUSH2 0x28D9 DUP6 DUP3 DUP7 ADD PUSH2 0x2891 JUMP JUMPDEST SWAP2 POP POP SWAP3 POP SWAP3 SWAP1 POP JUMP JUMPDEST PUSH2 0x28EC DUP2 PUSH2 0x2393 JUMP JUMPDEST DUP3 MSTORE POP POP JUMP JUMPDEST PUSH0 PUSH1 0x20 DUP3 ADD SWAP1 POP PUSH2 0x2905 PUSH0 DUP4 ADD DUP5 PUSH2 0x28E3 JUMP JUMPDEST SWAP3 SWAP2 POP POP JUMP JUMPDEST PUSH0 DUP1 PUSH0 PUSH1 0x60 DUP5 DUP7 SUB SLT ISZERO PUSH2 0x2922 JUMPI PUSH2 0x2921 PUSH2 0x236C JUMP JUMPDEST JUMPDEST PUSH0 PUSH2 0x292F DUP7 DUP3 DUP8 ADD PUSH2 0x23BA JUMP JUMPDEST SWAP4 POP POP PUSH1 0x20 PUSH2 0x2940 DUP7 DUP3 DUP8 ADD PUSH2 0x23BA JUMP JUMPDEST SWAP3 POP POP PUSH1 0x40 PUSH2 0x2951 DUP7 DUP3 DUP8 ADD PUSH2 0x23ED JUMP JUMPDEST SWAP2 POP POP SWAP3 POP SWAP3 POP SWAP3 JUMP JUMPDEST PUSH0 DUP1 PUSH0 PUSH1 0x60 DUP5 DUP7 SUB SLT ISZERO PUSH2 0x2972 JUMPI PUSH2 0x2971 PUSH2 0x236C JUMP JUMPDEST JUMPDEST PUSH0 PUSH2 0x297F DUP7 DUP3 DUP8 ADD PUSH2 0x23BA JUMP JUMPDEST SWAP4 POP POP PUSH1 0x20 PUSH2 0x2990 DUP7 DUP3 DUP8 ADD PUSH2 0x23ED JUMP JUMPDEST SWAP3 POP POP PUSH1 0x40 PUSH2 0x29A1 DUP7 DUP3 DUP8 ADD PUSH2 0x2891 JUMP JUMPDEST SWAP2 POP POP SWAP3 POP SWAP3 POP SWAP3 JUMP JUMPDEST PUSH0 DUP1 PUSH0 DUP1 PUSH0 PUSH1 0x80 DUP7 DUP9 SUB SLT ISZERO PUSH2 0x29C4 JUMPI PUSH2 0x29C3 PUSH2 0x236C JUMP JUMPDEST JUMPDEST PUSH0 PUSH2 0x29D1 DUP9 DUP3 DUP10 ADD PUSH2 0x23ED JUMP JUMPDEST SWAP6 POP POP PUSH1 0x20 PUSH2 0x29E2 DUP9 DUP3 DUP10 ADD PUSH2 0x23ED JUMP JUMPDEST SWAP5 POP POP PUSH1 0x40 DUP7 ADD CALLDATALOAD PUSH8 0xFFFFFFFFFFFFFFFF DUP2 GT ISZERO PUSH2 0x2A03 JUMPI PUSH2 0x2A02 PUSH2 0x2370 JUMP JUMPDEST JUMPDEST PUSH2 0x2A0F DUP9 DUP3 DUP10 ADD PUSH2 0x25A1 JUMP JUMPDEST SWAP4 POP SWAP4 POP POP PUSH1 0x60 PUSH2 0x2A22 DUP9 DUP3 DUP10 ADD PUSH2 0x23BA JUMP JUMPDEST SWAP2 POP POP SWAP3 SWAP6 POP SWAP3 SWAP6 SWAP1 SWAP4 POP JUMP JUMPDEST PUSH0 DUP1 PUSH1 0x40 DUP4 DUP6 SUB SLT ISZERO PUSH2 0x2A45 JUMPI PUSH2 0x2A44 PUSH2 0x236C JUMP JUMPDEST JUMPDEST PUSH0 PUSH2 0x2A52 DUP6 DUP3 DUP7 ADD PUSH2 0x23BA JUMP JUMPDEST SWAP3 POP POP PUSH1 0x20 PUSH2 0x2A63 DUP6 DUP3 DUP7 ADD PUSH2 0x23BA JUMP JUMPDEST SWAP2 POP POP SWAP3 POP SWAP3 SWAP1 POP JUMP JUMPDEST PUSH0 PUSH1 0x20 DUP3 ADD SWAP1 POP DUP2 DUP2 SUB PUSH0 DUP4 ADD MSTORE PUSH2 0x2A85 DUP2 DUP5 PUSH2 0x278D JUMP JUMPDEST SWAP1 POP SWAP3 SWAP2 POP POP JUMP JUMPDEST PUSH0 DUP1 PUSH0 DUP1 PUSH1 0x80 DUP6 DUP8 SUB SLT ISZERO PUSH2 0x2AA5 JUMPI PUSH2 0x2AA4 PUSH2 0x236C JUMP JUMPDEST JUMPDEST PUSH0 PUSH2 0x2AB2 DUP8 DUP3 DUP9 ADD PUSH2 0x23BA JUMP JUMPDEST SWAP5 POP POP PUSH1 0x20 PUSH2 0x2AC3 DUP8 DUP3 DUP9 ADD PUSH2 0x23BA JUMP JUMPDEST SWAP4 POP POP PUSH1 0x40 PUSH2 0x2AD4 DUP8 DUP3 DUP9 ADD PUSH2 0x23ED JUMP JUMPDEST SWAP3 POP POP PUSH1 0x60 PUSH2 0x2AE5 DUP8 DUP3 DUP9 ADD PUSH2 0x23ED JUMP JUMPDEST SWAP2 POP POP SWAP3 SWAP6 SWAP2 SWAP5 POP SWAP3 POP JUMP JUMPDEST PUSH0 PUSH1 0x40 DUP3 ADD SWAP1 POP PUSH2 0x2B04 PUSH0 DUP4 ADD DUP6 PUSH2 0x28E3 JUMP JUMPDEST PUSH2 0x2B11 PUSH1 0x20 DUP4 ADD DUP5 PUSH2 0x243F JUMP JUMPDEST SWAP4 SWAP3 POP POP POP JUMP JUMPDEST PUSH32 0x4E487B7100000000000000000000000000000000000000000000000000000000 PUSH0 MSTORE PUSH1 0x11 PUSH1 0x4 MSTORE PUSH1 0x24 PUSH0 REVERT JUMPDEST PUSH0 PUSH2 0x2B4F DUP3 PUSH2 0x23CE JUMP JUMPDEST SWAP2 POP PUSH2 0x2B5A DUP4 PUSH2 0x23CE JUMP JUMPDEST SWAP3 POP DUP3 DUP3 SUB SWAP1 POP DUP2 DUP2 GT ISZERO PUSH2 0x2B72 JUMPI PUSH2 0x2B71 PUSH2 0x2B18 JUMP JUMPDEST JUMPDEST SWAP3 SWAP2 POP POP JUMP JUMPDEST PUSH0 PUSH2 0x2B82 DUP3 PUSH2 0x23CE JUMP JUMPDEST SWAP2 POP PUSH2 0x2B8D DUP4 PUSH2 0x23CE JUMP JUMPDEST SWAP3 POP DUP3 DUP3 ADD SWAP1 POP DUP1 DUP3 GT ISZERO PUSH2 0x2BA5 JUMPI PUSH2 0x2BA4 PUSH2 0x2B18 JUMP JUMPDEST JUMPDEST SWAP3 SWAP2 POP POP JUMP JUMPDEST PUSH0 DUP2 PUSH1 0x60 SHL SWAP1 POP SWAP2 SWAP1 POP JUMP JUMPDEST PUSH0 PUSH2 0x2BC1 DUP3 PUSH2 0x2BAB JUMP JUMPDEST SWAP1 POP SWAP2 SWAP1 POP JUMP JUMPDEST PUSH0 PUSH2 0x2BD2 DUP3 PUSH2 0x2BB7 JUMP JUMPDEST SWAP1 POP SWAP2 SWAP1 POP JUMP JUMPDEST PUSH2 0x2BEA PUSH2 0x2BE5 DUP3 PUSH2 0x2393 JUMP JUMPDEST PUSH2 0x2BC8 JUMP JUMPDEST DUP3 MSTORE POP POP JUMP JUMPDEST PUSH0 DUP2 SWAP1 POP SWAP2 SWAP1 POP JUMP JUMPDEST PUSH2 0x2C0A PUSH2 0x2C05 DUP3 PUSH2 0x23CE JUMP JUMPDEST PUSH2 0x2BF0 JUMP JUMPDEST DUP3 MSTORE POP POP JUMP JUMPDEST PUSH0 PUSH2 0x2C1B DUP3 DUP6 PUSH2 0x2BD9 JUMP JUMPDEST PUSH1 0x14 DUP3 ADD SWAP2 POP PUSH2 0x2C2B DUP3 DUP5 PUSH2 0x2BF9 JUMP JUMPDEST PUSH1 0x20 DUP3 ADD SWAP2 POP DUP2 SWAP1 POP SWAP4 SWAP3 POP POP POP JUMP JUMPDEST PUSH32 0x4E487B7100000000000000000000000000000000000000000000000000000000 PUSH0 MSTORE PUSH1 0x41 PUSH1 0x4 MSTORE PUSH1 0x24 PUSH0 REVERT JUMPDEST PUSH32 0x4E487B7100000000000000000000000000000000000000000000000000000000 PUSH0 MSTORE PUSH1 0x22 PUSH1 0x4 MSTORE PUSH1 0x24 PUSH0 REVERT JUMPDEST PUSH0 PUSH1 0x2 DUP3 DIV SWAP1 POP PUSH1 0x1 DUP3 AND DUP1 PUSH2 0x2CAC JUMPI PUSH1 0x7F DUP3 AND SWAP2 POP JUMPDEST PUSH1 0x20 DUP3 LT DUP2 SUB PUSH2 0x2CBF JUMPI PUSH2 0x2CBE PUSH2 0x2C68 JUMP JUMPDEST JUMPDEST POP SWAP2 SWAP1 POP JUMP JUMPDEST PUSH0 DUP2 SWAP1 POP DUP2 PUSH0 MSTORE PUSH1 0x20 PUSH0 KECCAK256 SWAP1 POP SWAP2 SWAP1 POP JUMP JUMPDEST PUSH0 PUSH1 0x20 PUSH1 0x1F DUP4 ADD DIV SWAP1 POP SWAP2 SWAP1 POP JUMP JUMPDEST PUSH0 DUP3 DUP3 SHL SWAP1 POP SWAP3 SWAP2 POP POP JUMP JUMPDEST PUSH0 PUSH1 0x8 DUP4 MUL PUSH2 0x2D21 PUSH32 0xFFFFFFFFFFFFFFFFFFFFFFFFFFFFFFFFFFFFFFFFFFFFFFFFFFFFFFFFFFFFFFFF DUP3 PUSH2 0x2CE6 JUMP JUMPDEST PUSH2 0x2D2B DUP7 DUP4 PUSH2 0x2CE6 JUMP JUMPDEST SWAP6 POP DUP1 NOT DUP5 AND SWAP4 POP DUP1 DUP7 AND DUP5 OR SWAP3 POP POP POP SWAP4 SWAP3 POP POP POP JUMP JUMPDEST PUSH0 DUP2 SWAP1 POP SWAP2 SWAP1 POP JUMP JUMPDEST PUSH0 PUSH2 0x2D66 PUSH2 0x2D61 PUSH2 0x2D5C DUP5 PUSH2 0x23CE JUMP JUMPDEST PUSH2 0x2D43 JUMP JUMPDEST PUSH2 0x23CE JUMP JUMPDEST SWAP1 POP SWAP2 SWAP1 POP JUMP JUMPDEST PUSH0 DUP2 SWAP1 POP SWAP2 SWAP1 POP JUMP JUMPDEST PUSH2 0x2D7F DUP4 PUSH2 0x2D4C JUMP JUMPDEST PUSH2 0x2D93 PUSH2 0x2D8B DUP3 PUSH2 0x2D6D JUMP JUMPDEST DUP5 DUP5 SLOAD PUSH2 0x2CF2 JUMP JUMPDEST DUP3 SSTORE POP POP POP POP JUMP JUMPDEST PUSH0 SWAP1 JUMP JUMPDEST PUSH2 0x2DA7 PUSH2 0x2D9B JUMP JUMPDEST PUSH2 0x2DB2 DUP2 DUP5 DUP5 PUSH2 0x2D76 JUMP JUMPDEST POP POP POP JUMP JUMPDEST JUMPDEST DUP2 DUP2 LT ISZERO PUSH2 0x2DD5 JUMPI PUSH2 0x2DCA PUSH0 DUP3 PUSH2 0x2D9F JUMP JUMPDEST PUSH1 0x1 DUP2 ADD SWAP1 POP PUSH2 0x2DB8 JUMP JUMPDEST POP POP JUMP JUMPDEST PUSH1 0x1F DUP3 GT ISZERO PUSH2 0x2E1A JUMPI PUSH2 0x2DEB DUP2 PUSH2 0x2CC5 JUMP JUMPDEST PUSH2 0x2DF4 DUP5 PUSH2 0x2CD7 JUMP JUMPDEST DUP2 ADD PUSH1 0x20 DUP6 LT ISZERO PUSH2 0x2E03 JUMPI DUP2 SWAP1 POP JUMPDEST PUSH2 0x2E17 PUSH2 0x2E0F DUP6 PUSH2 0x2CD7 JUMP JUMPDEST DUP4 ADD DUP3 PUSH2 0x2DB7 JUMP JUMPDEST POP POP JUMPDEST POP POP POP JUMP JUMPDEST PUSH0 DUP3 DUP3 SHR SWAP1 POP SWAP3 SWAP2 POP POP JUMP JUMPDEST PUSH0 PUSH2 0x2E3A PUSH0 NOT DUP5 PUSH1 0x8 MUL PUSH2 0x2E1F JUMP JUMPDEST NOT DUP1 DUP4 AND SWAP2 POP POP SWAP3 SWAP2 POP POP JUMP JUMPDEST PUSH0 PUSH2 0x2E52 DUP4 DUP4 PUSH2 0x2E2B JUMP JUMPDEST SWAP2 POP DUP3 PUSH1 0x2 MUL DUP3 OR SWAP1 POP SWAP3 SWAP2 POP POP JUMP JUMPDEST PUSH2 0x2E6B DUP3 PUSH2 0x2755 JUMP JUMPDEST PUSH8 0xFFFFFFFFFFFFFFFF DUP2 GT ISZERO PUSH2 0x2E84 JUMPI PUSH2 0x2E83 PUSH2 0x2C3B JUMP JUMPDEST JUMPDEST PUSH2 0x2E8E DUP3 SLOAD PUSH2 0x2C95 JUMP JUMPDEST PUSH2 0x2E99 DUP3 DUP3 DUP6 PUSH2 0x2DD9 JUMP JUMPDEST PUSH0 PUSH1 0x20 SWAP1 POP PUSH1 0x1F DUP4 GT PUSH1 0x1 DUP2 EQ PUSH2 0x2ECA JUMPI PUSH0 DUP5 ISZERO PUSH2 0x2EB8 JUMPI DUP3 DUP8 ADD MLOAD SWAP1 POP JUMPDEST PUSH2 0x2EC2 DUP6 DUP3 PUSH2 0x2E47 JUMP JUMPDEST DUP7 SSTORE POP PUSH2 0x2F29 JUMP JUMPDEST PUSH1 0x1F NOT DUP5 AND PUSH2 0x2ED8 DUP7 PUSH2 0x2CC5 JUMP JUMPDEST PUSH0 JUMPDEST DUP3 DUP2 LT ISZERO PUSH2 0x2EFF JUMPI DUP5 DUP10 ADD MLOAD DUP3 SSTORE PUSH1 0x1 DUP3 ADD SWAP2 POP PUSH1 0x20 DUP6 ADD SWAP5 POP PUSH1 0x20 DUP2 ADD SWAP1 POP PUSH2 0x2EDA JUMP JUMPDEST DUP7 DUP4 LT ISZERO PUSH2 0x2F1C JUMPI DUP5 DUP10 ADD MLOAD PUSH2 0x2F18 PUSH1 0x1F DUP10 AND DUP3 PUSH2 0x2E2B JUMP JUMPDEST DUP4 SSTORE POP JUMPDEST PUSH1 0x1 PUSH1 0x2 DUP9 MUL ADD DUP9 SSTORE POP POP POP JUMPDEST POP POP POP POP POP POP JUMP JUMPDEST PUSH0 DUP1 REVERT JUMPDEST PUSH2 0x2F3E DUP3 PUSH2 0x277D JUMP JUMPDEST DUP2 ADD DUP2 DUP2 LT PUSH8 0xFFFFFFFFFFFFFFFF DUP3 GT OR ISZERO PUSH2 0x2F5D JUMPI PUSH2 0x2F5C PUSH2 0x2C3B JUMP JUMPDEST JUMPDEST DUP1 PUSH1 0x40 MSTORE POP POP POP JUMP JUMPDEST PUSH0 PUSH2 0x2F6F PUSH2 0x2363 JUMP JUMPDEST SWAP1 POP PUSH2 0x2F7B DUP3 DUP3 PUSH2 0x2F35 JUMP JUMPDEST SWAP2 SWAP1 POP JUMP JUMPDEST PUSH0 PUSH8 0xFFFFFFFFFFFFFFFF DUP3 GT ISZERO PUSH2 0x2F9A JUMPI PUSH2 0x2F99 PUSH2 0x2C3B JUMP JUMPDEST JUMPDEST PUSH2 0x2FA3 DUP3 PUSH2 0x277D JUMP JUMPDEST SWAP1 POP PUSH1 0x20 DUP2 ADD SWAP1 POP SWAP2 SWAP1 POP JUMP JUMPDEST PUSH0 PUSH2 0x2FC2 PUSH2 0x2FBD DUP5 PUSH2 0x2F80 JUMP JUMPDEST PUSH2 0x2F66 JUMP JUMPDEST SWAP1 POP DUP3 DUP2 MSTORE PUSH1 0x20 DUP2 ADD DUP5 DUP5 DUP5 ADD GT ISZERO PUSH2 0x2FDE JUMPI PUSH2 0x2FDD PUSH2 0x2F31 JUMP JUMPDEST JUMPDEST PUSH2 0x2FE9 DUP5 DUP3 DUP6 PUSH2 0x276F JUMP JUMPDEST POP SWAP4 SWAP3 POP POP POP JUMP JUMPDEST PUSH0 DUP3 PUSH1 0x1F DUP4 ADD SLT PUSH2 0x3005 JUMPI PUSH2 0x3004 PUSH2 0x2595 JUMP JUMPDEST JUMPDEST DUP2 MLOAD PUSH2 0x3015 DUP5 DUP3 PUSH1 0x20 DUP7 ADD PUSH2 0x2FB0 JUMP JUMPDEST SWAP2 POP POP SWAP3 SWAP2 POP POP JUMP JUMPDEST PUSH0 PUSH1 0x20 DUP3 DUP5 SUB SLT ISZERO PUSH2 0x3033 JUMPI PUSH2 0x3032 PUSH2 0x236C JUMP JUMPDEST JUMPDEST PUSH0 DUP3 ADD MLOAD PUSH8 0xFFFFFFFFFFFFFFFF DUP2 GT ISZERO PUSH2 0x3050 JUMPI PUSH2 0x304F PUSH2 0x2370 JUMP JUMPDEST JUMPDEST PUSH2 0x305C DUP5 DUP3 DUP6 ADD PUSH2 0x2FF1 JUMP JUMPDEST SWAP2 POP POP SWAP3 SWAP2 POP POP JUMP JUMPDEST PUSH0 PUSH1 0x60 DUP3 ADD SWAP1 POP PUSH2 0x3078 PUSH0 DUP4 ADD DUP7 PUSH2 0x28E3 JUMP JUMPDEST PUSH2 0x3085 PUSH1 0x20 DUP4 ADD DUP6 PUSH2 0x28E3 JUMP JUMPDEST PUSH2 0x3092 PUSH1 0x40 DUP4 ADD DUP5 PUSH2 0x243F JUMP JUMPDEST SWAP5 SWAP4 POP POP POP POP JUMP JUMPDEST PUSH0 DUP2 SWAP1 POP SWAP3 SWAP2 POP POP JUMP JUMPDEST DUP3 DUP2 DUP4 CALLDATACOPY PUSH0 DUP4 DUP4 ADD MSTORE POP POP POP JUMP JUMPDEST PUSH0 PUSH2 0x30BD DUP4 DUP6 PUSH2 0x309A JUMP JUMPDEST SWAP4 POP PUSH2 0x30CA DUP4 DUP6 DUP5 PUSH2 0x30A4 JUMP JUMPDEST DUP3 DUP5 ADD SWAP1 POP SWAP4 SWAP3 POP POP POP JUMP JUMPDEST PUSH0 PUSH2 0x30E2 DUP3 DUP5 DUP7 PUSH2 0x30B2 JUMP JUMPDEST SWAP2 POP DUP2 SWAP1 POP SWAP4 SWAP3 POP POP POP JUMP JUMPDEST PUSH0 DUP2 MLOAD SWAP1 POP PUSH2 0x30FC DUP2 PUSH2 0x287B JUMP JUMPDEST SWAP3 SWAP2 POP POP JUMP JUMPDEST PUSH0 PUSH1 0x20 DUP3 DUP5 SUB SLT ISZERO PUSH2 0x3117 JUMPI PUSH2 0x3116 PUSH2 0x236C JUMP JUMPDEST JUMPDEST PUSH0 PUSH2 0x3124 DUP5 DUP3 DUP6 ADD PUSH2 0x30EE JUMP JUMPDEST SWAP2 POP POP SWAP3 SWAP2 POP POP JUMP JUMPDEST PUSH32 0x54686973206173736574206973206E6F7420616E204E46540000000000000000 PUSH0 DUP3 ADD MSTORE POP JUMP JUMPDEST PUSH0 PUSH2 0x3161 PUSH1 0x18 DUP4 PUSH2 0x275F JUMP JUMPDEST SWAP2 POP PUSH2 0x316C DUP3 PUSH2 0x312D JUMP JUMPDEST PUSH1 0x20 DUP3 ADD SWAP1 POP SWAP2 SWAP1 POP JUMP JUMPDEST PUSH0 PUSH1 0x20 DUP3 ADD SWAP1 POP DUP2 DUP2 SUB PUSH0 DUP4 ADD MSTORE PUSH2 0x318E DUP2 PUSH2 0x3155 JUMP JUMPDEST SWAP1 POP SWAP2 SWAP1 POP JUMP JUMPDEST PUSH32 0x5468697320617373657420697320616C7265616479206F776E65640000000000 PUSH0 DUP3 ADD MSTORE POP JUMP JUMPDEST PUSH0 PUSH2 0x31C9 PUSH1 0x1B DUP4 PUSH2 0x275F JUMP JUMPDEST SWAP2 POP PUSH2 0x31D4 DUP3 PUSH2 0x3195 JUMP JUMPDEST PUSH1 0x20 DUP3 ADD SWAP1 POP SWAP2 SWAP1 POP JUMP JUMPDEST PUSH0 PUSH1 0x20 DUP3 ADD SWAP1 POP DUP2 DUP2 SUB PUSH0 DUP4 ADD MSTORE PUSH2 0x31F6 DUP2 PUSH2 0x31BD JUMP JUMPDEST SWAP1 POP SWAP2 SWAP1 POP JUMP JUMPDEST PUSH32 0x4173736574206D656D6265722065786365656465640000000000000000000000 PUSH0 DUP3 ADD MSTORE POP JUMP JUMPDEST PUSH0 PUSH2 0x3231 PUSH1 0x15 DUP4 PUSH2 0x275F JUMP JUMPDEST SWAP2 POP PUSH2 0x323C DUP3 PUSH2 0x31FD JUMP JUMPDEST PUSH1 0x20 DUP3 ADD SWAP1 POP SWAP2 SWAP1 POP JUMP JUMPDEST PUSH0 PUSH1 0x20 DUP3 ADD SWAP1 POP DUP2 DUP2 SUB PUSH0 DUP4 ADD MSTORE PUSH2 0x325E DUP2 PUSH2 0x3225 JUMP JUMPDEST SWAP1 POP SWAP2 SWAP1 POP JUMP JUMPDEST PUSH32 0x416E20617373657420746970206973206F6E6C7920616E206964656E74696669 PUSH0 DUP3 ADD MSTORE PUSH32 0x657220616E642063616E6E6F74206265206F776E656420617320616E20617373 PUSH1 0x20 DUP3 ADD MSTORE PUSH32 0x6574000000000000000000000000000000000000000000000000000000000000 PUSH1 0x40 DUP3 ADD MSTORE POP JUMP JUMPDEST PUSH0 PUSH2 0x32E5 PUSH1 0x42 DUP4 PUSH2 0x275F JUMP JUMPDEST SWAP2 POP PUSH2 0x32F0 DUP3 PUSH2 0x3265 JUMP JUMPDEST PUSH1 0x60 DUP3 ADD SWAP1 POP SWAP2 SWAP1 POP JUMP JUMPDEST PUSH0 PUSH1 0x20 DUP3 ADD SWAP1 POP DUP2 DUP2 SUB PUSH0 DUP4 ADD MSTORE PUSH2 0x3312 DUP2 PUSH2 0x32D9 JUMP JUMPDEST SWAP1 POP SWAP2 SWAP1 POP JUMP JUMPDEST PUSH0 PUSH2 0x3323 DUP3 PUSH2 0x23CE JUMP JUMPDEST SWAP2 POP PUSH32 0xFFFFFFFFFFFFFFFFFFFFFFFFFFFFFFFFFFFFFFFFFFFFFFFFFFFFFFFFFFFFFFFF DUP3 SUB PUSH2 0x3355 JUMPI PUSH2 0x3354 PUSH2 0x2B18 JUMP JUMPDEST JUMPDEST PUSH1 0x1 DUP3 ADD SWAP1 POP SWAP2 SWAP1 POP JUMP INVALID LOG2 PUSH5 0x6970667358 0x22 SLT KECCAK256 DUP12 PUSH13 0x19FC4430C224743970B1DE0A32 DUP2 0xD BLOCKHASH SWAP13 REVERT GAS PUSH7 0xE85D5A7150BE8D 0xC9 PUSH2 0xC664 PUSH20 0x6F6C634300081A00330000000000000000000000 "
				},
				"gasEstimates": {
					"creation": {
						"codeDepositCost": "2641200",
						"executionCost": "2860",
						"totalCost": "2644060"
					},
					"external": {
						"allowance(address,address,uint256)": "infinite",
						"approve(address,uint256,uint256)": "infinite",
						"assetMetadatas(uint256)": "infinite",
						"balanceOf(address,uint256)": "infinite",
						"createFungibleAsset(string,string,uint256,address)": "infinite",
						"createNonFungibleAsset(string,string,uint256)": "infinite",
						"creatorOf(uint256)": "2960",
						"getWrappedAssetId(address,uint256,bool)": "infinite",
						"isOperator(address,address)": "infinite",
						"mintNonFungibleAsset(uint256,uint256,string,address)": "infinite",
						"nextTip()": "2558",
						"ownerOf(uint256)": "2872",
						"registerERC1155(address,uint256)": "infinite",
						"registerERC20(address)": "26393",
						"registerERC721(address,uint256)": "infinite",
						"setOperator(address,bool)": "infinite",
						"supportsInterface(bytes4)": "721",
						"tokenURI(uint256)": "infinite",
						"totalSupply(uint256)": "infinite",
						"transfer(address,uint256,uint256)": "infinite",
						"transferFrom(address,address,uint256,uint256)": "infinite",
						"wrapERC1155(address,uint256,uint256)": "infinite",
						"wrapERC20(address,uint256)": "infinite",
						"wrapERC721(address,uint256)": "infinite",
						"wrapperRegistry(uint256)": "2853"
					},
					"internal": {
						"_mintNonFungibleAsset(uint256,uint256,string memory,address)": "infinite"
					}
				},
				"methodIdentifiers": {
					"allowance(address,address,uint256)": "598af9e7",
					"approve(address,uint256,uint256)": "426a8493",
					"assetMetadatas(uint256)": "3bdfa8ac",
					"balanceOf(address,uint256)": "00fdd58e",
					"createFungibleAsset(string,string,uint256,address)": "2fc170bb",
					"createNonFungibleAsset(string,string,uint256)": "22d4e4ad",
					"creatorOf(uint256)": "589a1743",
					"getWrappedAssetId(address,uint256,bool)": "743cdd25",
					"isOperator(address,address)": "b6363cf2",
					"mintNonFungibleAsset(uint256,uint256,string,address)": "7e3075cf",
					"nextTip()": "842fe0f6",
					"ownerOf(uint256)": "6352211e",
					"registerERC1155(address,uint256)": "91664428",
					"registerERC20(address)": "3bb810c0",
					"registerERC721(address,uint256)": "b4e6e1be",
					"setOperator(address,bool)": "558a7297",
					"supportsInterface(bytes4)": "01ffc9a7",
					"tokenURI(uint256)": "c87b56dd",
					"totalSupply(uint256)": "bd85b039",
					"transfer(address,uint256,uint256)": "095bcdb6",
					"transferFrom(address,address,uint256,uint256)": "fe99049a",
					"wrapERC1155(address,uint256,uint256)": "12c017e2",
					"wrapERC20(address,uint256)": "94548dae",
					"wrapERC721(address,uint256)": "77cb24ee",
					"wrapperRegistry(uint256)": "09266836"
				}
			},
			"storageLayout": {
				"storage": [
					{
						"astId": 423,
						"contract": "contracts/UniversalTokenContract.sol:UTC",
						"label": "totalSupply",
						"offset": 0,
						"slot": "0",
						"type": "t_mapping(t_uint256,t_uint256)"
					},
					{
						"astId": 430,
						"contract": "contracts/UniversalTokenContract.sol:UTC",
						"label": "balanceOf",
						"offset": 0,
						"slot": "1",
						"type": "t_mapping(t_address,t_mapping(t_uint256,t_uint256))"
					},
					{
						"astId": 439,
						"contract": "contracts/UniversalTokenContract.sol:UTC",
						"label": "allowance",
						"offset": 0,
						"slot": "2",
						"type": "t_mapping(t_address,t_mapping(t_address,t_mapping(t_uint256,t_uint256)))"
					},
					{
						"astId": 446,
						"contract": "contracts/UniversalTokenContract.sol:UTC",
						"label": "isOperator",
						"offset": 0,
						"slot": "3",
						"type": "t_mapping(t_address,t_mapping(t_address,t_bool))"
					},
					{
						"astId": 859,
						"contract": "contracts/UniversalTokenContract.sol:UTC",
						"label": "nextTip",
						"offset": 0,
						"slot": "4",
						"type": "t_uint256"
					},
					{
						"astId": 864,
						"contract": "contracts/UniversalTokenContract.sol:UTC",
						"label": "assetMetadatas",
						"offset": 0,
						"slot": "5",
						"type": "t_mapping(t_uint256,t_struct(AssetMetadata)805_storage)"
					},
					{
						"astId": 868,
						"contract": "contracts/UniversalTokenContract.sol:UTC",
						"label": "tokenURI",
						"offset": 0,
						"slot": "6",
						"type": "t_mapping(t_uint256,t_string_storage)"
					},
					{
						"astId": 872,
						"contract": "contracts/UniversalTokenContract.sol:UTC",
						"label": "creatorOf",
						"offset": 0,
						"slot": "7",
						"type": "t_mapping(t_uint256,t_address)"
					},
					{
						"astId": 876,
						"contract": "contracts/UniversalTokenContract.sol:UTC",
						"label": "ownerOf",
						"offset": 0,
						"slot": "8",
						"type": "t_mapping(t_uint256,t_address)"
					},
					{
						"astId": 880,
						"contract": "contracts/UniversalTokenContract.sol:UTC",
						"label": "wrapperRegistry",
						"offset": 0,
						"slot": "9",
						"type": "t_mapping(t_uint256,t_bool)"
					}
				],
				"types": {
					"t_address": {
						"encoding": "inplace",
						"label": "address",
						"numberOfBytes": "20"
					},
					"t_bool": {
						"encoding": "inplace",
						"label": "bool",
						"numberOfBytes": "1"
					},
					"t_enum(AssetType)797": {
						"encoding": "inplace",
						"label": "enum AssetType",
						"numberOfBytes": "1"
					},
					"t_mapping(t_address,t_bool)": {
						"encoding": "mapping",
						"key": "t_address",
						"label": "mapping(address => bool)",
						"numberOfBytes": "32",
						"value": "t_bool"
					},
					"t_mapping(t_address,t_mapping(t_address,t_bool))": {
						"encoding": "mapping",
						"key": "t_address",
						"label": "mapping(address => mapping(address => bool))",
						"numberOfBytes": "32",
						"value": "t_mapping(t_address,t_bool)"
					},
					"t_mapping(t_address,t_mapping(t_address,t_mapping(t_uint256,t_uint256)))": {
						"encoding": "mapping",
						"key": "t_address",
						"label": "mapping(address => mapping(address => mapping(uint256 => uint256)))",
						"numberOfBytes": "32",
						"value": "t_mapping(t_address,t_mapping(t_uint256,t_uint256))"
					},
					"t_mapping(t_address,t_mapping(t_uint256,t_uint256))": {
						"encoding": "mapping",
						"key": "t_address",
						"label": "mapping(address => mapping(uint256 => uint256))",
						"numberOfBytes": "32",
						"value": "t_mapping(t_uint256,t_uint256)"
					},
					"t_mapping(t_uint256,t_address)": {
						"encoding": "mapping",
						"key": "t_uint256",
						"label": "mapping(uint256 => address)",
						"numberOfBytes": "32",
						"value": "t_address"
					},
					"t_mapping(t_uint256,t_bool)": {
						"encoding": "mapping",
						"key": "t_uint256",
						"label": "mapping(uint256 => bool)",
						"numberOfBytes": "32",
						"value": "t_bool"
					},
					"t_mapping(t_uint256,t_string_storage)": {
						"encoding": "mapping",
						"key": "t_uint256",
						"label": "mapping(uint256 => string)",
						"numberOfBytes": "32",
						"value": "t_string_storage"
					},
					"t_mapping(t_uint256,t_struct(AssetMetadata)805_storage)": {
						"encoding": "mapping",
						"key": "t_uint256",
						"label": "mapping(uint256 => struct AssetMetadata)",
						"numberOfBytes": "32",
						"value": "t_struct(AssetMetadata)805_storage"
					},
					"t_mapping(t_uint256,t_uint256)": {
						"encoding": "mapping",
						"key": "t_uint256",
						"label": "mapping(uint256 => uint256)",
						"numberOfBytes": "32",
						"value": "t_uint256"
					},
					"t_string_storage": {
						"encoding": "bytes",
						"label": "string",
						"numberOfBytes": "32"
					},
					"t_struct(AssetMetadata)805_storage": {
						"encoding": "inplace",
						"label": "struct AssetMetadata",
						"members": [
							{
								"astId": 799,
								"contract": "contracts/UniversalTokenContract.sol:UTC",
								"label": "name",
								"offset": 0,
								"slot": "0",
								"type": "t_string_storage"
							},
							{
								"astId": 801,
								"contract": "contracts/UniversalTokenContract.sol:UTC",
								"label": "symbol",
								"offset": 0,
								"slot": "1",
								"type": "t_string_storage"
							},
							{
								"astId": 804,
								"contract": "contracts/UniversalTokenContract.sol:UTC",
								"label": "assetType",
								"offset": 0,
								"slot": "2",
								"type": "t_enum(AssetType)797"
							}
						],
						"numberOfBytes": "96"
					},
					"t_uint256": {
						"encoding": "inplace",
						"label": "uint256",
						"numberOfBytes": "32"
					}
				}
			},
			"userdoc": {
				"events": {
					"Approval(address,address,uint256,uint256)": {
						"notice": "The event emitted when an approval occurs."
					},
					"OperatorSet(address,address,bool)": {
						"notice": "The event emitted when an operator is set."
					},
					"Transfer(address,address,uint256,uint256)": {
						"notice": "The event emitted when a transfer occurs."
					}
				},
				"kind": "user",
				"methods": {
					"allowance(address,address,uint256)": {
						"notice": "Spender allowance of an id."
					},
					"approve(address,uint256,uint256)": {
						"notice": "Approves an amount of an id to a spender."
					},
					"balanceOf(address,uint256)": {
						"notice": "Owner balance of an id."
					},
					"createFungibleAsset(string,string,uint256,address)": {
						"notice": "Creates a fungible asset."
					},
					"createNonFungibleAsset(string,string,uint256)": {
						"notice": "Creates an NFT asset."
					},
					"getWrappedAssetId(address,uint256,bool)": {
						"notice": "Gets the local identifier of a wrapped token."
					},
					"isOperator(address,address)": {
						"notice": "Checks if a spender is approved by an owner as an operator."
					},
					"mintNonFungibleAsset(uint256,uint256,string,address)": {
						"notice": "Mints a Nonfungible asset. This is left the the Implementing contract to override"
					},
					"registerERC1155(address,uint256)": {
						"notice": "Registers ERC20 token for wrapping."
					},
					"registerERC20(address)": {
						"notice": "Registers ERC20 token for wrapping."
					},
					"registerERC721(address,uint256)": {
						"notice": "Registers ERC20 token for wrapping."
					},
					"setOperator(address,bool)": {
						"notice": "Sets or unsets a spender as an operator for the caller."
					},
					"supportsInterface(bytes4)": {
						"notice": "Checks if a contract implements an interface."
					},
					"totalSupply(uint256)": {
						"notice": "The total supply of each id."
					},
					"transfer(address,uint256,uint256)": {
						"notice": "Transfers an amount of an id from the caller to a receiver."
					},
					"transferFrom(address,address,uint256,uint256)": {
						"notice": "Transfers an amount of an id from a sender to a receiver."
					},
					"wrapERC1155(address,uint256,uint256)": {
						"notice": "Wraps an ERC1155 token."
					},
					"wrapERC20(address,uint256)": {
						"notice": "Wraps an ERC20 token."
					},
					"wrapERC721(address,uint256)": {
						"notice": "Wraps an ERC721 token."
					}
				},
				"version": 1
			}
		}
	}
}