{
	"contracts/ERC6909.sol": {
		"ERC6909": {
			"abi": [
				{
					"inputs": [
						{
							"internalType": "address",
							"name": "owner",
							"type": "address"
						},
						{
							"internalType": "uint256",
							"name": "id",
							"type": "uint256"
						}
					],
					"name": "InsufficientBalance",
					"type": "error"
				},
				{
					"inputs": [
						{
							"internalType": "address",
							"name": "spender",
							"type": "address"
						},
						{
							"internalType": "uint256",
							"name": "id",
							"type": "uint256"
						}
					],
					"name": "InsufficientPermission",
					"type": "error"
				},
				{
					"anonymous": false,
					"inputs": [
						{
							"indexed": true,
							"internalType": "address",
							"name": "owner",
							"type": "address"
						},
						{
							"indexed": true,
							"internalType": "address",
							"name": "spender",
							"type": "address"
						},
						{
							"indexed": true,
							"internalType": "uint256",
							"name": "id",
							"type": "uint256"
						},
						{
							"indexed": false,
							"internalType": "uint256",
							"name": "amount",
							"type": "uint256"
						}
					],
					"name": "Approval",
					"type": "event"
				},
				{
					"anonymous": false,
					"inputs": [
						{
							"indexed": true,
							"internalType": "address",
							"name": "owner",
							"type": "address"
						},
						{
							"indexed": true,
							"internalType": "address",
							"name": "spender",
							"type": "address"
						},
						{
							"indexed": false,
							"internalType": "bool",
							"name": "approved",
							"type": "bool"
						}
					],
					"name": "OperatorSet",
					"type": "event"
				},
				{
					"anonymous": false,
					"inputs": [
						{
							"indexed": true,
							"internalType": "address",
							"name": "sender",
							"type": "address"
						},
						{
							"indexed": true,
							"internalType": "address",
							"name": "receiver",
							"type": "address"
						},
						{
							"indexed": true,
							"internalType": "uint256",
							"name": "id",
							"type": "uint256"
						},
						{
							"indexed": false,
							"internalType": "uint256",
							"name": "amount",
							"type": "uint256"
						}
					],
					"name": "Transfer",
					"type": "event"
				},
				{
					"inputs": [
						{
							"internalType": "address",
							"name": "owner",
							"type": "address"
						},
						{
							"internalType": "address",
							"name": "spender",
							"type": "address"
						},
						{
							"internalType": "uint256",
							"name": "id",
							"type": "uint256"
						}
					],
					"name": "allowance",
					"outputs": [
						{
							"internalType": "uint256",
							"name": "amount",
							"type": "uint256"
						}
					],
					"stateMutability": "view",
					"type": "function"
				},
				{
					"inputs": [
						{
							"internalType": "address",
							"name": "spender",
							"type": "address"
						},
						{
							"internalType": "uint256",
							"name": "id",
							"type": "uint256"
						},
						{
							"internalType": "uint256",
							"name": "amount",
							"type": "uint256"
						}
					],
					"name": "approve",
					"outputs": [],
					"stateMutability": "nonpayable",
					"type": "function"
				},
				{
					"inputs": [
						{
							"internalType": "address",
							"name": "owner",
							"type": "address"
						},
						{
							"internalType": "uint256",
							"name": "id",
							"type": "uint256"
						}
					],
					"name": "balanceOf",
					"outputs": [
						{
							"internalType": "uint256",
							"name": "amount",
							"type": "uint256"
						}
					],
					"stateMutability": "view",
					"type": "function"
				},
				{
					"inputs": [
						{
							"internalType": "address",
							"name": "owner",
							"type": "address"
						},
						{
							"internalType": "address",
							"name": "spender",
							"type": "address"
						}
					],
					"name": "isOperator",
					"outputs": [
						{
							"internalType": "bool",
							"name": "",
							"type": "bool"
						}
					],
					"stateMutability": "view",
					"type": "function"
				},
				{
					"inputs": [
						{
							"internalType": "address",
							"name": "spender",
							"type": "address"
						},
						{
							"internalType": "bool",
							"name": "approved",
							"type": "bool"
						}
					],
					"name": "setOperator",
					"outputs": [],
					"stateMutability": "nonpayable",
					"type": "function"
				},
				{
					"inputs": [
						{
							"internalType": "bytes4",
							"name": "interfaceId",
							"type": "bytes4"
						}
					],
					"name": "supportsInterface",
					"outputs": [
						{
							"internalType": "bool",
							"name": "supported",
							"type": "bool"
						}
					],
					"stateMutability": "pure",
					"type": "function"
				},
				{
					"inputs": [
						{
							"internalType": "uint256",
							"name": "id",
							"type": "uint256"
						}
					],
					"name": "totalSupply",
					"outputs": [
						{
							"internalType": "uint256",
							"name": "amount",
							"type": "uint256"
						}
					],
					"stateMutability": "view",
					"type": "function"
				},
				{
					"inputs": [
						{
							"internalType": "address",
							"name": "receiver",
							"type": "address"
						},
						{
							"internalType": "uint256",
							"name": "id",
							"type": "uint256"
						},
						{
							"internalType": "uint256",
							"name": "amount",
							"type": "uint256"
						}
					],
					"name": "transfer",
					"outputs": [],
					"stateMutability": "nonpayable",
					"type": "function"
				},
				{
					"inputs": [
						{
							"internalType": "address",
							"name": "sender",
							"type": "address"
						},
						{
							"internalType": "address",
							"name": "receiver",
							"type": "address"
						},
						{
							"internalType": "uint256",
							"name": "id",
							"type": "uint256"
						},
						{
							"internalType": "uint256",
							"name": "amount",
							"type": "uint256"
						}
					],
					"name": "transferFrom",
					"outputs": [],
					"stateMutability": "nonpayable",
					"type": "function"
				}
			],
			"devdoc": {
				"errors": {
					"InsufficientBalance(address,uint256)": [
						{
							"details": "Thrown when owner balance for id is insufficient.",
							"params": {
								"id": "The id of the token.",
								"owner": "The address of the owner."
							}
						}
					],
					"InsufficientPermission(address,uint256)": [
						{
							"details": "Thrown when spender allowance for id is insufficient.",
							"params": {
								"id": "The id of the token.",
								"spender": "The address of the spender."
							}
						}
					]
				},
				"events": {
					"Approval(address,address,uint256,uint256)": {
						"params": {
							"amount": "The amount of the token.",
							"id": "The id of the token.",
							"owner": "The address of the owner.",
							"spender": "The address of the spender."
						}
					},
					"OperatorSet(address,address,bool)": {
						"params": {
							"approved": "The approval status.",
							"owner": "The address of the owner.",
							"spender": "The address of the spender."
						}
					},
					"Transfer(address,address,uint256,uint256)": {
						"params": {
							"amount": "The amount of the token.",
							"id": "The id of the token.",
							"receiver": "The address of the receiver.",
							"sender": "The address of the sender."
						}
					}
				},
				"kind": "dev",
				"methods": {
					"approve(address,uint256,uint256)": {
						"params": {
							"amount": "The amount of the token.",
							"id": "The id of the token.",
							"spender": "The address of the spender."
						}
					},
					"setOperator(address,bool)": {
						"params": {
							"approved": "The approval status.",
							"spender": "The address of the spender."
						}
					},
					"supportsInterface(bytes4)": {
						"params": {
							"interfaceId": "The interface identifier, as specified in ERC-165."
						},
						"returns": {
							"supported": "True if the contract implements `interfaceId` and"
						}
					},
					"transfer(address,uint256,uint256)": {
						"params": {
							"amount": "The amount of the token.",
							"id": "The id of the token.",
							"receiver": "The address of the receiver."
						}
					},
					"transferFrom(address,address,uint256,uint256)": {
						"params": {
							"amount": "The amount of the token.",
							"id": "The id of the token.",
							"receiver": "The address of the receiver.",
							"sender": "The address of the sender."
						}
					}
				},
				"version": 1
			},
			"evm": {
				"assembly": "    /* \"contracts/ERC6909.sol\":84:3648  contract ERC6909 is IERC6909 {... */\n  mstore(0x40, 0x80)\n  callvalue\n  dup1\n  iszero\n  tag_1\n  jumpi\n  0x00\n  dup1\n  revert\ntag_1:\n  pop\n  dataSize(sub_0)\n  dup1\n  dataOffset(sub_0)\n  0x00\n  codecopy\n  0x00\n  return\nstop\n\nsub_0: assembly {\n        /* \"contracts/ERC6909.sol\":84:3648  contract ERC6909 is IERC6909 {... */\n      mstore(0x40, 0x80)\n      callvalue\n      dup1\n      iszero\n      tag_1\n      jumpi\n      0x00\n      dup1\n      revert\n    tag_1:\n      pop\n      jumpi(tag_2, lt(calldatasize, 0x04))\n      shr(0xe0, calldataload(0x00))\n      dup1\n      0x558a7297\n      gt\n      tag_12\n      jumpi\n      dup1\n      0x558a7297\n      eq\n      tag_7\n      jumpi\n      dup1\n      0x598af9e7\n      eq\n      tag_8\n      jumpi\n      dup1\n      0xb6363cf2\n      eq\n      tag_9\n      jumpi\n      dup1\n      0xbd85b039\n      eq\n      tag_10\n      jumpi\n      dup1\n      0xfe99049a\n      eq\n      tag_11\n      jumpi\n      jump(tag_2)\n    tag_12:\n      dup1\n      0xfdd58e\n      eq\n      tag_3\n      jumpi\n      dup1\n      0x01ffc9a7\n      eq\n      tag_4\n      jumpi\n      dup1\n      0x095bcdb6\n      eq\n      tag_5\n      jumpi\n      dup1\n      0x426a8493\n      eq\n      tag_6\n      jumpi\n    tag_2:\n      0x00\n      dup1\n      revert\n        /* \"contracts/ERC6909.sol\":696:776  mapping(address owner => mapping(uint256 id => uint256 amount)) public balanceOf */\n    tag_3:\n      tag_13\n      0x04\n      dup1\n      calldatasize\n      sub\n      dup2\n      add\n      swap1\n      tag_14\n      swap2\n      swap1\n      tag_15\n      jump\t// in\n    tag_14:\n      tag_16\n      jump\t// in\n    tag_13:\n      mload(0x40)\n      tag_17\n      swap2\n      swap1\n      tag_18\n      jump\t// in\n    tag_17:\n      mload(0x40)\n      dup1\n      swap2\n      sub\n      swap1\n      return\n        /* \"contracts/ERC6909.sol\":3453:3646  function supportsInterface(bytes4 interfaceId) public pure returns (bool supported) {... */\n    tag_4:\n      tag_19\n      0x04\n      dup1\n      calldatasize\n      sub\n      dup2\n      add\n      swap1\n      tag_20\n      swap2\n      swap1\n      tag_21\n      jump\t// in\n    tag_20:\n      tag_22\n      jump\t// in\n    tag_19:\n      mload(0x40)\n      tag_23\n      swap2\n      swap1\n      tag_24\n      jump\t// in\n    tag_23:\n      mload(0x40)\n      dup1\n      swap2\n      sub\n      swap1\n      return\n        /* \"contracts/ERC6909.sol\":1316:1631  function transfer(address receiver, uint256 id, uint256 amount) public {... */\n    tag_5:\n      tag_25\n      0x04\n      dup1\n      calldatasize\n      sub\n      dup2\n      add\n      swap1\n      tag_26\n      swap2\n      swap1\n      tag_27\n      jump\t// in\n    tag_26:\n      tag_28\n      jump\t// in\n    tag_25:\n      stop\n        /* \"contracts/ERC6909.sol\":2696:2881  function approve(address spender, uint256 id, uint256 amount) public {... */\n    tag_6:\n      tag_29\n      0x04\n      dup1\n      calldatasize\n      sub\n      dup2\n      add\n      swap1\n      tag_30\n      swap2\n      swap1\n      tag_27\n      jump\t// in\n    tag_30:\n      tag_31\n      jump\t// in\n    tag_29:\n      stop\n        /* \"contracts/ERC6909.sol\":3055:3231  function setOperator(address spender, bool approved) public {... */\n    tag_7:\n      tag_32\n      0x04\n      dup1\n      calldatasize\n      sub\n      dup2\n      add\n      swap1\n      tag_33\n      swap2\n      swap1\n      tag_34\n      jump\t// in\n    tag_33:\n      tag_35\n      jump\t// in\n    tag_32:\n      stop\n        /* \"contracts/ERC6909.sol\":827:935  mapping(address owner => mapping(address spender => mapping(uint256 id => uint256 amount))) public allowance */\n    tag_8:\n      tag_36\n      0x04\n      dup1\n      calldatasize\n      sub\n      dup2\n      add\n      swap1\n      tag_37\n      swap2\n      swap1\n      tag_38\n      jump\t// in\n    tag_37:\n      tag_39\n      jump\t// in\n    tag_36:\n      mload(0x40)\n      tag_40\n      swap2\n      swap1\n      tag_18\n      jump\t// in\n    tag_40:\n      mload(0x40)\n      dup1\n      swap2\n      sub\n      swap1\n      return\n        /* \"contracts/ERC6909.sol\":1018:1094  mapping(address owner => mapping(address spender => bool)) public isOperator */\n    tag_9:\n      tag_41\n      0x04\n      dup1\n      calldatasize\n      sub\n      dup2\n      add\n      swap1\n      tag_42\n      swap2\n      swap1\n      tag_43\n      jump\t// in\n    tag_42:\n      tag_44\n      jump\t// in\n    tag_41:\n      mload(0x40)\n      tag_45\n      swap2\n      swap1\n      tag_24\n      jump\t// in\n    tag_45:\n      mload(0x40)\n      dup1\n      swap2\n      sub\n      swap1\n      return\n        /* \"contracts/ERC6909.sol\":593:649  mapping(uint256 id => uint256 amount) public totalSupply */\n    tag_10:\n      tag_46\n      0x04\n      dup1\n      calldatasize\n      sub\n      dup2\n      add\n      swap1\n      tag_47\n      swap2\n      swap1\n      tag_48\n      jump\t// in\n    tag_47:\n      tag_49\n      jump\t// in\n    tag_46:\n      mload(0x40)\n      tag_50\n      swap2\n      swap1\n      tag_18\n      jump\t// in\n    tag_50:\n      mload(0x40)\n      dup1\n      swap2\n      sub\n      swap1\n      return\n        /* \"contracts/ERC6909.sol\":1899:2495  function transferFrom(address sender, address receiver, uint256 id, uint256 amount) public {... */\n    tag_11:\n      tag_51\n      0x04\n      dup1\n      calldatasize\n      sub\n      dup2\n      add\n      swap1\n      tag_52\n      swap2\n      swap1\n      tag_53\n      jump\t// in\n    tag_52:\n      tag_54\n      jump\t// in\n    tag_51:\n      stop\n        /* \"contracts/ERC6909.sol\":696:776  mapping(address owner => mapping(uint256 id => uint256 amount)) public balanceOf */\n    tag_16:\n      mstore(0x20, 0x01)\n      dup2\n      0x00\n      mstore\n      mstore(0x20, keccak256(0x00, 0x40))\n      dup1\n      0x00\n      mstore\n      keccak256(0x00, 0x40)\n      0x00\n      swap2\n      pop\n      swap2\n      pop\n      pop\n      sload\n      dup2\n      jump\t// out\n        /* \"contracts/ERC6909.sol\":3453:3646  function supportsInterface(bytes4 interfaceId) public pure returns (bool supported) {... */\n    tag_22:\n        /* \"contracts/ERC6909.sol\":3521:3535  bool supported */\n      0x00\n        /* \"contracts/ERC6909.sol\":3569:3595  type(IERC6909).interfaceId */\n      0xb2e69f8a00000000000000000000000000000000000000000000000000000000\n        /* \"contracts/ERC6909.sol\":3554:3595  interfaceId == type(IERC6909).interfaceId */\n      not(0xffffffffffffffffffffffffffffffffffffffffffffffffffffffff)\n      and\n        /* \"contracts/ERC6909.sol\":3554:3565  interfaceId */\n      dup3\n        /* \"contracts/ERC6909.sol\":3554:3595  interfaceId == type(IERC6909).interfaceId */\n      not(0xffffffffffffffffffffffffffffffffffffffffffffffffffffffff)\n      and\n      eq\n        /* \"contracts/ERC6909.sol\":3554:3639  interfaceId == type(IERC6909).interfaceId || interfaceId == type(IERC165).interfaceId */\n      dup1\n      tag_56\n      jumpi\n      pop\n        /* \"contracts/ERC6909.sol\":3614:3639  type(IERC165).interfaceId */\n      0x01ffc9a700000000000000000000000000000000000000000000000000000000\n        /* \"contracts/ERC6909.sol\":3599:3639  interfaceId == type(IERC165).interfaceId */\n      not(0xffffffffffffffffffffffffffffffffffffffffffffffffffffffff)\n      and\n        /* \"contracts/ERC6909.sol\":3599:3610  interfaceId */\n      dup3\n        /* \"contracts/ERC6909.sol\":3599:3639  interfaceId == type(IERC165).interfaceId */\n      not(0xffffffffffffffffffffffffffffffffffffffffffffffffffffffff)\n      and\n      eq\n        /* \"contracts/ERC6909.sol\":3554:3639  interfaceId == type(IERC6909).interfaceId || interfaceId == type(IERC165).interfaceId */\n    tag_56:\n        /* \"contracts/ERC6909.sol\":3547:3639  return interfaceId == type(IERC6909).interfaceId || interfaceId == type(IERC165).interfaceId */\n      swap1\n      pop\n        /* \"contracts/ERC6909.sol\":3453:3646  function supportsInterface(bytes4 interfaceId) public pure returns (bool supported) {... */\n      swap2\n      swap1\n      pop\n      jump\t// out\n        /* \"contracts/ERC6909.sol\":1316:1631  function transfer(address receiver, uint256 id, uint256 amount) public {... */\n    tag_28:\n        /* \"contracts/ERC6909.sol\":1429:1435  amount */\n      dup1\n        /* \"contracts/ERC6909.sol\":1401:1410  balanceOf */\n      0x01\n        /* \"contracts/ERC6909.sol\":1401:1422  balanceOf[msg.sender] */\n      0x00\n        /* \"contracts/ERC6909.sol\":1411:1421  msg.sender */\n      caller\n        /* \"contracts/ERC6909.sol\":1401:1422  balanceOf[msg.sender] */\n      0xffffffffffffffffffffffffffffffffffffffff\n      and\n      0xffffffffffffffffffffffffffffffffffffffff\n      and\n      dup2\n      mstore\n      0x20\n      add\n      swap1\n      dup2\n      mstore\n      0x20\n      add\n      0x00\n      keccak256\n        /* \"contracts/ERC6909.sol\":1401:1426  balanceOf[msg.sender][id] */\n      0x00\n        /* \"contracts/ERC6909.sol\":1423:1425  id */\n      dup5\n        /* \"contracts/ERC6909.sol\":1401:1426  balanceOf[msg.sender][id] */\n      dup2\n      mstore\n      0x20\n      add\n      swap1\n      dup2\n      mstore\n      0x20\n      add\n      0x00\n      keccak256\n      sload\n        /* \"contracts/ERC6909.sol\":1401:1435  balanceOf[msg.sender][id] < amount */\n      lt\n        /* \"contracts/ERC6909.sol\":1397:1479  if (balanceOf[msg.sender][id] < amount) revert InsufficientBalance(msg.sender, id) */\n      iszero\n      tag_58\n      jumpi\n        /* \"contracts/ERC6909.sol\":1464:1474  msg.sender */\n      caller\n        /* \"contracts/ERC6909.sol\":1476:1478  id */\n      dup3\n        /* \"contracts/ERC6909.sol\":1444:1479  InsufficientBalance(msg.sender, id) */\n      mload(0x40)\n      0xf6deaa0400000000000000000000000000000000000000000000000000000000\n      dup2\n      mstore\n      0x04\n      add\n      tag_59\n      swap3\n      swap2\n      swap1\n      tag_60\n      jump\t// in\n    tag_59:\n      mload(0x40)\n      dup1\n      swap2\n      sub\n      swap1\n      revert\n        /* \"contracts/ERC6909.sol\":1397:1479  if (balanceOf[msg.sender][id] < amount) revert InsufficientBalance(msg.sender, id) */\n    tag_58:\n        /* \"contracts/ERC6909.sol\":1518:1524  amount */\n      dup1\n        /* \"contracts/ERC6909.sol\":1489:1498  balanceOf */\n      0x01\n        /* \"contracts/ERC6909.sol\":1489:1510  balanceOf[msg.sender] */\n      0x00\n        /* \"contracts/ERC6909.sol\":1499:1509  msg.sender */\n      caller\n        /* \"contracts/ERC6909.sol\":1489:1510  balanceOf[msg.sender] */\n      0xffffffffffffffffffffffffffffffffffffffff\n      and\n      0xffffffffffffffffffffffffffffffffffffffff\n      and\n      dup2\n      mstore\n      0x20\n      add\n      swap1\n      dup2\n      mstore\n      0x20\n      add\n      0x00\n      keccak256\n        /* \"contracts/ERC6909.sol\":1489:1514  balanceOf[msg.sender][id] */\n      0x00\n        /* \"contracts/ERC6909.sol\":1511:1513  id */\n      dup5\n        /* \"contracts/ERC6909.sol\":1489:1514  balanceOf[msg.sender][id] */\n      dup2\n      mstore\n      0x20\n      add\n      swap1\n      dup2\n      mstore\n      0x20\n      add\n      0x00\n      keccak256\n      0x00\n        /* \"contracts/ERC6909.sol\":1489:1524  balanceOf[msg.sender][id] -= amount */\n      dup3\n      dup3\n      sload\n      tag_61\n      swap2\n      swap1\n      tag_62\n      jump\t// in\n    tag_61:\n      swap3\n      pop\n      pop\n      dup2\n      swap1\n      sstore\n      pop\n        /* \"contracts/ERC6909.sol\":1561:1567  amount */\n      dup1\n        /* \"contracts/ERC6909.sol\":1534:1543  balanceOf */\n      0x01\n        /* \"contracts/ERC6909.sol\":1534:1553  balanceOf[receiver] */\n      0x00\n        /* \"contracts/ERC6909.sol\":1544:1552  receiver */\n      dup6\n        /* \"contracts/ERC6909.sol\":1534:1553  balanceOf[receiver] */\n      0xffffffffffffffffffffffffffffffffffffffff\n      and\n      0xffffffffffffffffffffffffffffffffffffffff\n      and\n      dup2\n      mstore\n      0x20\n      add\n      swap1\n      dup2\n      mstore\n      0x20\n      add\n      0x00\n      keccak256\n        /* \"contracts/ERC6909.sol\":1534:1557  balanceOf[receiver][id] */\n      0x00\n        /* \"contracts/ERC6909.sol\":1554:1556  id */\n      dup5\n        /* \"contracts/ERC6909.sol\":1534:1557  balanceOf[receiver][id] */\n      dup2\n      mstore\n      0x20\n      add\n      swap1\n      dup2\n      mstore\n      0x20\n      add\n      0x00\n      keccak256\n      0x00\n        /* \"contracts/ERC6909.sol\":1534:1567  balanceOf[receiver][id] += amount */\n      dup3\n      dup3\n      sload\n      tag_63\n      swap2\n      swap1\n      tag_64\n      jump\t// in\n    tag_63:\n      swap3\n      pop\n      pop\n      dup2\n      swap1\n      sstore\n      pop\n        /* \"contracts/ERC6909.sol\":1613:1615  id */\n      dup2\n        /* \"contracts/ERC6909.sol\":1603:1611  receiver */\n      dup4\n        /* \"contracts/ERC6909.sol\":1582:1624  Transfer(msg.sender, receiver, id, amount) */\n      0xffffffffffffffffffffffffffffffffffffffff\n      and\n        /* \"contracts/ERC6909.sol\":1591:1601  msg.sender */\n      caller\n        /* \"contracts/ERC6909.sol\":1582:1624  Transfer(msg.sender, receiver, id, amount) */\n      0xffffffffffffffffffffffffffffffffffffffff\n      and\n      0x9ed053bb818ff08b8353cd46f78db1f0799f31c9e4458fdb425c10eccd2efc44\n        /* \"contracts/ERC6909.sol\":1617:1623  amount */\n      dup5\n        /* \"contracts/ERC6909.sol\":1582:1624  Transfer(msg.sender, receiver, id, amount) */\n      mload(0x40)\n      tag_65\n      swap2\n      swap1\n      tag_18\n      jump\t// in\n    tag_65:\n      mload(0x40)\n      dup1\n      swap2\n      sub\n      swap1\n      log4\n        /* \"contracts/ERC6909.sol\":1316:1631  function transfer(address receiver, uint256 id, uint256 amount) public {... */\n      pop\n      pop\n      pop\n      jump\t// out\n        /* \"contracts/ERC6909.sol\":2696:2881  function approve(address spender, uint256 id, uint256 amount) public {... */\n    tag_31:\n        /* \"contracts/ERC6909.sol\":2812:2818  amount */\n      dup1\n        /* \"contracts/ERC6909.sol\":2775:2784  allowance */\n      0x02\n        /* \"contracts/ERC6909.sol\":2775:2796  allowance[msg.sender] */\n      0x00\n        /* \"contracts/ERC6909.sol\":2785:2795  msg.sender */\n      caller\n        /* \"contracts/ERC6909.sol\":2775:2796  allowance[msg.sender] */\n      0xffffffffffffffffffffffffffffffffffffffff\n      and\n      0xffffffffffffffffffffffffffffffffffffffff\n      and\n      dup2\n      mstore\n      0x20\n      add\n      swap1\n      dup2\n      mstore\n      0x20\n      add\n      0x00\n      keccak256\n        /* \"contracts/ERC6909.sol\":2775:2805  allowance[msg.sender][spender] */\n      0x00\n        /* \"contracts/ERC6909.sol\":2797:2804  spender */\n      dup6\n        /* \"contracts/ERC6909.sol\":2775:2805  allowance[msg.sender][spender] */\n      0xffffffffffffffffffffffffffffffffffffffff\n      and\n      0xffffffffffffffffffffffffffffffffffffffff\n      and\n      dup2\n      mstore\n      0x20\n      add\n      swap1\n      dup2\n      mstore\n      0x20\n      add\n      0x00\n      keccak256\n        /* \"contracts/ERC6909.sol\":2775:2809  allowance[msg.sender][spender][id] */\n      0x00\n        /* \"contracts/ERC6909.sol\":2806:2808  id */\n      dup5\n        /* \"contracts/ERC6909.sol\":2775:2809  allowance[msg.sender][spender][id] */\n      dup2\n      mstore\n      0x20\n      add\n      swap1\n      dup2\n      mstore\n      0x20\n      add\n      0x00\n      keccak256\n        /* \"contracts/ERC6909.sol\":2775:2818  allowance[msg.sender][spender][id] = amount */\n      dup2\n      swap1\n      sstore\n      pop\n        /* \"contracts/ERC6909.sol\":2863:2865  id */\n      dup2\n        /* \"contracts/ERC6909.sol\":2854:2861  spender */\n      dup4\n        /* \"contracts/ERC6909.sol\":2833:2874  Approval(msg.sender, spender, id, amount) */\n      0xffffffffffffffffffffffffffffffffffffffff\n      and\n        /* \"contracts/ERC6909.sol\":2842:2852  msg.sender */\n      caller\n        /* \"contracts/ERC6909.sol\":2833:2874  Approval(msg.sender, spender, id, amount) */\n      0xffffffffffffffffffffffffffffffffffffffff\n      and\n      0xb3fd5071835887567a0671151121894ddccc2842f1d10bedad13e0d17cace9a7\n        /* \"contracts/ERC6909.sol\":2867:2873  amount */\n      dup5\n        /* \"contracts/ERC6909.sol\":2833:2874  Approval(msg.sender, spender, id, amount) */\n      mload(0x40)\n      tag_67\n      swap2\n      swap1\n      tag_18\n      jump\t// in\n    tag_67:\n      mload(0x40)\n      dup1\n      swap2\n      sub\n      swap1\n      log4\n        /* \"contracts/ERC6909.sol\":2696:2881  function approve(address spender, uint256 id, uint256 amount) public {... */\n      pop\n      pop\n      pop\n      jump\t// out\n        /* \"contracts/ERC6909.sol\":3055:3231  function setOperator(address spender, bool approved) public {... */\n    tag_35:\n        /* \"contracts/ERC6909.sol\":3159:3167  approved */\n      dup1\n        /* \"contracts/ERC6909.sol\":3125:3135  isOperator */\n      0x03\n        /* \"contracts/ERC6909.sol\":3125:3147  isOperator[msg.sender] */\n      0x00\n        /* \"contracts/ERC6909.sol\":3136:3146  msg.sender */\n      caller\n        /* \"contracts/ERC6909.sol\":3125:3147  isOperator[msg.sender] */\n      0xffffffffffffffffffffffffffffffffffffffff\n      and\n      0xffffffffffffffffffffffffffffffffffffffff\n      and\n      dup2\n      mstore\n      0x20\n      add\n      swap1\n      dup2\n      mstore\n      0x20\n      add\n      0x00\n      keccak256\n        /* \"contracts/ERC6909.sol\":3125:3156  isOperator[msg.sender][spender] */\n      0x00\n        /* \"contracts/ERC6909.sol\":3148:3155  spender */\n      dup5\n        /* \"contracts/ERC6909.sol\":3125:3156  isOperator[msg.sender][spender] */\n      0xffffffffffffffffffffffffffffffffffffffff\n      and\n      0xffffffffffffffffffffffffffffffffffffffff\n      and\n      dup2\n      mstore\n      0x20\n      add\n      swap1\n      dup2\n      mstore\n      0x20\n      add\n      0x00\n      keccak256\n      0x00\n        /* \"contracts/ERC6909.sol\":3125:3167  isOperator[msg.sender][spender] = approved */\n      0x0100\n      exp\n      dup2\n      sload\n      dup2\n      0xff\n      mul\n      not\n      and\n      swap1\n      dup4\n      iszero\n      iszero\n      mul\n      or\n      swap1\n      sstore\n      pop\n        /* \"contracts/ERC6909.sol\":3206:3213  spender */\n      dup2\n        /* \"contracts/ERC6909.sol\":3182:3224  OperatorSet(msg.sender, spender, approved) */\n      0xffffffffffffffffffffffffffffffffffffffff\n      and\n        /* \"contracts/ERC6909.sol\":3194:3204  msg.sender */\n      caller\n        /* \"contracts/ERC6909.sol\":3182:3224  OperatorSet(msg.sender, spender, approved) */\n      0xffffffffffffffffffffffffffffffffffffffff\n      and\n      0xceb576d9f15e4e200fdb5096d64d5dfd667e16def20c1eefd14256d8e3faa267\n        /* \"contracts/ERC6909.sol\":3215:3223  approved */\n      dup4\n        /* \"contracts/ERC6909.sol\":3182:3224  OperatorSet(msg.sender, spender, approved) */\n      mload(0x40)\n      tag_69\n      swap2\n      swap1\n      tag_24\n      jump\t// in\n    tag_69:\n      mload(0x40)\n      dup1\n      swap2\n      sub\n      swap1\n      log3\n        /* \"contracts/ERC6909.sol\":3055:3231  function setOperator(address spender, bool approved) public {... */\n      pop\n      pop\n      jump\t// out\n        /* \"contracts/ERC6909.sol\":827:935  mapping(address owner => mapping(address spender => mapping(uint256 id => uint256 amount))) public allowance */\n    tag_39:\n      mstore(0x20, 0x02)\n      dup3\n      0x00\n      mstore\n      mstore(0x20, keccak256(0x00, 0x40))\n      dup2\n      0x00\n      mstore\n      mstore(0x20, keccak256(0x00, 0x40))\n      dup1\n      0x00\n      mstore\n      keccak256(0x00, 0x40)\n      0x00\n      swap3\n      pop\n      swap3\n      pop\n      pop\n      pop\n      sload\n      dup2\n      jump\t// out\n        /* \"contracts/ERC6909.sol\":1018:1094  mapping(address owner => mapping(address spender => bool)) public isOperator */\n    tag_44:\n      mstore(0x20, 0x03)\n      dup2\n      0x00\n      mstore\n      mstore(0x20, keccak256(0x00, 0x40))\n      dup1\n      0x00\n      mstore\n      keccak256(0x00, 0x40)\n      0x00\n      swap2\n      pop\n      swap2\n      pop\n      swap1\n      sload\n      swap1\n      0x0100\n      exp\n      swap1\n      div\n      0xff\n      and\n      dup2\n      jump\t// out\n        /* \"contracts/ERC6909.sol\":593:649  mapping(uint256 id => uint256 amount) public totalSupply */\n    tag_49:\n      mstore(0x20, 0x00)\n      dup1\n      0x00\n      mstore\n      keccak256(0x00, 0x40)\n      0x00\n      swap2\n      pop\n      swap1\n      pop\n      sload\n      dup2\n      jump\t// out\n        /* \"contracts/ERC6909.sol\":1899:2495  function transferFrom(address sender, address receiver, uint256 id, uint256 amount) public {... */\n    tag_54:\n        /* \"contracts/ERC6909.sol\":2014:2024  msg.sender */\n      caller\n        /* \"contracts/ERC6909.sol\":2004:2024  sender != msg.sender */\n      0xffffffffffffffffffffffffffffffffffffffff\n      and\n        /* \"contracts/ERC6909.sol\":2004:2010  sender */\n      dup5\n        /* \"contracts/ERC6909.sol\":2004:2024  sender != msg.sender */\n      0xffffffffffffffffffffffffffffffffffffffff\n      and\n      eq\n      iszero\n        /* \"contracts/ERC6909.sol\":2004:2059  sender != msg.sender && !isOperator[sender][msg.sender] */\n      dup1\n      iszero\n      tag_71\n      jumpi\n      pop\n        /* \"contracts/ERC6909.sol\":2029:2039  isOperator */\n      0x03\n        /* \"contracts/ERC6909.sol\":2029:2047  isOperator[sender] */\n      0x00\n        /* \"contracts/ERC6909.sol\":2040:2046  sender */\n      dup6\n        /* \"contracts/ERC6909.sol\":2029:2047  isOperator[sender] */\n      0xffffffffffffffffffffffffffffffffffffffff\n      and\n      0xffffffffffffffffffffffffffffffffffffffff\n      and\n      dup2\n      mstore\n      0x20\n      add\n      swap1\n      dup2\n      mstore\n      0x20\n      add\n      0x00\n      keccak256\n        /* \"contracts/ERC6909.sol\":2029:2059  isOperator[sender][msg.sender] */\n      0x00\n        /* \"contracts/ERC6909.sol\":2048:2058  msg.sender */\n      caller\n        /* \"contracts/ERC6909.sol\":2029:2059  isOperator[sender][msg.sender] */\n      0xffffffffffffffffffffffffffffffffffffffff\n      and\n      0xffffffffffffffffffffffffffffffffffffffff\n      and\n      dup2\n      mstore\n      0x20\n      add\n      swap1\n      dup2\n      mstore\n      0x20\n      add\n      0x00\n      keccak256\n      0x00\n      swap1\n      sload\n      swap1\n      0x0100\n      exp\n      swap1\n      div\n      0xff\n      and\n        /* \"contracts/ERC6909.sol\":2028:2059  !isOperator[sender][msg.sender] */\n      iszero\n        /* \"contracts/ERC6909.sol\":2004:2059  sender != msg.sender && !isOperator[sender][msg.sender] */\n    tag_71:\n        /* \"contracts/ERC6909.sol\":2000:2268  if (sender != msg.sender && !isOperator[sender][msg.sender]) {... */\n      iszero\n      tag_72\n      jumpi\n        /* \"contracts/ERC6909.sol\":2115:2121  amount */\n      dup1\n        /* \"contracts/ERC6909.sol\":2079:2088  allowance */\n      0x02\n        /* \"contracts/ERC6909.sol\":2079:2096  allowance[sender] */\n      0x00\n        /* \"contracts/ERC6909.sol\":2089:2095  sender */\n      dup7\n        /* \"contracts/ERC6909.sol\":2079:2096  allowance[sender] */\n      0xffffffffffffffffffffffffffffffffffffffff\n      and\n      0xffffffffffffffffffffffffffffffffffffffff\n      and\n      dup2\n      mstore\n      0x20\n      add\n      swap1\n      dup2\n      mstore\n      0x20\n      add\n      0x00\n      keccak256\n        /* \"contracts/ERC6909.sol\":2079:2108  allowance[sender][msg.sender] */\n      0x00\n        /* \"contracts/ERC6909.sol\":2097:2107  msg.sender */\n      caller\n        /* \"contracts/ERC6909.sol\":2079:2108  allowance[sender][msg.sender] */\n      0xffffffffffffffffffffffffffffffffffffffff\n      and\n      0xffffffffffffffffffffffffffffffffffffffff\n      and\n      dup2\n      mstore\n      0x20\n      add\n      swap1\n      dup2\n      mstore\n      0x20\n      add\n      0x00\n      keccak256\n        /* \"contracts/ERC6909.sol\":2079:2112  allowance[sender][msg.sender][id] */\n      0x00\n        /* \"contracts/ERC6909.sol\":2109:2111  id */\n      dup5\n        /* \"contracts/ERC6909.sol\":2079:2112  allowance[sender][msg.sender][id] */\n      dup2\n      mstore\n      0x20\n      add\n      swap1\n      dup2\n      mstore\n      0x20\n      add\n      0x00\n      keccak256\n      sload\n        /* \"contracts/ERC6909.sol\":2079:2121  allowance[sender][msg.sender][id] < amount */\n      lt\n        /* \"contracts/ERC6909.sol\":2075:2201  if (allowance[sender][msg.sender][id] < amount) {... */\n      iszero\n      tag_73\n      jumpi\n        /* \"contracts/ERC6909.sol\":2171:2181  msg.sender */\n      caller\n        /* \"contracts/ERC6909.sol\":2183:2185  id */\n      dup3\n        /* \"contracts/ERC6909.sol\":2148:2186  InsufficientPermission(msg.sender, id) */\n      mload(0x40)\n      0x731555bd00000000000000000000000000000000000000000000000000000000\n      dup2\n      mstore\n      0x04\n      add\n      tag_74\n      swap3\n      swap2\n      swap1\n      tag_60\n      jump\t// in\n    tag_74:\n      mload(0x40)\n      dup1\n      swap2\n      sub\n      swap1\n      revert\n        /* \"contracts/ERC6909.sol\":2075:2201  if (allowance[sender][msg.sender][id] < amount) {... */\n    tag_73:\n        /* \"contracts/ERC6909.sol\":2251:2257  amount */\n      dup1\n        /* \"contracts/ERC6909.sol\":2214:2223  allowance */\n      0x02\n        /* \"contracts/ERC6909.sol\":2214:2231  allowance[sender] */\n      0x00\n        /* \"contracts/ERC6909.sol\":2224:2230  sender */\n      dup7\n        /* \"contracts/ERC6909.sol\":2214:2231  allowance[sender] */\n      0xffffffffffffffffffffffffffffffffffffffff\n      and\n      0xffffffffffffffffffffffffffffffffffffffff\n      and\n      dup2\n      mstore\n      0x20\n      add\n      swap1\n      dup2\n      mstore\n      0x20\n      add\n      0x00\n      keccak256\n        /* \"contracts/ERC6909.sol\":2214:2243  allowance[sender][msg.sender] */\n      0x00\n        /* \"contracts/ERC6909.sol\":2232:2242  msg.sender */\n      caller\n        /* \"contracts/ERC6909.sol\":2214:2243  allowance[sender][msg.sender] */\n      0xffffffffffffffffffffffffffffffffffffffff\n      and\n      0xffffffffffffffffffffffffffffffffffffffff\n      and\n      dup2\n      mstore\n      0x20\n      add\n      swap1\n      dup2\n      mstore\n      0x20\n      add\n      0x00\n      keccak256\n        /* \"contracts/ERC6909.sol\":2214:2247  allowance[sender][msg.sender][id] */\n      0x00\n        /* \"contracts/ERC6909.sol\":2244:2246  id */\n      dup5\n        /* \"contracts/ERC6909.sol\":2214:2247  allowance[sender][msg.sender][id] */\n      dup2\n      mstore\n      0x20\n      add\n      swap1\n      dup2\n      mstore\n      0x20\n      add\n      0x00\n      keccak256\n      0x00\n        /* \"contracts/ERC6909.sol\":2214:2257  allowance[sender][msg.sender][id] -= amount */\n      dup3\n      dup3\n      sload\n      tag_75\n      swap2\n      swap1\n      tag_62\n      jump\t// in\n    tag_75:\n      swap3\n      pop\n      pop\n      dup2\n      swap1\n      sstore\n      pop\n        /* \"contracts/ERC6909.sol\":2000:2268  if (sender != msg.sender && !isOperator[sender][msg.sender]) {... */\n    tag_72:\n        /* \"contracts/ERC6909.sol\":2305:2311  amount */\n      dup1\n        /* \"contracts/ERC6909.sol\":2281:2290  balanceOf */\n      0x01\n        /* \"contracts/ERC6909.sol\":2281:2298  balanceOf[sender] */\n      0x00\n        /* \"contracts/ERC6909.sol\":2291:2297  sender */\n      dup7\n        /* \"contracts/ERC6909.sol\":2281:2298  balanceOf[sender] */\n      0xffffffffffffffffffffffffffffffffffffffff\n      and\n      0xffffffffffffffffffffffffffffffffffffffff\n      and\n      dup2\n      mstore\n      0x20\n      add\n      swap1\n      dup2\n      mstore\n      0x20\n      add\n      0x00\n      keccak256\n        /* \"contracts/ERC6909.sol\":2281:2302  balanceOf[sender][id] */\n      0x00\n        /* \"contracts/ERC6909.sol\":2299:2301  id */\n      dup5\n        /* \"contracts/ERC6909.sol\":2281:2302  balanceOf[sender][id] */\n      dup2\n      mstore\n      0x20\n      add\n      swap1\n      dup2\n      mstore\n      0x20\n      add\n      0x00\n      keccak256\n      sload\n        /* \"contracts/ERC6909.sol\":2281:2311  balanceOf[sender][id] < amount */\n      lt\n        /* \"contracts/ERC6909.sol\":2277:2351  if (balanceOf[sender][id] < amount) revert InsufficientBalance(sender, id) */\n      iszero\n      tag_76\n      jumpi\n        /* \"contracts/ERC6909.sol\":2340:2346  sender */\n      dup4\n        /* \"contracts/ERC6909.sol\":2348:2350  id */\n      dup3\n        /* \"contracts/ERC6909.sol\":2320:2351  InsufficientBalance(sender, id) */\n      mload(0x40)\n      0xf6deaa0400000000000000000000000000000000000000000000000000000000\n      dup2\n      mstore\n      0x04\n      add\n      tag_77\n      swap3\n      swap2\n      swap1\n      tag_60\n      jump\t// in\n    tag_77:\n      mload(0x40)\n      dup1\n      swap2\n      sub\n      swap1\n      revert\n        /* \"contracts/ERC6909.sol\":2277:2351  if (balanceOf[sender][id] < amount) revert InsufficientBalance(sender, id) */\n    tag_76:\n        /* \"contracts/ERC6909.sol\":2386:2392  amount */\n      dup1\n        /* \"contracts/ERC6909.sol\":2361:2370  balanceOf */\n      0x01\n        /* \"contracts/ERC6909.sol\":2361:2378  balanceOf[sender] */\n      0x00\n        /* \"contracts/ERC6909.sol\":2371:2377  sender */\n      dup7\n        /* \"contracts/ERC6909.sol\":2361:2378  balanceOf[sender] */\n      0xffffffffffffffffffffffffffffffffffffffff\n      and\n      0xffffffffffffffffffffffffffffffffffffffff\n      and\n      dup2\n      mstore\n      0x20\n      add\n      swap1\n      dup2\n      mstore\n      0x20\n      add\n      0x00\n      keccak256\n        /* \"contracts/ERC6909.sol\":2361:2382  balanceOf[sender][id] */\n      0x00\n        /* \"contracts/ERC6909.sol\":2379:2381  id */\n      dup5\n        /* \"contracts/ERC6909.sol\":2361:2382  balanceOf[sender][id] */\n      dup2\n      mstore\n      0x20\n      add\n      swap1\n      dup2\n      mstore\n      0x20\n      add\n      0x00\n      keccak256\n      0x00\n        /* \"contracts/ERC6909.sol\":2361:2392  balanceOf[sender][id] -= amount */\n      dup3\n      dup3\n      sload\n      tag_78\n      swap2\n      swap1\n      tag_62\n      jump\t// in\n    tag_78:\n      swap3\n      pop\n      pop\n      dup2\n      swap1\n      sstore\n      pop\n        /* \"contracts/ERC6909.sol\":2429:2435  amount */\n      dup1\n        /* \"contracts/ERC6909.sol\":2402:2411  balanceOf */\n      0x01\n        /* \"contracts/ERC6909.sol\":2402:2421  balanceOf[receiver] */\n      0x00\n        /* \"contracts/ERC6909.sol\":2412:2420  receiver */\n      dup6\n        /* \"contracts/ERC6909.sol\":2402:2421  balanceOf[receiver] */\n      0xffffffffffffffffffffffffffffffffffffffff\n      and\n      0xffffffffffffffffffffffffffffffffffffffff\n      and\n      dup2\n      mstore\n      0x20\n      add\n      swap1\n      dup2\n      mstore\n      0x20\n      add\n      0x00\n      keccak256\n        /* \"contracts/ERC6909.sol\":2402:2425  balanceOf[receiver][id] */\n      0x00\n        /* \"contracts/ERC6909.sol\":2422:2424  id */\n      dup5\n        /* \"contracts/ERC6909.sol\":2402:2425  balanceOf[receiver][id] */\n      dup2\n      mstore\n      0x20\n      add\n      swap1\n      dup2\n      mstore\n      0x20\n      add\n      0x00\n      keccak256\n      0x00\n        /* \"contracts/ERC6909.sol\":2402:2435  balanceOf[receiver][id] += amount */\n      dup3\n      dup3\n      sload\n      tag_79\n      swap2\n      swap1\n      tag_64\n      jump\t// in\n    tag_79:\n      swap3\n      pop\n      pop\n      dup2\n      swap1\n      sstore\n      pop\n        /* \"contracts/ERC6909.sol\":2477:2479  id */\n      dup2\n        /* \"contracts/ERC6909.sol\":2467:2475  receiver */\n      dup4\n        /* \"contracts/ERC6909.sol\":2450:2488  Transfer(sender, receiver, id, amount) */\n      0xffffffffffffffffffffffffffffffffffffffff\n      and\n        /* \"contracts/ERC6909.sol\":2459:2465  sender */\n      dup6\n        /* \"contracts/ERC6909.sol\":2450:2488  Transfer(sender, receiver, id, amount) */\n      0xffffffffffffffffffffffffffffffffffffffff\n      and\n      0x9ed053bb818ff08b8353cd46f78db1f0799f31c9e4458fdb425c10eccd2efc44\n        /* \"contracts/ERC6909.sol\":2481:2487  amount */\n      dup5\n        /* \"contracts/ERC6909.sol\":2450:2488  Transfer(sender, receiver, id, amount) */\n      mload(0x40)\n      tag_80\n      swap2\n      swap1\n      tag_18\n      jump\t// in\n    tag_80:\n      mload(0x40)\n      dup1\n      swap2\n      sub\n      swap1\n      log4\n        /* \"contracts/ERC6909.sol\":1899:2495  function transferFrom(address sender, address receiver, uint256 id, uint256 amount) public {... */\n      pop\n      pop\n      pop\n      pop\n      jump\t// out\n        /* \"#utility.yul\":88:205   */\n    tag_82:\n        /* \"#utility.yul\":197:198   */\n      0x00\n        /* \"#utility.yul\":194:195   */\n      dup1\n        /* \"#utility.yul\":187:199   */\n      revert\n        /* \"#utility.yul\":334:460   */\n    tag_84:\n        /* \"#utility.yul\":371:378   */\n      0x00\n        /* \"#utility.yul\":411:453   */\n      0xffffffffffffffffffffffffffffffffffffffff\n        /* \"#utility.yul\":404:409   */\n      dup3\n        /* \"#utility.yul\":400:454   */\n      and\n        /* \"#utility.yul\":389:454   */\n      swap1\n      pop\n        /* \"#utility.yul\":334:460   */\n      swap2\n      swap1\n      pop\n      jump\t// out\n        /* \"#utility.yul\":466:562   */\n    tag_85:\n        /* \"#utility.yul\":503:510   */\n      0x00\n        /* \"#utility.yul\":532:556   */\n      tag_107\n        /* \"#utility.yul\":550:555   */\n      dup3\n        /* \"#utility.yul\":532:556   */\n      tag_84\n      jump\t// in\n    tag_107:\n        /* \"#utility.yul\":521:556   */\n      swap1\n      pop\n        /* \"#utility.yul\":466:562   */\n      swap2\n      swap1\n      pop\n      jump\t// out\n        /* \"#utility.yul\":568:690   */\n    tag_86:\n        /* \"#utility.yul\":641:665   */\n      tag_109\n        /* \"#utility.yul\":659:664   */\n      dup2\n        /* \"#utility.yul\":641:665   */\n      tag_85\n      jump\t// in\n    tag_109:\n        /* \"#utility.yul\":634:639   */\n      dup2\n        /* \"#utility.yul\":631:666   */\n      eq\n        /* \"#utility.yul\":621:684   */\n      tag_110\n      jumpi\n        /* \"#utility.yul\":680:681   */\n      0x00\n        /* \"#utility.yul\":677:678   */\n      dup1\n        /* \"#utility.yul\":670:682   */\n      revert\n        /* \"#utility.yul\":621:684   */\n    tag_110:\n        /* \"#utility.yul\":568:690   */\n      pop\n      jump\t// out\n        /* \"#utility.yul\":696:835   */\n    tag_87:\n        /* \"#utility.yul\":742:747   */\n      0x00\n        /* \"#utility.yul\":780:786   */\n      dup2\n        /* \"#utility.yul\":767:787   */\n      calldataload\n        /* \"#utility.yul\":758:787   */\n      swap1\n      pop\n        /* \"#utility.yul\":796:829   */\n      tag_112\n        /* \"#utility.yul\":823:828   */\n      dup2\n        /* \"#utility.yul\":796:829   */\n      tag_86\n      jump\t// in\n    tag_112:\n        /* \"#utility.yul\":696:835   */\n      swap3\n      swap2\n      pop\n      pop\n      jump\t// out\n        /* \"#utility.yul\":841:918   */\n    tag_88:\n        /* \"#utility.yul\":878:885   */\n      0x00\n        /* \"#utility.yul\":907:912   */\n      dup2\n        /* \"#utility.yul\":896:912   */\n      swap1\n      pop\n        /* \"#utility.yul\":841:918   */\n      swap2\n      swap1\n      pop\n      jump\t// out\n        /* \"#utility.yul\":924:1046   */\n    tag_89:\n        /* \"#utility.yul\":997:1021   */\n      tag_115\n        /* \"#utility.yul\":1015:1020   */\n      dup2\n        /* \"#utility.yul\":997:1021   */\n      tag_88\n      jump\t// in\n    tag_115:\n        /* \"#utility.yul\":990:995   */\n      dup2\n        /* \"#utility.yul\":987:1022   */\n      eq\n        /* \"#utility.yul\":977:1040   */\n      tag_116\n      jumpi\n        /* \"#utility.yul\":1036:1037   */\n      0x00\n        /* \"#utility.yul\":1033:1034   */\n      dup1\n        /* \"#utility.yul\":1026:1038   */\n      revert\n        /* \"#utility.yul\":977:1040   */\n    tag_116:\n        /* \"#utility.yul\":924:1046   */\n      pop\n      jump\t// out\n        /* \"#utility.yul\":1052:1191   */\n    tag_90:\n        /* \"#utility.yul\":1098:1103   */\n      0x00\n        /* \"#utility.yul\":1136:1142   */\n      dup2\n        /* \"#utility.yul\":1123:1143   */\n      calldataload\n        /* \"#utility.yul\":1114:1143   */\n      swap1\n      pop\n        /* \"#utility.yul\":1152:1185   */\n      tag_118\n        /* \"#utility.yul\":1179:1184   */\n      dup2\n        /* \"#utility.yul\":1152:1185   */\n      tag_89\n      jump\t// in\n    tag_118:\n        /* \"#utility.yul\":1052:1191   */\n      swap3\n      swap2\n      pop\n      pop\n      jump\t// out\n        /* \"#utility.yul\":1197:1671   */\n    tag_15:\n        /* \"#utility.yul\":1265:1271   */\n      0x00\n        /* \"#utility.yul\":1273:1279   */\n      dup1\n        /* \"#utility.yul\":1322:1324   */\n      0x40\n        /* \"#utility.yul\":1310:1319   */\n      dup4\n        /* \"#utility.yul\":1301:1308   */\n      dup6\n        /* \"#utility.yul\":1297:1320   */\n      sub\n        /* \"#utility.yul\":1293:1325   */\n      slt\n        /* \"#utility.yul\":1290:1409   */\n      iszero\n      tag_120\n      jumpi\n        /* \"#utility.yul\":1328:1407   */\n      tag_121\n      tag_82\n      jump\t// in\n    tag_121:\n        /* \"#utility.yul\":1290:1409   */\n    tag_120:\n        /* \"#utility.yul\":1448:1449   */\n      0x00\n        /* \"#utility.yul\":1473:1526   */\n      tag_122\n        /* \"#utility.yul\":1518:1525   */\n      dup6\n        /* \"#utility.yul\":1509:1515   */\n      dup3\n        /* \"#utility.yul\":1498:1507   */\n      dup7\n        /* \"#utility.yul\":1494:1516   */\n      add\n        /* \"#utility.yul\":1473:1526   */\n      tag_87\n      jump\t// in\n    tag_122:\n        /* \"#utility.yul\":1463:1526   */\n      swap3\n      pop\n        /* \"#utility.yul\":1419:1536   */\n      pop\n        /* \"#utility.yul\":1575:1577   */\n      0x20\n        /* \"#utility.yul\":1601:1654   */\n      tag_123\n        /* \"#utility.yul\":1646:1653   */\n      dup6\n        /* \"#utility.yul\":1637:1643   */\n      dup3\n        /* \"#utility.yul\":1626:1635   */\n      dup7\n        /* \"#utility.yul\":1622:1644   */\n      add\n        /* \"#utility.yul\":1601:1654   */\n      tag_90\n      jump\t// in\n    tag_123:\n        /* \"#utility.yul\":1591:1654   */\n      swap2\n      pop\n        /* \"#utility.yul\":1546:1664   */\n      pop\n        /* \"#utility.yul\":1197:1671   */\n      swap3\n      pop\n      swap3\n      swap1\n      pop\n      jump\t// out\n        /* \"#utility.yul\":1677:1795   */\n    tag_91:\n        /* \"#utility.yul\":1764:1788   */\n      tag_125\n        /* \"#utility.yul\":1782:1787   */\n      dup2\n        /* \"#utility.yul\":1764:1788   */\n      tag_88\n      jump\t// in\n    tag_125:\n        /* \"#utility.yul\":1759:1762   */\n      dup3\n        /* \"#utility.yul\":1752:1789   */\n      mstore\n        /* \"#utility.yul\":1677:1795   */\n      pop\n      pop\n      jump\t// out\n        /* \"#utility.yul\":1801:2023   */\n    tag_18:\n        /* \"#utility.yul\":1894:1898   */\n      0x00\n        /* \"#utility.yul\":1932:1934   */\n      0x20\n        /* \"#utility.yul\":1921:1930   */\n      dup3\n        /* \"#utility.yul\":1917:1935   */\n      add\n        /* \"#utility.yul\":1909:1935   */\n      swap1\n      pop\n        /* \"#utility.yul\":1945:2016   */\n      tag_127\n        /* \"#utility.yul\":2013:2014   */\n      0x00\n        /* \"#utility.yul\":2002:2011   */\n      dup4\n        /* \"#utility.yul\":1998:2015   */\n      add\n        /* \"#utility.yul\":1989:1995   */\n      dup5\n        /* \"#utility.yul\":1945:2016   */\n      tag_91\n      jump\t// in\n    tag_127:\n        /* \"#utility.yul\":1801:2023   */\n      swap3\n      swap2\n      pop\n      pop\n      jump\t// out\n        /* \"#utility.yul\":2029:2178   */\n    tag_92:\n        /* \"#utility.yul\":2065:2072   */\n      0x00\n        /* \"#utility.yul\":2105:2171   */\n      0xffffffff00000000000000000000000000000000000000000000000000000000\n        /* \"#utility.yul\":2098:2103   */\n      dup3\n        /* \"#utility.yul\":2094:2172   */\n      and\n        /* \"#utility.yul\":2083:2172   */\n      swap1\n      pop\n        /* \"#utility.yul\":2029:2178   */\n      swap2\n      swap1\n      pop\n      jump\t// out\n        /* \"#utility.yul\":2184:2304   */\n    tag_93:\n        /* \"#utility.yul\":2256:2279   */\n      tag_130\n        /* \"#utility.yul\":2273:2278   */\n      dup2\n        /* \"#utility.yul\":2256:2279   */\n      tag_92\n      jump\t// in\n    tag_130:\n        /* \"#utility.yul\":2249:2254   */\n      dup2\n        /* \"#utility.yul\":2246:2280   */\n      eq\n        /* \"#utility.yul\":2236:2298   */\n      tag_131\n      jumpi\n        /* \"#utility.yul\":2294:2295   */\n      0x00\n        /* \"#utility.yul\":2291:2292   */\n      dup1\n        /* \"#utility.yul\":2284:2296   */\n      revert\n        /* \"#utility.yul\":2236:2298   */\n    tag_131:\n        /* \"#utility.yul\":2184:2304   */\n      pop\n      jump\t// out\n        /* \"#utility.yul\":2310:2447   */\n    tag_94:\n        /* \"#utility.yul\":2355:2360   */\n      0x00\n        /* \"#utility.yul\":2393:2399   */\n      dup2\n        /* \"#utility.yul\":2380:2400   */\n      calldataload\n        /* \"#utility.yul\":2371:2400   */\n      swap1\n      pop\n        /* \"#utility.yul\":2409:2441   */\n      tag_133\n        /* \"#utility.yul\":2435:2440   */\n      dup2\n        /* \"#utility.yul\":2409:2441   */\n      tag_93\n      jump\t// in\n    tag_133:\n        /* \"#utility.yul\":2310:2447   */\n      swap3\n      swap2\n      pop\n      pop\n      jump\t// out\n        /* \"#utility.yul\":2453:2780   */\n    tag_21:\n        /* \"#utility.yul\":2511:2517   */\n      0x00\n        /* \"#utility.yul\":2560:2562   */\n      0x20\n        /* \"#utility.yul\":2548:2557   */\n      dup3\n        /* \"#utility.yul\":2539:2546   */\n      dup5\n        /* \"#utility.yul\":2535:2558   */\n      sub\n        /* \"#utility.yul\":2531:2563   */\n      slt\n        /* \"#utility.yul\":2528:2647   */\n      iszero\n      tag_135\n      jumpi\n        /* \"#utility.yul\":2566:2645   */\n      tag_136\n      tag_82\n      jump\t// in\n    tag_136:\n        /* \"#utility.yul\":2528:2647   */\n    tag_135:\n        /* \"#utility.yul\":2686:2687   */\n      0x00\n        /* \"#utility.yul\":2711:2763   */\n      tag_137\n        /* \"#utility.yul\":2755:2762   */\n      dup5\n        /* \"#utility.yul\":2746:2752   */\n      dup3\n        /* \"#utility.yul\":2735:2744   */\n      dup6\n        /* \"#utility.yul\":2731:2753   */\n      add\n        /* \"#utility.yul\":2711:2763   */\n      tag_94\n      jump\t// in\n    tag_137:\n        /* \"#utility.yul\":2701:2763   */\n      swap2\n      pop\n        /* \"#utility.yul\":2657:2773   */\n      pop\n        /* \"#utility.yul\":2453:2780   */\n      swap3\n      swap2\n      pop\n      pop\n      jump\t// out\n        /* \"#utility.yul\":2786:2876   */\n    tag_95:\n        /* \"#utility.yul\":2820:2827   */\n      0x00\n        /* \"#utility.yul\":2863:2868   */\n      dup2\n        /* \"#utility.yul\":2856:2869   */\n      iszero\n        /* \"#utility.yul\":2849:2870   */\n      iszero\n        /* \"#utility.yul\":2838:2870   */\n      swap1\n      pop\n        /* \"#utility.yul\":2786:2876   */\n      swap2\n      swap1\n      pop\n      jump\t// out\n        /* \"#utility.yul\":2882:2991   */\n    tag_96:\n        /* \"#utility.yul\":2963:2984   */\n      tag_140\n        /* \"#utility.yul\":2978:2983   */\n      dup2\n        /* \"#utility.yul\":2963:2984   */\n      tag_95\n      jump\t// in\n    tag_140:\n        /* \"#utility.yul\":2958:2961   */\n      dup3\n        /* \"#utility.yul\":2951:2985   */\n      mstore\n        /* \"#utility.yul\":2882:2991   */\n      pop\n      pop\n      jump\t// out\n        /* \"#utility.yul\":2997:3207   */\n    tag_24:\n        /* \"#utility.yul\":3084:3088   */\n      0x00\n        /* \"#utility.yul\":3122:3124   */\n      0x20\n        /* \"#utility.yul\":3111:3120   */\n      dup3\n        /* \"#utility.yul\":3107:3125   */\n      add\n        /* \"#utility.yul\":3099:3125   */\n      swap1\n      pop\n        /* \"#utility.yul\":3135:3200   */\n      tag_142\n        /* \"#utility.yul\":3197:3198   */\n      0x00\n        /* \"#utility.yul\":3186:3195   */\n      dup4\n        /* \"#utility.yul\":3182:3199   */\n      add\n        /* \"#utility.yul\":3173:3179   */\n      dup5\n        /* \"#utility.yul\":3135:3200   */\n      tag_96\n      jump\t// in\n    tag_142:\n        /* \"#utility.yul\":2997:3207   */\n      swap3\n      swap2\n      pop\n      pop\n      jump\t// out\n        /* \"#utility.yul\":3213:3832   */\n    tag_27:\n        /* \"#utility.yul\":3290:3296   */\n      0x00\n        /* \"#utility.yul\":3298:3304   */\n      dup1\n        /* \"#utility.yul\":3306:3312   */\n      0x00\n        /* \"#utility.yul\":3355:3357   */\n      0x60\n        /* \"#utility.yul\":3343:3352   */\n      dup5\n        /* \"#utility.yul\":3334:3341   */\n      dup7\n        /* \"#utility.yul\":3330:3353   */\n      sub\n        /* \"#utility.yul\":3326:3358   */\n      slt\n        /* \"#utility.yul\":3323:3442   */\n      iszero\n      tag_144\n      jumpi\n        /* \"#utility.yul\":3361:3440   */\n      tag_145\n      tag_82\n      jump\t// in\n    tag_145:\n        /* \"#utility.yul\":3323:3442   */\n    tag_144:\n        /* \"#utility.yul\":3481:3482   */\n      0x00\n        /* \"#utility.yul\":3506:3559   */\n      tag_146\n        /* \"#utility.yul\":3551:3558   */\n      dup7\n        /* \"#utility.yul\":3542:3548   */\n      dup3\n        /* \"#utility.yul\":3531:3540   */\n      dup8\n        /* \"#utility.yul\":3527:3549   */\n      add\n        /* \"#utility.yul\":3506:3559   */\n      tag_87\n      jump\t// in\n    tag_146:\n        /* \"#utility.yul\":3496:3559   */\n      swap4\n      pop\n        /* \"#utility.yul\":3452:3569   */\n      pop\n        /* \"#utility.yul\":3608:3610   */\n      0x20\n        /* \"#utility.yul\":3634:3687   */\n      tag_147\n        /* \"#utility.yul\":3679:3686   */\n      dup7\n        /* \"#utility.yul\":3670:3676   */\n      dup3\n        /* \"#utility.yul\":3659:3668   */\n      dup8\n        /* \"#utility.yul\":3655:3677   */\n      add\n        /* \"#utility.yul\":3634:3687   */\n      tag_90\n      jump\t// in\n    tag_147:\n        /* \"#utility.yul\":3624:3687   */\n      swap3\n      pop\n        /* \"#utility.yul\":3579:3697   */\n      pop\n        /* \"#utility.yul\":3736:3738   */\n      0x40\n        /* \"#utility.yul\":3762:3815   */\n      tag_148\n        /* \"#utility.yul\":3807:3814   */\n      dup7\n        /* \"#utility.yul\":3798:3804   */\n      dup3\n        /* \"#utility.yul\":3787:3796   */\n      dup8\n        /* \"#utility.yul\":3783:3805   */\n      add\n        /* \"#utility.yul\":3762:3815   */\n      tag_90\n      jump\t// in\n    tag_148:\n        /* \"#utility.yul\":3752:3815   */\n      swap2\n      pop\n        /* \"#utility.yul\":3707:3825   */\n      pop\n        /* \"#utility.yul\":3213:3832   */\n      swap3\n      pop\n      swap3\n      pop\n      swap3\n      jump\t// out\n        /* \"#utility.yul\":3838:3954   */\n    tag_97:\n        /* \"#utility.yul\":3908:3929   */\n      tag_150\n        /* \"#utility.yul\":3923:3928   */\n      dup2\n        /* \"#utility.yul\":3908:3929   */\n      tag_95\n      jump\t// in\n    tag_150:\n        /* \"#utility.yul\":3901:3906   */\n      dup2\n        /* \"#utility.yul\":3898:3930   */\n      eq\n        /* \"#utility.yul\":3888:3948   */\n      tag_151\n      jumpi\n        /* \"#utility.yul\":3944:3945   */\n      0x00\n        /* \"#utility.yul\":3941:3942   */\n      dup1\n        /* \"#utility.yul\":3934:3946   */\n      revert\n        /* \"#utility.yul\":3888:3948   */\n    tag_151:\n        /* \"#utility.yul\":3838:3954   */\n      pop\n      jump\t// out\n        /* \"#utility.yul\":3960:4093   */\n    tag_98:\n        /* \"#utility.yul\":4003:4008   */\n      0x00\n        /* \"#utility.yul\":4041:4047   */\n      dup2\n        /* \"#utility.yul\":4028:4048   */\n      calldataload\n        /* \"#utility.yul\":4019:4048   */\n      swap1\n      pop\n        /* \"#utility.yul\":4057:4087   */\n      tag_153\n        /* \"#utility.yul\":4081:4086   */\n      dup2\n        /* \"#utility.yul\":4057:4087   */\n      tag_97\n      jump\t// in\n    tag_153:\n        /* \"#utility.yul\":3960:4093   */\n      swap3\n      swap2\n      pop\n      pop\n      jump\t// out\n        /* \"#utility.yul\":4099:4567   */\n    tag_34:\n        /* \"#utility.yul\":4164:4170   */\n      0x00\n        /* \"#utility.yul\":4172:4178   */\n      dup1\n        /* \"#utility.yul\":4221:4223   */\n      0x40\n        /* \"#utility.yul\":4209:4218   */\n      dup4\n        /* \"#utility.yul\":4200:4207   */\n      dup6\n        /* \"#utility.yul\":4196:4219   */\n      sub\n        /* \"#utility.yul\":4192:4224   */\n      slt\n        /* \"#utility.yul\":4189:4308   */\n      iszero\n      tag_155\n      jumpi\n        /* \"#utility.yul\":4227:4306   */\n      tag_156\n      tag_82\n      jump\t// in\n    tag_156:\n        /* \"#utility.yul\":4189:4308   */\n    tag_155:\n        /* \"#utility.yul\":4347:4348   */\n      0x00\n        /* \"#utility.yul\":4372:4425   */\n      tag_157\n        /* \"#utility.yul\":4417:4424   */\n      dup6\n        /* \"#utility.yul\":4408:4414   */\n      dup3\n        /* \"#utility.yul\":4397:4406   */\n      dup7\n        /* \"#utility.yul\":4393:4415   */\n      add\n        /* \"#utility.yul\":4372:4425   */\n      tag_87\n      jump\t// in\n    tag_157:\n        /* \"#utility.yul\":4362:4425   */\n      swap3\n      pop\n        /* \"#utility.yul\":4318:4435   */\n      pop\n        /* \"#utility.yul\":4474:4476   */\n      0x20\n        /* \"#utility.yul\":4500:4550   */\n      tag_158\n        /* \"#utility.yul\":4542:4549   */\n      dup6\n        /* \"#utility.yul\":4533:4539   */\n      dup3\n        /* \"#utility.yul\":4522:4531   */\n      dup7\n        /* \"#utility.yul\":4518:4540   */\n      add\n        /* \"#utility.yul\":4500:4550   */\n      tag_98\n      jump\t// in\n    tag_158:\n        /* \"#utility.yul\":4490:4550   */\n      swap2\n      pop\n        /* \"#utility.yul\":4445:4560   */\n      pop\n        /* \"#utility.yul\":4099:4567   */\n      swap3\n      pop\n      swap3\n      swap1\n      pop\n      jump\t// out\n        /* \"#utility.yul\":4573:5192   */\n    tag_38:\n        /* \"#utility.yul\":4650:4656   */\n      0x00\n        /* \"#utility.yul\":4658:4664   */\n      dup1\n        /* \"#utility.yul\":4666:4672   */\n      0x00\n        /* \"#utility.yul\":4715:4717   */\n      0x60\n        /* \"#utility.yul\":4703:4712   */\n      dup5\n        /* \"#utility.yul\":4694:4701   */\n      dup7\n        /* \"#utility.yul\":4690:4713   */\n      sub\n        /* \"#utility.yul\":4686:4718   */\n      slt\n        /* \"#utility.yul\":4683:4802   */\n      iszero\n      tag_160\n      jumpi\n        /* \"#utility.yul\":4721:4800   */\n      tag_161\n      tag_82\n      jump\t// in\n    tag_161:\n        /* \"#utility.yul\":4683:4802   */\n    tag_160:\n        /* \"#utility.yul\":4841:4842   */\n      0x00\n        /* \"#utility.yul\":4866:4919   */\n      tag_162\n        /* \"#utility.yul\":4911:4918   */\n      dup7\n        /* \"#utility.yul\":4902:4908   */\n      dup3\n        /* \"#utility.yul\":4891:4900   */\n      dup8\n        /* \"#utility.yul\":4887:4909   */\n      add\n        /* \"#utility.yul\":4866:4919   */\n      tag_87\n      jump\t// in\n    tag_162:\n        /* \"#utility.yul\":4856:4919   */\n      swap4\n      pop\n        /* \"#utility.yul\":4812:4929   */\n      pop\n        /* \"#utility.yul\":4968:4970   */\n      0x20\n        /* \"#utility.yul\":4994:5047   */\n      tag_163\n        /* \"#utility.yul\":5039:5046   */\n      dup7\n        /* \"#utility.yul\":5030:5036   */\n      dup3\n        /* \"#utility.yul\":5019:5028   */\n      dup8\n        /* \"#utility.yul\":5015:5037   */\n      add\n        /* \"#utility.yul\":4994:5047   */\n      tag_87\n      jump\t// in\n    tag_163:\n        /* \"#utility.yul\":4984:5047   */\n      swap3\n      pop\n        /* \"#utility.yul\":4939:5057   */\n      pop\n        /* \"#utility.yul\":5096:5098   */\n      0x40\n        /* \"#utility.yul\":5122:5175   */\n      tag_164\n        /* \"#utility.yul\":5167:5174   */\n      dup7\n        /* \"#utility.yul\":5158:5164   */\n      dup3\n        /* \"#utility.yul\":5147:5156   */\n      dup8\n        /* \"#utility.yul\":5143:5165   */\n      add\n        /* \"#utility.yul\":5122:5175   */\n      tag_90\n      jump\t// in\n    tag_164:\n        /* \"#utility.yul\":5112:5175   */\n      swap2\n      pop\n        /* \"#utility.yul\":5067:5185   */\n      pop\n        /* \"#utility.yul\":4573:5192   */\n      swap3\n      pop\n      swap3\n      pop\n      swap3\n      jump\t// out\n        /* \"#utility.yul\":5198:5672   */\n    tag_43:\n        /* \"#utility.yul\":5266:5272   */\n      0x00\n        /* \"#utility.yul\":5274:5280   */\n      dup1\n        /* \"#utility.yul\":5323:5325   */\n      0x40\n        /* \"#utility.yul\":5311:5320   */\n      dup4\n        /* \"#utility.yul\":5302:5309   */\n      dup6\n        /* \"#utility.yul\":5298:5321   */\n      sub\n        /* \"#utility.yul\":5294:5326   */\n      slt\n        /* \"#utility.yul\":5291:5410   */\n      iszero\n      tag_166\n      jumpi\n        /* \"#utility.yul\":5329:5408   */\n      tag_167\n      tag_82\n      jump\t// in\n    tag_167:\n        /* \"#utility.yul\":5291:5410   */\n    tag_166:\n        /* \"#utility.yul\":5449:5450   */\n      0x00\n        /* \"#utility.yul\":5474:5527   */\n      tag_168\n        /* \"#utility.yul\":5519:5526   */\n      dup6\n        /* \"#utility.yul\":5510:5516   */\n      dup3\n        /* \"#utility.yul\":5499:5508   */\n      dup7\n        /* \"#utility.yul\":5495:5517   */\n      add\n        /* \"#utility.yul\":5474:5527   */\n      tag_87\n      jump\t// in\n    tag_168:\n        /* \"#utility.yul\":5464:5527   */\n      swap3\n      pop\n        /* \"#utility.yul\":5420:5537   */\n      pop\n        /* \"#utility.yul\":5576:5578   */\n      0x20\n        /* \"#utility.yul\":5602:5655   */\n      tag_169\n        /* \"#utility.yul\":5647:5654   */\n      dup6\n        /* \"#utility.yul\":5638:5644   */\n      dup3\n        /* \"#utility.yul\":5627:5636   */\n      dup7\n        /* \"#utility.yul\":5623:5645   */\n      add\n        /* \"#utility.yul\":5602:5655   */\n      tag_87\n      jump\t// in\n    tag_169:\n        /* \"#utility.yul\":5592:5655   */\n      swap2\n      pop\n        /* \"#utility.yul\":5547:5665   */\n      pop\n        /* \"#utility.yul\":5198:5672   */\n      swap3\n      pop\n      swap3\n      swap1\n      pop\n      jump\t// out\n        /* \"#utility.yul\":5678:6007   */\n    tag_48:\n        /* \"#utility.yul\":5737:5743   */\n      0x00\n        /* \"#utility.yul\":5786:5788   */\n      0x20\n        /* \"#utility.yul\":5774:5783   */\n      dup3\n        /* \"#utility.yul\":5765:5772   */\n      dup5\n        /* \"#utility.yul\":5761:5784   */\n      sub\n        /* \"#utility.yul\":5757:5789   */\n      slt\n        /* \"#utility.yul\":5754:5873   */\n      iszero\n      tag_171\n      jumpi\n        /* \"#utility.yul\":5792:5871   */\n      tag_172\n      tag_82\n      jump\t// in\n    tag_172:\n        /* \"#utility.yul\":5754:5873   */\n    tag_171:\n        /* \"#utility.yul\":5912:5913   */\n      0x00\n        /* \"#utility.yul\":5937:5990   */\n      tag_173\n        /* \"#utility.yul\":5982:5989   */\n      dup5\n        /* \"#utility.yul\":5973:5979   */\n      dup3\n        /* \"#utility.yul\":5962:5971   */\n      dup6\n        /* \"#utility.yul\":5958:5980   */\n      add\n        /* \"#utility.yul\":5937:5990   */\n      tag_90\n      jump\t// in\n    tag_173:\n        /* \"#utility.yul\":5927:5990   */\n      swap2\n      pop\n        /* \"#utility.yul\":5883:6000   */\n      pop\n        /* \"#utility.yul\":5678:6007   */\n      swap3\n      swap2\n      pop\n      pop\n      jump\t// out\n        /* \"#utility.yul\":6013:6778   */\n    tag_53:\n        /* \"#utility.yul\":6099:6105   */\n      0x00\n        /* \"#utility.yul\":6107:6113   */\n      dup1\n        /* \"#utility.yul\":6115:6121   */\n      0x00\n        /* \"#utility.yul\":6123:6129   */\n      dup1\n        /* \"#utility.yul\":6172:6175   */\n      0x80\n        /* \"#utility.yul\":6160:6169   */\n      dup6\n        /* \"#utility.yul\":6151:6158   */\n      dup8\n        /* \"#utility.yul\":6147:6170   */\n      sub\n        /* \"#utility.yul\":6143:6176   */\n      slt\n        /* \"#utility.yul\":6140:6260   */\n      iszero\n      tag_175\n      jumpi\n        /* \"#utility.yul\":6179:6258   */\n      tag_176\n      tag_82\n      jump\t// in\n    tag_176:\n        /* \"#utility.yul\":6140:6260   */\n    tag_175:\n        /* \"#utility.yul\":6299:6300   */\n      0x00\n        /* \"#utility.yul\":6324:6377   */\n      tag_177\n        /* \"#utility.yul\":6369:6376   */\n      dup8\n        /* \"#utility.yul\":6360:6366   */\n      dup3\n        /* \"#utility.yul\":6349:6358   */\n      dup9\n        /* \"#utility.yul\":6345:6367   */\n      add\n        /* \"#utility.yul\":6324:6377   */\n      tag_87\n      jump\t// in\n    tag_177:\n        /* \"#utility.yul\":6314:6377   */\n      swap5\n      pop\n        /* \"#utility.yul\":6270:6387   */\n      pop\n        /* \"#utility.yul\":6426:6428   */\n      0x20\n        /* \"#utility.yul\":6452:6505   */\n      tag_178\n        /* \"#utility.yul\":6497:6504   */\n      dup8\n        /* \"#utility.yul\":6488:6494   */\n      dup3\n        /* \"#utility.yul\":6477:6486   */\n      dup9\n        /* \"#utility.yul\":6473:6495   */\n      add\n        /* \"#utility.yul\":6452:6505   */\n      tag_87\n      jump\t// in\n    tag_178:\n        /* \"#utility.yul\":6442:6505   */\n      swap4\n      pop\n        /* \"#utility.yul\":6397:6515   */\n      pop\n        /* \"#utility.yul\":6554:6556   */\n      0x40\n        /* \"#utility.yul\":6580:6633   */\n      tag_179\n        /* \"#utility.yul\":6625:6632   */\n      dup8\n        /* \"#utility.yul\":6616:6622   */\n      dup3\n        /* \"#utility.yul\":6605:6614   */\n      dup9\n        /* \"#utility.yul\":6601:6623   */\n      add\n        /* \"#utility.yul\":6580:6633   */\n      tag_90\n      jump\t// in\n    tag_179:\n        /* \"#utility.yul\":6570:6633   */\n      swap3\n      pop\n        /* \"#utility.yul\":6525:6643   */\n      pop\n        /* \"#utility.yul\":6682:6684   */\n      0x60\n        /* \"#utility.yul\":6708:6761   */\n      tag_180\n        /* \"#utility.yul\":6753:6760   */\n      dup8\n        /* \"#utility.yul\":6744:6750   */\n      dup3\n        /* \"#utility.yul\":6733:6742   */\n      dup9\n        /* \"#utility.yul\":6729:6751   */\n      add\n        /* \"#utility.yul\":6708:6761   */\n      tag_90\n      jump\t// in\n    tag_180:\n        /* \"#utility.yul\":6698:6761   */\n      swap2\n      pop\n        /* \"#utility.yul\":6653:6771   */\n      pop\n        /* \"#utility.yul\":6013:6778   */\n      swap3\n      swap6\n      swap2\n      swap5\n      pop\n      swap3\n      pop\n      jump\t// out\n        /* \"#utility.yul\":6784:6902   */\n    tag_99:\n        /* \"#utility.yul\":6871:6895   */\n      tag_182\n        /* \"#utility.yul\":6889:6894   */\n      dup2\n        /* \"#utility.yul\":6871:6895   */\n      tag_85\n      jump\t// in\n    tag_182:\n        /* \"#utility.yul\":6866:6869   */\n      dup3\n        /* \"#utility.yul\":6859:6896   */\n      mstore\n        /* \"#utility.yul\":6784:6902   */\n      pop\n      pop\n      jump\t// out\n        /* \"#utility.yul\":6908:7240   */\n    tag_60:\n        /* \"#utility.yul\":7029:7033   */\n      0x00\n        /* \"#utility.yul\":7067:7069   */\n      0x40\n        /* \"#utility.yul\":7056:7065   */\n      dup3\n        /* \"#utility.yul\":7052:7070   */\n      add\n        /* \"#utility.yul\":7044:7070   */\n      swap1\n      pop\n        /* \"#utility.yul\":7080:7151   */\n      tag_184\n        /* \"#utility.yul\":7148:7149   */\n      0x00\n        /* \"#utility.yul\":7137:7146   */\n      dup4\n        /* \"#utility.yul\":7133:7150   */\n      add\n        /* \"#utility.yul\":7124:7130   */\n      dup6\n        /* \"#utility.yul\":7080:7151   */\n      tag_99\n      jump\t// in\n    tag_184:\n        /* \"#utility.yul\":7161:7233   */\n      tag_185\n        /* \"#utility.yul\":7229:7231   */\n      0x20\n        /* \"#utility.yul\":7218:7227   */\n      dup4\n        /* \"#utility.yul\":7214:7232   */\n      add\n        /* \"#utility.yul\":7205:7211   */\n      dup5\n        /* \"#utility.yul\":7161:7233   */\n      tag_91\n      jump\t// in\n    tag_185:\n        /* \"#utility.yul\":6908:7240   */\n      swap4\n      swap3\n      pop\n      pop\n      pop\n      jump\t// out\n        /* \"#utility.yul\":7246:7426   */\n    tag_100:\n        /* \"#utility.yul\":7294:7371   */\n      0x4e487b7100000000000000000000000000000000000000000000000000000000\n        /* \"#utility.yul\":7291:7292   */\n      0x00\n        /* \"#utility.yul\":7284:7372   */\n      mstore\n        /* \"#utility.yul\":7391:7395   */\n      0x11\n        /* \"#utility.yul\":7388:7389   */\n      0x04\n        /* \"#utility.yul\":7381:7396   */\n      mstore\n        /* \"#utility.yul\":7415:7419   */\n      0x24\n        /* \"#utility.yul\":7412:7413   */\n      0x00\n        /* \"#utility.yul\":7405:7420   */\n      revert\n        /* \"#utility.yul\":7432:7626   */\n    tag_62:\n        /* \"#utility.yul\":7472:7476   */\n      0x00\n        /* \"#utility.yul\":7492:7512   */\n      tag_188\n        /* \"#utility.yul\":7510:7511   */\n      dup3\n        /* \"#utility.yul\":7492:7512   */\n      tag_88\n      jump\t// in\n    tag_188:\n        /* \"#utility.yul\":7487:7512   */\n      swap2\n      pop\n        /* \"#utility.yul\":7526:7546   */\n      tag_189\n        /* \"#utility.yul\":7544:7545   */\n      dup4\n        /* \"#utility.yul\":7526:7546   */\n      tag_88\n      jump\t// in\n    tag_189:\n        /* \"#utility.yul\":7521:7546   */\n      swap3\n      pop\n        /* \"#utility.yul\":7570:7571   */\n      dup3\n        /* \"#utility.yul\":7567:7568   */\n      dup3\n        /* \"#utility.yul\":7563:7572   */\n      sub\n        /* \"#utility.yul\":7555:7572   */\n      swap1\n      pop\n        /* \"#utility.yul\":7594:7595   */\n      dup2\n        /* \"#utility.yul\":7588:7592   */\n      dup2\n        /* \"#utility.yul\":7585:7596   */\n      gt\n        /* \"#utility.yul\":7582:7619   */\n      iszero\n      tag_190\n      jumpi\n        /* \"#utility.yul\":7599:7617   */\n      tag_191\n      tag_100\n      jump\t// in\n    tag_191:\n        /* \"#utility.yul\":7582:7619   */\n    tag_190:\n        /* \"#utility.yul\":7432:7626   */\n      swap3\n      swap2\n      pop\n      pop\n      jump\t// out\n        /* \"#utility.yul\":7632:7823   */\n    tag_64:\n        /* \"#utility.yul\":7672:7675   */\n      0x00\n        /* \"#utility.yul\":7691:7711   */\n      tag_193\n        /* \"#utility.yul\":7709:7710   */\n      dup3\n        /* \"#utility.yul\":7691:7711   */\n      tag_88\n      jump\t// in\n    tag_193:\n        /* \"#utility.yul\":7686:7711   */\n      swap2\n      pop\n        /* \"#utility.yul\":7725:7745   */\n      tag_194\n        /* \"#utility.yul\":7743:7744   */\n      dup4\n        /* \"#utility.yul\":7725:7745   */\n      tag_88\n      jump\t// in\n    tag_194:\n        /* \"#utility.yul\":7720:7745   */\n      swap3\n      pop\n        /* \"#utility.yul\":7768:7769   */\n      dup3\n        /* \"#utility.yul\":7765:7766   */\n      dup3\n        /* \"#utility.yul\":7761:7770   */\n      add\n        /* \"#utility.yul\":7754:7770   */\n      swap1\n      pop\n        /* \"#utility.yul\":7789:7792   */\n      dup1\n        /* \"#utility.yul\":7786:7787   */\n      dup3\n        /* \"#utility.yul\":7783:7793   */\n      gt\n        /* \"#utility.yul\":7780:7816   */\n      iszero\n      tag_195\n      jumpi\n        /* \"#utility.yul\":7796:7814   */\n      tag_196\n      tag_100\n      jump\t// in\n    tag_196:\n        /* \"#utility.yul\":7780:7816   */\n    tag_195:\n        /* \"#utility.yul\":7632:7823   */\n      swap3\n      swap2\n      pop\n      pop\n      jump\t// out\n\n    auxdata: 0xa264697066735822122038974006c5972520fa75f2a577878f56a0c9274e9f2fd34035332b4ec8f2429764736f6c634300081a0033\n}\n",
				"bytecode": {
					"linkReferences": {},
					"object": "6080604052348015600e575f80fd5b50610f6f8061001c5f395ff3fe608060405234801561000f575f80fd5b5060043610610090575f3560e01c8063558a729711610064578063558a72971461012c578063598af9e714610148578063b6363cf214610178578063bd85b039146101a8578063fe99049a146101d857610090565b8062fdd58e1461009457806301ffc9a7146100c4578063095bcdb6146100f4578063426a849314610110575b5f80fd5b6100ae60048036038101906100a99190610b82565b6101f4565b6040516100bb9190610bcf565b60405180910390f35b6100de60048036038101906100d99190610c3d565b610214565b6040516100eb9190610c82565b60405180910390f35b61010e60048036038101906101099190610c9b565b6102e5565b005b61012a60048036038101906101259190610c9b565b6104a7565b005b61014660048036038101906101419190610d15565b61059e565b005b610162600480360381019061015d9190610d53565b610696565b60405161016f9190610bcf565b60405180910390f35b610192600480360381019061018d9190610da3565b6106c1565b60405161019f9190610c82565b60405180910390f35b6101c260048036038101906101bd9190610de1565b6106eb565b6040516101cf9190610bcf565b60405180910390f35b6101f260048036038101906101ed9190610e0c565b6106ff565b005b6001602052815f5260405f20602052805f5260405f205f91509150505481565b5f7fb2e69f8a000000000000000000000000000000000000000000000000000000007bffffffffffffffffffffffffffffffffffffffffffffffffffffffff1916827bffffffffffffffffffffffffffffffffffffffffffffffffffffffff191614806102de57507f01ffc9a7000000000000000000000000000000000000000000000000000000007bffffffffffffffffffffffffffffffffffffffffffffffffffffffff1916827bffffffffffffffffffffffffffffffffffffffffffffffffffffffff1916145b9050919050565b8060015f3373ffffffffffffffffffffffffffffffffffffffff1673ffffffffffffffffffffffffffffffffffffffff1681526020019081526020015f205f8481526020019081526020015f205410156103785733826040517ff6deaa0400000000000000000000000000000000000000000000000000000000815260040161036f929190610e7f565b60405180910390fd5b8060015f3373ffffffffffffffffffffffffffffffffffffffff1673ffffffffffffffffffffffffffffffffffffffff1681526020019081526020015f205f8481526020019081526020015f205f8282546103d39190610ed3565b925050819055508060015f8573ffffffffffffffffffffffffffffffffffffffff1673ffffffffffffffffffffffffffffffffffffffff1681526020019081526020015f205f8481526020019081526020015f205f8282546104359190610f06565b92505081905550818373ffffffffffffffffffffffffffffffffffffffff163373ffffffffffffffffffffffffffffffffffffffff167f9ed053bb818ff08b8353cd46f78db1f0799f31c9e4458fdb425c10eccd2efc448460405161049a9190610bcf565b60405180910390a4505050565b8060025f3373ffffffffffffffffffffffffffffffffffffffff1673ffffffffffffffffffffffffffffffffffffffff1681526020019081526020015f205f8573ffffffffffffffffffffffffffffffffffffffff1673ffffffffffffffffffffffffffffffffffffffff1681526020019081526020015f205f8481526020019081526020015f2081905550818373ffffffffffffffffffffffffffffffffffffffff163373ffffffffffffffffffffffffffffffffffffffff167fb3fd5071835887567a0671151121894ddccc2842f1d10bedad13e0d17cace9a7846040516105919190610bcf565b60405180910390a4505050565b8060035f3373ffffffffffffffffffffffffffffffffffffffff1673ffffffffffffffffffffffffffffffffffffffff1681526020019081526020015f205f8473ffffffffffffffffffffffffffffffffffffffff1673ffffffffffffffffffffffffffffffffffffffff1681526020019081526020015f205f6101000a81548160ff0219169083151502179055508173ffffffffffffffffffffffffffffffffffffffff163373ffffffffffffffffffffffffffffffffffffffff167fceb576d9f15e4e200fdb5096d64d5dfd667e16def20c1eefd14256d8e3faa2678360405161068a9190610c82565b60405180910390a35050565b6002602052825f5260405f20602052815f5260405f20602052805f5260405f205f9250925050505481565b6003602052815f5260405f20602052805f5260405f205f915091509054906101000a900460ff1681565b5f602052805f5260405f205f915090505481565b3373ffffffffffffffffffffffffffffffffffffffff168473ffffffffffffffffffffffffffffffffffffffff16141580156107bd575060035f8573ffffffffffffffffffffffffffffffffffffffff1673ffffffffffffffffffffffffffffffffffffffff1681526020019081526020015f205f3373ffffffffffffffffffffffffffffffffffffffff1673ffffffffffffffffffffffffffffffffffffffff1681526020019081526020015f205f9054906101000a900460ff16155b1561092e578060025f8673ffffffffffffffffffffffffffffffffffffffff1673ffffffffffffffffffffffffffffffffffffffff1681526020019081526020015f205f3373ffffffffffffffffffffffffffffffffffffffff1673ffffffffffffffffffffffffffffffffffffffff1681526020019081526020015f205f8481526020019081526020015f205410156108905733826040517f731555bd000000000000000000000000000000000000000000000000000000008152600401610887929190610e7f565b60405180910390fd5b8060025f8673ffffffffffffffffffffffffffffffffffffffff1673ffffffffffffffffffffffffffffffffffffffff1681526020019081526020015f205f3373ffffffffffffffffffffffffffffffffffffffff1673ffffffffffffffffffffffffffffffffffffffff1681526020019081526020015f205f8481526020019081526020015f205f8282546109269190610ed3565b925050819055505b8060015f8673ffffffffffffffffffffffffffffffffffffffff1673ffffffffffffffffffffffffffffffffffffffff1681526020019081526020015f205f8481526020019081526020015f205410156109c15783826040517ff6deaa040000000000000000000000000000000000000000000000000000000081526004016109b8929190610e7f565b60405180910390fd5b8060015f8673ffffffffffffffffffffffffffffffffffffffff1673ffffffffffffffffffffffffffffffffffffffff1681526020019081526020015f205f8481526020019081526020015f205f828254610a1c9190610ed3565b925050819055508060015f8573ffffffffffffffffffffffffffffffffffffffff1673ffffffffffffffffffffffffffffffffffffffff1681526020019081526020015f205f8481526020019081526020015f205f828254610a7e9190610f06565b92505081905550818373ffffffffffffffffffffffffffffffffffffffff168573ffffffffffffffffffffffffffffffffffffffff167f9ed053bb818ff08b8353cd46f78db1f0799f31c9e4458fdb425c10eccd2efc4484604051610ae39190610bcf565b60405180910390a450505050565b5f80fd5b5f73ffffffffffffffffffffffffffffffffffffffff82169050919050565b5f610b1e82610af5565b9050919050565b610b2e81610b14565b8114610b38575f80fd5b50565b5f81359050610b4981610b25565b92915050565b5f819050919050565b610b6181610b4f565b8114610b6b575f80fd5b50565b5f81359050610b7c81610b58565b92915050565b5f8060408385031215610b9857610b97610af1565b5b5f610ba585828601610b3b565b9250506020610bb685828601610b6e565b9150509250929050565b610bc981610b4f565b82525050565b5f602082019050610be25f830184610bc0565b92915050565b5f7fffffffff0000000000000000000000000000000000000000000000000000000082169050919050565b610c1c81610be8565b8114610c26575f80fd5b50565b5f81359050610c3781610c13565b92915050565b5f60208284031215610c5257610c51610af1565b5b5f610c5f84828501610c29565b91505092915050565b5f8115159050919050565b610c7c81610c68565b82525050565b5f602082019050610c955f830184610c73565b92915050565b5f805f60608486031215610cb257610cb1610af1565b5b5f610cbf86828701610b3b565b9350506020610cd086828701610b6e565b9250506040610ce186828701610b6e565b9150509250925092565b610cf481610c68565b8114610cfe575f80fd5b50565b5f81359050610d0f81610ceb565b92915050565b5f8060408385031215610d2b57610d2a610af1565b5b5f610d3885828601610b3b565b9250506020610d4985828601610d01565b9150509250929050565b5f805f60608486031215610d6a57610d69610af1565b5b5f610d7786828701610b3b565b9350506020610d8886828701610b3b565b9250506040610d9986828701610b6e565b9150509250925092565b5f8060408385031215610db957610db8610af1565b5b5f610dc685828601610b3b565b9250506020610dd785828601610b3b565b9150509250929050565b5f60208284031215610df657610df5610af1565b5b5f610e0384828501610b6e565b91505092915050565b5f805f8060808587031215610e2457610e23610af1565b5b5f610e3187828801610b3b565b9450506020610e4287828801610b3b565b9350506040610e5387828801610b6e565b9250506060610e6487828801610b6e565b91505092959194509250565b610e7981610b14565b82525050565b5f604082019050610e925f830185610e70565b610e9f6020830184610bc0565b9392505050565b7f4e487b71000000000000000000000000000000000000000000000000000000005f52601160045260245ffd5b5f610edd82610b4f565b9150610ee883610b4f565b9250828203905081811115610f0057610eff610ea6565b5b92915050565b5f610f1082610b4f565b9150610f1b83610b4f565b9250828201905080821115610f3357610f32610ea6565b5b9291505056fea264697066735822122038974006c5972520fa75f2a577878f56a0c9274e9f2fd34035332b4ec8f2429764736f6c634300081a0033",
					"opcodes": "PUSH1 0x80 PUSH1 0x40 MSTORE CALLVALUE DUP1 ISZERO PUSH1 0xE JUMPI PUSH0 DUP1 REVERT JUMPDEST POP PUSH2 0xF6F DUP1 PUSH2 0x1C PUSH0 CODECOPY PUSH0 RETURN INVALID PUSH1 0x80 PUSH1 0x40 MSTORE CALLVALUE DUP1 ISZERO PUSH2 0xF JUMPI PUSH0 DUP1 REVERT JUMPDEST POP PUSH1 0x4 CALLDATASIZE LT PUSH2 0x90 JUMPI PUSH0 CALLDATALOAD PUSH1 0xE0 SHR DUP1 PUSH4 0x558A7297 GT PUSH2 0x64 JUMPI DUP1 PUSH4 0x558A7297 EQ PUSH2 0x12C JUMPI DUP1 PUSH4 0x598AF9E7 EQ PUSH2 0x148 JUMPI DUP1 PUSH4 0xB6363CF2 EQ PUSH2 0x178 JUMPI DUP1 PUSH4 0xBD85B039 EQ PUSH2 0x1A8 JUMPI DUP1 PUSH4 0xFE99049A EQ PUSH2 0x1D8 JUMPI PUSH2 0x90 JUMP JUMPDEST DUP1 PUSH3 0xFDD58E EQ PUSH2 0x94 JUMPI DUP1 PUSH4 0x1FFC9A7 EQ PUSH2 0xC4 JUMPI DUP1 PUSH4 0x95BCDB6 EQ PUSH2 0xF4 JUMPI DUP1 PUSH4 0x426A8493 EQ PUSH2 0x110 JUMPI JUMPDEST PUSH0 DUP1 REVERT JUMPDEST PUSH2 0xAE PUSH1 0x4 DUP1 CALLDATASIZE SUB DUP2 ADD SWAP1 PUSH2 0xA9 SWAP2 SWAP1 PUSH2 0xB82 JUMP JUMPDEST PUSH2 0x1F4 JUMP JUMPDEST PUSH1 0x40 MLOAD PUSH2 0xBB SWAP2 SWAP1 PUSH2 0xBCF JUMP JUMPDEST PUSH1 0x40 MLOAD DUP1 SWAP2 SUB SWAP1 RETURN JUMPDEST PUSH2 0xDE PUSH1 0x4 DUP1 CALLDATASIZE SUB DUP2 ADD SWAP1 PUSH2 0xD9 SWAP2 SWAP1 PUSH2 0xC3D JUMP JUMPDEST PUSH2 0x214 JUMP JUMPDEST PUSH1 0x40 MLOAD PUSH2 0xEB SWAP2 SWAP1 PUSH2 0xC82 JUMP JUMPDEST PUSH1 0x40 MLOAD DUP1 SWAP2 SUB SWAP1 RETURN JUMPDEST PUSH2 0x10E PUSH1 0x4 DUP1 CALLDATASIZE SUB DUP2 ADD SWAP1 PUSH2 0x109 SWAP2 SWAP1 PUSH2 0xC9B JUMP JUMPDEST PUSH2 0x2E5 JUMP JUMPDEST STOP JUMPDEST PUSH2 0x12A PUSH1 0x4 DUP1 CALLDATASIZE SUB DUP2 ADD SWAP1 PUSH2 0x125 SWAP2 SWAP1 PUSH2 0xC9B JUMP JUMPDEST PUSH2 0x4A7 JUMP JUMPDEST STOP JUMPDEST PUSH2 0x146 PUSH1 0x4 DUP1 CALLDATASIZE SUB DUP2 ADD SWAP1 PUSH2 0x141 SWAP2 SWAP1 PUSH2 0xD15 JUMP JUMPDEST PUSH2 0x59E JUMP JUMPDEST STOP JUMPDEST PUSH2 0x162 PUSH1 0x4 DUP1 CALLDATASIZE SUB DUP2 ADD SWAP1 PUSH2 0x15D SWAP2 SWAP1 PUSH2 0xD53 JUMP JUMPDEST PUSH2 0x696 JUMP JUMPDEST PUSH1 0x40 MLOAD PUSH2 0x16F SWAP2 SWAP1 PUSH2 0xBCF JUMP JUMPDEST PUSH1 0x40 MLOAD DUP1 SWAP2 SUB SWAP1 RETURN JUMPDEST PUSH2 0x192 PUSH1 0x4 DUP1 CALLDATASIZE SUB DUP2 ADD SWAP1 PUSH2 0x18D SWAP2 SWAP1 PUSH2 0xDA3 JUMP JUMPDEST PUSH2 0x6C1 JUMP JUMPDEST PUSH1 0x40 MLOAD PUSH2 0x19F SWAP2 SWAP1 PUSH2 0xC82 JUMP JUMPDEST PUSH1 0x40 MLOAD DUP1 SWAP2 SUB SWAP1 RETURN JUMPDEST PUSH2 0x1C2 PUSH1 0x4 DUP1 CALLDATASIZE SUB DUP2 ADD SWAP1 PUSH2 0x1BD SWAP2 SWAP1 PUSH2 0xDE1 JUMP JUMPDEST PUSH2 0x6EB JUMP JUMPDEST PUSH1 0x40 MLOAD PUSH2 0x1CF SWAP2 SWAP1 PUSH2 0xBCF JUMP JUMPDEST PUSH1 0x40 MLOAD DUP1 SWAP2 SUB SWAP1 RETURN JUMPDEST PUSH2 0x1F2 PUSH1 0x4 DUP1 CALLDATASIZE SUB DUP2 ADD SWAP1 PUSH2 0x1ED SWAP2 SWAP1 PUSH2 0xE0C JUMP JUMPDEST PUSH2 0x6FF JUMP JUMPDEST STOP JUMPDEST PUSH1 0x1 PUSH1 0x20 MSTORE DUP2 PUSH0 MSTORE PUSH1 0x40 PUSH0 KECCAK256 PUSH1 0x20 MSTORE DUP1 PUSH0 MSTORE PUSH1 0x40 PUSH0 KECCAK256 PUSH0 SWAP2 POP SWAP2 POP POP SLOAD DUP2 JUMP JUMPDEST PUSH0 PUSH32 0xB2E69F8A00000000000000000000000000000000000000000000000000000000 PUSH28 0xFFFFFFFFFFFFFFFFFFFFFFFFFFFFFFFFFFFFFFFFFFFFFFFFFFFFFFFF NOT AND DUP3 PUSH28 0xFFFFFFFFFFFFFFFFFFFFFFFFFFFFFFFFFFFFFFFFFFFFFFFFFFFFFFFF NOT AND EQ DUP1 PUSH2 0x2DE JUMPI POP PUSH32 0x1FFC9A700000000000000000000000000000000000000000000000000000000 PUSH28 0xFFFFFFFFFFFFFFFFFFFFFFFFFFFFFFFFFFFFFFFFFFFFFFFFFFFFFFFF NOT AND DUP3 PUSH28 0xFFFFFFFFFFFFFFFFFFFFFFFFFFFFFFFFFFFFFFFFFFFFFFFFFFFFFFFF NOT AND EQ JUMPDEST SWAP1 POP SWAP2 SWAP1 POP JUMP JUMPDEST DUP1 PUSH1 0x1 PUSH0 CALLER PUSH20 0xFFFFFFFFFFFFFFFFFFFFFFFFFFFFFFFFFFFFFFFF AND PUSH20 0xFFFFFFFFFFFFFFFFFFFFFFFFFFFFFFFFFFFFFFFF AND DUP2 MSTORE PUSH1 0x20 ADD SWAP1 DUP2 MSTORE PUSH1 0x20 ADD PUSH0 KECCAK256 PUSH0 DUP5 DUP2 MSTORE PUSH1 0x20 ADD SWAP1 DUP2 MSTORE PUSH1 0x20 ADD PUSH0 KECCAK256 SLOAD LT ISZERO PUSH2 0x378 JUMPI CALLER DUP3 PUSH1 0x40 MLOAD PUSH32 0xF6DEAA0400000000000000000000000000000000000000000000000000000000 DUP2 MSTORE PUSH1 0x4 ADD PUSH2 0x36F SWAP3 SWAP2 SWAP1 PUSH2 0xE7F JUMP JUMPDEST PUSH1 0x40 MLOAD DUP1 SWAP2 SUB SWAP1 REVERT JUMPDEST DUP1 PUSH1 0x1 PUSH0 CALLER PUSH20 0xFFFFFFFFFFFFFFFFFFFFFFFFFFFFFFFFFFFFFFFF AND PUSH20 0xFFFFFFFFFFFFFFFFFFFFFFFFFFFFFFFFFFFFFFFF AND DUP2 MSTORE PUSH1 0x20 ADD SWAP1 DUP2 MSTORE PUSH1 0x20 ADD PUSH0 KECCAK256 PUSH0 DUP5 DUP2 MSTORE PUSH1 0x20 ADD SWAP1 DUP2 MSTORE PUSH1 0x20 ADD PUSH0 KECCAK256 PUSH0 DUP3 DUP3 SLOAD PUSH2 0x3D3 SWAP2 SWAP1 PUSH2 0xED3 JUMP JUMPDEST SWAP3 POP POP DUP2 SWAP1 SSTORE POP DUP1 PUSH1 0x1 PUSH0 DUP6 PUSH20 0xFFFFFFFFFFFFFFFFFFFFFFFFFFFFFFFFFFFFFFFF AND PUSH20 0xFFFFFFFFFFFFFFFFFFFFFFFFFFFFFFFFFFFFFFFF AND DUP2 MSTORE PUSH1 0x20 ADD SWAP1 DUP2 MSTORE PUSH1 0x20 ADD PUSH0 KECCAK256 PUSH0 DUP5 DUP2 MSTORE PUSH1 0x20 ADD SWAP1 DUP2 MSTORE PUSH1 0x20 ADD PUSH0 KECCAK256 PUSH0 DUP3 DUP3 SLOAD PUSH2 0x435 SWAP2 SWAP1 PUSH2 0xF06 JUMP JUMPDEST SWAP3 POP POP DUP2 SWAP1 SSTORE POP DUP2 DUP4 PUSH20 0xFFFFFFFFFFFFFFFFFFFFFFFFFFFFFFFFFFFFFFFF AND CALLER PUSH20 0xFFFFFFFFFFFFFFFFFFFFFFFFFFFFFFFFFFFFFFFF AND PUSH32 0x9ED053BB818FF08B8353CD46F78DB1F0799F31C9E4458FDB425C10ECCD2EFC44 DUP5 PUSH1 0x40 MLOAD PUSH2 0x49A SWAP2 SWAP1 PUSH2 0xBCF JUMP JUMPDEST PUSH1 0x40 MLOAD DUP1 SWAP2 SUB SWAP1 LOG4 POP POP POP JUMP JUMPDEST DUP1 PUSH1 0x2 PUSH0 CALLER PUSH20 0xFFFFFFFFFFFFFFFFFFFFFFFFFFFFFFFFFFFFFFFF AND PUSH20 0xFFFFFFFFFFFFFFFFFFFFFFFFFFFFFFFFFFFFFFFF AND DUP2 MSTORE PUSH1 0x20 ADD SWAP1 DUP2 MSTORE PUSH1 0x20 ADD PUSH0 KECCAK256 PUSH0 DUP6 PUSH20 0xFFFFFFFFFFFFFFFFFFFFFFFFFFFFFFFFFFFFFFFF AND PUSH20 0xFFFFFFFFFFFFFFFFFFFFFFFFFFFFFFFFFFFFFFFF AND DUP2 MSTORE PUSH1 0x20 ADD SWAP1 DUP2 MSTORE PUSH1 0x20 ADD PUSH0 KECCAK256 PUSH0 DUP5 DUP2 MSTORE PUSH1 0x20 ADD SWAP1 DUP2 MSTORE PUSH1 0x20 ADD PUSH0 KECCAK256 DUP2 SWAP1 SSTORE POP DUP2 DUP4 PUSH20 0xFFFFFFFFFFFFFFFFFFFFFFFFFFFFFFFFFFFFFFFF AND CALLER PUSH20 0xFFFFFFFFFFFFFFFFFFFFFFFFFFFFFFFFFFFFFFFF AND PUSH32 0xB3FD5071835887567A0671151121894DDCCC2842F1D10BEDAD13E0D17CACE9A7 DUP5 PUSH1 0x40 MLOAD PUSH2 0x591 SWAP2 SWAP1 PUSH2 0xBCF JUMP JUMPDEST PUSH1 0x40 MLOAD DUP1 SWAP2 SUB SWAP1 LOG4 POP POP POP JUMP JUMPDEST DUP1 PUSH1 0x3 PUSH0 CALLER PUSH20 0xFFFFFFFFFFFFFFFFFFFFFFFFFFFFFFFFFFFFFFFF AND PUSH20 0xFFFFFFFFFFFFFFFFFFFFFFFFFFFFFFFFFFFFFFFF AND DUP2 MSTORE PUSH1 0x20 ADD SWAP1 DUP2 MSTORE PUSH1 0x20 ADD PUSH0 KECCAK256 PUSH0 DUP5 PUSH20 0xFFFFFFFFFFFFFFFFFFFFFFFFFFFFFFFFFFFFFFFF AND PUSH20 0xFFFFFFFFFFFFFFFFFFFFFFFFFFFFFFFFFFFFFFFF AND DUP2 MSTORE PUSH1 0x20 ADD SWAP1 DUP2 MSTORE PUSH1 0x20 ADD PUSH0 KECCAK256 PUSH0 PUSH2 0x100 EXP DUP2 SLOAD DUP2 PUSH1 0xFF MUL NOT AND SWAP1 DUP4 ISZERO ISZERO MUL OR SWAP1 SSTORE POP DUP2 PUSH20 0xFFFFFFFFFFFFFFFFFFFFFFFFFFFFFFFFFFFFFFFF AND CALLER PUSH20 0xFFFFFFFFFFFFFFFFFFFFFFFFFFFFFFFFFFFFFFFF AND PUSH32 0xCEB576D9F15E4E200FDB5096D64D5DFD667E16DEF20C1EEFD14256D8E3FAA267 DUP4 PUSH1 0x40 MLOAD PUSH2 0x68A SWAP2 SWAP1 PUSH2 0xC82 JUMP JUMPDEST PUSH1 0x40 MLOAD DUP1 SWAP2 SUB SWAP1 LOG3 POP POP JUMP JUMPDEST PUSH1 0x2 PUSH1 0x20 MSTORE DUP3 PUSH0 MSTORE PUSH1 0x40 PUSH0 KECCAK256 PUSH1 0x20 MSTORE DUP2 PUSH0 MSTORE PUSH1 0x40 PUSH0 KECCAK256 PUSH1 0x20 MSTORE DUP1 PUSH0 MSTORE PUSH1 0x40 PUSH0 KECCAK256 PUSH0 SWAP3 POP SWAP3 POP POP POP SLOAD DUP2 JUMP JUMPDEST PUSH1 0x3 PUSH1 0x20 MSTORE DUP2 PUSH0 MSTORE PUSH1 0x40 PUSH0 KECCAK256 PUSH1 0x20 MSTORE DUP1 PUSH0 MSTORE PUSH1 0x40 PUSH0 KECCAK256 PUSH0 SWAP2 POP SWAP2 POP SWAP1 SLOAD SWAP1 PUSH2 0x100 EXP SWAP1 DIV PUSH1 0xFF AND DUP2 JUMP JUMPDEST PUSH0 PUSH1 0x20 MSTORE DUP1 PUSH0 MSTORE PUSH1 0x40 PUSH0 KECCAK256 PUSH0 SWAP2 POP SWAP1 POP SLOAD DUP2 JUMP JUMPDEST CALLER PUSH20 0xFFFFFFFFFFFFFFFFFFFFFFFFFFFFFFFFFFFFFFFF AND DUP5 PUSH20 0xFFFFFFFFFFFFFFFFFFFFFFFFFFFFFFFFFFFFFFFF AND EQ ISZERO DUP1 ISZERO PUSH2 0x7BD JUMPI POP PUSH1 0x3 PUSH0 DUP6 PUSH20 0xFFFFFFFFFFFFFFFFFFFFFFFFFFFFFFFFFFFFFFFF AND PUSH20 0xFFFFFFFFFFFFFFFFFFFFFFFFFFFFFFFFFFFFFFFF AND DUP2 MSTORE PUSH1 0x20 ADD SWAP1 DUP2 MSTORE PUSH1 0x20 ADD PUSH0 KECCAK256 PUSH0 CALLER PUSH20 0xFFFFFFFFFFFFFFFFFFFFFFFFFFFFFFFFFFFFFFFF AND PUSH20 0xFFFFFFFFFFFFFFFFFFFFFFFFFFFFFFFFFFFFFFFF AND DUP2 MSTORE PUSH1 0x20 ADD SWAP1 DUP2 MSTORE PUSH1 0x20 ADD PUSH0 KECCAK256 PUSH0 SWAP1 SLOAD SWAP1 PUSH2 0x100 EXP SWAP1 DIV PUSH1 0xFF AND ISZERO JUMPDEST ISZERO PUSH2 0x92E JUMPI DUP1 PUSH1 0x2 PUSH0 DUP7 PUSH20 0xFFFFFFFFFFFFFFFFFFFFFFFFFFFFFFFFFFFFFFFF AND PUSH20 0xFFFFFFFFFFFFFFFFFFFFFFFFFFFFFFFFFFFFFFFF AND DUP2 MSTORE PUSH1 0x20 ADD SWAP1 DUP2 MSTORE PUSH1 0x20 ADD PUSH0 KECCAK256 PUSH0 CALLER PUSH20 0xFFFFFFFFFFFFFFFFFFFFFFFFFFFFFFFFFFFFFFFF AND PUSH20 0xFFFFFFFFFFFFFFFFFFFFFFFFFFFFFFFFFFFFFFFF AND DUP2 MSTORE PUSH1 0x20 ADD SWAP1 DUP2 MSTORE PUSH1 0x20 ADD PUSH0 KECCAK256 PUSH0 DUP5 DUP2 MSTORE PUSH1 0x20 ADD SWAP1 DUP2 MSTORE PUSH1 0x20 ADD PUSH0 KECCAK256 SLOAD LT ISZERO PUSH2 0x890 JUMPI CALLER DUP3 PUSH1 0x40 MLOAD PUSH32 0x731555BD00000000000000000000000000000000000000000000000000000000 DUP2 MSTORE PUSH1 0x4 ADD PUSH2 0x887 SWAP3 SWAP2 SWAP1 PUSH2 0xE7F JUMP JUMPDEST PUSH1 0x40 MLOAD DUP1 SWAP2 SUB SWAP1 REVERT JUMPDEST DUP1 PUSH1 0x2 PUSH0 DUP7 PUSH20 0xFFFFFFFFFFFFFFFFFFFFFFFFFFFFFFFFFFFFFFFF AND PUSH20 0xFFFFFFFFFFFFFFFFFFFFFFFFFFFFFFFFFFFFFFFF AND DUP2 MSTORE PUSH1 0x20 ADD SWAP1 DUP2 MSTORE PUSH1 0x20 ADD PUSH0 KECCAK256 PUSH0 CALLER PUSH20 0xFFFFFFFFFFFFFFFFFFFFFFFFFFFFFFFFFFFFFFFF AND PUSH20 0xFFFFFFFFFFFFFFFFFFFFFFFFFFFFFFFFFFFFFFFF AND DUP2 MSTORE PUSH1 0x20 ADD SWAP1 DUP2 MSTORE PUSH1 0x20 ADD PUSH0 KECCAK256 PUSH0 DUP5 DUP2 MSTORE PUSH1 0x20 ADD SWAP1 DUP2 MSTORE PUSH1 0x20 ADD PUSH0 KECCAK256 PUSH0 DUP3 DUP3 SLOAD PUSH2 0x926 SWAP2 SWAP1 PUSH2 0xED3 JUMP JUMPDEST SWAP3 POP POP DUP2 SWAP1 SSTORE POP JUMPDEST DUP1 PUSH1 0x1 PUSH0 DUP7 PUSH20 0xFFFFFFFFFFFFFFFFFFFFFFFFFFFFFFFFFFFFFFFF AND PUSH20 0xFFFFFFFFFFFFFFFFFFFFFFFFFFFFFFFFFFFFFFFF AND DUP2 MSTORE PUSH1 0x20 ADD SWAP1 DUP2 MSTORE PUSH1 0x20 ADD PUSH0 KECCAK256 PUSH0 DUP5 DUP2 MSTORE PUSH1 0x20 ADD SWAP1 DUP2 MSTORE PUSH1 0x20 ADD PUSH0 KECCAK256 SLOAD LT ISZERO PUSH2 0x9C1 JUMPI DUP4 DUP3 PUSH1 0x40 MLOAD PUSH32 0xF6DEAA0400000000000000000000000000000000000000000000000000000000 DUP2 MSTORE PUSH1 0x4 ADD PUSH2 0x9B8 SWAP3 SWAP2 SWAP1 PUSH2 0xE7F JUMP JUMPDEST PUSH1 0x40 MLOAD DUP1 SWAP2 SUB SWAP1 REVERT JUMPDEST DUP1 PUSH1 0x1 PUSH0 DUP7 PUSH20 0xFFFFFFFFFFFFFFFFFFFFFFFFFFFFFFFFFFFFFFFF AND PUSH20 0xFFFFFFFFFFFFFFFFFFFFFFFFFFFFFFFFFFFFFFFF AND DUP2 MSTORE PUSH1 0x20 ADD SWAP1 DUP2 MSTORE PUSH1 0x20 ADD PUSH0 KECCAK256 PUSH0 DUP5 DUP2 MSTORE PUSH1 0x20 ADD SWAP1 DUP2 MSTORE PUSH1 0x20 ADD PUSH0 KECCAK256 PUSH0 DUP3 DUP3 SLOAD PUSH2 0xA1C SWAP2 SWAP1 PUSH2 0xED3 JUMP JUMPDEST SWAP3 POP POP DUP2 SWAP1 SSTORE POP DUP1 PUSH1 0x1 PUSH0 DUP6 PUSH20 0xFFFFFFFFFFFFFFFFFFFFFFFFFFFFFFFFFFFFFFFF AND PUSH20 0xFFFFFFFFFFFFFFFFFFFFFFFFFFFFFFFFFFFFFFFF AND DUP2 MSTORE PUSH1 0x20 ADD SWAP1 DUP2 MSTORE PUSH1 0x20 ADD PUSH0 KECCAK256 PUSH0 DUP5 DUP2 MSTORE PUSH1 0x20 ADD SWAP1 DUP2 MSTORE PUSH1 0x20 ADD PUSH0 KECCAK256 PUSH0 DUP3 DUP3 SLOAD PUSH2 0xA7E SWAP2 SWAP1 PUSH2 0xF06 JUMP JUMPDEST SWAP3 POP POP DUP2 SWAP1 SSTORE POP DUP2 DUP4 PUSH20 0xFFFFFFFFFFFFFFFFFFFFFFFFFFFFFFFFFFFFFFFF AND DUP6 PUSH20 0xFFFFFFFFFFFFFFFFFFFFFFFFFFFFFFFFFFFFFFFF AND PUSH32 0x9ED053BB818FF08B8353CD46F78DB1F0799F31C9E4458FDB425C10ECCD2EFC44 DUP5 PUSH1 0x40 MLOAD PUSH2 0xAE3 SWAP2 SWAP1 PUSH2 0xBCF JUMP JUMPDEST PUSH1 0x40 MLOAD DUP1 SWAP2 SUB SWAP1 LOG4 POP POP POP POP JUMP JUMPDEST PUSH0 DUP1 REVERT JUMPDEST PUSH0 PUSH20 0xFFFFFFFFFFFFFFFFFFFFFFFFFFFFFFFFFFFFFFFF DUP3 AND SWAP1 POP SWAP2 SWAP1 POP JUMP JUMPDEST PUSH0 PUSH2 0xB1E DUP3 PUSH2 0xAF5 JUMP JUMPDEST SWAP1 POP SWAP2 SWAP1 POP JUMP JUMPDEST PUSH2 0xB2E DUP2 PUSH2 0xB14 JUMP JUMPDEST DUP2 EQ PUSH2 0xB38 JUMPI PUSH0 DUP1 REVERT JUMPDEST POP JUMP JUMPDEST PUSH0 DUP2 CALLDATALOAD SWAP1 POP PUSH2 0xB49 DUP2 PUSH2 0xB25 JUMP JUMPDEST SWAP3 SWAP2 POP POP JUMP JUMPDEST PUSH0 DUP2 SWAP1 POP SWAP2 SWAP1 POP JUMP JUMPDEST PUSH2 0xB61 DUP2 PUSH2 0xB4F JUMP JUMPDEST DUP2 EQ PUSH2 0xB6B JUMPI PUSH0 DUP1 REVERT JUMPDEST POP JUMP JUMPDEST PUSH0 DUP2 CALLDATALOAD SWAP1 POP PUSH2 0xB7C DUP2 PUSH2 0xB58 JUMP JUMPDEST SWAP3 SWAP2 POP POP JUMP JUMPDEST PUSH0 DUP1 PUSH1 0x40 DUP4 DUP6 SUB SLT ISZERO PUSH2 0xB98 JUMPI PUSH2 0xB97 PUSH2 0xAF1 JUMP JUMPDEST JUMPDEST PUSH0 PUSH2 0xBA5 DUP6 DUP3 DUP7 ADD PUSH2 0xB3B JUMP JUMPDEST SWAP3 POP POP PUSH1 0x20 PUSH2 0xBB6 DUP6 DUP3 DUP7 ADD PUSH2 0xB6E JUMP JUMPDEST SWAP2 POP POP SWAP3 POP SWAP3 SWAP1 POP JUMP JUMPDEST PUSH2 0xBC9 DUP2 PUSH2 0xB4F JUMP JUMPDEST DUP3 MSTORE POP POP JUMP JUMPDEST PUSH0 PUSH1 0x20 DUP3 ADD SWAP1 POP PUSH2 0xBE2 PUSH0 DUP4 ADD DUP5 PUSH2 0xBC0 JUMP JUMPDEST SWAP3 SWAP2 POP POP JUMP JUMPDEST PUSH0 PUSH32 0xFFFFFFFF00000000000000000000000000000000000000000000000000000000 DUP3 AND SWAP1 POP SWAP2 SWAP1 POP JUMP JUMPDEST PUSH2 0xC1C DUP2 PUSH2 0xBE8 JUMP JUMPDEST DUP2 EQ PUSH2 0xC26 JUMPI PUSH0 DUP1 REVERT JUMPDEST POP JUMP JUMPDEST PUSH0 DUP2 CALLDATALOAD SWAP1 POP PUSH2 0xC37 DUP2 PUSH2 0xC13 JUMP JUMPDEST SWAP3 SWAP2 POP POP JUMP JUMPDEST PUSH0 PUSH1 0x20 DUP3 DUP5 SUB SLT ISZERO PUSH2 0xC52 JUMPI PUSH2 0xC51 PUSH2 0xAF1 JUMP JUMPDEST JUMPDEST PUSH0 PUSH2 0xC5F DUP5 DUP3 DUP6 ADD PUSH2 0xC29 JUMP JUMPDEST SWAP2 POP POP SWAP3 SWAP2 POP POP JUMP JUMPDEST PUSH0 DUP2 ISZERO ISZERO SWAP1 POP SWAP2 SWAP1 POP JUMP JUMPDEST PUSH2 0xC7C DUP2 PUSH2 0xC68 JUMP JUMPDEST DUP3 MSTORE POP POP JUMP JUMPDEST PUSH0 PUSH1 0x20 DUP3 ADD SWAP1 POP PUSH2 0xC95 PUSH0 DUP4 ADD DUP5 PUSH2 0xC73 JUMP JUMPDEST SWAP3 SWAP2 POP POP JUMP JUMPDEST PUSH0 DUP1 PUSH0 PUSH1 0x60 DUP5 DUP7 SUB SLT ISZERO PUSH2 0xCB2 JUMPI PUSH2 0xCB1 PUSH2 0xAF1 JUMP JUMPDEST JUMPDEST PUSH0 PUSH2 0xCBF DUP7 DUP3 DUP8 ADD PUSH2 0xB3B JUMP JUMPDEST SWAP4 POP POP PUSH1 0x20 PUSH2 0xCD0 DUP7 DUP3 DUP8 ADD PUSH2 0xB6E JUMP JUMPDEST SWAP3 POP POP PUSH1 0x40 PUSH2 0xCE1 DUP7 DUP3 DUP8 ADD PUSH2 0xB6E JUMP JUMPDEST SWAP2 POP POP SWAP3 POP SWAP3 POP SWAP3 JUMP JUMPDEST PUSH2 0xCF4 DUP2 PUSH2 0xC68 JUMP JUMPDEST DUP2 EQ PUSH2 0xCFE JUMPI PUSH0 DUP1 REVERT JUMPDEST POP JUMP JUMPDEST PUSH0 DUP2 CALLDATALOAD SWAP1 POP PUSH2 0xD0F DUP2 PUSH2 0xCEB JUMP JUMPDEST SWAP3 SWAP2 POP POP JUMP JUMPDEST PUSH0 DUP1 PUSH1 0x40 DUP4 DUP6 SUB SLT ISZERO PUSH2 0xD2B JUMPI PUSH2 0xD2A PUSH2 0xAF1 JUMP JUMPDEST JUMPDEST PUSH0 PUSH2 0xD38 DUP6 DUP3 DUP7 ADD PUSH2 0xB3B JUMP JUMPDEST SWAP3 POP POP PUSH1 0x20 PUSH2 0xD49 DUP6 DUP3 DUP7 ADD PUSH2 0xD01 JUMP JUMPDEST SWAP2 POP POP SWAP3 POP SWAP3 SWAP1 POP JUMP JUMPDEST PUSH0 DUP1 PUSH0 PUSH1 0x60 DUP5 DUP7 SUB SLT ISZERO PUSH2 0xD6A JUMPI PUSH2 0xD69 PUSH2 0xAF1 JUMP JUMPDEST JUMPDEST PUSH0 PUSH2 0xD77 DUP7 DUP3 DUP8 ADD PUSH2 0xB3B JUMP JUMPDEST SWAP4 POP POP PUSH1 0x20 PUSH2 0xD88 DUP7 DUP3 DUP8 ADD PUSH2 0xB3B JUMP JUMPDEST SWAP3 POP POP PUSH1 0x40 PUSH2 0xD99 DUP7 DUP3 DUP8 ADD PUSH2 0xB6E JUMP JUMPDEST SWAP2 POP POP SWAP3 POP SWAP3 POP SWAP3 JUMP JUMPDEST PUSH0 DUP1 PUSH1 0x40 DUP4 DUP6 SUB SLT ISZERO PUSH2 0xDB9 JUMPI PUSH2 0xDB8 PUSH2 0xAF1 JUMP JUMPDEST JUMPDEST PUSH0 PUSH2 0xDC6 DUP6 DUP3 DUP7 ADD PUSH2 0xB3B JUMP JUMPDEST SWAP3 POP POP PUSH1 0x20 PUSH2 0xDD7 DUP6 DUP3 DUP7 ADD PUSH2 0xB3B JUMP JUMPDEST SWAP2 POP POP SWAP3 POP SWAP3 SWAP1 POP JUMP JUMPDEST PUSH0 PUSH1 0x20 DUP3 DUP5 SUB SLT ISZERO PUSH2 0xDF6 JUMPI PUSH2 0xDF5 PUSH2 0xAF1 JUMP JUMPDEST JUMPDEST PUSH0 PUSH2 0xE03 DUP5 DUP3 DUP6 ADD PUSH2 0xB6E JUMP JUMPDEST SWAP2 POP POP SWAP3 SWAP2 POP POP JUMP JUMPDEST PUSH0 DUP1 PUSH0 DUP1 PUSH1 0x80 DUP6 DUP8 SUB SLT ISZERO PUSH2 0xE24 JUMPI PUSH2 0xE23 PUSH2 0xAF1 JUMP JUMPDEST JUMPDEST PUSH0 PUSH2 0xE31 DUP8 DUP3 DUP9 ADD PUSH2 0xB3B JUMP JUMPDEST SWAP5 POP POP PUSH1 0x20 PUSH2 0xE42 DUP8 DUP3 DUP9 ADD PUSH2 0xB3B JUMP JUMPDEST SWAP4 POP POP PUSH1 0x40 PUSH2 0xE53 DUP8 DUP3 DUP9 ADD PUSH2 0xB6E JUMP JUMPDEST SWAP3 POP POP PUSH1 0x60 PUSH2 0xE64 DUP8 DUP3 DUP9 ADD PUSH2 0xB6E JUMP JUMPDEST SWAP2 POP POP SWAP3 SWAP6 SWAP2 SWAP5 POP SWAP3 POP JUMP JUMPDEST PUSH2 0xE79 DUP2 PUSH2 0xB14 JUMP JUMPDEST DUP3 MSTORE POP POP JUMP JUMPDEST PUSH0 PUSH1 0x40 DUP3 ADD SWAP1 POP PUSH2 0xE92 PUSH0 DUP4 ADD DUP6 PUSH2 0xE70 JUMP JUMPDEST PUSH2 0xE9F PUSH1 0x20 DUP4 ADD DUP5 PUSH2 0xBC0 JUMP JUMPDEST SWAP4 SWAP3 POP POP POP JUMP JUMPDEST PUSH32 0x4E487B7100000000000000000000000000000000000000000000000000000000 PUSH0 MSTORE PUSH1 0x11 PUSH1 0x4 MSTORE PUSH1 0x24 PUSH0 REVERT JUMPDEST PUSH0 PUSH2 0xEDD DUP3 PUSH2 0xB4F JUMP JUMPDEST SWAP2 POP PUSH2 0xEE8 DUP4 PUSH2 0xB4F JUMP JUMPDEST SWAP3 POP DUP3 DUP3 SUB SWAP1 POP DUP2 DUP2 GT ISZERO PUSH2 0xF00 JUMPI PUSH2 0xEFF PUSH2 0xEA6 JUMP JUMPDEST JUMPDEST SWAP3 SWAP2 POP POP JUMP JUMPDEST PUSH0 PUSH2 0xF10 DUP3 PUSH2 0xB4F JUMP JUMPDEST SWAP2 POP PUSH2 0xF1B DUP4 PUSH2 0xB4F JUMP JUMPDEST SWAP3 POP DUP3 DUP3 ADD SWAP1 POP DUP1 DUP3 GT ISZERO PUSH2 0xF33 JUMPI PUSH2 0xF32 PUSH2 0xEA6 JUMP JUMPDEST JUMPDEST SWAP3 SWAP2 POP POP JUMP INVALID LOG2 PUSH5 0x6970667358 0x22 SLT KECCAK256 CODESIZE SWAP8 BLOCKHASH MOD 0xC5 SWAP8 0x25 KECCAK256 STATICCALL PUSH22 0xF2A577878F56A0C9274E9F2FD34035332B4EC8F24297 PUSH5 0x736F6C6343 STOP ADDMOD BYTE STOP CALLER "
				},
				"gasEstimates": {
					"creation": {
						"codeDepositCost": "790200",
						"executionCost": "823",
						"totalCost": "791023"
					},
					"external": {
						"allowance(address,address,uint256)": "infinite",
						"approve(address,uint256,uint256)": "infinite",
						"balanceOf(address,uint256)": "infinite",
						"isOperator(address,address)": "infinite",
						"setOperator(address,bool)": "infinite",
						"supportsInterface(bytes4)": "698",
						"totalSupply(uint256)": "infinite",
						"transfer(address,uint256,uint256)": "infinite",
						"transferFrom(address,address,uint256,uint256)": "infinite"
					}
				},
				"methodIdentifiers": {
					"allowance(address,address,uint256)": "598af9e7",
					"approve(address,uint256,uint256)": "426a8493",
					"balanceOf(address,uint256)": "00fdd58e",
					"isOperator(address,address)": "b6363cf2",
					"setOperator(address,bool)": "558a7297",
					"supportsInterface(bytes4)": "01ffc9a7",
					"totalSupply(uint256)": "bd85b039",
					"transfer(address,uint256,uint256)": "095bcdb6",
					"transferFrom(address,address,uint256,uint256)": "fe99049a"
				}
			},
			"storageLayout": {
				"storage": [
					{
						"astId": 423,
						"contract": "contracts/ERC6909.sol:ERC6909",
						"label": "totalSupply",
						"offset": 0,
						"slot": "0",
						"type": "t_mapping(t_uint256,t_uint256)"
					},
					{
						"astId": 430,
						"contract": "contracts/ERC6909.sol:ERC6909",
						"label": "balanceOf",
						"offset": 0,
						"slot": "1",
						"type": "t_mapping(t_address,t_mapping(t_uint256,t_uint256))"
					},
					{
						"astId": 439,
						"contract": "contracts/ERC6909.sol:ERC6909",
						"label": "allowance",
						"offset": 0,
						"slot": "2",
						"type": "t_mapping(t_address,t_mapping(t_address,t_mapping(t_uint256,t_uint256)))"
					},
					{
						"astId": 446,
						"contract": "contracts/ERC6909.sol:ERC6909",
						"label": "isOperator",
						"offset": 0,
						"slot": "3",
						"type": "t_mapping(t_address,t_mapping(t_address,t_bool))"
					}
				],
				"types": {
					"t_address": {
						"encoding": "inplace",
						"label": "address",
						"numberOfBytes": "20"
					},
					"t_bool": {
						"encoding": "inplace",
						"label": "bool",
						"numberOfBytes": "1"
					},
					"t_mapping(t_address,t_bool)": {
						"encoding": "mapping",
						"key": "t_address",
						"label": "mapping(address => bool)",
						"numberOfBytes": "32",
						"value": "t_bool"
					},
					"t_mapping(t_address,t_mapping(t_address,t_bool))": {
						"encoding": "mapping",
						"key": "t_address",
						"label": "mapping(address => mapping(address => bool))",
						"numberOfBytes": "32",
						"value": "t_mapping(t_address,t_bool)"
					},
					"t_mapping(t_address,t_mapping(t_address,t_mapping(t_uint256,t_uint256)))": {
						"encoding": "mapping",
						"key": "t_address",
						"label": "mapping(address => mapping(address => mapping(uint256 => uint256)))",
						"numberOfBytes": "32",
						"value": "t_mapping(t_address,t_mapping(t_uint256,t_uint256))"
					},
					"t_mapping(t_address,t_mapping(t_uint256,t_uint256))": {
						"encoding": "mapping",
						"key": "t_address",
						"label": "mapping(address => mapping(uint256 => uint256))",
						"numberOfBytes": "32",
						"value": "t_mapping(t_uint256,t_uint256)"
					},
					"t_mapping(t_uint256,t_uint256)": {
						"encoding": "mapping",
						"key": "t_uint256",
						"label": "mapping(uint256 => uint256)",
						"numberOfBytes": "32",
						"value": "t_uint256"
					},
					"t_uint256": {
						"encoding": "inplace",
						"label": "uint256",
						"numberOfBytes": "32"
					}
				}
			},
			"userdoc": {
				"events": {
					"Approval(address,address,uint256,uint256)": {
						"notice": "The event emitted when an approval occurs."
					},
					"OperatorSet(address,address,bool)": {
						"notice": "The event emitted when an operator is set."
					},
					"Transfer(address,address,uint256,uint256)": {
						"notice": "The event emitted when a transfer occurs."
					}
				},
				"kind": "user",
				"methods": {
					"allowance(address,address,uint256)": {
						"notice": "Spender allowance of an id."
					},
					"approve(address,uint256,uint256)": {
						"notice": "Approves an amount of an id to a spender."
					},
					"balanceOf(address,uint256)": {
						"notice": "Owner balance of an id."
					},
					"isOperator(address,address)": {
						"notice": "Checks if a spender is approved by an owner as an operator."
					},
					"setOperator(address,bool)": {
						"notice": "Sets or unsets a spender as an operator for the caller."
					},
					"supportsInterface(bytes4)": {
						"notice": "Checks if a contract implements an interface."
					},
					"totalSupply(uint256)": {
						"notice": "The total supply of each id."
					},
					"transfer(address,uint256,uint256)": {
						"notice": "Transfers an amount of an id from the caller to a receiver."
					},
					"transferFrom(address,address,uint256,uint256)": {
						"notice": "Transfers an amount of an id from a sender to a receiver."
					}
				},
				"version": 1
			}
		}
	}
}